:10000000023A84020006C2AFD2AF320235A0C2AFBC
:10001000D2AF3202000E909A75E0FEA3E0FF1242CA
:100020002B2232023EF212002E223202005675F9C5
:1000300001E4F5A8F5B8F59AF5A9F5B9F580F590BC
:10004000F5A0F5B075B750F5BCF5BDF5BE2212436D
:020050006D221F
:06005300020022C2C632C9
:03005B00023D283B
:0300630002002A6E
:10006B00023D9EC2AF12002612438C12004E124369
:07007B00EB43C902D2AF22E2
:10008300023B25909B19EEF0A3EFF0909B19E0FE45
:10009300A3E08EF0121EA000AAA00000B3A00100EE
:1000A300D0A002000000EB909A70E4F0A304F022C9
:1000B300909A70E0FEA3E064014E7009909A70F08C
:1000C300A37403F022E4909A70F0A3F022909A7044
:1000D300E0FEA3E064034E70077FAA7EA412419C56
:1000E300E4909A70F0A3F022E4909A70F0A3F022C7
:1000F800FFFF4457494E5435429B680000429B66B7
:100108000000429B6400005A99B03FC9006900642E
:10011800000086000A2D2D203A3A00000000000059
:10012800000000005A99CA3FCC01270064000086ED
:10013800000A2D2D2F3A3A000000000000000000B0
:10014800005A9A563FD001E50064000001E50064BA
:1001580002AD007D00100017181802000000603C76
:100168009A1A400040A04140401040B04150402001
:1001780040C04160403040D04170404040E0418044
:10018800405040F041904060410041A04070411013
:1001980041B04080412041C04090413041D0549A04
:1001A8000641E041F842104228424042584270421B
:1001B8008842A042B84899F70000000000000000FB
:1001C8004299FF0000429A040000429A010000414F
:1001D8009A03004199F6004299E40005498000B26B
:1001E800E2CAD4BABAD7D6006E6080094944303022
:1001F800BBD8B7E7B8DFCEC200000000000000009F
:1002080000000000000000000000000049443031F8
:10021800BBD8B7E7B5CDCEC2000000000000000093
:1002280000000000000000000000000049443032D7
:10023800BBD8B7E7B8DFCAAA00000000000000007A
:1002480000000000000000000000000049443033B6
:10025800BBD8B7E7B8DFCAAA00000000000000005A
:100268000000000000000000000000004944303495
:10027800CBCDB7E7B8DFCEC2000000000000000019
:100288000000000000000000000000004944303574
:10029800CBCDB7E7B5CDCEC200000000000000000E
:1002A8000000000000000000000000004944303653
:1002B800CBCDB7E7B8DFCAAA0000000000000000F5
:1002C8000000000000000000000000004944303732
:1002D800CBCDB7E7B5CDCAAA0000000000000000EA
:1002E8000000000000000000000000004944303811
:1002F800B1A3C1F4000000000000000000000000ED
:1003080000000000000000000000000049443039EF
:10031800C4DAB2BFCDA8D0C50000000000000000BC
:1003280000000000000000000000000049443130D7
:100338004E5443D2ECB3A3000000000000000000BC
:1003480000000000000000000000000049443131B6
:10035800B7E7BBFA31B9CAD5CF00000000000000EA
:100368000000000000000000000000004944313295
:10037800B7E7BBFA32B9CAD5CF00000000000000C9
:100388000000000000000000000000004944313374
:10039800B7E7BBFA33B9CAD5CF00000000000000A8
:1003A8000000000000000000000000004944313453
:1003B800B7E7BBFA34B9CAD5CF0000000000000087
:1003C8000000000000000000000000004944313532
:1003D800B7E7BBFA35B9CAD5CF0000000000000066
:1003E8000000000000000000000000004944313611
:1003F800CDE2B7E7BBFAB9CAD5CF000000000000CC
:1004080000000000000000000000000049443137EF
:10041800B7E7BBFA31D4CBD0D0B3ACCAB100000037
:1004280000000000000000000000000049443138CE
:10043800B7E7BBFA32D4CBD0D0B3ACCAB100000016
:1004480000000000000000000000000049443139AD
:10045800B7E7BBFA33D4CBD0D0B3ACCAB1000000F5
:100468000000000000000000000000004944323095
:10047800B7E7BBFA34D4CBD0D0B3ACCAB1000000D4
:100488000000000000000000000000004944323174
:10049800B7E7BBFA35D4CBD0D0B3ACCAB1000000B3
:1004A8000000000000000000000000004944323253
:1004B800CDE2B7E7BBFAD4CBD0D0B3ACCAB1000019
:1004C8000000000000000000000000004944323332
:1004D800B8DFD1B931B8E6BEAF00000000000000B7
:1004E8000000000000000000000000004944323411
:1004F800B8DFD1B931CBF8CBC00000000000000054
:1005080000000000000000000000000049443235EF
:10051800B5CDD1B931B8E6BEAF000000000000008B
:1005280000000000000000000000000049443236CE
:10053800B5CDD1B931CBF8CBC00000000000000028
:1005480000000000000000000000000049443237AD
:10055800C5C5C6F8CEC2B6C831B8E6BEAF00000001
:10056800000000000000000000000000494432388C
:10057800C5C5C6F8CEC2B6C831CBF8CBC00000009E
:10058800000000000000000000000000494432396B
:10059800B6CCD6DCC6DA31B8E6BEAF000000000043
:1005A8000000000000000000000000004944333053
:1005B800D1B9BBFA31D4CBD0D0B3ACCAB1000000AA
:1005C8000000000000000000000000004944333132
:1005D800B8DFD1B932B8E6BEAF00000000000000B5
:1005E8000000000000000000000000004944333211
:1005F800B8DFD1B932CBF8CBC00000000000000052
:1006080000000000000000000000000049443333EF
:10061800B5CDD1B9D1B9C1A6B8E6BEAF00000000CA
:1006280000000000000000000000000049443334CE
:10063800B5CDD1B932CBF8CBC00000000000000026
:1006480000000000000000000000000049443335AD
:10065800C5C5C6F8CEC2B6C832B8E6BEAF000000FF
:10066800000000000000000000000000494433368C
:10067800C5C5C6F8CEC2B6C832CBF8CBC00000009C
:10068800000000000000000000000000494433376B
:10069800B6CCD6DCC6DA32B8E6BEAF000000000041
:1006A800000000000000000000000000494433384A
:1006B800D1B9BBFA32D4CBD0D0B3ACCAB1000000A8
:1006C8000000000000000000000000004944333929
:1006D800BCD3CAAAC6F7B5E7C1F7B9FDB4F30000A1
:1006E8000000000000000000000000004944343011
:1006F800BCD3CAAAC6F7B8DFCBAECEBB0000000099
:1007080000000000000000000000000049443431EF
:10071800BCD3CAAAC6F7C8B1CBAE0000000000001F
:1007280000000000000000000000000049443432CE
:10073800BCD3CAAAC6F7D4CBD0D0B3ACCAB10000D8
:1007480000000000000000000000000049443433AD
:10075800BCD3C8C8C6F7B8E6BEAF000000000000AA
:10076800000000000000000000000000494434348C
:10077800BCD3C8C8C6F731B3ACCAB100000000008A
:10078800000000000000000000000000494434356B
:10079800BCD3C8C8C6F732B3ACCAB1000000000069
:1007A800000000000000000000000000494434364A
:1007B800B6CFB5E7D6D8C6F40000000000000000A8
:1007C8000000000000000000000000004944343729
:1007D800B5E7D4B4CFE0D0F2B4EDCEF3000000001A
:1007E8000000000000000000000000004944343808
:1007F800B5E7D4B4C6B5C2CAC6ABB8DF00000000BE
:1008080000000000000000000000000049443439E6
:10081800B5E7D4B4C6B5C2CAC6ABB5CD00000000B2
:1008280000000000000000000000000049443530CE
:1008380041CFE0B9FDD1B900000000000000000080
:1008480000000000000000000000000049443531AD
:1008580042CFE0B9FDD1B90000000000000000005F
:10086800000000000000000000000000494435328C
:1008780043CFE0B9FDD1B92000000000000000001E
:10088800000000000000000000000000494435336B
:1008980041CFE0C7B7D1B900000000000000000058
:1008A800000000000000000000000000494435344A
:1008B80042CFE0C7B7D1B900000000000000000037
:1008C8000000000000000000000000004944353529
:1008D80043CFE0C7B7D1B900000000000000000016
:1008E8000000000000000000000000004944353608
:1008F80041CFE0C8B1CFE0000000000000000000D8
:1009080000000000000000000000000049443537E6
:1009180042CFE0C8B1CFE0000000000000000000B6
:1009280000000000000000000000000049443538C5
:1009380043CFE0C8B1CFE000000000000000000095
:1009480000000000000000000000000049443539A4
:10095800C6F8C1F7B6AACAA7B8E6BEAF000000003D
:10096800000000000000000000000000494436308C
:10097800B9FDC2CBCDF8D4CBD0D0B3ACCAB100004E
:10098800000000000000000000000000494436316B
:10099800B9FDC2CBCDF8B6C2B8E6BEAF00000000C4
:1009A800000000000000000000000000494436324A
:1009B800D4B6B3CCB9D8BBFAB8E6BEAF00000000D5
:1009C8000000000000000000000000004944363329
:1009D800D2E7CBAEB8E6BEAF0000000000000000D2
:1009E8000000000000000000000000004944363408
:1009F800C8BABFD8CDA8D0C5D2ECB3A300000000B8
:100A080000000000000000000000000049443635E6
:100A1800B1E4C6B5C6F7B9CAD5CF000000000000DA
:100A280000000000000000000000000049443636C5
:100A3800D7A2CBAEB5E7B5BCC2CAB8DF000000008C
:100A480000000000000000000000000049443637A4
:100A5800D7A2CBAEB5E7B5BCC2CAB5CD0000000081
:100A68000000000000000000000000004944363883
:100A7800D1CCCEEDB8E6BEAF00000000000000000B
:100A88000000000000000000000000004944363962
:100A9800D3C3BBA7D7D4B6A8D2E5B8E6BEAF00008B
:100AA800000000000000000000000000494437304A
:100AB800B5E7D4B4D2ECB3A30000000000000000F6
:100AC8000000000000000000000000004944373129
:100AD800C8EBCBAEB8DFCEC20000000000000000BB
:100AE8000000000000000000000000004944373208
:100AF800CBAEB7A7B9CAD5CF0000000000000000F0
:100B080000000000000000000000000049443733E6
:100B1800C5CCB9DCB6CFC1F7B8E6BEAF000000005F
:100B280000000000000000000000000049443734C5
:100B3800B7E7BBFA36B9CAD5CF00000000000000FD
:100B480000000000000000000000000049443735A4
:100B5800B7E7BBFA37B9CAD5CF00000000000000DC
:100B68000000000000000000000000004944373683
:100B7800B7E7BBFA38B9CAD5CF00000000000000BB
:100B88000000000000000000000000004944373762
:100B9800B7E7BBFA36B3ACCAB100000000000000EA
:100BA8000000000000000000000000004944373841
:100BB800B7E7BBFA37B3ACCAB100000000000000C9
:100BC8000000000000000000000000004944373920
:100BD800B7E7BBFA38B3ACCAB100000000000000A8
:100BE8000000000000000000000000004944383008
:100BF800C5C5CBAEB8DFCBAECEBB00000000000051
:100C080000000000000000000000000049443831E6
:100C1800BCD3CAAAC6F7D2ECB3A3000000000000F8
:100C280000000000000000000000000049443832C5
:100C3800B7E7D1B9B9FDB5CD00000000000000004C
:100C480000000000000000000000000049443833A4
:100C5800BAECCDE2BCD3CAAAB9FDC8C800000000EE
:100C68000000000000000000000000004944383483
:100C7800D1B9BBFA31B8DFD1B900000000000000DB
:100C88000000000000000000000000004944383562
:100C9800B7E7BBFAB5E7C1F7B9FDB4F30000000048
:100CA8000000000000000000000000004944383641
:100CB800B8A8C2B7C8EBCBAEB8DFCEC20000000000
:100CC8000000000000000000000000004944383720
:100CD800454556B8E6BEAF00000000000000000021
:100CE80000000000000000000000000049443838FF
:100CF800BDD3CBAEC5CCD2E7CBAE00000000000020
:100D080000000000000000000000000049443839DD
:100D1800C5C5C6F8B8DFCEC200000000000000005C
:100D280000000000000000000000000049443930C5
:100D3800C9E8B1B8CAB9D3C3B3ACCAB1000000009E
:100D480000000000000000000000000049443931A4
:100D5800B1A3C1F400000000000000000000000082
:100D68000000000000000000000000004944393283
:100D7800B1A3C1F400000000000000000000000062
:100D88000000000000000000000000004944393362
:100D9800B1A3C1F400000000000000000000000042
:100DA8000000000000000000000000004944393441
:100DB800B1A3C1F400000000000000000000000022
:100DC8000000000000000000000000004944393520
:100DD800B1A3C1F400000000000000000000000002
:100DE80000000000000000000000000049443936FF
:100DF800B1A3C1F4000000000000000000000000E2
:100E080000000000000000000000000049443937DD
:100E1800BBD8B7E7CEC2CAAAB6C8B4ABB8D0C6F773
:100E280000000000000000000000000049443938BC
:100E3800CBCDB7E7CEC2CAAAB6C8B4ABB8D0C6F74E
:100E4800000000000000000000000000494439399B
:100E5800BCD3CAAAB0E5D2ECB3A3000000000000DE
:100E6800000000000000000000000000494431308C
:100E780030C6C1C4BBD2D1CBF8B6A8000000000070
:100E8800000000000000000000000000494431306C
:100E980031D2BBCCECBDABCBF8B6A800000000004B
:100EA800000000000000000000000000494431304C
:100EB80032C8FDCCECBDABCBF8B6A80000000000F2
:100EC800000000000000000000000000494431302C
:100ED80033C6DFCCECBDABCBF8B6A80000000000F1
:100EE800000000000000000000000000494431300C
:100EF80034CAAECEE5CCECBDABCBF8B6A80000004A
:100F080000000000000000000000000049443130EB
:100F180035C8FDCAAECCECBDABCBF8B6A800000016
:100F280000000000000000000000000049443130CB
:100F380036B5E7D4B432CFE0D0F2B4ED000000000B
:100F480000000000000000000000000049443130AB
:100F580037B5E7D4B432C6B5C2CAB8DF000000005E
:100F6800000000000000000000000000494431308B
:100F780038B5E7D4B432C6B5C2CAB5CD0000000052
:100F8800000000000000000000000000494431306B
:100F980039B5E7D4B43241CFE0B9FDD1B90000008A
:100FA800000000000000000000000000494431314A
:100FB80030B5E7D4B43242CFE0B9FDD1B900000072
:100FC800000000000000000000000000494431312A
:100FD80031B5E7D4B43243CFE0B9FDD1B900000050
:100FE800000000000000000000000000494431310A
:100FF80032B5E7D4B43241CFE0C7B7D1B900000069
:1010080000000000000000000000000049443131E9
:1010180033B5E7D4B43242CFE0C7B7D1B900000046
:1010280000000000000000000000000049443131C9
:1010380034B5E7D4B43243CFE0C7B7D1B900000024
:101048000000000000000000000000004198A80017
:101058004198A9004298AA00004298AC0000429822
:10106800AE0000429B540000429B560000429B5237
:101078000000449B6000000000429B580000449B15
:101088005A0000000002080000040B0000000042A3
:101098009B5E0000010A006100962800C1814001A2
:1010A800C0804101C0804100C1814001C080410031
:1010B800C1814000C1814001C0804101C080410020
:1010C800C1814000C1814001C0804100C18140010F
:1010D800C0804101C0804100C1814001C080410001
:1010E800C1814000C1814001C0804100C1814001EF
:1010F800C0804101C0804100C1814000C1814001E0
:10110800C0804101C0804100C1814001C0804100D0
:10111800C1814000C1814001C0804101C0804100BF
:10112800C1814000C1814001C0804100C1814001AE
:10113800C0804101C0804100C1814000C18140019F
:10114800C0804101C0804100C1814001C080410090
:10115800C1814000C1814001C0804100C18140017E
:10116800C0804101C0804100C1814001C080410070
:10117800C1814000C1814001C0804101C08041005F
:10118800C1814000C1814001C0804100C18140014E
:10119800C0804101C0804100C181406100972800A2
:1011A800C0C101C30302C2C60607C705C5C404CC33
:1011B8000C0DCD0FCFCE0E0ACACB0BC90908C8D863
:1011C8001819D91BDBDA1A1EDEDF1FDD1D1CDC1423
:1011D800D4D515D71716D6D21213D311D1D010F0F3
:1011E8003031F133F3F23236F6F737F53534F43C73
:1011F800FCFD3DFF3F3EFEFA3A3BFB39F9F8382843
:10120800E8E929EB2B2AEAEE2E2FEF2DEDEC2CE462
:101218002425E527E7E62622E2E323E12120E0A0D2
:101228006061A163A3A26266A6A767A56564A46CB2
:10123800ACAD6DAF6F6EAEAA6A6BAB69A9A86878E2
:10124800B8B979BB7B7ABABE7E7FBF7DBDBC7CB4A2
:101258007475B577B7B67672B2B373B17170B050B2
:101268009091519353529296565797559594549CF2
:101278005C5D9D5F9F9E5E5A9A9B5B9959589888C2
:101288004849894B8B8A4A4E8E8F4F8D4D4C8C44E2
:101298008485458747468682424383418180404111
:1012A80095A3004190000044962400000000418F5F
:1012B800FB00448FFC000000006594900F5A020365
:1012C80001C8010000A020004B00FF5A020302C819
:1012D800010000A02101F600FF5A020302C8010024
:1012E80000A02301F900FF5A020302C8010000A070
:1012F8002501FF00FF5A020301C8010000A02700D2
:101308006400FF5A020301C8010000A028006D0014
:10131800FF5A020301C8010000A029007200FF5A09
:10132800020601C802A08AA02A006E00FF5A02061F
:1013380001C802A08BA02B006F00FF5A020301C84E
:1013480001000BAB20020100FF5A020301C8010093
:101358000BAB21020300FF5A020301C801000BABCB
:1013680022020200FF5A020303C801000BAB23024A
:101378000A00FF5A020301C801000CAC2000AB00B0
:10138800FF5A020309C801000CAC2101F600FF5AFC
:10139800020301C801000CAC2A020600FF5A02032E
:1013A80004C801000CAC2B021300FF5A020301C849
:1013B80001000DAD2001F600FF5A020301C801002B
:1013C8000DAD2101FB00FF5A020301C801000DAD5C
:1013D80022021700FF5A020301C801000DAD2302C3
:1013E8001A00FF5A020305C803AE00AE20006400CD
:1013F8000E5A020301C803AE00AE250094000E5A2F
:10140800020302C803AE00AE2600A1000E5A020372
:1014180002C803AE00AE2800B6000E5A020601C884
:1014280003AE80AE200064000E5A020601C803AE67
:1014380081AE210065000E5A020601C803AE82AED5
:10144800220066000E5A020601C803AE83AE2300CE
:1014580067000E5A020601C803AE84AE2400680075
:101468000E5A020601C803AE85AE250094000E5A36
:10147800020601C803AE86AE2600A1000E5A020677
:1014880001C803AE87AE2700A2000E5A020601C8A3
:1014980003AE88AE2800B6000E5A020601C803AE95
:1014A80089AE2900B7000E5A020301C803AF00AF86
:1014B800200048000F5A020301C803AF00AF210003
:1014C8004B000F5A020302C803AF00AF22006900A5
:1014D8000F5A020301C803AF00AF240072000F5A6D
:1014E800020303C803AF00AF250096000F5A02039A
:1014F80002C803AF00AF28009E000F5A020601C8B9
:1015080003AF80AF200048000F5A020601C803AF9E
:1015180081AF21004B000F5A020601C803AF82AF0A
:10152800220069000F5A020601C803AF83AF2300E7
:101538006A000F5A020601C803AF84AF2400720084
:101548000F5A020601C803AF85AF250096000F5A4F
:10155800020601C803AF86AF260097000F5A02069D
:1015680001C803AF87AF270098000F5A020601C8C9
:1015780003AF88AF28009E000F5A020601C803AFC8
:1015880089AF29009F000F5A020301C803B000B0B9
:1015980020007100105A020301C803B000B02100F6
:1015A8007F00105A020301C803B000B02200810076
:1015B800105A020302C803B000B023009B00105A5F
:1015C800020301C803B000B02500A000105A0203AE
:1015D80002C803B000B02600B900105A020301C8BF
:1015E80003B000B02800BD00105A020301C803B0C0
:1015F80000B02900C200105A020601C803B080B02A
:1016080020007100105A020601C803B081B0210001
:101618007F00105A020601C803B082B02200810080
:10162800105A020601C803B083B023009B00105A69
:10163800020601C803B084B024009C00105A0206B8
:1016480001C803B085B02500A000105A020601C8E1
:1016580003B086B02600B900105A020601C803B0CC
:1016680087B02700BA00105A020601C803B088B034
:101678002800BD00105A020601C803B089B029002D
:10168800C200105A020302C803B100B120006B0067
:10169800115A020302C803B100B122007400115AA2
:1016A800020301C803B100B124007700115A0203F4
:1016B80002C803B100B12500A700115A020301C8EE
:1016C80003B100B12700AA00115A020303C803B1ED
:1016D80000B12800AC00115A020601C803B180B15C
:1016E80020006B00115A020601C803B181B1210024
:1016F8006C00115A020601C803B182B122007400BD
:10170800115A020601C803B183B123007500115AAA
:10171800020601C803B184B124007700115A0206F9
:1017280001C803B185B12500A700115A020601C8F6
:1017380003B186B12600A800115A020601C803B1F8
:1017480087B12700AA00115A020601C803B188B15F
:101758002800AC00115A020601C803B189B129005A
:10176800AD00115A020601C803B18AB12A00AE00C1
:10177800115A020601C803B380B320008200135A2D
:10178800020302C8010013B321020800FF5A020332
:1017980001C8010013B323021100FF5A020301C854
:1017A800010013B324020D00FF5A020308C803B452
:1017B80000B420008B00145A020601C803B480B498
:1017C80020008B00145A020601C803B481B421001A
:1017D8008C00145A020601C803B482B422008D009A
:1017E800145A020601C803B483B423008E00145AA5
:1017F800020601C803B484B424008F00145A0206F8
:1018080001C803B485B425009000145A020601C823
:1018180003B486B426009100145A020601C803B422
:1018280087B427009200145A020301C803B500B513
:1018380020007200155A020601C803B580B52000C1
:101848007200155A020601C803B581B5210083004C
:10185800154E90010000000000000000000000008C
:101868000000418E6A0061908E6B5A0EAE20AE5019
:10187800AE805A0EAE21AE51AE815A0EAE22AE5295
:10188800AE825A0EAE23AE53AE835A0EAE24AE5479
:10189800AE845A0EAE25AE55AE855A0EAE26AE565D
:1018A800AE865A0EAE27AE57AE875A0EAE28AE5841
:1018B800AE885A0EAE29AE59AE895A0FAF20AF5036
:1018C800AF805A0FAF21AF51AF815A0FAF22AF523D
:1018D800AF825A0FAF23AF53AF835A0FAF24AF5421
:1018E800AF845A0FAF25AF55AF855A0FAF26AF5605
:1018F800AF865A0FAF27AF57AF875A0FAF28AF58E9
:10190800AF885A0FAF29AF59AF895A10B020B050DD
:10191800B0805A10B021B051B0815A10B022B052E4
:10192800B0825A10B023B053B0835A10B024B054C8
:10193800B0845A10B025B055B0855A10B026B056AC
:10194800B0865A10B027B057B0875A10B028B05890
:10195800B0885A10B029B059B0895A11B120B15085
:10196800B1805A11B121B151B1815A11B122B1528C
:10197800B1825A11B123B153B1835A11B124B15470
:10198800B1845A11B125B155B1855A11B126B15654
:10199800B1865A11B127B157B1875A11B128B15838
:1019A800B1885A11B129B159B1895A11B12AB15A1C
:1019B800B18A5A14B420B450B4805A14B421B45122
:1019C800B4815A14B422B452B4825A14B423B4530E
:1019D800B4835A14B424B454B4845A14B425B455F2
:1019E800B4855A14B426B456B4865A14B427B457D6
:1019F800B4875A15B520B550B580418E6900589AFC
:101A0800FF000000000000000000000000000000CF
:101A1800000000000000000000589ADF00000000ED
:101A28000001B2070000000200027360000A2D08DE
:101A38000007ED65419ADBFF60649A7700000100BA
:101A48000200030004000500060007000800090062
:101A58000A010B000C000D000E000F011000110010
:101A680012021300140015001600170018001900C0
:101A78001A001B021C001D001E001F002000210070
:101A88002200230024002500260227002800290020
:101A98002A002B002C002D002E002F0330003100CF
:101AA800489AF70001010302030305429ADD00008A
:101AB800429A750000429A720000419A7400429A54
:101AC80070000000E709F608DFFA8046E709F20827
:101AD800DFFA803E88828C83E709F0A3DFFA803240
:101AE800E309F608DFFA8078E309F208DFFA807084
:101AF80088828C83E309F0A3DFFA806489828A8371
:101B0800E0A3F608DFFA805889828A83E0A3F20806
:101B1800DFFA804C80D280FA80C680D4806980F257
:101B28008033801080A680EA809A80A880DA80E2DC
:101B380080CA803389828A83ECFAE493A3C8C58279
:101B4800C8CCC583CCF0A3C8C582C8CCC583CCDFBC
:101B5800E9DEE7800D89828A83E493A3F608DFF93A
:101B6800ECFAA9F0EDFB2289828A83ECFAE0A3C89B
:101B7800C582C8CCC583CCF0A3C8C582C8CCC583F0
:101B8800CCDFEADEE880DB89828A83E493A3F2086B
:101B9800DFF980CC88F0EF60010E4E60C388F0ED6D
:101BA8002402B4040050B9F582EB2402B4040050B6
:101BB800AF2323458223901B1C73BB010689828AAD
:101BC80083E0225002E722BBFE02E32289828A8355
:101BD800E49322BB010CE58229F582E5833AF5837B
:101BE800E0225006E92582F8E622BBFE06E92582B6
:101BF800F8E222E58229F582E5833AF583E4932227
:101C0800BB010689828A83F0225002F722BBFE01BB
:101C1800F322EF8DF0A4A8F0CF8CF0A428CE8DF09D
:101C2800A42EFE22C5F0F8A3E028F0C5F0F8E5825E
:101C3800158270021583E038F022A3F8E0C5F0257C
:101C4800F0F0E582158270021583E0C838F0E822CA
:101C5800BB010A89828A83E0F5F0A3E02250068757
:101C6800F009E71922BBFE07E3F5F009E319228919
:101C7800828A83E493F5F074019322BB0110E58214
:101C880029F582E5833AF583E0F5F0A3E0225009CF
:101C9800E92582F886F008E622BBFE0AE92582F8E3
:101CA800E2F5F008E222E5832AF583E993F5F0A34B
:101CB800E99322BB010A89828A83F0E5F0A3F02226
:101CC8005006F709A7F01922BBFE06F3E5F009F361
:101CD8001922EF2BFFEE3AFEED39FDEC38FC2275A8
:101CE800F008758200EF2FFFEE33FECD33CDCC33F5
:101CF800CCC58233C5829BED9AEC99E58298400C5D
:101D0800F582EE9BFEED9AFDEC99FC0FD5F0D6E43A
:101D1800CEFBE4CDFAE4CCF9A88222B800C1B90020
:101D280059BA002DEC8BF084CFCECDFCE5F0CBF981
:101D38007818EF2FFFEE33FEED33FDEC33FCEB3379
:101D4800FB10D703994004EB99FB0FD8E5E4F9FAA7
:101D5800227818EF2FFFEE33FEED33FDEC33FCC98C
:101D680033C910D7059BE99A4007EC9BFCE99AF91F
:101D78000FD8E0E4C9FAE4CCFB2275F010EF2FFF8E
:101D8800EE33FEED33FDCC33CCC833C810D7079BF8
:101D9800EC9AE899400AED9BFDEC9AFCE899F80F5B
:101DA800D5F0DAE4CDFBE4CCFAE4C8F922EB9FF5F0
:101DB800F0EA9E42F0E99D42F0EC6480C8648098A5
:101DC80045F022EB9FF5F0EA9E42F0E99D42F0E8EB
:101DD8009C45F022E86010ECA2E713FCED13FDEE41
:101DE80013FEEF13FFD8F022E0FCA3E0FDA3E0FE12
:101DF800A3E0FF22E0F8A3E0F9A3E0FAA3E0FB22C6
:101E0800ECF0A3EDF0A3EEF0A3EFF022A882858317
:101E1800F0D083D082121E2B121E2B121E2B121EE4
:101E28002BE473E493A3C583C5F0C583C8C582C8F2
:101E3800F0A3C583C5F0C583C8C582C822A425827E
:101E4800F582E5F03583F58322E0FBA3E0FAA3E011
:101E5800F922F8E0FBA3A3E0F925F0F0E58215826A
:101E680070021583E0FA38F022EBF0A3EAF0A3E958
:101E7800F022D083D082F8E4937012740193700D2D
:101E8800A3A393F8740193F5828883E4737402938F
:101E98006860EFA3A3A380DFD083D082F8E49370B7
:101EA80012740193700DA3A393F8740193F58288BB
:101EB80083E473740293B5F0067403936860E9A32E
:101EC800A3A3A380D8E3F5F009E208B5F06BDFF52A
:101ED8008067E3F5F009E608B5F05EDFF5805A871C
:101EE800F009E608B5F052DFF6804E87F009E208FF
:101EF800B5F046DFF6804288828C8387F009E0A33C
:101F0800B5F036DFF6803288828C8387F009E49357
:101F1800A3B5F025DFF5802188828C83E3F5F009ED
:101F2800E0A3B5F014DFF5801088828C83E3F5F028
:101F380009E493A3B5F002DFF4021FFC808780E96F
:101F4800809080D4803E8015806E807E809D80B792
:101F5800808D80A380518074803C02200889828A09
:101F680083ECFAE493F5F0A3C8C582C8CCC583CC4A
:101F7800E493A3C8C582C8CCC583CCB5F076DFE3AB
:101F8800DEE1807089828A83E493F5F0A3E208B5E4
:101F9800F062DFF4805E89828A83E0F5F0A3E608C8
:101FA800B5F051DFF5804D89828A83E0F5F0A3E230
:101FB80008B5F040DFF5803C89828A83E493F5F028
:101FC800A3E608B5F02EDFF4802A800280578982C4
:101FD8008A83ECFAE493F5F0A3C8C582C8CCC5831C
:101FE800CCE0A3C8C582C8CCC583CCB5F006DFE475
:101FF800DEE280007FFFB5F0020F2240027F01225F
:1020080089828A83ECFAE0F5F0A3C8C582C8CCC5FA
:1020180083CCE0A3C8C582C8CCC583CCB5F0D5DFD6
:10202800E5DEE380CF89828A83ECFAE0F5F0A3C885
:10203800C582C8CCC583CCE493A3C8C582C8CCC527
:1020480083CCB5F0AFDFE4DEE280A988F0EF600171
:102058000E4E60ABED2402B404005098F582EB24D8
:1020680002B40400508E2323458223901F4473EF4B
:102078004E6012EF60010EEDBB010B89828A83F07E
:10208800A3DFFCDEFA2289F05007F709DFFCA9F08C
:1020980022BBFEFCF309DFFCA9F022F8BB010DE529
:1020A8008229F582E5833AF583E8F0225006E9258E
:1020B80082C8F622BBFE05E92582C8F2227BFF7A98
:1020C80044792C78337C9B7D017E007F0C121B9C0D
:1020D800E4909B41F07B017A9B791F909B4BF0A386
:1020E800740AF07F207EA0122681909B23E0A3E053
:1020F80020E36A909B29E4F0A304F0909B1FE0A3DF
:10210800E030E63B909B23E0A3E020E628909B2963
:10211800E4F0A37402F0909B23E0A3E020E40B908A
:102128009B29E4F0A37403F0803A909B29E4F0A380
:102138007402F0802F909B29E4F0A304F08025908E
:102148009B23E0A3E020E40B909B29E4F0A3740315
:10215800F08011909B29E4F0A304F08007E4909BA1
:1021680029F0A3F07B017A9B7929909B4BE4F0A39B
:102178007402F074A0FFFE1228EE909B25E0FEA3E7
:10218800E0EE30E61E909B25A3E0EE30E70B909B37
:1021980029E4F0A37406F0805D909B29E4F0A30481
:1021A800F08053909B25E0FEA3E0EE30E70B909B78
:1021B80029E4F0A37402F0803D909B27E0A3E0306F
:1021C800E009A3E4F0A37403F0802B909B27E0A31D
:1021D800E030E109A3E4F0A37404F08019909B2790
:1021E800E0A3E030E209A3E4F0A37405F08007E47B
:1021F800909B29F0A3F07B017A9B7929909B4BE473
:10220800F0A37402F07FA17EA01228EE909B25E037
:10221800FEA3E0FFEE541F909B25F0A3EFF0E4909F
:102228009B3FF0909B3FE0C39402748094804003EE
:102238000222D6E4A3F0909B40E0C39410748094EB
:10224800805075E0FF7E007401A807088005C3333D
:10225800CE33CED8F9FF909B3FE025E02425F582C8
:10226800E4349BF583E0FCA3E0FDEE5CFEEF5D4EFD
:102278006030909B40E02401FDE433FC909B3FE0FC
:1022880075F010A42DFFE5F03CFE909B41E0FD04A5
:10229800F0ED25E02433F582E4349BF583EEF0A3DA
:1022A800EFF0909B41E0C3940674809480500990AD
:1022B8009B40E004F002223E909B41E0C3940674E8
:1022C8008094805009909B3FE004F002222B7B0110
:1022D8007A9B7933909B4BE4F0A3740AF07FA27E3B
:1022E800A01228EE7B017A9B792B909B4BE4F0A3FC
:1022F8007406F07F277EA0122681909B2DE0FEA316
:10230800E064014E7008909B31F0A3F08026909B0A
:102318002DE0FEA3E04E701C909B21E0A3E020E29C
:102328000A909B31E4F0A304F08009909B31E4F01B
:10233800A37402F0909B23E0A3E030E31D909B2B55
:10234800E0FEA3E04E700A909B31F0A37404F08085
:1023580009909B31E4F0A37403F0909B2FE0FEA357
:10236800E064014E7008A3F0A37405F0803A909BD6
:102378002FE0FEA3E064024E7008A3F0A37406F0F9
:102388008026909B2FE0FEA3E064034E7008A3F024
:10239800A37407F08012909B2FE0FEA3E064044E24
:1023A8007006A3F0A37408F07B017A9B7931909BA7
:1023B8004BE4F0A37402F07FA77EA01228EE2290CF
:1023C8009B1C121E71909B1FECF0A3EDF0E4A3F090
:1023D800A3F0909B1FE0FEA3E0FFA3E0FCA3E0C3F3
:1023E8009FEC9E500C909B21E475F001121C2C80F0
:1023F800E1909B1FE0FEA3E0C39405EE9400500318
:10240800022680E4A3F0A3F0909B1C121E51909B1F
:1024180021E0FEA3E0F5828E83121BDB64026003D9
:1024280002265A909B1C121E51909B21E0A3E02982
:10243800F9EA3EFA900001121BDB121E7A244F03C0
:1024480025A3060000265A909B1C121E51909B2122
:10245800E0FEA3E029F9EA3EFA900002121BDBFF36
:10246800909B25E4F0A3EFF0909B21E0A3E0FF9080
:102478009B25E0FCA3E02FFFEC3EFEEF2405FFE4E4
:102488003EFE909B1FE0FCA3E0FDD3EF9DEE9C4039
:1024980011909B1FE0FEA3E0FFA3EEF0A3EFF00274
:1024A800265A909B1C121E51909B21E0FEA3E02906
:1024B800F9EA3EFA909B25E0FEA3E02403FDE43E02
:1024C800FC123CAD909B23EEF0A3EFF0909B1C1206
:1024D8001E51909B21E0FEA3E029F9EA3EFA909B69
:1024E80025E0FEA3E029F9EA3EFA900003121BDB7F
:1024F800FD909B23E0FEA3E0EE6D7001E460030213
:10250800265A909B1C121E51909B21E0FEA3E029A5
:10251800F9EA3EFA909B25E0FEA3E029F9EA3EFAA3
:10252800900004121BDBFF909B23E0A3E06F700177
:10253800E4600302265A909009E0FEA3E0FF909B16
:102548001C121E51E92403F9E43AFAC003C002C080
:1025580001909B1C121E51900002121BDBFD909BE8
:102568004BE4F0A3EDF0D001D002D0031228EE7EA8
:10257800007F0E7D007B017A907901122077909B75
:1025880025E0FEA3E02405FFE43E909B21F0A3EFA5
:10259800F0908E69E04402F002265A909B21E0FEFA
:1025A800A3E02408FFE43EFE909B1FE0FCA3E0FDAF
:1025B800D3EF9DEE9C4011909B1FE0FEA3E0FFA38C
:1025C800EEF0A3EFF002265A909B1C121E51909B2E
:1025D80021E0FEA3E029F9EA3EFA7D067C00123CE0
:1025E800AD909B23EEF0A3EFF0909B1C121E519030
:1025F8009B21E0FEA3E029F9EA3EFA900006121BAF
:10260800DBFD909B23E0FEA3E0EE6D7001E47042D9
:10261800909B1C121E51909B21E0FEA3E029F9EA31
:102628003EFA900007121BDBFF909B23E0A3E0B566
:102638000720E4909B2175F008121C2C7E007F0E69
:102648007D007B017A907901122077908E69E044B1
:1026580002F0909B21E475F001121C2C909B1FE066
:10266800FEA3E024FBFFEE34FFFEA3E0FCA3E0C3DF
:102678009FEC9E500302241022909B46EEF0A3EF9D
:10268800F0A3121E717B007A007900C003C002C05B
:1026980001909B48121E51D082D083D0E06B700805
:1026A800E965827003EA658370030228ED909B4B0D
:1026B800E0FEA3E04E70030228ED909B4BE0A3E000
:1026C800FFEEC313FEEF13FF909B46E0FCA3E02F41
:1026D800FFEE3CFED3EF94FEEE94FF40030228ED9C
:1026E800C2AF909B46E0A3E05401909B4DF0909BB5
:1026F80046E0FEA3E0FFEEC313FEEF13FF909B46F8
:10270800EEF0A3EFF0909B46E0FEA3E07810CEC376
:1027180013CE13D8F9F5F1909B46E0FEA3E0EEF551
:10272800F2909B46E0A3E0F5F3E4F5F875F401D2E6
:10273800FF30FCFDD2FD909B4DE064017072909BD0
:102748004BE0FEA3E064014E700AC2FBC2FAD2F964
:10275800C2F88008C2FBC2FAD2F9D2F8D2FE20FE33
:10276800FD909B4BE0FEA3E064014E701A909B48DD
:1027780075F001121E5AE5FC121C08909B4B74FF61
:10278800F5F0121C2C8029909B48E475F001121E6C
:102798005AE5FC121C08909B48E475F001121E5A79
:1027A800E5FD121C08909B4B74FF75F0FE121C2C63
:1027B800909B4BE0FEA3E04E70030228E8909B4BF1
:1027C800E0A3E0C39404EE94004003022891909B98
:1027D8004BE0A3E08EF0121EA02805000127FB00A5
:1027E8000227F100030000280DD2FBD2FAD2F9C269
:1027F800F88012D2FBD2FAC2F9C2F88008D2FBC222
:10280800FAC2F9C2F8D2FE20FEFD909B4BE0FEA36F
:10281800E08EF0121EA0287E0001285E0002282EFD
:102828000003000028E8909B48E475F001121E5A46
:10283800E5FA121C08909B48E475F001121E5AE54F
:10284800FB121C08909B48E475F001121E5AE5FC27
:10285800121C080228E8909B48E475F001121E5AE1
:10286800E5FA121C08909B48E475F001121E5AE51F
:10287800FB121C08806A909B48E475F001121E5AEE
:10288800E5FA121C0880598057D2FBD2FAD2F9D245
:10289800F8D2FE20FEFD909B48E475F001121E5A06
:1028A800E5FA121C08909B48E475F001121E5AE5DF
:1028B800FB121C08909B48E475F001121E5AE5FCB7
:1028C800121C08909B48E475F001121E5AE5FD128F
:1028D8001C08909B4B74FF75F0FC121C2C0227B847
:1028E800E4F5F8D2AF22909B46EEF0A3EFF0A312E6
:1028F8001E717B007A007900C003C002C001909B62
:1029080048121E51D082D083D0E06B7008E96582EE
:102918007003EA65837003022B59909B4BE0FEA37A
:10292800E04E7003022B59909B4BE0A3E0FFEEC3EF
:1029380013FEEF13FF909B46E0FCA3E02FFFEE3C55
:10294800FED3EF94FEEE94FF4003022B59C2AF90E2
:102958009B46E0A3E05401909B4DF0909B46E0FE1F
:10296800A3E0FFEEC313FEEF13FF909B46EEF0A328
:10297800EFF0909B46E0FEA3E07810CEC313CE1391
:10298800D8F9F5F1909B46E0FEA3E0EEF5F2909BB6
:1029980046E0A3E0F5F3E4F5F875F401D2FF30FC66
:1029A800FDC2FD909B4DE064017072909B4BE0FE70
:1029B800A3E064014E700AC2FBC2FAD2F9C2F880E1
:1029C80008C2FBC2FAD2F9D2F8909B4BE0FEA3E012
:1029D80064014E701A909B4875F001121E5A121B22
:1029E800C2F5FC909B4B74FFF5F0121C2C802990CB
:1029F8009B48E475F001121E5A121BC2F5FC909B0D
:102A080048E475F001121E5A121BC2F5FD909B4B4B
:102A180074FF75F0FE121C2CD2FE20FEFD909B4B1D
:102A2800E0FEA3E04E7003022B54909B4BE0A3E022
:102A3800C39404EE94004003022AFD909B4BE0A34C
:102A4800E08EF0121EA02A7200012A6800022A5E97
:102A5800000300002A7AD2FBD2FAD2F9C2F8801217
:102A6800D2FBD2FAC2F9C2F88008D2FBC2FAC2F984
:102A7800C2F8909B4BE0FEA3E08EF0121EA02AE560
:102A880000012AC500022A96000300002AF4909B40
:102A980048E475F001121E5A121BC2F5FA909B48C1
:102AA800E475F001121E5A121BC2F5FB909B48E414
:102AB80075F001121E5A121BC2F5FC802F909B481C
:102AC800E475F001121E5A121BC2F5FA909B48E4F5
:102AD80075F001121E5A121BC2F5FB800F909B481D
:102AE800E475F001121E5A121BC2F5FAD2FE30FE2E
:102AF8005B80FB8057D2FBD2FAD2F9D2F8909B4880
:102B0800E475F001121E5A121BC2F5FA909B48E4B4
:102B180075F001121E5A121BC2F5FB909B48E47512
:102B2800F001121E5A121BC2F5FC909B48E475F086
:102B380001121E5A121BC2F5FDD2FE20FEFD909B0B
:102B48004B74FF75F0FC121C2C022A25E4F5F8D210
:102B5800AF22909B1C121E71909B1C121E51121BBF
:102B6800C2909B1FF0909B1FE0C394667480948072
:102B78004003022D91E075F00E90900F121E45E073
:102B8800645A6003022D88909B1FE075F00E9090A8
:102B980012121E45E07003022D88909B1FE075F00D
:102BA8000E909014121E45E07003022D91909B1F09
:102BB800E075F00E909014121E45E06401702990A3
:102BC8009B1FE075F00E909015121E45E0FEA3E0E5
:102BD800FF909B68E0FCA3E06F7002EC6E6003025C
:102BE8002D88022D91022D88909B1FE075F00E9084
:102BF8009014121E45E064026003022CAD909B1FE6
:102C0800E075F00E909015121E45E0FEA3E0FF7BE4
:102C1800017A9B7920909B4BE4F0A37402F0122672
:102C280081909B20E0A3E0645A6003022D88909B6A
:102C38001FE0C3946574809480503CE075F00E905A
:102C48009022121E45E06402702D909B1FE075F0E3
:102C58000E909023121E45E0FEA3E0FF909B1FE01C
:102C680075F00E909015121E45E0FCA3E06F7002FF
:102C7800EC6E7003022D91E4909B20F0A3F0909BE2
:102C88001FE075F00E909015121E45E0FEA3E0FFC0
:102C98007B017A9B7920909B4BE4F0A37402F0129D
:102CA80028EE022D91909B1FE075F00E9090141263
:102CB8001E45E064036003022D88909B1FE075F0B9
:102CC8000E90901B121E45E0FEA3E0FF909B68E06B
:102CD800FCA3E0FDEF6D7002EE6C6003022D88909E
:102CE8009B1FE075F00E909015121E45E0FEA3E0C4
:102CF800FF7B017A9B7920909B4BE4F0A37402F050
:102D0800122681909B20E0A3E0645A7073909B1F69
:102D1800E0C39465748094805039E075F00E90900B
:102D280022121E45E06403702A909B1FE075F00E86
:102D3800909023121E45E0FEA3E0FF909B1FE075D4
:102D4800F00E909015121E45E0FCA3E06F7002ECA7
:102D58006E6036E4909B20F0A3F0909B1FE075F026
:102D68000E909015121E45E0FEA3E0FF7B017A9BB2
:102D78007920909B4BE4F0A37402F01228EE8009AE
:102D8800909B1FE004F0022B6D909B1FE0FF909B2F
:102D98001C121E51EF121C0822E4909B17F0A3F09E
:102DA800E50F20E003022F6A7B017A9B7917909B3D
:102DB8004BE4F0A37402F07F147E50122681909B9E
:102DC80017E0FEA3E04E7003022F6A909B17E0A362
:102DD800E08EF0121EA02F1FA0002F1FA0012F1F92
:102DE800A0022F2CA0032F2CA0042F39A0052EF60B
:102DF800A4002EFBA4012F00A4A02F00A4A12F0043
:102E0800A4A22F00A4A32F00A4A42F00A4A52F00E0
:102E1800A4A62F00A4A72F00A4A82F00A4A92F00C0
:102E2800A4AA2F00A4AB2F00A4AC2F00A4AD2F00A0
:102E3800A4AE2F00A4AF2F00A4B02F00A4B12F0080
:102E4800A4B22F00A4B32F00A4B42F00A4B52F0060
:102E5800A4B62F00A4B72F00A4B82F00A4B92F0040
:102E6800A4BA2F00A4BB2F00A4BC2F00A4BD2F0020
:102E7800A4BE2F00A4BF2F00A4C02F00A4C12F0000
:102E8800A4C22F00A4C32F00A4C42F00A4C52F00E0
:102E9800A4C62F00A4C72F00A4C82F00A4C92F00C0
:102EA800A4CA2F00A4CB2F00A4CC2F00A4CD2F00A0
:102EB800A4CE2F00A4CF2F00A4D02F00A4D12F0D73
:102EC800A4F02F0DA4F12F0DA4F22F0DA4F32F1AA7
:102ED800A6002F4EA6012F43B3082F43B3212F433B
:102EE800B3222F43B3232F3EB52100002F4E123EAD
:102EF800148053120016804E909B17E0FEA3E0FF4B
:102F080012419C8041909B17E0FEA3E0FF124153C1
:102F180080341239CA802F909B17E0FEA3E0FF127D
:102F280000868022909B17E0FEA3E0FF122F6B80A3
:102F38001512431A80101242B1800B909B17E0FEC5
:102F4800A3E0FF124108E4909B17F0A3F07B017AFD
:102F58009B7917909B4BF0A37402F07F147E50125C
:102F680028EE22909B19EEF0A3EFF07BFF7A4479CC
:102F780038781B7C9B7D017E007F08121B9C7B019F
:102F88007A9B791B909B4BE4F0A37402F07F217E1F
:102F9800A0122681909B19E0FEA3E08EF0121EA0DD
:102FA8002FB4A0033059A0040000311E909B1BE0F1
:102FB800A3E030E245E4A3F0A3F0A3F0A3F07B0183
:102FC8007A9B791D909B4BF0A37404F07F2A7EA016
:102FD8001228EE909B1DE4F0A3745AF0A3E4F0A32A
:102FE800745AF07B017A9B791D909B4BE4F0A37493
:102FF80004F07F8A7EA01228EE22909B1BE0A3E0BB
:103008005484600302311EA3F0A304F0A37413F0E8
:10301800A37488F07B017A9B791D909B4BE4F0A305
:103028007404F07F2A7EA01228EE909B1DE4F0A382
:10303800745AF0A3E4F0A3745AF07B017A9B791DCB
:10304800909B4BE4F0A37404F07F8A7EA01228EED4
:1030580022909B1BE0A3E030E745E4A3F0A3F0A394
:10306800F0A3F07B017A9B791D909B4BF0A374042D
:10307800F07F2A7EA01228EE909B1DE4F0A3745ADC
:10308800F0A3E4F0A3745AF07B017A9B791D909B1E
:103098004BE4F0A37404F07F8A7EA01228EE2290FD
:1030A8009B1BE0A3E05484706D7B017A9B7921908F
:1030B8009B4BF0A37402F07F2C7EA0122681909B7C
:1030C80021E0FEA3E064014E704C909B1DF0A374B8
:1030D80002F0A37413F0A37488F07B017A9B791D26
:1030E800909B4BE4F0A37404F07F2A7EA01228EE94
:1030F800909B1DE4F0A3745AF0A3E4F0A3745AF073
:103108007B017A9B791D909B4BE4F0A37404F07FBC
:103118008A7EA01228EE227B007A007900909B1705
:10312800121E71909000E0640160030231B6908F26
:10313800FBE0FF9095A3E0D39F4011E0908FFBF058
:10314800909624121E14000000008062908FFBE00D
:10315800FF9095A3E06F7056FFFEFDFC9096241239
:103168001DFCD3121DCB4038909624121DFCC3E5DC
:103178000E9BFFE50D9AFEE50C99FDE50B98FCE426
:103188007B0AFAF9F8C3121DCB50237B017A957993
:10319800A49095A3E0FD7C001223C7124347800E3C
:1031A800AF0EAE0DAD0CAC0B909624121E08908E8F
:1031B80069E030E03AE020E129908FFC121DFCC361
:1031C800E50E9BFBE50D9AFAE50C99F9E50B98F8E5
:1031D800909005E0FFE4FCFDFEC3121DCB500302F6
:1031E80032CB908E69E030E12DA3E004F080279087
:1031F8008FFC121DFCC3E50E9BFFE50D9AFEE50C46
:1032080099FDE50B98FCE47BF47A01F9F8D3121DDB
:10321800CB40030232CB908E6AE0700312345BAF6E
:103228000EAE0DAD0CAC0B908FFC121E08908E6983
:10323800E054FDF0E054FEF07B017A8E796A122B9F
:103248005A908E6AE0C39466748094805070E075DA
:10325800F00EA4240FF9749035F0FA7B0178017C04
:10326800907D017E007F0E121B9C909003E064030A
:1032780070117B017A9079011236CE908E69E04404
:1032880001F022909003E064067038909009E0FE07
:10329800A3E0FF7B017A9B791A909B4BE4F0A3741F
:1032A80002F01226817B017A907901909B1AE0FC4A
:1032B800A3E0FD1237E9908E69E04401F022E49022
:1032C8008E6AF022E50F30E0167B017A9B796890D0
:1032D8009B4BE4F0A37402F07F147E00122681E574
:1032E8000F20E20302345A909B68E0FEA3E0642CAE
:1032F8004E60030233837B017A9B791D909B4BF0D0
:10330800A37402F07FA07ECC122681909B1DE0FE64
:10331800A3E0FFEEC4F854F0C868FEEFC4540F48A9
:10332800EE540F909B17F0A3E4F0909B17E0FCA3DA
:10333800E0FD909B1DE0FEA3E07807CEC313CE13FB
:10334800D8F9541FFFECFEED4FFF909B17EEF0A34A
:10335800EFF0909B1DE0A3E0547F909B19F0A3E44D
:10336800F004A3F0A3F0FB7A9B7917909B4BE4F051
:10337800A37406F07F207ECC1228EE909B68E0FEB6
:10338800A3E04E70031220C57B017A9B7917909BAE
:103398004BE4F0A37402F07F167E00122681909B06
:1033A80017E0FEA3E04E6025E4909B17F0A3F07BA6
:1033B800017A9B7917909B4BF0A37402F07F167EDD
:1033C800001228EEE4909B64F0A3F08033909B6495
:1033D800E0FEA3E0C39458EE9402500C909B64E482
:1033E80075F001121C2C8018909B64E0FEA3E0B4D9
:1033F800580EEEB4020A909B64E475F001121C2C7E
:10340800909B66E0FEA3E0D39401EE9400400B90FD
:103418009B6674FFF5F0121C2C22909B66E0FEA3BD
:10342800E064014E702C909B17F0A3F0909B66749B
:10343800FFF5F0121C2CE4909B17F0A3F07B017AA7
:103448009B7917909B4BF0A37402F07F2C7EA012FF
:1034580028EE227BFF7A4379F2781C7C9B7D017EE3
:10346800007F28121B9CE4909B44F0A3F0909B449F
:10347800E0FEA3E0C39432EE9400400302359F902F
:103488009B44E0A3E07803C333CE33CED8F9246C51
:10349800F582748E3EF583E0FF909B68E0FCA3E024
:1034A800FDEF6D7001EC6003023592909B44E0FEE5
:1034B800A3E07803C333CE33CED8F9246DF58274F4
:1034C8008E3EF583E0FEA3E0FF7B017A9B791C909A
:1034D8009B4BE4F0A37402F0122681909B44E0FE1B
:1034E800A3E07803C333CE33CED8F9246FF58274C2
:1034F8008E3EF583E0FEA3E0FF7B017A9B791E9068
:103508009B4BE4F0A37402F0122681909B1EE0FE10
:10351800A3E0FF909B1CE0FCA3E06F7002EC6E60E0
:1035280069909B44E0FEA3E07803C333CE33CED842
:10353800F9246FF582748E3EF583E0FEA3E0FF7BED
:10354800017A9B791C909B4BE4F0A37402F012283B
:10355800EE909B20E4F0A3745AF0909B44E0FEA305
:10356800E07803C333CE33CED8F92471F582748E54
:103578003EF583E0FEA3E0FF7B017A9B7920909BD8
:103588004BE4F0A37402F01228EE909B44E475F02B
:1035980001121C2C02347522C0E0C0F0C083C08226
:1035A800C0D075D000C000C001C002C003C004C0B4
:1035B80005C006C007C2AF758CBC758ACD909B54F8
:1035C800E475F001121C2C909B54E0FEA3E0D39408
:1035D800E8EE94034018909B54E4F0A3F0A375F030
:1035E80001121C2C909B52E475F001121C2C43C94B
:1035F80001909B60121DF0E47B01FAF9F8121CDAC5
:10360800909B60121E08909B58E475F001121C2CC8
:10361800909B5A121DF0E4F8121CDA909B5A121E65
:1036280008909B5EE0FEA3E0FFE4FCFD7BDC7AFFF4
:10363800F8D3121DB5400A909B5EE475F001121C88
:103648002C0509E50970020508AF0EAE0DAD0CACEE
:103658000BE47B01FAF9F8121CDA8F0E8E0D8D0C33
:103668008C0BE47B64121D23AC00AD01AE02AF03EA
:10367800E4FBFAF9F8C3121DCB7003430A02E47B9A
:10368800F47A01F9F8AF0EAE0DAD0CAC0B121D2398
:10369800AC00AD01AE02AF03E4FBFAF9F8C3121DAA
:1036A800CB7003430A04430A01D2AFD007D006D037
:1036B80005D004D003D002D001D000D0D0D082D021
:1036C80083D0F0D0E032909B1C121E71E4909B21B5
:1036D800F0909B1C121E51900001121BDBFF909B67
:1036E80021E0FE04F074222EF582E4349BF583EF8A
:1036F800F0909B21E0FF04F074222FF582E4349BC4
:10370800F5837403F0909B1C121E5190000A121C42
:1037180083E5F0FF909B21E0FE04F074222EF582F1
:10372800E4349BF583EFF0909B1C121E5190000A25
:10373800121C83FF909B21E0FE04F074222EF58278
:10374800E4349BF583EFF0909B1C121E519000030C
:10375800121BDBFFE4909B21E0FE04F074222EF59F
:1037680082E4349BF583E4F0909B1C121E51900078
:1037780003121BDBFF909B21E0FE04F074222EF560
:1037880082E4349BF583EFF07B017A9B7922909B4E
:1037980021E0FD7C00123CAD909B1FEEF0A3EFF002
:1037A800909B1FE0FEA3E0EEFFA3E0FE04F074226E
:1037B8002EF582E4349BF583EFF0909B1FE0A3E0A5
:1037C800FFA3E0FE04F074222EF582E4349BF58317
:1037D800EFF07B017A9B7922909B21E0FD123FAFAD
:1037E80022909B1C121E71909B1FECF0A3EDF0E43D
:1037F800909B23F0909B1C121E51900001121BDB22
:10380800FF909B23E0FE04F074242EF582E4349BA1
:10381800F583EFF0909B23E0FF04F074242FF582EA
:10382800E4349BF5837406F0909B1C121E519000A3
:103838000A121C83E5F0FF909B23E0FE04F0742439
:103848002EF582E4349BF583EFF0909B1C121E51F9
:1038580090000A121C83FF909B23E0FE04F074245E
:103868002EF582E4349BF583EFF0909B1FE0FEA3D6
:10387800E0EEFF909B23E0FE04F074242EF582E432
:10388800349BF583EFF0909B1FE0A3E0FF909B2310
:10389800E0FE04F074242EF582E4349BF583EFF007
:1038A8007B017A9B7924909B23E0FD7C00123CAD40
:1038B800909B21EEF0A3EFF0909B21E0FEA3E0EEB9
:1038C800FFA3E0FE04F074242EF582E4349BF58314
:1038D800EFF0909B21E0A3E0FFA3E0FE04F0742446
:1038E8002EF582E4349BF583EFF07B017A9B7924F3
:1038F800909B23E0FD123FAF22909B31121E1400D3
:10390800003000909B35E4F0A3740AF07D007C3011
:103918007F5A123BAB7B017A9A79FF909B4BE4F07C
:10392800A37414F07F007E30122681E4909B17F078
:10393800909B17E0C3940674809480506EE025E055
:1039480025E024FFF582E4349AF583121DF0E4FBA8
:10395800FAF9F8C3121DCB6022909B17E025E025E9
:10396800E024FFF582E4349AF583121DF07B3F7A58
:1039780042790F7800C3121DCB5028909B17E02581
:10398800E025E024DFF582E4349AF583121DF090F7
:103998009B17E025E025E024FFF582E4349AF583BF
:1039A800121E08909B17E004F080857B017A9A79B3
:1039B800FF909B4BE4F0A37414F07FA07EA612281E
:1039C800EE227B017A9B7919909B4BE4F0A374104B
:1039D800F07F207EA6122681909B19E0A3E025E0C7
:1039E80025E02403F582E4349BF583121DF0909BB7
:1039F8001D121DFCC3121DCB60087F077E001242FA
:103A08002B22909B25121DF0909B21121DFCC312A6
:103A18001DCB60087F087E0012422B22909B21124A
:103A28001DF0909B19E0A3E025E025E02403F58232
:103A3800E4349BF583121E081242E7E4909B2DF0B4
:103A4800909B2DE0C3940A748094805018E025E080
:103A58002419F582E4349BF583E4F0A3F0909B2DC0
:103A6800E004F080DB7B017A9B7919909B4BE4F0B2
:103A7800A3740CF07F227EA61228EE22759401759D
:103A88009502758E0075930075C87075C96075F8D4
:103A980000787FE4F6D8FD758110023AE00241E42F
:103AA800E493A3F8E493A34003F68001F208DFF45B
:103AB8008029E493A3F85407240CC8C333C4540FD3
:103AC8004420C8834004F456800146F6DFE4800BA6
:103AD8000102040810204080900100E47E019360F8
:103AE800BCA3FF543F30E509541FFEE493A36001D3
:103AF8000ECF54C025E060A840B8E493A3FAE4933D
:103B0800A3F8E493A3C8C582C8CAC583CAF0A3C8EA
:103B1800C582C8CAC583CADFE9DEE780BEC0E0C087
:103B2800F0C083C082C0D075D000C000C004C006F9
:103B3800C007909B4FE4F0C2AFE59B30E03DE59CA9
:103B4800F0E0FF9098AAE0FCA3E024B0F582749816
:103B58003CF583EFF09098AAE475F001121C2C5301
:103B68009BFE539BFE9098AAE0FEA3E0C39480EED0
:103B7800940040079098AAE4F0A3F0E59B30E10B8D
:103B8800539BFD539BFD9098A9E4F043C901D2AF24
:103B9800D007D006D004D000D0D0D082D083D0F0C7
:103BA800D0E032909B2EEFF0A3ECF0A3EDF0E4F51B
:103BB800F1F5F275F30475F40175F88F30FCFD909A
:103BC8009B2EE0F5FA909B31121DF07810121DDC47
:103BD8008FFB909B31121DF07808121DDC8FFC9032
:103BE8009B31121DF0EF54FEFFE48FFDD2FE20FE44
:103BF800FD909B2FE0FEA3E0EEF5FA909B2FE0A34B
:103C0800E054FEF5FB909B35E0FEA3E0EEF5FC905A
:103C18009B35E0A3E054FEF5FDD2FE20FEFDE4F561
:103C2800F87F04FE12400922909B1DEEF0A3EFF0EE
:103C3800909B1DE0FEA3E04E70041242B122909BBF
:103C48001DE0FEA3E064014E700412406222909BC6
:103C58001DE0FEA3E064024E604A909B1DE0A3E0D5
:103C680064034E703FA3F0909B1FE0C394067480DA
:103C78009480502DE025E025E024DFF582E4349A95
:103C8800F583121DF0909B1FE025E025E024FFF549
:103C980082E4349AF583121E08909B1FE004F0809A
:103CA800C61242E722909B38121E71909B3BECF0A3
:103CB800A3EDF0A374FFF0A3F0909B3B74FFF5F025
:103CC800121C4245F0604D909B38E475F001121EBD
:103CD8005A121BC2FF909B3DE06FFF909B3FE4F0A0
:103CE800A3EFF0909B3FE0FEA3E02428F5827496B2
:103CF8003EF583E0FF909B3EE06F909B3DF0909BEC
:103D08003FE0A3E02428F58274973EF583E0909B7A
:103D18003EF080A5909B3DE0FEA3E0FDEEEDFF2286
:103D2800C0E0C0F0C083C082C0D075D000C000C061
:103D380004C006C007909B50E4F0C2AFE597540159
:103D48006401703AE59FF0E0FF9098ACE0FCA3E0D6
:103D58002430F58274993CF583EFF09098ACE475C3
:103D6800F001121C2C5397FE9098ACE0FEA3E0C320
:103D78009480EE940040079098ACE4F0A3F043C917
:103D880001D2AFD007D006D004D000D0D0D082D096
:103D980083D0F0D0E032C0E0C0F0C083C082C0D091
:103DA80075D000C000C004C006C007909B51E4F065
:103DB800C2AFE5AB54016401703AE5ADF0E0FF90A5
:103DC80098AEE0FCA3E02428F58274983CF583EFD4
:103DD800F09098AEE475F001121C2C53ABFE90984D
:103DE800AEE0FEA3E0C39480EE940040079098AE46
:103DF800E4F0A3F043C901D2AFD007D006D004D075
:103E080000D0D0D082D083D0F0D0E0327BFF7A448B
:103E1800794078197C9B7D017E007F04121B9C7B76
:103E2800017A9B7919909B4BE4F0A37404F07F20EE
:103E38007EA4122681909A74E0FF7B017A9B7919FF
:103E48001240BAEF600D124272909A74E0909ADBB9
:103E5800F080077F057E0012422B7E007F047D00E4
:103E68007B017A9B79191220777B017A9B791990CB
:103E78009B4BE4F0A37404F07F207EA41228EE226A
:103E8800909B1DEEF0A3EFF0A3E4F0A3745AF0901A
:103E98009B1DE0FEA3E0641B4E7021909B1DE0A3D8
:103EA800E0FEE42400FFEE34A0FE7B017A9B791F3C
:103EB800909B4BE4F0A37402F01228EE909B1DE057
:103EC800FEA3E0642F4E7021909B1DE0A3E0FEE46A
:103ED8002400FFEE34A0FE7B017A9B791F909B4B58
:103EE800E4F0A37402F01228EE22C0E0C083C0827E
:103EF800C0D075D000C006C007909B4EE4F0C2AF9A
:103F0800309830E599F09095A3E0C394807480943C
:103F180080501E909B4EE0FF9095A3E0FE04F07445
:103F2800A42EF582E43495F583EFF09090007401A7
:103F3800F0C298309907C2999098A8E4F0D2AFD00F
:103F480007D006D0D0D082D083D0E032909B1DEE2F
:103F5800F0A3EFF0909B1DE0FEA3E0D394D1EE9484
:103F6800A45019909B1DE0A3E025E0FFEE33FE74FA
:103F7800382FF58274513EF583E0FF22909B1DE0B7
:103F8800FEA3E0D394F3EE94A45019909B1DE0A3F4
:103F9800E025E0FFEE33FE74182FF58274513EF5EC
:103FA80083E0FF227F0522909B38121E71909B3B75
:103FB800EDF07B007A007900C003C002C001909B3D
:103FC80038121E51D082D083D0E06B7008E9658228
:103FD8007003EA65836029909B3BE06023909B3BDC
:103FE800E0FF14F0EF6019909B38121E51121BC2AB
:103FF800FF1243A4909B39E475F001121C2C80DD5C
:1040080022909B37EEF0A3EFF0E4F5F1909B37E0B8
:10401800FEA3E0EEF5F2909B37E0A3E0F5F3E4F5BC
:10402800F4E4909B37F0A3F0909B37E0FEA3E0C345
:1040380094E8EE9403500F85FCFB909B37E475F0F1
:1040480001121C2C80E275F8AF30FCFDD2FE20FE78
:10405800FDE4F5F8AFFAEF70C8227E007F087D0016
:104068007B017A9979F71220777B017A9979F79011
:104078009B4BE4F0A37408F07F007E301228EE908A
:1040880099F9E0FEA3E07803C333CE33CED8F92400
:1040980000FFEE3420FEE4FCFD909B31121E0890D8
:1040A8009B35E4F0A37404F07D007C307FA5123BBF
:1040B800AB22909B1DEFF0A3121E71909B1DE07028
:1040C800037F0122909B1DE075F004A424FFF9747E
:1040D8009A35F0FA7B01C003C002C001A3121E5139
:1040E800A801AC02AD03D001D002D0037E007F044A
:1040F800122053EF3395E04F70037F01227F002297
:10410800909B19EEF0A3EFF0909B19E0A3E0FFA3BA
:10411800E4F0A3EFF07B017A9B791B909B4BE4F0D2
:10412800A37402F07F207EB31228EE909B1BE4F06C
:10413800A3745AF07B017A9B791B909B4BE4F0A304
:104148007402F07F807EB31228EE22909B19EEF065
:10415800A3EFF0909B19E0FEA3E02410FFEE345B80
:10416800909A72F0A3EFF0909B19E0A3E0FF123F42
:1041780054909A74EFF0909B68E0FEA3E0FF909A49
:1041880075EEF0A3EFF0909ADC7401F07F047E00E6
:1041980012422B22909B1BEEF0A3EFF0909B1BE0AA
:1041A800FEA3E02460FFEE345B909ADDF0A3EFF00D
:1041B800909B68E0FEA3E0FF909A75EEF0A3EFF005
:1041C800909B1BE0FEA3E0FF123F54909A74EFF01F
:1041D800E4909ADCF07F04FE12422B2212006E1249
:1041E80043DD123901E50A30E01C430F01E50A30CE
:1041F800E103430F02E50A30E203430F04530AFECA
:10420800530AFD530AFB43C90112311F1232CC1263
:104218002DA1E50F30E0CE530FFE530FFD530FFBDA
:1042280080C322909B2EEEF0A3EFF07BFF7A4479B7
:104238002878307C9B7D017E007F04121B9C909B1C
:104248002EE0FEA3E0EE909B32F0909B2EA3E09030
:104258009B33F07B017A9B7930909B4BE4F0A374FD
:1042680004F07F847E001228EE22909ADCE0121E71
:104278007A428300429A01000042B0909ADDE0FE43
:10428800A3E0FF12422B909ADDE0FEA3E0FF123E6E
:104298008822909A72E0FEA3E0FF123C30909A7553
:1042A800E0FEA3E0FF12422B22909B20E4F0A374CF
:1042B8005AF07B017A9B7920909B4BE4F0A374021F
:1042C800F07F217EB51228EE7B017A9B7920909BA6
:1042D8004BE4F0A37402F07F817EB51228EE227BB6
:1042E800017A9A79FF909B4BE4F0A37414F07F0055
:1042F8007E301228EE909B31121E14000030009080
:104308009B35E4F0A3740AF07D007C307FA5123B56
:10431800AB22E4909B19F0A3F0909B66F0A3740B7A
:10432800F0909B19E4F0A304F0FB7A9B7919909B19
:104338004BE4F0A37402F07F2C7EA01228EE22E456
:104348009095A3F0909000F0FE7F80FD7B017A9518
:1043580079A4122077E4908FFBF0909624121E1413
:10436800000000002243B71043C940E49098A8F029
:1043780075D88075985053877F75BA0375AA58D237
:104388009CD2AC2275F90175B70375BC03E4F5BD81
:1043980075BE0CF580F590F5A0F5B022909B3CEF2A
:1043A800F09098A8E0640160F87401F0909B3CE0FC
:1043B800F5992275C870E4F5CDF5CC75CBFF75CAB3
:1043C800EF43A820D2C822438901758CBC758ACDD9
:1043D800D2A9D28C22124347908FFC121E140000DF
:1043E8000000221243CF1243BB220000000000004D
:1043F80000000000000000000000000000000000B5
:1044080000000000000000000000000000000000A4
:104418000000000000000000000000000000000094
:104428005A01000000000000000000000000000029
:0C44380000000000000000000000000078
:00000001FF
