:10000000023AC2020006C2AFD2AF320234FCC2AF23
:10001000D2AF3202000E909365E0FEA3E0FF1242E1
:10002000642232023F9812002E223202005675F9E5
:1000300001E4F5A8F5B8F59AF5A9F5B9F580F590BC
:10004000F5A0F5B075B750F5BCF5BDF5BE2212436D
:02005000792213
:06005300020022C2C632C9
:07005B00023D665A0100009E
:0700630002002A000000006A
:10006B00023DDCC2AF12002612439812004E120062
:07007B00F043C902D2AF22DD
:10008300023B6390940DEEF0A3EFF0A3E4F0A374AE
:100093005AF090940DE0FEA3E0641B4E70219094FF
:1000A3000DE0A3E0FEE42400FFEE34A0FE7B017A22
:1000B30094790F909468E4F0A37402F012282390CB
:1000C300940DE0FEA3E0642F4E702190940DE0A305
:1000D300E0FEE42400FFEE34A0FE7B017A94790F66
:1000E300909468E4F0A37402F0122823221243EAE6
:0400F3001243C722CB
:1000F800FFFF4457494E543542948300004294818F
:1001080000005A91F13FC900690064000086000AA6
:100118002D2D203A3A000000000000000000005A8F
:10012800920B3FCC01270064000086000A2D2D2F7A
:100138003A3A000000000000000000005A92973F81
:10014800D001E50064000001E5006402AD007D0017
:10015800100017181802000000603C925B40004035
:10016800A04140401040B04150402040C041604054
:100178003040D04170404040E04180405040F04124
:10018800904060410041A04070411041B040804122
:100198002041C04090413041D054924741E041F85D
:1001A80042104228424042584270428842A042B817
:1001B8004892380000000000000000429240000011
:1001C800429245000042924200004192440041920E
:1001D80037004292250005498000B2E2CAD4BABA73
:1001E800D7D6006E60800949443030BBD8B7E7B82D
:1001F800DFCEC20000000000000000000000000088
:100208000000000000000049443031BBD8B7E7B512
:10021800CDCEC20000000000000000000000000079
:100228000000000000000049443032BBD8B7E7B8EE
:10023800DFCAAA0000000000000000000000000063
:100248000000000000000049443033BBD8B7E7B8CD
:10025800DFCAAA0000000000000000000000000043
:100268000000000000000049443034CBCDB7E7B8A7
:10027800DFCEC20000000000000000000000000007
:100288000000000000000049443035CBCDB7E7B589
:10029800CDCEC200000000000000000000000000F9
:1002A8000000000000000049443036CBCDB7E7B865
:1002B800DFCAAA00000000000000000000000000E3
:1002C8000000000000000049443037CBCDB7E7B547
:1002D800CDCAAA00000000000000000000000000D5
:1002E8000000000000000049443038B1A3C1F40008
:1002F80000000000000000000000000000000000F6
:100308000000000000000049443039C4DAB2BFCD13
:10031800A8D0C50000000000000000000000000098
:1003280000000000000000494431304E5443D2EC34
:10033800B3A300000000000000000000000000005F
:100348000000000000000049443131B7E7BBFA3132
:10035800B9CAD5CF0000000000000000000000006E
:100368000000000000000049443132B7E7BBFA3210
:10037800B9CAD5CF0000000000000000000000004E
:100388000000000000000049443133B7E7BBFA33EE
:10039800B9CAD5CF0000000000000000000000002E
:1003A8000000000000000049443134B7E7BBFA34CC
:1003B800B9CAD5CF0000000000000000000000000E
:1003C8000000000000000049443135B7E7BBFA35AA
:1003D800B9CAD5CF000000000000000000000000EE
:1003E8000000000000000049443136CDE2B7E7BB09
:1003F800FAB9CAD5CF0000000000000000000000D4
:100408000000000000000049443137B7E7BBFA316B
:10041800D4CBD0D0B3ACCAB10000000000000000BB
:100428000000000000000049443138B7E7BBFA3249
:10043800D4CBD0D0B3ACCAB100000000000000009B
:100448000000000000000049443139B7E7BBFA3327
:10045800D4CBD0D0B3ACCAB100000000000000007B
:100468000000000000000049443230B7E7BBFA340E
:10047800D4CBD0D0B3ACCAB100000000000000005B
:100488000000000000000049443231B7E7BBFA35EC
:10049800D4CBD0D0B3ACCAB100000000000000003B
:1004A8000000000000000049443232CDE2B7E7BB4B
:1004B800FAD4CBD0D0B3ACCAB10000000000000021
:1004C8000000000000000049443233B8DFD1B931E0
:1004D800B8E6BEAF00000000000000000000000009
:1004E8000000000000000049443234B8DFD1B931BF
:1004F800CBF8CBC0000000000000000000000000A6
:100508000000000000000049443235B5CDD1B931B2
:10051800B8E6BEAF000000000000000000000000C8
:100528000000000000000049443236B5CDD1B93191
:10053800CBF8CBC000000000000000000000000065
:100548000000000000000049443237C5C5C6F8CE97
:10055800C2B6C831B8E6BEAF000000000000000017
:100568000000000000000049443238C5C5C6F8CE76
:10057800C2B6C831CBF8CBC00000000000000000B4
:100588000000000000000049443239B6CCD6DCC671
:10059800DA31B8E6BEAF000000000000000000003D
:1005A8000000000000000049443330D1B9BBFA31E3
:1005B800D4CBD0D0B3ACCAB100000000000000001A
:1005C8000000000000000049443331B8DFD1B932DF
:1005D800B8E6BEAF00000000000000000000000008
:1005E8000000000000000049443332B8DFD1B932BE
:1005F800CBF8CBC0000000000000000000000000A5
:100608000000000000000049443333B5CDD1B9D112
:10061800B9C1A6B8E6BEAF000000000000000000A7
:100628000000000000000049443334B5CDD1B93290
:10063800CBF8CBC000000000000000000000000064
:100648000000000000000049443335C5C5C6F8CE97
:10065800C2B6C832B8E6BEAF000000000000000015
:100668000000000000000049443336C5C5C6F8CE76
:10067800C2B6C832CBF8CBC00000000000000000B2
:100688000000000000000049443337B6CCD6DCC671
:10069800DA32B8E6BEAF000000000000000000003B
:1006A8000000000000000049443338D1B9BBFA32D9
:1006B800D4CBD0D0B3ACCAB1000000000000000019
:1006C8000000000000000049443339BCD3CAAAC660
:1006D800F7B5E7C1F7B9FDB4F3000000000000006A
:1006E8000000000000000049443430BCD3CAAAC648
:1006F800F7B8DFCBAECEBB00000000000000000062
:100708000000000000000049443431BCD3CAAAC626
:10071800F7C8B1CBAE0000000000000000000000E8
:100728000000000000000049443432BCD3CAAAC605
:10073800F7D4CBD0D0B3ACCAB100000000000000A1
:100748000000000000000049443433BCD3C8C8C6C8
:10075800F7B8E6BEAF00000000000000000000008F
:100768000000000000000049443434BCD3C8C8C6A7
:10077800F731B3ACCAB1000000000000000000006F
:100788000000000000000049443435BCD3C8C8C686
:10079800F732B3ACCAB1000000000000000000004E
:1007A8000000000000000049443436B6CFB5E7D653
:1007B800D8C6F4000000000000000000000000009F
:1007C8000000000000000049443437B5E7D4B4CF36
:1007D800E0D0F2B4EDCEF30000000000000000000D
:1007E8000000000000000049443438B5E7D4B4C61E
:1007F800B5C2CAC6ABB8DF000000000000000000A8
:100808000000000000000049443439B5E7D4B4C6FC
:10081800B5C2CAC6ABB5CD0000000000000000009C
:10082800000000000000004944353041CFE0B9FD28
:10083800D1B9000000000000000000000000000026
:10084800000000000000004944353142CFE0B9FD06
:10085800D1B9000000000000000000000000000006
:10086800000000000000004944353243CFE0B9FDE4
:10087800D1B92000000000000000000000000000C6
:10088800000000000000004944353341CFE0C7B7FD
:10089800D1B90000000000000000000000000000C6
:1008A800000000000000004944353442CFE0C7B7DB
:1008B800D1B90000000000000000000000000000A6
:1008C800000000000000004944353543CFE0C7B7B9
:1008D800D1B9000000000000000000000000000086
:1008E800000000000000004944353641CFE0C8B19F
:1008F800CFE0000000000000000000000000000041
:10090800000000000000004944353742CFE0C8B17C
:10091800CFE0000000000000000000000000000020
:10092800000000000000004944353843CFE0C8B15A
:10093800CFE0000000000000000000000000000000
:100948000000000000000049443539C6F8C1F7B678
:10095800AACAA7B8E6BEAF00000000000000000069
:100968000000000000000049443630B9FDC2CBCD7C
:10097800F8D4CBD0D0B3ACCAB1000000000000005E
:100988000000000000000049443631B9FDC2CBCD5B
:10099800F8B6C2B8E6BEAF000000000000000000D4
:1009A8000000000000000049443632D4B6B3CCB988
:1009B800D8BBFAB8E6BEAF00000000000000000097
:1009C8000000000000000049443633D2E7CBAEB83F
:1009D800E6BEAF00000000000000000000000000BC
:1009E8000000000000000049443634C8BABFD8CD22
:1009F800A8D0C5D2ECB3A30000000000000000009E
:100A08000000000000000049443635B1E4C6B5C610
:100A1800F7B9CAD5CF0000000000000000000000B0
:100A28000000000000000049443636D7A2CBAEB51E
:100A3800E7B5BCC2CAB8DF00000000000000000033
:100A48000000000000000049443637D7A2CBAEB5FD
:100A5800E7B5BCC2CAB5CD00000000000000000028
:100A68000000000000000049443638D1CCCEEDB873
:100A7800E6BEAF000000000000000000000000001B
:100A88000000000000000049443639D3C3BBA7D793
:100A9800D4B6A8D2E5B8E6BEAF000000000000005A
:100AA8000000000000000049443730B5E7D4B4D254
:100AB800ECB3A300000000000000000000000000EC
:100AC8000000000000000049443731C8EBCBAEB845
:100AD800DFCEC2000000000000000000000000009F
:100AE8000000000000000049443732CBAEB7A7B978
:100AF800CAD5CF0000000000000000000000000080
:100B08000000000000000049443733C5CCB9DCB60A
:100B1800CFC1F7B8E6BEAF0000000000000000003B
:100B28000000000000000049443734B7E7BBFA363C
:100B3800B9CAD5CF00000000000000000000000086
:100B48000000000000000049443735B7E7BBFA371A
:100B5800B9CAD5CF00000000000000000000000066
:100B68000000000000000049443736B7E7BBFA38F8
:100B7800B9CAD5CF00000000000000000000000046
:100B88000000000000000049443737B7E7BBFA36D9
:100B9800B3ACCAB100000000000000000000000073
:100BA8000000000000000049443738B7E7BBFA37B7
:100BB800B3ACCAB100000000000000000000000053
:100BC8000000000000000049443739B7E7BBFA3895
:100BD800B3ACCAB100000000000000000000000033
:100BE8000000000000000049443830C5C5CBAEB84D
:100BF800DFCBAECEBB00000000000000000000000C
:100C08000000000000000049443831BCD3CAAAC61D
:100C1800F7D2ECB3A30000000000000000000000C1
:100C28000000000000000049443832B7E7D1B9B9E4
:100C3800FDB5CD000000000000000000000000002D
:100C48000000000000000049443833BAECCDE2BC93
:100C5800D3CAAAB9FDC8C8000000000000000000FF
:100C68000000000000000049443834D1B9BBFA3113
:100C7800B8DFD1B90000000000000000000000004B
:100C88000000000000000049443835B7E7BBFAB55A
:100C9800E7C1F7B9FDB4F300000000000000000050
:100CA8000000000000000049443836B8A8C2B7C8A0
:100CB800EBCBAEB8DFCEC2000000000000000000A1
:100CC8000000000000000049443837454556B8E6A2
:100CD800BEAF00000000000000000000000000009F
:100CE8000000000000000049443838BDD3CBAEC531
:100CF800CCD2E7CBAE0000000000000000000000EE
:100D08000000000000000049443839C5C5C6F8B8DD
:100D1800DFCEC2000000000000000000000000005C
:100D28000000000000000049443930C9E8B1B8CAE1
:100D3800B9D3C3B3ACCAB100000000000000000082
:100D48000000000000000049443931B1A3C1F4009B
:100D5800000000000000000000000000000000008B
:100D68000000000000000049443932B1A3C1F4007A
:100D7800000000000000000000000000000000006B
:100D88000000000000000049443933B1A3C1F40059
:100D9800000000000000000000000000000000004B
:100DA8000000000000000049443934B1A3C1F40038
:100DB800000000000000000000000000000000002B
:100DC8000000000000000049443935B1A3C1F40017
:100DD800000000000000000000000000000000000B
:100DE8000000000000000049443936B1A3C1F400F6
:100DF80000000000000000000000000000000000EB
:100E08000000000000000049443937BBD8B7E7CEDE
:100E1800C2CAAAB6C8B4ABB8D0C6F7000000000072
:100E28000000000000000049443938CBCDB7E7CEB8
:100E3800C2CAAAB6C8B4ABB8D0C6F7000000000052
:100E48000000000000000049443939BCD3CAAAB0E8
:100E5800E5D2ECB3A3000000000000000000000091
:100E6800000000000000004944313030C6C1C4BB56
:100E7800D2D1CBF8B6A800000000000000000000A6
:100E8800000000000000004944313031D2BBCCECF6
:100E9800BDABCBF8B6A800000000000000000000C1
:100EA800000000000000004944313032C8FDCCEC9D
:100EB800BDABCBF8B6A800000000000000000000A1
:100EC800000000000000004944313033C6DFCCEC9C
:100ED800BDABCBF8B6A80000000000000000000081
:100EE800000000000000004944313034CAAECEE5AD
:100EF800CCECBDABCBF8B6A80000000000000000A9
:100F0800000000000000004944313035C8FDCAAE79
:100F1800CCECBDABCBF8B6A8000000000000000088
:100F2800000000000000004944313036B5E7D4B471
:100F380032CFE0D0F2B4ED00000000000000000065
:100F4800000000000000004944313037B5E7D4B450
:100F580032C6B5C2CAB8DF000000000000000000B9
:100F6800000000000000004944313038B5E7D4B42F
:100F780032C6B5C2CAB5CD000000000000000000AE
:100F8800000000000000004944313039B5E7D4B40E
:100F98003241CFE0B9FDD1B90000000000000000E7
:100FA800000000000000004944313130B5E7D4B4F6
:100FB8003242CFE0B9FDD1B90000000000000000C6
:100FC800000000000000004944313131B5E7D4B4D5
:100FD8003243CFE0B9FDD1B90000000000000000A5
:100FE800000000000000004944313132B5E7D4B4B4
:100FF8003241CFE0C7B7D1B90000000000000000BF
:10100800000000000000004944313133B5E7D4B492
:101018003242CFE0C7B7D1B900000000000000009D
:10102800000000000000004944313134B5E7D4B471
:101038003243CFE0C7B7D1B900000000000000007C
:10104800000000000000004190E9004190EA0042E1
:1010580090EB00004290ED00004290EF00004294B7
:10106800710000429473000042946F000044947D24
:1010780000000000429475000044947700000000CE
:1010880002080000040B0000000042947B000001ED
:101098000A0061008E6900C1814001C0804101C021
:1010A800804100C1814001C0804100C1814000C130
:1010B800814001C0804101C0804100C1814000C120
:1010C800814001C0804100C1814001C0804101C010
:1010D800804100C1814001C0804100C1814000C100
:1010E800814001C0804100C1814001C0804101C0F0
:1010F800804100C1814000C1814001C0804101C0E0
:10110800804100C1814001C0804100C1814000C1CF
:10111800814001C0804101C0804100C1814000C1BF
:10112800814001C0804100C1814001C0804101C0AF
:10113800804100C1814000C1814001C0804101C09F
:10114800804100C1814001C0804100C1814000C18F
:10115800814001C0804100C1814001C0804101C07F
:10116800804100C1814001C0804100C1814000C16F
:10117800814001C0804101C0804100C1814000C15F
:10118800814001C0804100C1814001C0804101C04F
:10119800804100C1814061008F6900C0C101C30363
:1011A80002C2C60607C705C5C404CC0C0DCD0FCFB7
:1011B800CE0E0ACACB0BC90908C8D81819D91BDB27
:1011C800DA1A1EDEDF1FDD1D1CDC14D4D515D71777
:1011D80016D6D21213D311D1D010F03031F133F327
:1011E800F23236F6F737F53534F43CFCFD3DFF3F77
:1011F8003EFEFA3A3BFB39F9F83828E8E929EB2BA7
:101208002AEAEE2E2FEF2DEDEC2CE42425E527E736
:10121800E62622E2E323E12120E0A06061A163A3A6
:10122800A26266A6A767A56564A46CACAD6DAF6F36
:101238006EAEAA6A6BAB69A9A86878B8B979BB7BA6
:101248007ABABE7E7FBF7DBDBC7CB47475B577B7F6
:10125800B67672B2B373B17170B050909151935326
:10126800529296565797559594549C5C5D9D5F9FF6
:101278009E5E5A9A9B5B99595898884849894B8B26
:101288008A4A4E8E8F4F8D4D4C8C448485458747B6
:10129800468682424383418180404192DD004192EB
:1012A800C00044935E000000004192BB004492BC21
:1012B800000000004E92CF5A020303C8000000A0AD
:1012C80020031C00FF4E92C1000000000000000037
:1012D8000000000000004192B2004892B35A13B3D4
:1012E80020B350B3804192B1005893EF0000000042
:1012F80000000000000000000000000000000000E6
:10130800000000005893CF0000000000000001001A
:1013180000000200027360000A2D080007ED654115
:1013280093CBFF6064936700000100020003000490
:1013380000050006000700080009000A000B000C61
:10134800000D000E000F011000110012021300140E
:1013580000150016001700180019001A001B021CBF
:10136800001D001E001F0020002100220023002471
:1013780000250026022700280029002A002B002C1F
:10138800002D002E002F03300031004893E70001A4
:101398000103020303054293CD0000429365000058
:1013A80042936200004193640000AF0FEF1313549F
:1013B8003F540164016003021A747B017A9479072F
:1013C800909454F0A3740CF07F217EA01225B6905F
:1013D8009407E0FEA3E0D39400EE9400500FA3E03E
:1013E800FEA3E09400EE9400500302147F90940949
:1013F800E0FEA3E0FF909407E0FCA3E02FFFEC3EA3
:10140800FE909237E06F7001EE604C909409E0FE18
:10141800A3E0FF909407E0A3E02FFFEC3EFE90923C
:1014280037E0C39FE49E501D909411E4F0A304F0AC
:10143800FB7A947911909468E4F0A37402F07F2603
:101448007EA0122823909409E0A3E0FF909407E07F
:10145800A3E02F909237F0909411E0FEA3E04E6045
:10146800167B017A927925909468E4F0A37402F0CF
:101478007FA07E00122823909483E0FEA3E0640DF1
:101488004E6003021826909483E0A3E0FF909240F8
:10149800E0FCA3E06F7002EC6E601EE4909245F0F1
:1014A800A3F07B017A927945909468F0A37402F0D6
:1014B8007F017EAE12282380167B017A92794590AF
:1014C8009454E4F0A37402F07F017EAE1225B67B3B
:1014D800017A947907909454E4F0A37410F07FA0F3
:1014E8007EAE1225B6E4909415F0A3E05407F07B85
:1014F800017A92792778077C947D017E007F10120B
:101508001FFCEF702F909242E0FEA3E0FF909245FF
:10151800E0FCA3E0B5071DECB50619909483E0FE46
:10152800A3E0FF909240E0FCA3E06F7002EC6E70C5
:1015380003021A647B017A94790778277C927D01EB
:101548007E007F10121B45E4909244F090943AF08C
:1015580090943AE0C394087480948040030217CEB4
:10156800E4909439F0909439E0C394107480948096
:1015780040030217C5A3E0C454F0FF909439E02F4C
:1015880090943EF0E075F018A42400FFE5F034359F
:10159800FE7B017A947907909454E4F0A37430F0B8
:1015A8001225B67B017A94790790943B121E1A9003
:1015B8009439E0FF7E007401A807088005C333CE84
:1015C80033CED8F9FF90943AE025E02427F582E459
:1015D8003492F583E0FCA3E0FDEE5CFEEF5D4E7017
:1015E8000302171C90943B121DFA121C01645A70D6
:1015F80004E5F064A570030216B990943B121DFA35
:1016080074A575F05A121C647B017A94791B909426
:1016180054E4F0A37408F07F107E001225B67B0115
:101628007A94791B78097C947D017E007F03121BD4
:10163800457B017A94791F780C7C947D017E007F2C
:1016480003121B457E007F087D007B017A94790F89
:1016580012202090943EE0FF909415E4F0A3EFF060
:101668007B017A947917C002C00190943E75F020EE
:10167800A42409F9748035F0FA909442121E1A9045
:101688009445E4F0A37420F0D001D002123F3090CA
:10169800943EE075F018A42400FFE5F03435FE7B95
:1016A800017A947907909468E4F0A37430F01228D2
:1016B80023909245E0FEA3E0FF7C007D0A121BC345
:1016C800909244E0C39FEC9E4041A3E0FEA3E0FF5C
:1016D800121BC3EF240AFFE43EFE909244E0C39F2E
:1016E800EC9E502790943EE075F018A42400FDE588
:1016F800F03435FC909245E0A3E075F00AA4FF9021
:101708009244E0C39FFF7B0D1233C7909244E004DC
:10171800F00217BC90943B121DFA121C01645A7017
:1017280004E5F064A560030217BC7B017A94791B79
:10173800909454F0A37408F07F107E001225B67BB5
:10174800017A94791B780F7C947D017E007F0312C7
:101758001B457B017A94791F78127C947D017E0069
:101768007F03121B4590943EE0FF909415E4F0A38C
:10177800EFF07B017A947907909468E4F0A37410F1
:10178800F07F007E3012282312385DE4909407F031
:10179800A3F090943EE075F018A42400FFE5F0341F
:1017A80035FE7B017A947907909468E4F0A374027B
:1017B800F0122823909439E004F002156D90943AC1
:1017C800E004F0021558909244E0909439F0909219
:1017D80045E0FEA3E0FF7C007D0A121BC3EF240A4C
:1017E800FFE43EFE909439E0C39FEC9E501D90921A
:1017F80045E0A3E075F00AA4FF909439E0C39FFF89
:1018080012314A909439E004F080C3909245E0FE8A
:10181800A3E0FF909242EEF0A3EFF0021A649094D6
:1018280083E0FEA3E0640E4E6003021A6490948382
:10183800E0A3E0FF909240E0FCA3E06F7002EC6E42
:10184800601EE4909245F0A3F07B017A927945906E
:101858009468F0A37402F07F017EAE1228238034CE
:101868007B017A927945909454E4F0A37402F07F56
:10187800017EAE1225B6909242E0FEA3E0FF909260
:1018880045E0FCA3E06F7002EC6E7003021A6480FE
:1018980003021A64909245E0FEA3E0FF909242EEA4
:1018A800F0A3EFF0E4A3F0909244E0C3940A7480AC
:1018B80094804003021A4AA3E0FEA3E0FF7C007D67
:1018C8000A121BC3909244E02FFFEC3EFE90923E1A
:1018D800E0FCA3E0FDC3EF9DEE9C4003021A4A9092
:1018E8009245E0FEA3E0FF7C007D0A121BC39092A4
:1018F80044E02FFFEC3EFE90923AE0FCA3E0D39F39
:10190800EC9E4032909245E0FEA3E0FF7C00121B63
:10191800C3909244E02FFFEC3EFEEF2401FFE43E2B
:10192800FE90923AE0FCA3E0C39FFFEC9E90943BAC
:10193800F0A3EFF0803A909245E0FEA3E0FF7C0030
:101948007D0A121BC3909244E02FFFEC3EFEEF2469
:1019580001FFE43EFE90923AE0FCA3E02400FDEC97
:101968003402FCC3ED9FFFEC9E90943BF0A3EFF094
:1019780090943BE0FEA3E07803C333CE33CED8F98E
:101988002400FFEE3420FEE4FCFD909452121DB1B9
:10199800909456E4F0A37408F07D007C307F5A12CE
:1019A8003BE97B017A947907909454E4F0A374108E
:1019B800F07F007E301225B67B017A947917C00338
:1019C800C002C001909415E0FEA3E07805C333CEB1
:1019D80033CED8F92409F974803EFA7B01909442F9
:1019E800121E1A909445E4F0A37420F0D001D0029E
:1019F800D003123F30909244E025E02447F582E47A
:101A08003492F583E0FEA3E0FF7B017A9479079096
:101A18009468E4F0A37430F0122823909244E025EF
:101A2800E02447F582E43492F583E0FCA3E0FD90DE
:101A38009244E0FF7B0E1233C7909244E004F00218
:101A480018AF909244E0C3940A74809480500DE0DB
:101A5800FF12314A909244E004F080E6909483E0CB
:101A6800FEA3E0FF909240EEF0A3EFF022E709F624
:101A780008DFFA8046E709F208DFFA803E88828CA0
:101A880083E709F0A3DFFA8032E309F608DFFA807A
:101A980078E309F208DFFA807088828C83E309F022
:101AA800A3DFFA806489828A83E0A3F608DFFA80DC
:101AB8005889828A83E0A3F208DFFA804C80D280BA
:101AC800FA80C680D4806980F28033801080A68036
:101AD800EA809A80A880DA80E280CA803389828A84
:101AE80083ECFAE493A3C8C582C8CCC583CCF0A321
:101AF800C8C582C8CCC583CCDFE9DEE7800D898202
:101B08008A83E493A3F608DFF9ECFAA9F0EDFB2247
:101B180089828A83ECFAE0A3C8C582C8CCC583CC85
:101B2800F0A3C8C582C8CCC583CCDFEADEE880DB79
:101B380089828A83E493A3F208DFF980CC88F0EFE6
:101B480060010E4E60C388F0ED2402B4040050B961
:101B5800F582EB2402B4040050AF2323458223907E
:101B68001AC573BB010689828A83E0225002E722E4
:101B7800BBFE02E32289828A83E49322BB010CE53F
:101B88008229F582E5833AF583E0225006E9258229
:101B9800F8E622BBFE06E92582F8E222E58229F56D
:101BA80082E5833AF583E49322BB010689828A831E
:101BB800F0225002F722BBFE01F322EF8DF0A4A819
:101BC800F0CF8CF0A428CE8DF0A42EFE22C5F0F81C
:101BD800A3E028F0C5F0F8E582158270021583E0CD
:101BE80038F022A3F8E0C5F025F0F0E58215827000
:101BF800021583E0C838F0E822BB010A89828A838B
:101C0800E0F5F0A3E022500687F009E71922BBFEB1
:101C180007E3F5F009E3192289828A83E493F5F052
:101C280074019322BB0110E58229F582E5833AF518
:101C380083E0F5F0A3E0225009E92582F886F00850
:101C4800E622BBFE0AE92582F8E2F5F008E222E581
:101C5800832AF583E993F5F0A3E99322BB010A8966
:101C6800828A83F0E5F0A3F0225006F709A7F0195D
:101C780022BBFE06F3E5F009F31922EF2BFFEE3A3B
:101C8800FEED39FDEC38FC2275F008758200EF2F67
:101C9800FFEE33FECD33CDCC33CCC58233C5829B2A
:101CA800ED9AEC99E58298400CF582EE9BFEED9A50
:101CB800FDEC99FC0FD5F0D6E4CEFBE4CDFAE4CCEC
:101CC800F9A88222B800C1B90059BA002DEC8BF0EE
:101CD80084CFCECDFCE5F0CBF97818EF2FFFEE33AB
:101CE800FEED33FDEC33FCEB33FB10D703994004D6
:101CF800EB99FB0FD8E5E4F9FA227818EF2FFFEEFD
:101D080033FEED33FDEC33FCC933C910D7059BE92D
:101D18009A4007EC9BFCE99AF90FD8E0E4C9FAE489
:101D2800CCFB2275F010EF2FFFEE33FEED33FDCC28
:101D380033CCC833C810D7079BEC9AE899400AED12
:101D48009BFDEC9AFCE899F80FD5F0DAE4CDFBE4BA
:101D5800CCFAE4C8F922EB9FF5F0EA9E42F0E99D3F
:101D680042F0EC6480C864809845F022EB9FF5F05F
:101D7800EA9E42F0E99D42F0E89C45F022E86010B6
:101D8800ECA2E713FCED13FDEE13FEEF13FFD8F002
:101D980022E0FCA3E0FDA3E0FEA3E0FF22E0F8A31D
:101DA800E0F9A3E0FAA3E0FB22ECF0A3EDF0A3EE48
:101DB800F0A3EFF022A8828583F0D083D082121D91
:101DC800D4121DD4121DD4121DD4E473E493A3C5F8
:101DD80083C5F0C583C8C582C8F0A3C583C5F0C54F
:101DE80083C8C582C822A42582F582E5F03583F52B
:101DF8008322E0FBA3E0FAA3E0F922F8E0FBA3A327
:101E0800E0F925F0F0E582158270021583E0FA38D2
:101E1800F022EBF0A3EAF0A3E9F022D083D082F815
:101E2800E4937012740193700DA3A393F874019353
:101E3800F5828883E4737402936860EFA3A3A38098
:101E4800DFD083D082F8E4937012740193700DA3ED
:101E5800A393F8740193F5828883E473740293B5AD
:101E6800F0067403936860E9A3A3A3A380D8E3F5FD
:101E7800F009E208B5F06BDFF58067E3F5F009E6F5
:101E880008B5F05EDFF5805A87F009E608B5F0522C
:101E9800DFF6804E87F009E208B5F046DFF68042AB
:101EA80088828C8387F009E0A3B5F036DFF68032AC
:101EB80088828C8387F009E493A3B5F025DFF58049
:101EC8002188828C83E3F5F009E0A3B5F014DFF5EF
:101ED800801088828C83E3F5F009E493A3B5F002BF
:101EE800DFF4021FA5808780E9809080D4803E803F
:101EF80015806E807E809D80B7808D80A380518004
:101F080074803C021FB189828A83ECFAE493F5F06D
:101F1800A3C8C582C8CCC583CCE493A3C8C582C86E
:101F2800CCC583CCB5F076DFE3DEE1807089828AA8
:101F380083E493F5F0A3E208B5F062DFF4805E89EC
:101F4800828A83E0F5F0A3E608B5F051DFF5804D0D
:101F580089828A83E0F5F0A3E208B5F040DFF580D6
:101F68003C89828A83E493F5F0A3E608B5F02EDF76
:101F7800F4802A8002805789828A83ECFAE493F5F8
:101F8800F0A3C8C582C8CCC583CCE0A3C8C582C8A5
:101F9800CCC583CCB5F006DFE4DEE280007FFFB578
:101FA800F0020F2240027F012289828A83ECFAE044
:101FB800F5F0A3C8C582C8CCC583CCE0A3C8C58248
:101FC800C8CCC583CCB5F0D5DFE5DEE380CF898208
:101FD8008A83ECFAE0F5F0A3C8C582C8CCC583CCE7
:101FE800E493A3C8C582C8CCC583CCB5F0AFDFE401
:101FF800DEE280A988F0EF60010E4E60ABED2402AE
:10200800B404005098F582EB2402B40400508E23E7
:1020180023458223901EED73EF4E6012EF60010E90
:10202800EDBB010B89828A83F0A3DFFCDEFA2289EB
:10203800F05007F709DFFCA9F022BBFEFCF309DF2B
:10204800FCA9F022F8BB010DE58229F582E5833A67
:10205800F583E8F0225006E92582C8F622BBFE0582
:10206800E92582C8F22290940C121E1A90940FEC63
:10207800F0A3EDF0E4A3F0A3F090940FE0FEA3E04A
:10208800FFA3E0FCA3E0C39FEC9E500C909411E4E6
:1020980075F001121BD580E190940FE0FEA3E0C318
:1020A8009405EE94005003022327E4A3F0A3F090D4
:1020B800940C121DFA909411E0FEA3E0F5828E8331
:1020C800121B846402600302230190940C121DFA0F
:1020D800909411E0A3E029F9EA3EFA900001121B5E
:1020E80084121E2320F603224A060000230190943E
:1020F8000C121DFA909411E0FEA3E029F9EA3EFAC9
:10210800900002121B84FF909415E4F0A3EFF09066
:102118009411E0A3E0FF909415E0FCA3E02FFFECFE
:102128003EFEEF2405FFE43EFE90940FE0FCA3E0A2
:10213800FDD3EF9DEE9C401190940FE0FEA3E0FFCD
:10214800A3EEF0A3EFF002230190940C121DFA9075
:102158009411E0FEA3E029F9EA3EFA909415E0FE16
:10216800A3E02403FDE43EFC123CEB909413EEF054
:10217800A3EFF090940C121DFA909411E0FEA3E0E6
:1021880029F9EA3EFA909415E0FEA3E029F9EA3E1F
:10219800FA900003121B84FD909413E0FEA3E0EE76
:1021A8006D7001E4600302230190940C121DFA90F3
:1021B8009411E0FEA3E029F9EA3EFA909415E0FEB6
:1021C800A3E029F9EA3EFA900004121B84FF9094D8
:1021D80013E0A3E06F7001E460030223019092C949
:1021E800E0FEA3E0FF90940C121DFAE92403F9E441
:1021F8003AFAC003C002C00190940C121DFA900074
:1022080002121B84FD909468E4F0A3EDF0D001D095
:1022180002D0031228237E007F0E7D007B017A9274
:1022280079C1122020909415E0FEA3E02405FFE474
:102238003E909411F0A3EFF09092B1E04402F002C6
:102248002301909411E0FEA3E02408FFE43EFE90F1
:10225800940FE0FCA3E0FDD3EF9DEE9C4011909419
:102268000FE0FEA3E0FFA3EEF0A3EFF0022301903E
:10227800940C121DFA909411E0FEA3E029F9EA3EAD
:10228800FA7D067C00123CEB909413EEF0A3EFF07D
:1022980090940C121DFA909411E0FEA3E029F9EA3B
:1022A8003EFA900006121B84FD909413E0FEA3E012
:1022B800EE6D7001E4704290940C121DFA90941126
:1022C800E0FEA3E029F9EA3EFA900007121B84FF1A
:1022D800909413E0A3E0B50720E490941175F008FA
:1022E800121BD57E007F0E7D007B017A9279C11288
:1022F80020209092B1E04402F0909411E475F0012E
:10230800121BD590940FE0FEA3E024FBFFEE34FFF0
:10231800FEA3E0FCA3E0C39FEC9E50030220B7227B
:1023280090940C121E1A90940C121DFA121B6B90AA
:10233800940FF090940FE0C394017480948040034C
:102348000225A6E075F00EA424CFF582E43492F5B8
:1023580083E0645A600302259D90940FE075F00EA7
:10236800A424D2F582E43492F583E0700302259D1B
:1023780090940FE075F00EA424D4F582E43492F51D
:1023880083E070030225A690940FE075F00EA42454
:10239800D4F582E43492F583E06401702D90940FB3
:1023A800E075F00EA424D5F582E43492F583E0FEBE
:1023B800A3E0FF909483E0FCA3E06F7002EC6E60F2
:1023C8000302259D0225A602259D90940FE075F035
:1023D8000EA424D4F582E43492F583E06402600309
:1023E8000224A590940FE075F00EA424D5F582E49C
:1023F8003492F583E0FEA3E0FF7B017A9479109094
:102408009454E4F0A37402F01225B6909410E0A35B
:10241800E0645A600302259D90940FE0C374809491
:10242800805048E075F00EA424E2F582E43492F579
:1024380083E06402703590940FE075F00EA424E3F5
:10244800F582E43492F583E0FEA3E0FF90940FE078
:1024580075F00EA424D5F582E43492F583E0FCA34C
:10246800E06F7002EC6E70030225A6E4909410F001
:10247800A3F090940FE075F00EA424D5F582E4340F
:1024880092F583E0FEA3E0FF7B017A9479109094A3
:1024980068E4F0A37402F01228230225A690940F92
:1024A800E075F00EA424D4F582E43492F583E06458
:1024B80003600302259D90940FE075F00EA424DBC1
:1024C800F582E43492F583E0FEA3E0FF909483E084
:1024D800FCA3E0FDEF6D7002EE6C600302259D9099
:1024E800940FE075F00EA424D5F582E43492F583B8
:1024F800E0FEA3E0FF7B017A947910909454E4F015
:10250800A37402F01225B6909410E0A3E0645A6018
:102518000302259D90940FE0C3748094805045E099
:1025280075F00EA424E2F582E43492F583E06403A6
:10253800703290940FE075F00EA424E3F582E43431
:1025480092F583E0FEA3E0FF90940FE075F00EA4EF
:1025580024D5F582E43492F583E0FCA3E06F7002A1
:10256800EC6E603AE4909410F0A3F090940FE0754C
:10257800F00EA424D5F582E43492F583E0FEA3E0BE
:10258800FF7B017A947910909468E4F0A37402F0C8
:10259800122823800990940FE004F002233B9094C2
:1025A8000FE0FF90940C121DFAEF121BB1229094C9
:1025B8004FEEF0A3EFF0A3121E1A7B007A00790009
:1025C800C003C002C001909451121DFAD082D0837A
:1025D800D0E06B7008E965827003EA6583700302D6
:1025E8002822909454E0FEA3E04E70030228229023
:1025F8009454E0A3E0FFEEC313FEEF13FF90944F53
:10260800E0FCA3E02FFFEE3CFED3EF94FEEE94FF38
:102618004003022822C2AF90944FE0A3E0540190F7
:102628009456F090944FE0FEA3E0FFEEC313FEEF44
:1026380013FF90944FEEF0A3EFF090944FE0FEA3B9
:10264800E07810CEC313CE13D8F9F5F190944FE08B
:10265800FEA3E0EEF5F290944FE0A3E0F5F3E4F585
:10266800F875F401D2FF30FCFDD2FD909456E06479
:10267800017072909454E0FEA3E064014E700AC2A7
:10268800FBC2FAD2F9C2F88008C2FBC2FAD2F9D268
:10269800F8D2FE20FEFD909454E0FEA3E064014EC3
:1026A800701A90945175F001121E03E5FC121BB1CB
:1026B80090945474FFF5F0121BD58029909451E43E
:1026C80075F001121E03E5FC121BB1909451E475DC
:1026D800F001121E03E5FD121BB190945474FF75AE
:1026E800F0FE121BD5909454E0FEA3E04E70030256
:1026F800281D909454E0A3E0C39404EE9400400392
:102708000227C6909454E0A3E08EF0121E49273A9F
:102718000001273000022726000300002742D2FBD1
:10272800D2FAD2F9C2F88012D2FBD2FAC2F9C2F8B0
:102738008008D2FBC2FAC2F9C2F8D2FE20FEFD9090
:102748009454E0FEA3E08EF0121E4927B30001273F
:10275800930002276300030000281D909451E4753C
:10276800F001121E03E5FA121BB1909451E475F0C2
:1027780001121E03E5FB121BB1909451E475F001A0
:10278800121E03E5FC121BB102281D909451E4753A
:10279800F001121E03E5FA121BB1909451E475F092
:1027A80001121E03E5FB121BB1806A909451E47577
:1027B800F001121E03E5FA121BB180598057D2FBB3
:1027C800D2FAD2F9D2F8D2FE20FEFD909451E475E7
:1027D800F001121E03E5FA121BB1909451E475F052
:1027E80001121E03E5FB121BB1909451E475F00130
:1027F800121E03E5FC121BB1909451E475F001120E
:102808001E03E5FD121BB190945474FF75F0FC1281
:102818001BD50226EDE4F5F8D2AF22909463EEF0D2
:10282800A3EFF0A3121E1A7B007A007900C003C040
:1028380002C001909465121DFAD082D083D0E06B5B
:102848007008E965827003EA65837003022A8E9036
:102858009468E0FEA3E04E7003022A8E909468E02C
:10286800A3E0FFEEC313FEEF13FF909463E0FCA315
:10287800E02FFFEE3CFED3EF94FEEE94FF40030200
:102888002A8EC2AF909463E0A3E0540190946AF05A
:10289800909463E0FEA3E0FFEEC313FEEF13FF90F6
:1028A8009463EEF0A3EFF0909463E0FEA3E0781059
:1028B800CEC313CE13D8F9F5F1909463E0FEA3E0EC
:1028C800EEF5F2909463E0A3E0F5F3E4F5F875F41F
:1028D80001D2FF30FCFDC2FD90946AE06401707281
:1028E800909468E0FEA3E064014E700AC2FBC2FA4D
:1028F800D2F9C2F88008C2FBC2FAD2F9D2F8909491
:1029080068E0FEA3E064014E701A90946575F001CA
:10291800121E03121B6BF5FC90946874FFF5F012FD
:102928001BD58029909465E475F001121E03121BD3
:102938006BF5FC909465E475F001121E03121B6B95
:10294800F5FD90946874FF75F0FE121BD5D2FE2039
:10295800FEFD909468E0FEA3E04E7003022A899081
:102968009468E0A3E0C39404EE94004003022A3282
:10297800909468E0A3E08EF0121E4929A70001296F
:102988009D000229930003000029AFD2FBD2FAD29E
:10299800F9C2F88012D2FBD2FAC2F9C2F88008D282
:1029A800FBC2FAC2F9C2F8909468E0FEA3E08EF088
:1029B800121E492A1A000129FA000229CB00030035
:1029C800002A29909465E475F001121E03121B6B0E
:1029D800F5FA909465E475F001121E03121B6BF56D
:1029E800FB909465E475F001121E03121B6BF5FC55
:1029F800802F909465E475F001121E03121B6BF58D
:102A0800FA909465E475F001121E03121B6BF5FB36
:102A1800800F909465E475F001121E03121B6BF58C
:102A2800FAD2FE30FE5B80FB8057D2FBD2FAD2F995
:102A3800D2F8909465E475F001121E03121B6BF531
:102A4800FA909465E475F001121E03121B6BF5FBF6
:102A5800909465E475F001121E03121B6BF5FC904F
:102A68009465E475F001121E03121B6BF5FDD2FE8E
:102A780020FEFD90946874FF75F0FC121BD50229A6
:102A88005AE4F5F8D2AF227BFF7A44790678077CBE
:102A9800947D017E007F20121B457B017A94790783
:102AA800909429121E1A90942C121E1AE4909427BE
:102AB800F0A3F0909427E0FEA3E0C3EE9402400355
:102AC800022B58909427E0A3E07803C333CE33CE8B
:102AD800D8F92400FFEE3420FEE4FCFD9094521255
:102AE8001DB1909456E4F0A37408F07D007C307F0B
:102AF8005A123BE97B017A947907909454E4F0A345
:102B08007410F07F007E301225B6909429121DFAB9
:102B1800121C01645A7004E5F064A5602690942C98
:102B2800121DFA121C01B4A527E5F0B45A2290949C
:102B38002C121DFA78387C927D017E007F08121BCA
:102B480045800D909427E475F001121BD5022ABB2D
:102B5800E4909427F0A3F0909427E0FEA3E0C394B8
:102B68000AEE94004003022CEA7BFF7A4479267827
:102B78002F7C947D017E007F20121B457B017A917A
:102B880079F1782F7C947D017E007F1A121B459085
:102B98009427E0FEA3E0FF7C007D1B121BC3EF24FB
:102BA80064FFE43E909433F0A3EFF09094387401FE
:102BB800F0909427E0FEA3E090925B75F006121D5A
:102BC800EEEE75F006A42583F583E0FEA3E0FF7B17
:102BD800017A94792F909468E4F0A37420F0122875
:102BE800237B017A92790B782F7C947D017E007F7C
:102BF8001A121B45909427E0FEA3E0FF7C007D1B82
:102C0800121BC3EF2464FFE43E909433F0A3EFF06B
:102C18009094387401F0909427E0FEA3E090925DC0
:102C280075F006121DEEEE75F006A42583F583E017
:102C3800FEA3E0FF7B017A94792F909468E4F0A3D7
:102C48007420F01228237B017A927997782F7C944C
:102C58007D017E007F1A121B45909427E0FEA3E0B9
:102C6800FF7C007D1B121BC3EF2464FFE43E90949D
:102C780033F0A3EFF0909427E0FEA3E0FF121BC30C
:102C8800EF2464FFE43E909439F0A3EFF09094278A
:102C9800E0FEA3E0FF121BC3EF247DFFE43E909407
:102CA8003DF0A3EFF0909427E0FEA3E090925F75CB
:102CB800F006121DEEEE75F006A42583F583E0FEFE
:102CC800A3E0FF7B017A94792F909468E4F0A374D1
:102CD80020F0122823909427E475F001121BD502E6
:102CE8002B5F227B007A007900909407121E1A90BD
:102CF80092C0E064016003022D829092BBE0FF90D5
:102D080092DDE0D39F4011E09092BBF090935E1269
:102D18001DBD0000000080629092BBE0FF9092DD34
:102D2800E06F7056FFFEFDFC90935E121DA5D31256
:102D38001D74403890935E121DA5C3E50E9BFFE5F8
:102D48000D9AFEE50C99FDE50B98FCE47B0AFAF96F
:102D5800F8C3121D7450237B017A9279DE9092DDBC
:102D6800E0FD7C0012206E124353800EAF0EAE0DB4
:102D7800AD0CAC0B90935E121DB19092B1E030E0B7
:102D88003AE020E1299092BC121DA5C3E50E9BFBF9
:102D9800E50D9AFAE50C99F9E50B98F89092C5E0DB
:102DA800FFE4FCFDFEC3121D745003022E9790929F
:102DB800B1E030E12DA3E004F080279092BC121D11
:102DC800A5C3E50E9BFFE50D9AFEE50C99FDE50B05
:102DD80098FCE47BF47A01F9F8D3121D74400302DD
:102DE8002E979092B2E07003123005AF0EAE0DAD83
:102DF8000CAC0B9092BC121DB19092B1E054FDF056
:102E0800E054FEF07B017A9279B21223289092B2B4
:102E1800E0C39401748094805070E075F00EA4248F
:102E2800CFF9749235F0FA7B0178C17C927D017EEE
:102E3800007F0E121B459092C3E0640370117B0162
:102E48007A9279C112362A9092B1E04401F0229028
:102E580092C3E0640670389092C9E0FEA3E0FF7B5D
:102E6800017A94790A909454E4F0A37402F012253C
:102E7800B67B017A9279C190940AE0FCA3E0FD1236
:102E880037459092B1E04401F022E49092B2F022EA
:102E9800E4909407F0A3F0E50F20E0030230047BF0
:102EA800017A947907909454E4F0A37402F07F14A3
:102EB8007E501225B6909407E0FEA3E04E70030200
:102EC8003004909407E0A3E08EF0121E492FC1A4AD
:102ED800002FC6A4012FCBA4A02FCBA4A12FCBA435
:102EE800A22FCBA4A32FCBA4A42FCBA4A52FCBA4D4
:102EF800A62FCBA4A72FCBA4A82FCBA4A92FCBA4B4
:102F0800AA2FCBA4AB2FCBA4AC2FCBA4AD2FCBA493
:102F1800AE2FCBA4AF2FCBA4B02FCBA4B12FCBA473
:102F2800B22FCBA4B32FCBA4B42FCBA4B52FCBA453
:102F3800B62FCBA4B72FCBA4B82FCBA4B92FCBA433
:102F4800BA2FCBA4BB2FCBA4BC2FCBA4BD2FCBA413
:102F5800BE2FCBA4BF2FCBA4C02FCBA4C12FCBA4F3
:102F6800C22FCBA4C32FCBA4C42FCBA4C52FCBA4D3
:102F7800C62FCBA4C72FCBA4C82FCBA4C92FCBA4B3
:102F8800CA2FCBA4CB2FCBA4CC2FCBA4CD2FCBA493
:102F9800CE2FCBA4CF2FCBA4D02FCBA4D12FD8A466
:102FA800F02FD8A4F12FD8A4F22FD8A4F32FE5A698
:102FB800002FE8A60100002FE8123E5280221200DE
:102FC80016801D909407E0FEA3E0FF1240AF80102A
:102FD800909407E0FEA3E0FF1241098003123A082B
:102FE800E4909407F0A3F07B017A947907909468B1
:102FF800F0A37402F07F147E50122823227BFF7AFC
:10300800447986780C7C947D017E007F28121B45CC
:10301800E4909434F0A3F0909434E0FEA3E0C394D9
:1030280001EE94004003023149909434E0A3E07823
:1030380003C333CE33CED8F924B4F58274923EF567
:1030480083E0FF909483E0FCA3E0FDEF6D7001EC5A
:10305800600302313C909434E0FEA3E07803C3336C
:10306800CE33CED8F924B5F58274923EF583E0FECE
:10307800A3E0FF7B017A94790C909454E4F0A37454
:1030880002F01225B6909434E0FEA3E07803C3332F
:10309800CE33CED8F924B7F58274923EF583E0FE9C
:1030A800A3E0FF7B017A94790E909454E4F0A37422
:1030B80002F01225B690940EE0FEA3E0FF90940C67
:1030C800E0FCA3E06F7002EC6E6069909434E0FE5F
:1030D800A3E07803C333CE33CED8F924B7F582748E
:1030E800923EF583E0FEA3E0FF7B017A94790C9091
:1030F8009468E4F0A37402F0122823909410E4F08A
:10310800A3745AF0909434E0FEA3E07803C333CE5E
:1031180033CED8F924B9F58274923EF583E0FEA344
:10312800E0FF7B017A947910909468E4F0A374022C
:10313800F0122823909434E475F001121BD5023064
:103148001F2290943FEFF07BFF7A44796678407CA9
:10315800947D017E007F20121B457B017A9179F1D5
:1031680078407C947D017E007F1A121B4590943F25
:10317800E075F01BA42464FFE435F0909444F0A3B8
:10318800EFF09094497401F090943FE075F006A434
:10319800245BF582E43492F583E0FEA3E0FF7B0133
:1031A8007A947940909468E4F0A37420F01228236C
:1031B8007B017A92790B78407C947D017E007F1A9E
:1031C800121B4590943FE075F01BA42464FFE4357E
:1031D800F0909444F0A3EFF09094497401F0909427
:1031E8003FE075F006A4245DF582E43492F583E0AF
:1031F800FEA3E0FF7B017A947940909468E4F0A301
:103208007420F01228237B017A92799778407C9475
:103218007D017E007F1A121B4590943FE075F01BDC
:10322800A42464FFE435F0909444F0A3EFF0909464
:103238003FE075F01BA42464FFE435F090944AF055
:10324800A3EFF090943FE075F01BA4247DFFE435D4
:10325800F090944EF0A3EFF090943FE075F006A440
:10326800245FF582E43492F583E0FEA3E0FF7B015E
:103278007A947940909468E4F0A37420F01228239B
:1032880022E50F30E0167B017A947983909454E418
:10329800F0A37402F07F147E001225B6E50F20E239
:1032A800030233C6909483E0FEA3E0642C4E6003CF
:1032B8000233407B017A94790D909454F0A3740200
:1032C800F07FA07ECC1225B690940DE0FEA3E0FF1F
:1032D800EEC4F854F0C868FEEFC4540F48EE540F1B
:1032E800909407F0A3E4F0909407E0FCA3E0FD902D
:1032F800940DE0FEA3E07807CEC313CE13D8F9549B
:103308001FFFECFEED4FFF909407EEF0A3EFF09057
:10331800940DE0A3E0547F909409F0A3E4F004A393
:10332800F0A3F0FB7A947907909468E4F0A374060C
:10333800F07F207ECC1228237B017A947907909421
:1033480054E4F0A37402F07F167E001225B6909420
:1033580007E0FEA3E04E6024E4909407F0A3F07B1E
:10336800017A947907909468F0A37402F07F167E2E
:1033780000122823E4909481F0A3F022909481E035
:10338800FEA3E0C39458EE9402500B909481E47528
:10339800F001121BD522909481E0FEA3E0B4581EE0
:1033A800EEB4021A909481E475F001121BD5909442
:1033B80083E0FEA3E04E6006E4FFFE124264229022
:1033C800943FEFF0A3ECF0A3EDF0A3EBF07BFF7AD2
:1033D80044794678437C947D017E007F20121B450A
:1033E8007B017A9179F178437C947D017E007F1A84
:1033F800121B4590943FE075F01BA42464FFE4354C
:10340800F0909447F0A3EFF0E490944CF09094403F
:10341800E0FEA3E02401FFE43E909443F0A3EFF024
:1034280090943FE075F006A4245BF582E43492F5AD
:1034380083E0FEA3E0FF7B017A947943909468E4EB
:10344800F0A37420F01228237B017A92790B784339
:103458007C947D017E007F1A121B4590943FE07595
:10346800F01BA42464FFE435F0909447F0A3EFF038
:10347800909442E0FFC3740E9F90944CF090944057
:10348800E0FEA3E02404FFE43E909443F0A3EFF0B1
:1034980090943FE075F006A4245DF582E43492F53B
:1034A80083E0FEA3E0FF7B017A947943909468E47B
:1034B800F0A37420F0122823909440E0FEA3E024A7
:1034C80008FFE43E909443F0A3EFF090943FE0753A
:1034D800F006A4245FF582E43492F583E0FEA3E0CD
:1034E800FF7B017A947943909468E4F0A37402F026
:1034F80012282322C0E0C0F0C083C082C0D075D09B
:1035080000C000C001C002C003C004C005C006C09E
:1035180007C2AF758CBC758ACD909471E475F001C3
:10352800121BD5909471E0FEA3E0D394E8EE9403C7
:103538004018909471E4F0A3F0A375F001121BD524
:1035480090946FE475F001121BD543C90190947DE6
:10355800121D99E47B01FAF9F8121C8390947D12EC
:103568001DB1909475E475F001121BD590947712F3
:103578001D99E4F8121C83909477121DB190947BE6
:10358800E0FEA3E0FFE4FCFD7BDC7AFFF8D3121D2C
:103598005E400A90947BE475F001121BD50509E59D
:1035A8000970020508AF0EAE0DAD0CAC0BE47B0143
:1035B800FAF9F8121C838F0E8E0D8D0C8C0BE47BA0
:1035C80064121CCCAC00AD01AE02AF03E4FBFAF907
:1035D800F8C3121D747003430A02E47BF47A01F9FC
:1035E800F8AF0EAE0DAD0CAC0B121CCCAC00AD019F
:1035F800AE02AF03E4FBFAF9F8C3121D747003437B
:103608000A04430A01D2AFD007D006D005D004D0AF
:1036180003D002D001D000D0D0D082D083D0F0D057
:10362800E03290940C121E1AE4909411F090940CCD
:10363800121DFA900001121B84FF909411E0FE0401
:10364800F074122EF582E43494F583EFF09094111F
:10365800E0FF04F074122FF582E43494F5837403C8
:10366800F090940C121DFA90000A121C2CE5F0FF41
:10367800909411E0FE04F074122EF582E43494F56F
:1036880083EFF090940C121DFA90000A121C2CFF84
:10369800909411E0FE04F074122EF582E43494F54F
:1036A80083EFF090940C121DFA900003121B84FF14
:1036B800E4909411E0FE04F074122EF582E4349440
:1036C800F583E4F090940C121DFA900003121B8409
:1036D800FF909411E0FE04F074122EF582E4349405
:1036E800F583EFF07B017A947912909411E0FD7CD8
:1036F80000123CEB90940FEEF0A3EFF090940FE0E3
:10370800FEA3E0EEFFA3E0FE04F074122EF582E4BF
:103718003494F583EFF090940FE0A3E0FFA3E0FE6C
:1037280004F074122EF582E43494F583EFF07B01F3
:103738007A947912909411E0FD1240552290940CDD
:10374800121E1A90940FECF0A3EDF0E4909413F08D
:1037580090940C121DFA900001121B84FF90941390
:10376800E0FE04F074142EF582E43494F583EFF04F
:10377800909413E0FF04F074142FF582E43494F568
:10378800837406F090940C121DFA90000A121C2CF7
:10379800E5F0FF909413E0FE04F074142EF582E433
:1037A8003494F583EFF090940C121DFA90000A12ED
:1037B8001C2CFF909413E0FE04F074142EF582E4A0
:1037C8003494F583EFF090940FE0FEA3E0EEFF90C1
:1037D8009413E0FE04F074142EF582E43494F58317
:1037E800EFF090940FE0A3E0FF909413E0FE04F054
:1037F80074142EF582E43494F583EFF07B017A9407
:103808007914909413E0FD7C00123CEB909411EE37
:10381800F0A3EFF0909411E0FEA3E0EEFFA3E0FE2A
:1038280004F074142EF582E43494F583EFF0909448
:1038380011E0A3E0FFA3E0FE04F074142EF582E487
:103848003494F583EFF07B017A947914909413E023
:10385800FD1240552290923AE0FEA3E07803C3336C
:10386800CE33CED8F92400FFEE3420FEE4FCFD90E0
:103878009452121DB1909456E4F0A37408F07D00A0
:103888007C307FA5123BE990923AE475F001121B57
:10389800D590923AE0FEA3E0C3EE94024007E4908C
:1038A800923AF0A3F090923EE0FEA3E0C3EE9402B9
:1038B800402890923E7402F0A3E4F090923C75F098
:1038C80001121BD590923CE0FEA3E0C3EE940240A7
:1038D80013E490923CF0A3F0800A90923EE475F0D5
:1038E80001121BD5909238745AF0A374A5F07B018D
:1038F8007A927938909468E4F0A37408F07F007E97
:103908003012282390923AE0FEA3E07803C333CE26
:1039180033CED8F92400FFEE3420FEE4FCFD909469
:1039280052121DB1909456E4F0A37404F07D007C0B
:10393800307FA5123BE922909452121DBD00003041
:1039480000909456E4F0A3740AF07D007C307F5A0E
:10395800123BE97B017A9379EF909454E4F0A374D5
:1039680014F07F007E301225B6E4909407F090940E
:1039780007E0C3940674809480506EE025E025E04B
:1039880024EFF582E43493F583121D99E4FBFAF9E8
:10399800F8C3121D746022909407E025E025E02406
:1039A800EFF582E43493F583121D997B3F7A4279CF
:1039B8000F7800C3121D745028909407E025E02565
:1039C800E024CFF582E43493F583121D999094078F
:1039D800E025E025E024EFF582E43493F583121D19
:1039E800B1909407E004F080857B017A9379EF9099
:1039F8009468E4F0A37414F07FA07EA61228232212
:103A08007B017A947909909454E4F0A37410F07FC0
:103A1800207EA61225B6909409E0A3E025E025E0D3
:103A280024F3F582E43493F583121D9990940D12D2
:103A38001DA5C3121D7460087F077E001242642210
:103A4800909415121D99909411121DA5C3121D74FE
:103A580060087F087E0012426422909411121D991A
:103A6800909409E0A3E025E025E024F3F582E4340E
:103A780093F583121DB1124320E490941DF09094A5
:103A88001DE0C3940A748094805018E025E024094E
:103A9800F582E43494F583E4F0A3F090941DE004F7
:103AA800F080DB7B017A947909909468E4F0A37440
:103AB8000CF07F227EA612282322759401759502A8
:103AC800758E0075930075C87075C96075F80078B3
:103AD8007FE4F6D8FD758110023B1E024214E49380
:103AE800A3F8E493A34003F68001F208DFF48029E9
:103AF800E493A3F85407240CC8C333C4540F4420D8
:103B0800C8834004F456800146F6DFE4800B0102C6
:103B1800040810204080900100E47E019360BCA35B
:103B2800FF543F30E509541FFEE493A360010ECF14
:103B380054C025E060A840B8E493A3FAE493A3F83E
:103B4800E493A3C8C582C8CAC583CAF0A3C8C582FE
:103B5800C8CAC583CADFE9DEE780BEC0E0C0F0C0DE
:103B680083C082C0D075D000C000C004C006C007A2
:103B780090946CE4F0C2AFE59B30E03DE59CF0E04A
:103B8800FF9090EBE0FCA3E024F1F58274903CF503
:103B980083EFF09090EBE475F001121BD5539BFE78
:103BA800539BFE9090EBE0FEA3E0C39480EE94005C
:103BB80040079090EBE4F0A3F0E59B30E10B539BBA
:103BC800FD539BFD9090EAE4F043C901D2AFD007C2
:103BD800D006D004D000D0D0D082D083D0F0D0E0AE
:103BE8003290944FEFF0A3ECF0A3EDF0E4F5F1F58B
:103BF800F275F30475F40175F88F30FCFD90944F5D
:103C0800E0F5FA909452121D997810121D858FFBD9
:103C1800909452121D997808121D858FFC90945229
:103C2800121D99EF54FEFFE48FFDD2FE20FEFD9099
:103C38009450E0FEA3E0EEF5FA909450E0A3E0542F
:103C4800FEF5FB909456E0FEA3E0EEF5FC9094564A
:103C5800E0A3E054FEF5FDD2FE20FEFDE4F5F87F7A
:103C680004FE1241632290940DEEF0A3EFF09094BD
:103C78000DE0FEA3E04E70041242EA2290940DE09B
:103C8800FEA3E064014E70041241BC2290940DE042
:103C9800FEA3E064024E604A90940DE0A3E0640342
:103CA8004E703FA3F090940FE0C394067480948004
:103CB800502DE025E025E024CFF582E43493F58308
:103CC800121D9990940FE025E025E024EFF582E499
:103CD8003493F583121DB190940FE004F080C6125E
:103CE800432022909428121E1A90942BECF0A3EDF6
:103CF800F0A374FFF0A3F090942B74FFF5F0121B5F
:103D0800EB45F0604D909428E475F001121E031203
:103D18001B6BFF90942DE06FFF90942FE4F0A3EFBE
:103D2800F090942FE0FEA3E02469F582748E3EF5AE
:103D380083E0FF90942EE06F90942DF090942FE004
:103D4800A3E02469F582748F3EF583E090942EF009
:103D580080A590942DE0FEA3E0FDEEEDFF22C0E0EB
:103D6800C0F0C083C082C0D075D000C000C004C0FD
:103D780006C00790946DE4F0C2AFE5975401640162
:103D8800703AE59FF0E0FF9090EDE0FCA3E024712D
:103D9800F58274913CF583EFF09090EDE475F001B5
:103DA800121BD55397FE9090EDE0FEA3E0C39480DC
:103DB800EE940040079090EDE4F0A3F043C901D2DF
:103DC800AFD007D006D004D000D0D0D082D083D0D6
:103DD800F0D0E032C0E0C0F0C083C082C0D075D05F
:103DE80000C000C004C006C00790946EE4F0C2AFE3
:103DF800E5AB54016401703AE5ADF0E0FF9090EF57
:103E0800E0FCA3E02469F58274903CF583EFF09020
:103E180090EFE475F001121BD553ABFE9090EFE0E4
:103E2800FEA3E0C39480EE940040079090EFE4F086
:103E3800A3F043C901D2AFD007D006D004D000D038
:103E4800D0D082D083D0F0D0E0327BFF7A00796680
:103E580078097C947D017E007F04121B457B017AE2
:103E6800947909909454E4F0A37404F07F207EA41C
:103E78001225B6909364E0FF7B017A947909123E8B
:103E8800C6EF600D1242AB909364E09093CBF08044
:103E9800077F057E001242647E007F047D007B015F
:103EA8007A9479091220207B017A94790990946890
:103EB800E4F0A37404F07F207EA4122823229094B7
:103EC8000DEFF0A3121E1A90940DE070037F0122EB
:103ED80090940DE0909411F0909411E0C3940674BE
:103EE8008094805040E075F004A424EFF974933571
:103EF800F0FA7B01C003C002C00190940E121DFAB3
:103F0800A801AC02AD03D001D002D0037E007F042B
:103F1800121FFCEF3395E04F70037F01229094113C
:103F2800E004F080B37F002290943FEBF0A3EAF026
:103F3800A3E9F0E4909447F0A3F090944574FFF55A
:103F4800F0121BEB45F0603C909442E0FBA3E0FAD2
:103F5800A3E0F9121B6BFF90943FE0FBA3E0FAA3E8
:103F6800E0F9909447E475F001121BEB85F082F5B7
:103F780083EF12204CEF60C2909443E475F0011275
:103F88001BD580B690943FE0FBA3E0FAA3E0F922AA
:103F9800C0E0C083C082C0D075D000C006C0079002
:103FA800946BE4F0C2AF309830E599F09092DDE080
:103FB800C3948074809480501E90946BE0FF90921C
:103FC800DDE0FE04F074DE2EF582E43492F583EF32
:103FD800F09092C07401F0C298309907C2999090FD
:103FE800E9E4F0D2AFD007D006D0D0D082D083D0C9
:103FF800E03290940BEEF0A3EFF090940BE0FEA368
:10400800E0D394D1EE94A4501990940BE0A3E0254A
:10401800E0FFEE33FE74282FF582744A3EF583E004
:10402800FF2290940BE0FEA3E0D394F3EE94A45007
:104038001990940BE0A3E025E0FFEE33FE74082FFF
:10404800F582744A3EF583E0FF227F05229094288A
:10405800121E1A90942BEDF07B007A007900C003B1
:10406800C002C001909428121DFAD082D083D0E0FB
:104078006B7008E965827003EA6583602990942B68
:10408800E0602390942BE0FF14F0EF6019909428DF
:10409800121DFA121B6BFF1243B0909429E475F0BD
:1040A80001121BD580DD22909409EEF0A3EFF09069
:1040B8009409E0FEA3E02460FFEE345B9093CDF01A
:1040C800A3EFF0909483E0FEA3E0FF909365EEF0F9
:1040D800A3EFF0909409E0FEA3E0FF123FFA90935B
:1040E80064EFF0E49093CCF09093CBE0FF9093646E
:1040F800E0D39F50041242AB227F047E0012426438
:1041080022909409EEF0A3EFF0909409E0FEA3E06A
:104118002410FFEE345B909362F0A3EFF0909409C3
:10412800E0A3E0FF123FFA909364EFF0909483E0ED
:10413800FEA3E0FF909365EEF0A3EFF09093CC74AC
:1041480001F09093CBE0FF909364E0D39F5004126A
:1041580042AB227F047E0012426422909458EEF013
:10416800A3EFF0E4F5F1909458E0FEA3E0EEF5F249
:10417800909458E0A3E0F5F3E4F5F4E4909458F053
:10418800A3F0909458E0FEA3E0C394E8EE940350A3
:104198000F85FCFB909458E475F001121BD580E262
:1041A80075F8AF30FCFDD2FE20FEFDE4F5F8AFFA5D
:1041B800EF70C8227E007F087D007B017A927938F3
:1041C8001220207B017A927938909468E4F0A374E5
:1041D80008F07F007E3012282390923AE0FEA3E098
:1041E8007803C333CE33CED8F92400FFEE3420FE53
:1041F800E4FCFD909452121DB1909456E4F0A3741F
:1042080004F07D007C307FA5123BE92212006E127B
:1042180043F8122A8F12393FE50A30E01C430F0198
:10422800E50A30E103430F02E50A30E203430F04D5
:10423800530AFE530AFD530AFB43C901122CEB1221
:1042480032891213B2122E981243DBE50F30E0C800
:10425800530FFE530FFD530FFB80BD2290941EEEAB
:10426800F0A3EFF07BFF7A00795E78207C947D01E3
:104278007E007F04121B4590941EE0FEA3E0EE90A2
:104288009422F090941EA3E0909423F07B017A94FA
:104298007920909468E4F0A37404F07F847E00127F
:1042A8002823229093CCE0121E2342BC0042D30163
:1042B800000042E99093CDE0FEA3E0FF1242649033
:1042C80093CDE0FEA3E0FF12008622909362E0FE09
:1042D800A3E0FF123C6E909365E0FEA3E0FF12425C
:1042E8006422909410E4F0A3745AF07B017A9479D4
:1042F80010909468E4F0A37402F07F207EAC12283A
:10430800237B017A947910909468E4F0A37402F006
:104318007F807EAC122823227B017A9379EF9094D8
:1043280068E4F0A37414F07F007E30122823909480
:1043380052121DBD00003000909456E4F0A3740A98
:10434800F07D007C307FA5123BE922E49092DDF0FD
:104358009092C0F0FE7F80FD7B017A9279DE122078
:1043680020E49092BBF090935E121DBD0000000007
:104378002243B71043C940E49090E9F075D880759E
:10438800985053877F75BA0375AA58D29CD2AC222D
:1043980075F90175B70375BC03E4F5BD75BE0CF579
:1043A80080F590F5A0F5B02290942CEFF09090E96C
:1043B800E0640160F87401F090942CE0F59922759E
:1043C800C870E4F5CDF5CC75CBFF75CAEF43A820CE
:1043D800D2C822909483E0FEA3E04E70049093CB61
:1043E800F022438901758CBC758ACDD2A9D28C2262
:1043F8001243539092BC121DBD0000000022000021
:1044080000000000000000000000000000000000A4
:104418000000000000000000000000000000000094
:104428000000000000000000000000000000000084
:104438000000000000000000000000000000000074
:104448000000000000000000000000000000000064
:104458000000000000000000000000000000000054
:104468000000000000000000000000000000000044
:104478000000000000000000000000000000000034
:104488000000000000000000000000000000000024
:104498000000000000000000000000000000000014
:1044A8000000000000000000000000000000000004
:0444B8000000000000
:00000001FF
