:1000000002398B020006C2AFD2AF320234A7C2AFB0
:10001000D2AF3202000E909985E0FEA3E0FF1241BC
:10002000322232023DF912002E223202005675F9B8
:1000300001E4F5A8F5B8F59AF5A9F5B9F580F590BC
:10004000F5A0F5B075B750F5BCF5BDF5BE2212426E
:02005000742218
:06005300020022C2C632C9
:03005B00023C2F35
:0300630002002A6E
:10006B00023CA5C2AF12002612429312004E12425E
:07007B00F243C902D2AF22DB
:10008300023A2C909A29EEF0A3EFF0909A29E0FE21
:10009300A3E08EF0121DB000AAA00000B3A00100DF
:1000A300D0A002000000EB909980E4F0A304F022BA
:1000B300909980E0FEA3E064014E7009909980F06E
:1000C300A37403F022E4909980F0A3F02290998026
:1000D300E0FEA3E064034E70077FAA7EA41240A350
:1000E300E4909980F0A3F022E4909980F0A3F022A9
:1000F800FFFF4457494E5435429A780000429A7699
:100108000000429A7400005A98C03FC90069006410
:10011800000086000A2D2D203A3A00000000000059
:10012800000000005A98DA3FCC01270064000086DE
:10013800000A2D2D2F3A3A000000000000000000B0
:10014800005A99663FD001E50064000001E50064AB
:1001580002AD007D00100017181802000000603C76
:10016800992A400040A04140401040B041504020F2
:1001780040C04160403040D04170404040E0418044
:10018800405040F041904060410041A04070411013
:1001980041B04080412041C04090413041D0549905
:1001A8001641E041F842104228424042584270420B
:1001B8008842A042B84899070000000000000000EB
:1001C80042990F0000429914000042991100004121
:1001D800991300419906004298F40005498000B23D
:1001E800E2CAD4BABAD7D6006E6080094944303022
:1001F800BBD8B7E7B8DFCEC200000000000000009F
:1002080000000000000000000000000049443031F8
:10021800BBD8B7E7B5CDCEC2000000000000000093
:1002280000000000000000000000000049443032D7
:10023800BBD8B7E7B8DFCAAA00000000000000007A
:1002480000000000000000000000000049443033B6
:10025800BBD8B7E7B8DFCAAA00000000000000005A
:100268000000000000000000000000004944303495
:10027800CBCDB7E7B8DFCEC2000000000000000019
:100288000000000000000000000000004944303574
:10029800CBCDB7E7B5CDCEC200000000000000000E
:1002A8000000000000000000000000004944303653
:1002B800CBCDB7E7B8DFCAAA0000000000000000F5
:1002C8000000000000000000000000004944303732
:1002D800CBCDB7E7B5CDCAAA0000000000000000EA
:1002E8000000000000000000000000004944303811
:1002F800B1A3C1F4000000000000000000000000ED
:1003080000000000000000000000000049443039EF
:10031800C4DAB2BFCDA8D0C50000000000000000BC
:1003280000000000000000000000000049443130D7
:100338004E5443D2ECB3A3000000000000000000BC
:1003480000000000000000000000000049443131B6
:10035800B7E7BBFA31B9CAD5CF00000000000000EA
:100368000000000000000000000000004944313295
:10037800B7E7BBFA32B9CAD5CF00000000000000C9
:100388000000000000000000000000004944313374
:10039800B7E7BBFA33B9CAD5CF00000000000000A8
:1003A8000000000000000000000000004944313453
:1003B800B7E7BBFA34B9CAD5CF0000000000000087
:1003C8000000000000000000000000004944313532
:1003D800B7E7BBFA35B9CAD5CF0000000000000066
:1003E8000000000000000000000000004944313611
:1003F800CDE2B7E7BBFAB9CAD5CF000000000000CC
:1004080000000000000000000000000049443137EF
:10041800B7E7BBFA31D4CBD0D0B3ACCAB100000037
:1004280000000000000000000000000049443138CE
:10043800B7E7BBFA32D4CBD0D0B3ACCAB100000016
:1004480000000000000000000000000049443139AD
:10045800B7E7BBFA33D4CBD0D0B3ACCAB1000000F5
:100468000000000000000000000000004944323095
:10047800B7E7BBFA34D4CBD0D0B3ACCAB1000000D4
:100488000000000000000000000000004944323174
:10049800B7E7BBFA35D4CBD0D0B3ACCAB1000000B3
:1004A8000000000000000000000000004944323253
:1004B800CDE2B7E7BBFAD4CBD0D0B3ACCAB1000019
:1004C8000000000000000000000000004944323332
:1004D800B8DFD1B931B8E6BEAF00000000000000B7
:1004E8000000000000000000000000004944323411
:1004F800B8DFD1B931CBF8CBC00000000000000054
:1005080000000000000000000000000049443235EF
:10051800B5CDD1B931B8E6BEAF000000000000008B
:1005280000000000000000000000000049443236CE
:10053800B5CDD1B931CBF8CBC00000000000000028
:1005480000000000000000000000000049443237AD
:10055800C5C5C6F8CEC2B6C831B8E6BEAF00000001
:10056800000000000000000000000000494432388C
:10057800C5C5C6F8CEC2B6C831CBF8CBC00000009E
:10058800000000000000000000000000494432396B
:10059800B6CCD6DCC6DA31B8E6BEAF000000000043
:1005A8000000000000000000000000004944333053
:1005B800D1B9BBFA31D4CBD0D0B3ACCAB1000000AA
:1005C8000000000000000000000000004944333132
:1005D800B8DFD1B932B8E6BEAF00000000000000B5
:1005E8000000000000000000000000004944333211
:1005F800B8DFD1B932CBF8CBC00000000000000052
:1006080000000000000000000000000049443333EF
:10061800B5CDD1B9D1B9C1A6B8E6BEAF00000000CA
:1006280000000000000000000000000049443334CE
:10063800B5CDD1B932CBF8CBC00000000000000026
:1006480000000000000000000000000049443335AD
:10065800C5C5C6F8CEC2B6C832B8E6BEAF000000FF
:10066800000000000000000000000000494433368C
:10067800C5C5C6F8CEC2B6C832CBF8CBC00000009C
:10068800000000000000000000000000494433376B
:10069800B6CCD6DCC6DA32B8E6BEAF000000000041
:1006A800000000000000000000000000494433384A
:1006B800D1B9BBFA32D4CBD0D0B3ACCAB1000000A8
:1006C8000000000000000000000000004944333929
:1006D800BCD3CAAAC6F7B5E7C1F7B9FDB4F30000A1
:1006E8000000000000000000000000004944343011
:1006F800BCD3CAAAC6F7B8DFCBAECEBB0000000099
:1007080000000000000000000000000049443431EF
:10071800BCD3CAAAC6F7C8B1CBAE0000000000001F
:1007280000000000000000000000000049443432CE
:10073800BCD3CAAAC6F7D4CBD0D0B3ACCAB10000D8
:1007480000000000000000000000000049443433AD
:10075800BCD3C8C8C6F7B8E6BEAF000000000000AA
:10076800000000000000000000000000494434348C
:10077800BCD3C8C8C6F731B3ACCAB100000000008A
:10078800000000000000000000000000494434356B
:10079800BCD3C8C8C6F732B3ACCAB1000000000069
:1007A800000000000000000000000000494434364A
:1007B800B6CFB5E7D6D8C6F40000000000000000A8
:1007C8000000000000000000000000004944343729
:1007D800B5E7D4B4CFE0D0F2B4EDCEF3000000001A
:1007E8000000000000000000000000004944343808
:1007F800B5E7D4B4C6B5C2CAC6ABB8DF00000000BE
:1008080000000000000000000000000049443439E6
:10081800B5E7D4B4C6B5C2CAC6ABB5CD00000000B2
:1008280000000000000000000000000049443530CE
:1008380041CFE0B9FDD1B900000000000000000080
:1008480000000000000000000000000049443531AD
:1008580042CFE0B9FDD1B90000000000000000005F
:10086800000000000000000000000000494435328C
:1008780043CFE0B9FDD1B92000000000000000001E
:10088800000000000000000000000000494435336B
:1008980041CFE0C7B7D1B900000000000000000058
:1008A800000000000000000000000000494435344A
:1008B80042CFE0C7B7D1B900000000000000000037
:1008C8000000000000000000000000004944353529
:1008D80043CFE0C7B7D1B900000000000000000016
:1008E8000000000000000000000000004944353608
:1008F80041CFE0C8B1CFE0000000000000000000D8
:1009080000000000000000000000000049443537E6
:1009180042CFE0C8B1CFE0000000000000000000B6
:1009280000000000000000000000000049443538C5
:1009380043CFE0C8B1CFE000000000000000000095
:1009480000000000000000000000000049443539A4
:10095800C6F8C1F7B6AACAA7B8E6BEAF000000003D
:10096800000000000000000000000000494436308C
:10097800B9FDC2CBCDF8D4CBD0D0B3ACCAB100004E
:10098800000000000000000000000000494436316B
:10099800B9FDC2CBCDF8B6C2B8E6BEAF00000000C4
:1009A800000000000000000000000000494436324A
:1009B800D4B6B3CCB9D8BBFAB8E6BEAF00000000D5
:1009C8000000000000000000000000004944363329
:1009D800D2E7CBAEB8E6BEAF0000000000000000D2
:1009E8000000000000000000000000004944363408
:1009F800C8BABFD8CDA8D0C5D2ECB3A300000000B8
:100A080000000000000000000000000049443635E6
:100A1800B1E4C6B5C6F7B9CAD5CF000000000000DA
:100A280000000000000000000000000049443636C5
:100A3800D7A2CBAEB5E7B5BCC2CAB8DF000000008C
:100A480000000000000000000000000049443637A4
:100A5800D7A2CBAEB5E7B5BCC2CAB5CD0000000081
:100A68000000000000000000000000004944363883
:100A7800D1CCCEEDB8E6BEAF00000000000000000B
:100A88000000000000000000000000004944363962
:100A9800D3C3BBA7D7D4B6A8D2E5B8E6BEAF00008B
:100AA800000000000000000000000000494437304A
:100AB800B5E7D4B4D2ECB3A30000000000000000F6
:100AC8000000000000000000000000004944373129
:100AD800C8EBCBAEB8DFCEC20000000000000000BB
:100AE8000000000000000000000000004944373208
:100AF800CBAEB7A7B9CAD5CF0000000000000000F0
:100B080000000000000000000000000049443733E6
:100B1800C5CCB9DCB6CFC1F7B8E6BEAF000000005F
:100B280000000000000000000000000049443734C5
:100B3800B7E7BBFA36B9CAD5CF00000000000000FD
:100B480000000000000000000000000049443735A4
:100B5800B7E7BBFA37B9CAD5CF00000000000000DC
:100B68000000000000000000000000004944373683
:100B7800B7E7BBFA38B9CAD5CF00000000000000BB
:100B88000000000000000000000000004944373762
:100B9800B7E7BBFA36B3ACCAB100000000000000EA
:100BA8000000000000000000000000004944373841
:100BB800B7E7BBFA37B3ACCAB100000000000000C9
:100BC8000000000000000000000000004944373920
:100BD800B7E7BBFA38B3ACCAB100000000000000A8
:100BE8000000000000000000000000004944383008
:100BF800C5C5CBAEB8DFCBAECEBB00000000000051
:100C080000000000000000000000000049443831E6
:100C1800BCD3CAAAC6F7D2ECB3A3000000000000F8
:100C280000000000000000000000000049443832C5
:100C3800B7E7D1B9B9FDB5CD00000000000000004C
:100C480000000000000000000000000049443833A4
:100C5800BAECCDE2BCD3CAAAB9FDC8C800000000EE
:100C68000000000000000000000000004944383483
:100C7800D1B9BBFA31B8DFD1B900000000000000DB
:100C88000000000000000000000000004944383562
:100C9800B7E7BBFAB5E7C1F7B9FDB4F30000000048
:100CA8000000000000000000000000004944383641
:100CB800B8A8C2B7C8EBCBAEB8DFCEC20000000000
:100CC8000000000000000000000000004944383720
:100CD800454556B8E6BEAF00000000000000000021
:100CE80000000000000000000000000049443838FF
:100CF800BDD3CBAEC5CCD2E7CBAE00000000000020
:100D080000000000000000000000000049443839DD
:100D1800C5C5C6F8B8DFCEC200000000000000005C
:100D280000000000000000000000000049443930C5
:100D3800C9E8B1B8CAB9D3C3B3ACCAB1000000009E
:100D480000000000000000000000000049443931A4
:100D5800B1A3C1F400000000000000000000000082
:100D68000000000000000000000000004944393283
:100D7800B1A3C1F400000000000000000000000062
:100D88000000000000000000000000004944393362
:100D9800B1A3C1F400000000000000000000000042
:100DA8000000000000000000000000004944393441
:100DB800B1A3C1F400000000000000000000000022
:100DC8000000000000000000000000004944393520
:100DD800B1A3C1F400000000000000000000000002
:100DE80000000000000000000000000049443936FF
:100DF800B1A3C1F4000000000000000000000000E2
:100E080000000000000000000000000049443937DD
:100E1800BBD8B7E7CEC2CAAAB6C8B4ABB8D0C6F773
:100E280000000000000000000000000049443938BC
:100E3800CBCDB7E7CEC2CAAAB6C8B4ABB8D0C6F74E
:100E4800000000000000000000000000494439399B
:100E5800BCD3CAAAB0E5D2ECB3A3000000000000DE
:100E6800000000000000000000000000494431308C
:100E780030C6C1C4BBD2D1CBF8B6A8000000000070
:100E8800000000000000000000000000494431306C
:100E980031D2BBCCECBDABCBF8B6A800000000004B
:100EA800000000000000000000000000494431304C
:100EB80032C8FDCCECBDABCBF8B6A80000000000F2
:100EC800000000000000000000000000494431302C
:100ED80033C6DFCCECBDABCBF8B6A80000000000F1
:100EE800000000000000000000000000494431300C
:100EF80034CAAECEE5CCECBDABCBF8B6A80000004A
:100F080000000000000000000000000049443130EB
:100F180035C8FDCAAECCECBDABCBF8B6A800000016
:100F280000000000000000000000000049443130CB
:100F380036B5E7D4B432CFE0D0F2B4ED000000000B
:100F480000000000000000000000000049443130AB
:100F580037B5E7D4B432C6B5C2CAB8DF000000005E
:100F6800000000000000000000000000494431308B
:100F780038B5E7D4B432C6B5C2CAB5CD0000000052
:100F8800000000000000000000000000494431306B
:100F980039B5E7D4B43241CFE0B9FDD1B90000008A
:100FA800000000000000000000000000494431314A
:100FB80030B5E7D4B43242CFE0B9FDD1B900000072
:100FC800000000000000000000000000494431312A
:100FD80031B5E7D4B43243CFE0B9FDD1B900000050
:100FE800000000000000000000000000494431310A
:100FF80032B5E7D4B43241CFE0C7B7D1B900000069
:1010080000000000000000000000000049443131E9
:1010180033B5E7D4B43242CFE0C7B7D1B900000046
:1010280000000000000000000000000049443131C9
:1010380034B5E7D4B43243CFE0C7B7D1B900000024
:101048000000000000000000000000004197B80008
:101058004197B9004297BA00004297BC00004297F6
:10106800BE0000429A640000429A660000429A62FA
:101078000000449A7000000000429A680000449AF8
:101088006A0000000002080000040B000000004293
:101098009A6E0000010A006100953800C181400184
:1010A800C0804101C0804100C1814001C080410031
:1010B800C1814000C1814001C0804101C080410020
:1010C800C1814000C1814001C0804100C18140010F
:1010D800C0804101C0804100C1814001C080410001
:1010E800C1814000C1814001C0804100C1814001EF
:1010F800C0804101C0804100C1814000C1814001E0
:10110800C0804101C0804100C1814001C0804100D0
:10111800C1814000C1814001C0804101C0804100BF
:10112800C1814000C1814001C0804100C1814001AE
:10113800C0804101C0804100C1814000C18140019F
:10114800C0804101C0804100C1814001C080410090
:10115800C1814000C1814001C0804100C18140017E
:10116800C0804101C0804100C1814001C080410070
:10117800C1814000C1814001C0804101C08041005F
:10118800C1814000C1814001C0804100C18140014E
:10119800C0804101C0804100C18140610096380093
:1011A800C0C101C30302C2C60607C705C5C404CC33
:1011B8000C0DCD0FCFCE0E0ACACB0BC90908C8D863
:1011C8001819D91BDBDA1A1EDEDF1FDD1D1CDC1423
:1011D800D4D515D71716D6D21213D311D1D010F0F3
:1011E8003031F133F3F23236F6F737F53534F43C73
:1011F800FCFD3DFF3F3EFEFA3A3BFB39F9F8382843
:10120800E8E929EB2B2AEAEE2E2FEF2DEDEC2CE462
:101218002425E527E7E62622E2E323E12120E0A0D2
:101228006061A163A3A26266A6A767A56564A46CB2
:10123800ACAD6DAF6F6EAEAA6A6BAB69A9A86878E2
:10124800B8B979BB7B7ABABE7E7FBF7DBDBC7CB4A2
:101258007475B577B7B67672B2B373B17170B050B2
:101268009091519353529296565797559594549CF2
:101278005C5D9D5F9F9E5E5A9A9B5B9959589888C2
:101288004849894B8B8A4A4E8E8F4F8D4D4C8C44E2
:101298008485458747468682424383418180404111
:1012A80094B300418FB80044953400000000418F8A
:1012B800B300448FB40000000064EC8FC75A0203E7
:1012C80001C8010000A020004B00FF5A020302C819
:1012D800010000A02101F600FF5A020302C8010024
:1012E80000A02301F900FF5A020302C8010000A070
:1012F8002501FF00FF5A020301C8010000A02700D2
:101308006400FF5A020301C8010000A028006D0014
:10131800FF5A020301C8010000A029007200FF5A09
:10132800020601C802A08AA02A006E00FF5A02061F
:1013380001C802A08BA02B006F00FF5A020301C84E
:1013480001000BAB20020100FF5A020301C8010093
:101358000BAB21020300FF5A020301C801000BABCB
:1013680022020200FF5A020303C801000BAB23024A
:101378000A00FF5A020301C801000CAC2000AB00B0
:10138800FF5A020309C801000CAC2101F600FF5AFC
:10139800020301C801000CAC2A020600FF5A02032E
:1013A80004C801000CAC2B021300FF5A020301C849
:1013B80001000DAD2001F600FF5A020301C801002B
:1013C8000DAD2101FB00FF5A020301C801000DAD5C
:1013D80022021700FF5A020301C801000DAD2302C3
:1013E8001A00FF5A020305C803AE00AE20006400CD
:1013F8000E5A020301C803AE00AE250094000E5A2F
:10140800020302C803AE00AE2600A1000E5A020372
:1014180002C803AE00AE2800B6000E5A020601C884
:1014280003AE80AE200064000E5A020601C803AE67
:1014380081AE210065000E5A020601C803AE82AED5
:10144800220066000E5A020601C803AE83AE2300CE
:1014580067000E5A020601C803AE84AE2400680075
:101468000E5A020601C803AE85AE250094000E5A36
:10147800020601C803AE86AE2600A1000E5A020677
:1014880001C803AE87AE2700A2000E5A020601C8A3
:1014980003AE88AE2800B6000E5A020601C803AE95
:1014A80089AE2900B7000E5A020301C803AF00AF86
:1014B800200048000F5A020301C803AF00AF210003
:1014C8004B000F5A020302C803AF00AF22006900A5
:1014D8000F5A020301C803AF00AF240072000F5A6D
:1014E800020303C803AF00AF250096000F5A02039A
:1014F80002C803AF00AF28009E000F5A020601C8B9
:1015080003AF80AF200048000F5A020601C803AF9E
:1015180081AF21004B000F5A020601C803AF82AF0A
:10152800220069000F5A020601C803AF83AF2300E7
:101538006A000F5A020601C803AF84AF2400720084
:101548000F5A020601C803AF85AF250096000F5A4F
:10155800020601C803AF86AF260097000F5A02069D
:1015680001C803AF87AF270098000F5A020601C8C9
:1015780003AF88AF28009E000F5A020601C803AFC8
:1015880089AF29009F000F5A020301C803B000B0B9
:1015980020007100105A020301C803B000B02100F6
:1015A8007F00105A020301C803B000B02200810076
:1015B800105A020302C803B000B023009B00105A5F
:1015C800020301C803B000B02500A000105A0203AE
:1015D80002C803B000B02600B900105A020301C8BF
:1015E80003B000B02800BD00105A020301C803B0C0
:1015F80000B02900C200105A020601C803B080B02A
:1016080020007100105A020601C803B081B0210001
:101618007F00105A020601C803B082B02200810080
:10162800105A020601C803B083B023009B00105A69
:10163800020601C803B084B024009C00105A0206B8
:1016480001C803B085B02500A000105A020601C8E1
:1016580003B086B02600B900105A020601C803B0CC
:1016680087B02700BA00105A020601C803B088B034
:101678002800BD00105A020601C803B089B029002D
:10168800C200105A020302C803B100B120006B0067
:10169800115A020302C803B100B122007400115AA2
:1016A800020301C803B100B124007700115A0203F4
:1016B80002C803B100B12500A700115A020301C8EE
:1016C80003B100B12700AA00115A020303C803B1ED
:1016D80000B12800AC00115A020601C803B180B15C
:1016E80020006B00115A020601C803B181B1210024
:1016F8006C00115A020601C803B182B122007400BD
:10170800115A020601C803B183B123007500115AAA
:10171800020601C803B184B124007700115A0206F9
:1017280001C803B185B12500A700115A020601C8F6
:1017380003B186B12600A800115A020601C803B1F8
:1017480087B12700AA00115A020601C803B188B15F
:101758002800AC00115A020601C803B189B129005A
:10176800AD00115A020601C803B18AB12A00AE00C1
:10177800115A020601C803B380B320008200135A2D
:10178800020302C8010013B321020800FF5A020332
:1017980001C8010013B323021100FF5A020301C854
:1017A800010013B324020D00FF4E8FB900000000A2
:1017B80000000000000000000000418E6A0061483F
:1017C8008E6B5A0EAE20AE50AE805A0EAE21AE5180
:1017D800AE815A0EAE22AE52AE825A0EAE23AE5330
:1017E800AE835A0EAE24AE54AE845A0EAE25AE5514
:1017F800AE855A0EAE26AE56AE865A0EAE27AE57F8
:10180800AE875A0EAE28AE58AE885A0EAE29AE59DB
:10181800AE895A0FAF20AF50AF805A0FAF21AF51EA
:10182800AF815A0FAF22AF52AF825A0FAF23AF53D7
:10183800AF835A0FAF24AF54AF845A0FAF25AF55BB
:10184800AF855A0FAF26AF56AF865A0FAF27AF579F
:10185800AF875A0FAF28AF58AF885A0FAF29AF5983
:10186800AF895A10B020B050B0805A10B021B05192
:10187800B0815A10B022B052B0825A10B023B0537F
:10188800B0835A10B024B054B0845A10B025B05563
:10189800B0855A10B026B056B0865A10B027B05747
:1018A800B0875A10B028B058B0885A10B029B0592B
:1018B800B0895A11B120B150B1805A11B121B1513A
:1018C800B1815A11B122B152B1825A11B123B15327
:1018D800B1835A11B124B154B1845A11B125B1550B
:1018E800B1855A11B126B156B1865A11B127B157EF
:1018F800B1875A11B128B158B1885A11B129B159D3
:10190800B1895A11B12AB15AB18A418E6900589ADF
:101918000F000000000000000000000000000000B0
:101928000000000000000000005899EF00000000CF
:101938000001B2070000000200027360000A2D08CF
:101948000007ED654199EBFF60649987000001008D
:101958000200030004000500060007000800090053
:101968000A010B000C000D000E000F011000110001
:1019780012021300140015001600170018001900B1
:101988001A001B021C001D001E001F002000210061
:101998002200230024002500260227002800290011
:1019A8002A002B002C002D002E002F0330003100C0
:1019B800489A0700010103020303054299ED00005C
:1019C8004299850000429982000041998400429919
:1019D80080000000E709F608DFFA8046E709F20808
:1019E800DFFA803E88828C83E709F0A3DFFA803231
:1019F800E309F608DFFA8078E309F208DFFA807075
:101A080088828C83E309F0A3DFFA806489828A8361
:101A1800E0A3F608DFFA805889828A83E0A3F208F7
:101A2800DFFA804C80D280FA80C680D4806980F248
:101A38008033801080A680EA809A80A880DA80E2CD
:101A480080CA803389828A83ECFAE493A3C8C5826A
:101A5800C8CCC583CCF0A3C8C582C8CCC583CCDFAD
:101A6800E9DEE7800D89828A83E493A3F608DFF92B
:101A7800ECFAA9F0EDFB2289828A83ECFAE0A3C88C
:101A8800C582C8CCC583CCF0A3C8C582C8CCC583E1
:101A9800CCDFEADEE880DB89828A83E493A3F2085C
:101AA800DFF980CC88F0EF60010E4E60C388F0ED5E
:101AB8002402B4040050B9F582EB2402B4040050A7
:101AC800AF2323458223901A2C73BB010689828A8F
:101AD80083E0225002E722BBFE02E32289828A8346
:101AE800E49322BB010CE58229F582E5833AF5836C
:101AF800E0225006E92582F8E622BBFE06E92582A7
:101B0800F8E222E58229F582E5833AF583E4932217
:101B1800BB010689828A83F0225002F722BBFE01AC
:101B2800F322EF8DF0A4A8F0CF8CF0A428CE8DF08E
:101B3800A42EFE22C5F0F8A3E028F0C5F0F8E5824F
:101B4800158270021583E038F022A3F8E0C5F0256D
:101B5800F0F0E582158270021583E0C838F0E822BB
:101B6800BB010A89828A83E0F5F0A3E02250068748
:101B7800F009E71922BBFE07E3F5F009E31922890A
:101B8800828A83E493F5F074019322BB0110E58205
:101B980029F582E5833AF583E0F5F0A3E0225009C0
:101BA800E92582F886F008E622BBFE0AE92582F8D4
:101BB800E2F5F008E222E5832AF583E993F5F0A33C
:101BC800E99322BB010A89828A83F0E5F0A3F02217
:101BD8005006F709A7F01922BBFE06F3E5F009F352
:101BE8001922EF2BFFEE3AFEED39FDEC38FC227599
:101BF800F008758200EF2FFFEE33FECD33CDCC33E6
:101C0800CCC58233C5829BED9AEC99E58298400C4D
:101C1800F582EE9BFEED9AFDEC99FC0FD5F0D6E42B
:101C2800CEFBE4CDFAE4CCF9A88222B800C1B90011
:101C380059BA002DEC8BF084CFCECDFCE5F0CBF972
:101C48007818EF2FFFEE33FEED33FDEC33FCEB336A
:101C5800FB10D703994004EB99FB0FD8E5E4F9FA98
:101C6800227818EF2FFFEE33FEED33FDEC33FCC97D
:101C780033C910D7059BE99A4007EC9BFCE99AF910
:101C88000FD8E0E4C9FAE4CCFB2275F010EF2FFF7F
:101C9800EE33FEED33FDCC33CCC833C810D7079BE9
:101CA800EC9AE899400AED9BFDEC9AFCE899F80F4C
:101CB800D5F0DAE4CDFBE4CCFAE4C8F922EB9FF5E1
:101CC800F0EA9E42F0E99D42F0EC6480C864809896
:101CD80045F022EB9FF5F0EA9E42F0E99D42F0E8DC
:101CE8009C45F022E86010ECA2E713FCED13FDEE32
:101CF80013FEEF13FFD8F022E0FCA3E0FDA3E0FE03
:101D0800A3E0FF22E0F8A3E0F9A3E0FAA3E0FB22B6
:101D1800ECF0A3EDF0A3EEF0A3EFF022A882858308
:101D2800F0D083D082121D3B121D3B121D3B121DA9
:101D38003BE473E493A3C583C5F0C583C8C582C8D3
:101D4800F0A3C583C5F0C583C8C582C822A425826F
:101D5800F582E5F03583F58322E0FBA3E0FAA3E002
:101D6800F922F8E0FBA3A3E0F925F0F0E58215825B
:101D780070021583E0FA38F022EBF0A3EAF0A3E949
:101D8800F022D083D082F8E4937012740193700D1E
:101D9800A3A393F8740193F5828883E47374029380
:101DA8006860EFA3A3A380DFD083D082F8E49370A8
:101DB80012740193700DA3A393F8740193F58288AC
:101DC80083E473740293B5F0067403936860E9A31F
:101DD800A3A3A380D8E3F5F009E208B5F06BDFF51B
:101DE8008067E3F5F009E608B5F05EDFF5805A870D
:101DF800F009E608B5F052DFF6804E87F009E208F0
:101E0800B5F046DFF6804288828C8387F009E0A32C
:101E1800B5F036DFF6803288828C8387F009E49348
:101E2800A3B5F025DFF5802188828C83E3F5F009DE
:101E3800E0A3B5F014DFF5801088828C83E3F5F019
:101E480009E493A3B5F002DFF4021F0C808780E950
:101E5800809080D4803E8015806E807E809D80B783
:101E6800808D80A380518074803C021F1889828AEB
:101E780083ECFAE493F5F0A3C8C582C8CCC583CC3B
:101E8800E493A3C8C582C8CCC583CCB5F076DFE39C
:101E9800DEE1807089828A83E493F5F0A3E208B5D5
:101EA800F062DFF4805E89828A83E0F5F0A3E608B9
:101EB800B5F051DFF5804D89828A83E0F5F0A3E221
:101EC80008B5F040DFF5803C89828A83E493F5F019
:101ED800A3E608B5F02EDFF4802A800280578982B5
:101EE8008A83ECFAE493F5F0A3C8C582C8CCC5830D
:101EF800CCE0A3C8C582C8CCC583CCB5F006DFE466
:101F0800DEE280007FFFB5F0020F2240027F01224F
:101F180089828A83ECFAE0F5F0A3C8C582C8CCC5EB
:101F280083CCE0A3C8C582C8CCC583CCB5F0D5DFC7
:101F3800E5DEE380CF89828A83ECFAE0F5F0A3C876
:101F4800C582C8CCC583CCE493A3C8C582C8CCC518
:101F580083CCB5F0AFDFE4DEE280A988F0EF600162
:101F68000E4E60ABED2402B404005098F582EB24C9
:101F780002B40400508E2323458223901E5473EF2D
:101F88004E6012EF60010EEDBB010B89828A83F06F
:101F9800A3DFFCDEFA2289F05007F709DFFCA9F07D
:101FA80022BBFEFCF309DFFCA9F022F8BB010DE51A
:101FB8008229F582E5833AF583E8F0225006E9257F
:101FC80082C8F622BBFE05E92582C8F2227BFF7A89
:101FD80043793378437C9A7D017E007F0C121AACDA
:101FE800E4909A51F07B017A9A792F909A5BF0A34A
:101FF800740AF07F207EA0122591909A33E0A3E026
:1020080020E36A909A39E4F0A304F0909A2FE0A3B1
:10201800E030E63B909A33E0A3E020E628909A3936
:10202800E4F0A37402F0909A33E0A3E020E40B906C
:102038009A39E4F0A37403F0803A909A39E4F0A353
:102048007402F0802F909A39E4F0A304F080259070
:102058009A33E0A3E020E40B909A39E4F0A37403E8
:10206800F08011909A39E4F0A304F08007E4909A84
:1020780039F0A3F07B017A9A7939909A5BE4F0A35E
:102088007402F074A0FFFE1227FE909A35E0FEA3BA
:10209800E0EE30E61E909A35A3E0EE30E70B909A1A
:1020A80039E4F0A37406F0805D909A39E4F0A30453
:1020B800F08053909A35E0FEA3E0EE30E70B909A5B
:1020C80039E4F0A37402F0803D909A37E0A3E03041
:1020D800E009A3E4F0A37403F0802B909A37E0A3FF
:1020E800E030E109A3E4F0A37404F08019909A3772
:1020F800E0A3E030E209A3E4F0A37405F08007E46C
:10210800909A39F0A3F07B017A9A7939909A5BE436
:10211800F0A37402F07FA17EA01227FE909A35E00A
:10212800FEA3E0FFEE541F909A35F0A3EFF0E49081
:102138009A4FF0909A4FE0C39402748094804003C1
:102148000221E6E4A3F0909A50E0C39410748094BE
:10215800805075E0FF7E007401A807088005C3332E
:10216800CE33CED8F9FF909A4FE025E02435F5829A
:10217800E4349AF583E0FCA3E0FDEE5CFEEF5D4EEF
:102188006030909A50E02401FDE433FC909A4FE0CF
:1021980075F010A42DFFE5F03CFE909A51E0FD0487
:1021A800F0ED25E02443F582E4349AF583EEF0A3BC
:1021B800EFF0909A51E0C39406748094805009908F
:1021C8009A50E004F002214E909A51E0C3940674AC
:1021D8008094805009909A4FE004F002213B7B01E3
:1021E8007A9A7943909A5BE4F0A3740AF07FA27E0E
:1021F800A01227FE7B017A9A793B909A5BE4F0A3C0
:102208007406F07F277EA0122591909A3DE0FEA3E8
:10221800E064014E7008909A41F0A3F08026909AED
:102228003DE0FEA3E04E701C909A31E0A3E020E26E
:102238000A909A41E4F0A304F08009909A41E4F0EE
:10224800A37402F0909A33E0A3E030E31D909A3B28
:10225800E0FEA3E04E700A909A41F0A37404F08067
:1022680009909A41E4F0A37403F0909A3FE0FEA32A
:10227800E064014E7008A3F0A37405F0803A909AC8
:102288003FE0FEA3E064024E7008A3F0A37406F0DA
:102298008026909A3FE0FEA3E064034E7008A3F006
:1022A800A37407F08012909A3FE0FEA3E064044E06
:1022B8007006A3F0A37408F07B017A9A7941909A8A
:1022C8005BE4F0A37402F07FA77EA01227FE2290A1
:1022D8009A2C121D81909A2FECF0A3EDF0E4A3F054
:1022E800A3F0909A2FE0FEA3E0FFA3E0FCA3E0C3D5
:1022F8009FEC9E500C909A31E475F001121B3C80C3
:10230800E1909A2FE0FEA3E0C39405EE94005003F9
:10231800022590E4A3F0A3F0909A2C121D61909AE4
:1023280031E0FEA3E0F5828E83121AEB64026003AB
:1023380002256A909A2C121D61909A31E0A3E02937
:10234800F9EA3EFA900001121AEB121D8A235F0384
:1023580024B3060000256A909A2C121D61909A31C8
:10236800E0FEA3E029F9EA3EFA900002121AEBFF18
:10237800909A35E4F0A3EFF0909A31E0A3E0FF9053
:102388009A35E0FCA3E02FFFEC3EFEEF2405FFE4C6
:102398003EFE909A2FE0FCA3E0FDD3EF9DEE9C401B
:1023A80011909A2FE0FEA3E0FFA3EEF0A3EFF00256
:1023B800256A909A2C121D61909A31E0FEA3E029BB
:1023C800F9EA3EFA909A35E0FEA3E02403FDE43EE4
:1023D800FC123BB4909A33EEF0A3EFF0909A2C12D3
:1023E8001D61909A31E0FEA3E029F9EA3EFA909A3D
:1023F80035E0FEA3E029F9EA3EFA900003121AEB51
:10240800FD909A33E0FEA3E0EE6D7001E4600302F4
:10241800256A909A2C121D61909A31E0FEA3E0295A
:10242800F9EA3EFA909A35E0FEA3E029F9EA3EFA85
:10243800900004121AEBFF909A33E0A3E06F70014A
:10244800E4600302256A908FC1E0FEA3E0FF909A42
:102458002C121D61E92403F9E43AFAC003C002C052
:1024680001909A2C121D61900002121AEBFD909AAD
:102478005BE4F0A3EDF0D001D002D0031227FE7E7A
:10248800007F0E7D007B017A8F79B9121F87909AA1
:1024980035E0FEA3E02405FFE43E909A31F0A3EF77
:1024A800F0908E69E04402F002256A909A31E0FECD
:1024B800A3E02408FFE43EFE909A2FE0FCA3E0FD91
:1024C800D3EF9DEE9C4011909A2FE0FEA3E0FFA36E
:1024D800EEF0A3EFF002256A909A2C121D61909AF3
:1024E80031E0FEA3E029F9EA3EFA7D067C00123BC2
:1024F800B4909A33EEF0A3EFF0909A2C121D6190ED
:102508009A31E0FEA3E029F9EA3EFA900006121A91
:10251800EBFD909A33E0FEA3E0EE6D7001E47042AB
:10252800909A2C121D61909A31E0FEA3E029F9EAF5
:102538003EFA900007121AEBFF909A33E0A3E0B539
:102548000720E4909A3175F008121B3C7E007F0E3C
:102558007D007B017A8F79B9121F87908E69E044DC
:1025680002F0909A31E475F001121B3C909A2FE02A
:10257800FEA3E024FBFFEE34FFFEA3E0FCA3E0C3D0
:102588009FEC9E500302232022909A56EEF0A3EF70
:10259800F0A3121D817B007A007900C003C002C03D
:1025A80001909A58121D61D082D083D0E06B7008D8
:1025B800E965827003EA658370030227FD909A5BE0
:1025C800E0FEA3E04E70030227FD909A5BE0A3E0D3
:1025D800FFEEC313FEEF13FF909A56E0FCA3E02F23
:1025E800FFEE3CFED3EF94FEEE94FF40030227FD7E
:1025F800C2AF909A56E0A3E05401909A5DF0909A89
:1026080056E0FEA3E0FFEEC313FEEF13FF909A56C9
:10261800EEF0A3EFF0909A56E0FEA3E07810CEC358
:1026280013CE13D8F9F5F1909A56E0FEA3E0EEF533
:10263800F2909A56E0A3E0F5F3E4F5F875F401D2C8
:10264800FF30FCFDD2FD909A5DE064017072909AB3
:102658005BE0FEA3E064014E700AC2FBC2FAD2F945
:10266800C2F88008C2FBC2FAD2F9D2F8D2FE20FE24
:10267800FD909A5BE0FEA3E064014E701A909A58B0
:1026880075F001121D6AE5FC121B18909A5B74FF25
:10269800F5F0121B3C8029909A58E475F001121D40
:1026A8006AE5FC121B18909A58E475F001121D6A2D
:1026B800E5FD121B18909A5B74FF75F0FE121B3C27
:1026C800909A5BE0FEA3E04E70030227F8909A5BB5
:1026D800E0A3E0C39404EE940040030227A1909A7B
:1026E8005BE0A3E08EF0121DB027150001270B0058
:1026F80002270100030000271DD2FBD2FAD2F9C23B
:10270800F88012D2FBD2FAC2F9C2F88008D2FBC212
:10271800FAC2F9C2F8D2FE20FEFD909A5BE0FEA351
:10272800E08EF0121DB0278E0001276E0002273EB2
:102738000003000027F8909A58E475F001121D6A0A
:10274800E5FA121B18909A58E475F001121D6AE513
:10275800FB121B18909A58E475F001121D6AE5FCEB
:10276800121B180227F8909A58E475F001121D6A96
:10277800E5FA121B18909A58E475F001121D6AE5E3
:10278800FB121B18806A909A58E475F001121D6AB2
:10279800E5FA121B1880598057D2FBD2FAD2F9D227
:1027A800F8D2FE20FEFD909A58E475F001121D6AD9
:1027B800E5FA121B18909A58E475F001121D6AE5A3
:1027C800FB121B18909A58E475F001121D6AE5FC7B
:1027D800121B18909A58E475F001121D6AE5FD1253
:1027E8001B18909A5B74FF75F0FC121B3C0226C8FC
:1027F800E4F5F8D2AF22909A56EEF0A3EFF0A312C8
:102808001D817B007A007900C003C002C001909A44
:1028180058121D61D082D083D0E06B7008E96582C0
:102828007003EA65837003022A69909A5BE0FEA34D
:10283800E04E7003022A69909A5BE0A3E0FFEEC3C2
:1028480013FEEF13FF909A56E0FCA3E02FFFEE3C37
:10285800FED3EF94FEEE94FF4003022A69C2AF90C4
:102868009A56E0A3E05401909A5DF0909A56E0FEE3
:10287800A3E0FFEEC313FEEF13FF909A56EEF0A30A
:10288800EFF0909A56E0FEA3E07810CEC313CE1373
:10289800D8F9F5F1909A56E0FEA3E0EEF5F2909A99
:1028A80056E0A3E0F5F3E4F5F875F401D2FF30FC47
:1028B800FDC2FD909A5DE064017072909A5BE0FE43
:1028C800A3E064014E700AC2FBC2FAD2F9C2F880D2
:1028D80008C2FBC2FAD2F9D2F8909A5BE0FEA3E0F4
:1028E80064014E701A909A5875F001121D6A121AF6
:1028F800D2F5FC909A5B74FFF5F0121B3C8029908E
:102908009A58E475F001121D6A121AD2F5FC909AD1
:1029180058E475F001121D6A121AD2F5FD909A5BFF
:1029280074FF75F0FE121B3CD2FE20FEFD909A5BF0
:10293800E0FEA3E04E7003022A64909A5BE0A3E0F5
:10294800C39404EE94004003022A0D909A5BE0A31E
:10295800E08EF0121DB02982000129780002296E4C
:1029680000030000298AD2FBD2FAD2F9C2F88012F9
:10297800D2FBD2FAC2F9C2F88008D2FBC2FAC2F975
:10298800C2F8909A5BE0FEA3E08EF0121DB029F524
:10299800000129D5000229A6000300002A04909A04
:1029A80058E475F001121D6A121AD2F5FA909A5875
:1029B800E475F001121D6A121AD2F5FB909A58E4D8
:1029C80075F001121D6A121AD2F5FC802F909A58E0
:1029D800E475F001121D6A121AD2F5FA909A58E4B9
:1029E80075F001121D6A121AD2F5FB800F909A58E1
:1029F800E475F001121D6A121AD2F5FAD2FE30FE01
:102A08005B80FB8057D2FBD2FAD2F9D2F8909A5861
:102A1800E475F001121D6A121AD2F5FA909A58E478
:102A280075F001121D6A121AD2F5FB909A58E475D6
:102A3800F001121D6A121AD2F5FC909A58E475F04A
:102A480001121D6A121AD2F5FDD2FE20FEFD909ADF
:102A58005B74FF75F0FC121B3C022935E4F5F8D2D3
:102A6800AF22909A2C121D81909A2C121D61121A75
:102A7800D2909A2FF0909A2FE0C3945A7480948041
:102A88004003022CA1E075F00E908FC7121D55E08F
:102A9800645A6003022C98909A2FE075F00E908F7C
:102AA800CA121D55E07003022C98909A2FE075F019
:102AB8000E908FCC121D55E07003022CA1909A2F16
:102AC800E075F00E908FCC121D55E06401702990CE
:102AD8009A2FE075F00E908FCD121D55E0FEA3E001
:102AE800FF909A78E0FCA3E06F7002EC6E6003023E
:102AF8002C98022CA1022C98909A2FE075F00E9039
:102B08008FCC121D55E064026003022BBD909A2FF2
:102B1800E075F00E908FCD121D55E0FEA3E0FF7B0F
:102B2800017A9A7930909A5BE4F0A37402F0122546
:102B380091909A30E0A3E0645A6003022C98909A2E
:102B48002FE0C3945974809480503CE075F00E9047
:102B58008FDA121D55E06402702D909A2FE075F0FF
:102B68000E908FDB121D55E0FEA3E0FF909A2FE038
:102B780075F00E908FCD121D55E0FCA3E06F70022A
:102B8800EC6E7003022CA1E4909A30F0A3F0909AB6
:102B98002FE075F00E908FCD121D55E0FEA3E0FFDB
:102BA8007B017A9A7930909A5BE4F0A37402F01270
:102BB80027FE022CA1909A2FE075F00E908FCC1270
:102BC8001D55E064036003022C98909A2FE075F07D
:102BD8000E908FD3121D55E0FEA3E0FF909A78E087
:102BE800FCA3E0FDEF6D7002EE6C6003022C989080
:102BF8009A2FE075F00E908FCD121D55E0FEA3E0E0
:102C0800FF7B017A9A7930909A5BE4F0A37402F022
:102C1800122591909A30E0A3E0645A7073909A2F2D
:102C2800E0C39459748094805039E075F00E908F09
:102C3800DA121D55E06403702A909A2FE075F00EA1
:102C4800908FDB121D55E0FEA3E0FF909A2FE075F0
:102C5800F00E908FCD121D55E0FCA3E06F7002ECD2
:102C68006E6036E4909A30F0A3F0909A2FE075F0F9
:102C78000E908FCD121D55E0FEA3E0FF7B017A9ADE
:102C88007930909A5BE4F0A37402F01227FE800971
:102C9800909A2FE004F0022A7D909A2FE0FF909AF4
:102CA8002C121D61EF121B1822E4909A27F0A3F052
:102CB800E50F20E003022E717B017A9A7927909A1A
:102CC8005BE4F0A37402F07F147E50122591909A71
:102CD80027E0FEA3E04E7003022E71909A27E0A32E
:102CE800E08EF0121DB02E2BA0002E2BA0012E2B53
:102CF800A0022E38A0032E38A0042E45A0052E02CF
:102D0800A4002E07A4012E0CA4A02E0CA4A12E0C06
:102D1800A4A22E0CA4A32E0CA4A42E0CA4A52E0CA5
:102D2800A4A62E0CA4A72E0CA4A82E0CA4A92E0C85
:102D3800A4AA2E0CA4AB2E0CA4AC2E0CA4AD2E0C65
:102D4800A4AE2E0CA4AF2E0CA4B02E0CA4B12E0C45
:102D5800A4B22E0CA4B32E0CA4B42E0CA4B52E0C25
:102D6800A4B62E0CA4B72E0CA4B82E0CA4B92E0C05
:102D7800A4BA2E0CA4BB2E0CA4BC2E0CA4BD2E0CE5
:102D8800A4BE2E0CA4BF2E0CA4C02E0CA4C12E0CC5
:102D9800A4C22E0CA4C32E0CA4C42E0CA4C52E0CA5
:102DA800A4C62E0CA4C72E0CA4C82E0CA4C92E0C85
:102DB800A4CA2E0CA4CB2E0CA4CC2E0CA4CD2E0C65
:102DC800A4CE2E0CA4CF2E0CA4D02E0CA4D12E1938
:102DD800A4F02E19A4F12E19A4F22E19A4F32E266C
:102DE800A6002E55A6012E4AB3082E4AB3212E4A14
:102DF800B3222E4AB32300002E55123D1B804E12DB
:102E080000168049909A27E0FEA3E0FF1240A380B5
:102E18003C909A27E0FEA3E0FF12405A802F123818
:102E2800D1802A909A27E0FEA3E0FF120086801D39
:102E3800909A27E0FEA3E0FF122E72801012422122
:102E4800800B909A27E0FEA3E0FF12400FE4909ACF
:102E580027F0A3F07B017A9A7927909A5BF0A37404
:102E680002F07F147E501227FE22909A29EEF0A3DA
:102E7800EFF07BFF7A43793F782B7C9A7D017E00C7
:102E88007F08121AAC7B017A9A792B909A5BE4F04E
:102E9800A37402F07F217EA0122591909A29E0FE6A
:102EA800A3E08EF0121DB02EBBA0032F60A004007B
:102EB800003025909A2BE0A3E030E245E4A3F0A38C
:102EC800F0A3F0A3F07B017A9A792D909A5BF0A396
:102ED8007404F07F2A7EA01227FE909A2DE4F0A3B6
:102EE800745AF0A3E4F0A3745AF07B017A9A792D0E
:102EF800909A5BE4F0A37404F07F8A7EA01227FE08
:102F080022909A2BE0A3E054846003023025A3F0BA
:102F1800A304F0A37413F0A37488F07B017A9A7960
:102F28002D909A5BE4F0A37404F07F2A7EA0122708
:102F3800FE909A2DE4F0A3745AF0A3E4F0A3745A17
:102F4800F07B017A9A792D909A5BE4F0A37404F0EF
:102F58007F8A7EA01227FE22909A2BE0A3E030E71A
:102F680045E4A3F0A3F0A3F0A3F07B017A9A792DAE
:102F7800909A5BF0A37404F07F2A7EA01227FE903B
:102F88009A2DE4F0A3745AF0A3E4F0A3745AF07BEA
:102F9800017A9A792D909A5BE4F0A37404F07F8A01
:102FA8007EA01227FE22909A2BE0A3E05484706D35
:102FB8007B017A9A7931909A5BF0A37402F07F2CA6
:102FC8007EA0122591909A31E0FEA3E064014E7034
:102FD8004C909A2DF0A37402F0A37413F0A3748894
:102FE800F07B017A9A792D909A5BE4F0A37404F04F
:102FF8007F2A7EA01227FE909A2DE4F0A3745AF03F
:10300800A3E4F0A3745AF07B017A9A792D909A5B25
:10301800E4F0A37404F07F8A7EA01227FE227B00CE
:103028007A007900909A27121D81908FB8E0640188
:1030380060030230BD908FB3E0FF9094B3E0D39F5C
:103048004011E0908FB3F0909534121D24000000D9
:10305800008062908FB3E0FF9094B3E06F7056FFEA
:10306800FEFDFC909534121D0CD3121CDB403890E9
:103078009534121D0CC3E50E9BFFE50D9AFEE50C79
:1030880099FDE50B98FCE47B0AFAF9F8C3121CDBFE
:1030980050237B017A9479B49094B3E0FD7C0012BC
:1030A80022D712424E800EAF0EAE0DAD0CAC0B9077
:1030B8009534121D18908E69E030E03AE020E1293D
:1030C800908FB4121D0CC3E50E9BFBE50D9AFAE533
:1030D8000C99F9E50B98F8908FBDE0FFE4FCFDFE34
:1030E800C3121CDB50030231D2908E69E030E12D0F
:1030F800A3E004F08027908FB4121D0CC3E50E9B4B
:10310800FFE50D9AFEE50C99FDE50B98FCE47BF4D0
:103118007A01F9F8D3121CDB40030231D2908E6A8F
:10312800E07003123362AF0EAE0DAD0CAC0B908F96
:10313800B4121D18908E69E054FDF0E054FEF07B47
:10314800017A8E796A122A6A908E6AE0C3945A7458
:103158008094805070E075F00EA424C7F9748F3500
:10316800F0FA7B0178B97C8F7D017E007F0E121A00
:10317800AC908FBBE0640370117B017A8F79B91230
:1031880035D5908E69E04401F022908FBBE064064B
:103198007038908FC1E0FEA3E0FF7B017A9A792A0C
:1031A800909A5BE4F0A37402F01225917B017A8F68
:1031B80079B9909A2AE0FCA3E0FD1236F0908E6966
:1031C800E04401F022E4908E6AF022E50F30E01628
:1031D8007B017A9A7978909A5BE4F0A37402F07F85
:1031E800147E00122591E50F20E203023361909AC4
:1031F80078E0FEA3E0642C4E600302328A7B017AF9
:103208009A792D909A5BF0A37402F07FA07ECC127D
:103218002591909A2DE0FEA3E0FFEEC4F854F0C883
:1032280068FEEFC4540F48EE540F909A27F0A3E4B9
:10323800F0909A27E0FCA3E0FD909A2DE0FEA3E031
:103248007807CEC313CE13D8F9541FFFECFEED4F09
:10325800FF909A27EEF0A3EFF0909A2DE0A3E054A8
:103268007F909A29F0A3E4F004A3F0A3F0FB7A9AE4
:103278007927909A5BE4F0A37406F07F207ECC1245
:1032880027FE909A78E0FEA3E04E7003121FD57BCC
:10329800017A9A7927909A5BE4F0A37402F07F167A
:1032A8007E00122591909A27E0FEA3E04E6025E467
:1032B800909A27F0A3F07B017A9A7927909A5BF08D
:1032C800A37402F07F167E001227FEE4909A74F031
:1032D800A3F08033909A74E0FEA3E0C39458EE9470
:1032E80002500C909A74E475F001121B3C801890FF
:1032F8009A74E0FEA3E0B4580EEEB4020A909A74F1
:10330800E475F001121B3C909A76E0FEA3E0D3949A
:1033180001EE9400400B909A7674FFF5F0121B3C76
:1033280022909A76E0FEA3E064014E702C909A27D2
:10333800F0A3F0909A7674FFF5F0121B3CE4909A93
:1033480027F0A3F07B017A9A7927909A5BF0A3740F
:1033580002F07F2C7EA01227FE227BFF7A4279F9A9
:10336800782C7C9A7D017E007F28121AACE4909A12
:1033780054F0A3F0909A54E0FEA3E0C39429EE948D
:103388000040030234A6909A54E0A3E07803C333C4
:10339800CE33CED8F9246CF582748E3EF583E0FFE7
:1033A800909A78E0FCA3E0FDEF6D7001EC600302F9
:1033B8003499909A54E0FEA3E07803C333CE33CE19
:1033C800D8F9246DF582748E3EF583E0FEA3E0FF04
:1033D8007B017A9A792C909A5BE4F0A37402F0123C
:1033E8002591909A54E0FEA3E07803C333CE33CE00
:1033F800D8F9246FF582748E3EF583E0FEA3E0FFD2
:103408007B017A9A792E909A5BE4F0A37402F01209
:103418002591909A2EE0FEA3E0FF909A2CE0FCA361
:10342800E06F7002EC6E6069909A54E0FEA3E07859
:1034380003C333CE33CED8F9246FF582748E3EF5AC
:1034480083E0FEA3E0FF7B017A9A792C909A5BE4F3
:10345800F0A37402F01227FE909A30E4F0A3745A95
:10346800F0909A54E0FEA3E07803C333CE33CED86D
:10347800F92471F582748E3EF583E0FEA3E0FF7BAC
:10348800017A9A7930909A5BE4F0A37402F01227DB
:10349800FE909A54E475F001121B3C02337C22C062
:1034A800E0C0F0C083C082C0D075D000C000C001A9
:1034B800C002C003C004C005C006C007C2AF758CF7
:1034C800BC758ACD909A64E475F001121B3C909A01
:1034D80064E0FEA3E0D394E8EE94034018909A6465
:1034E800E4F0A3F0A375F001121B3C909A62E47516
:1034F800F001121B3C43C901909A70121D00E47B35
:1035080001FAF9F8121BEA909A70121D18909A683D
:10351800E475F001121B3C909A6A121D00E4F8123F
:103528001BEA909A6A121D18909A6EE0FEA3E0FFBB
:10353800E4FCFD7BDC7AFFF8D3121CC5400A909AA4
:103548006EE475F001121B3C0509E50970020508D7
:10355800AF0EAE0DAD0CAC0BE47B01FAF9F8121B03
:10356800EA8F0E8E0D8D0C8C0BE47B64121C33AC31
:1035780000AD01AE02AF03E4FBFAF9F8C3121CDB9D
:103588007003430A02E47BF47A01F9F8AF0EAE0D3A
:10359800AD0CAC0B121C33AC00AD01AE02AF03E4B2
:1035A800FBFAF9F8C3121CDB7003430A04430A014F
:1035B800D2AFD007D006D005D004D003D002D001B6
:1035C800D000D0D0D082D083D0F0D0E032909A2CE6
:1035D800121D81E4909A31F0909A2C121D6190008E
:1035E80001121AEBFF909A31E0FE04F074322EF5C6
:1035F80082E4349AF583EFF0909A31E0FF04F07496
:10360800322FF582E4349AF5837403F0909A2C12E1
:103618001D6190000A121B93E5F0FF909A31E0FEBD
:1036280004F074322EF582E4349AF583EFF0909A20
:103638002C121D6190000A121B93FF909A31E0FE34
:1036480004F074322EF582E4349AF583EFF0909A00
:103658002C121D61900003121AEBFFE4909A31E0DE
:10366800FE04F074322EF582E4349AF583E4F09087
:103678009A2C121D61900003121AEBFF909A31E008
:10368800FE04F074322EF582E4349AF583EFF07B71
:10369800017A9A7932909A31E0FD7C00123BB4901D
:1036A8009A2FEEF0A3EFF0909A2FE0FEA3E0EEFF42
:1036B800A3E0FE04F074322EF582E4349AF583EF29
:1036C800F0909A2FE0A3E0FFA3E0FE04F074322EFE
:1036D800F582E4349AF583EFF07B017A9A79329097
:1036E8009A31E0FD123EB622909A2C121D81909AD2
:1036F8002FECF0A3EDF0E4909A33F0909A2C121D81
:1037080061900001121AEBFF909A33E0FE04F07406
:10371800342EF582E4349AF583EFF0909A33E0FF83
:1037280004F074342FF582E4349AF5837406F0902B
:103738009A2C121D6190000A121B93E5F0FF909AD3
:1037480033E0FE04F074342EF582E4349AF583EF06
:10375800F0909A2C121D6190000A121B93FF909A08
:1037680033E0FE04F074342EF582E4349AF583EFE6
:10377800F0909A2FE0FEA3E0EEFF909A33E0FE046B
:10378800F074342EF582E4349AF583EFF0909A2F92
:10379800E0A3E0FF909A33E0FE04F074342EF58243
:1037A800E4349AF583EFF07B017A9A7934909A336E
:1037B800E0FD7C00123BB4909A31EEF0A3EFF0905C
:1037C8009A31E0FEA3E0EEFFA3E0FE04F074342E8D
:1037D800F582E4349AF583EFF0909A31E0A3E0FFA4
:1037E800A3E0FE04F074342EF582E4349AF583EFF6
:1037F800F07B017A9A7934909A33E0FD123EB62232
:10380800909A41121D2400003000909A45E4F0A3DC
:10381800740AF07D007C307F5A123AB27B017A9AA2
:10382800790F909A5BE4F0A37414F07F007E301255
:103838002591E4909A27F0909A27E0C39406748023
:103848009480506EE025E025E0240FF582E4349A58
:10385800F583121D00E4FBFAF9F8C3121CDB6022A1
:10386800909A27E025E025E0240FF582E4349AF5C4
:1038780083121D007B3F7A42790F7800C3121CDB4C
:103888005028909A27E025E025E024EFF582E434DB
:1038980099F583121D00909A27E025E025E0240F72
:1038A800F582E4349AF583121D18909A27E004F003
:1038B80080857B017A9A790F909A5BE4F0A374145F
:1038C800F07FA07EA61227FE227B017A9A792990A2
:1038D8009A5BE4F0A37410F07F207EA612259190E5
:1038E8009A29E0A3E025E025E02413F582E4349A40
:1038F800F583121D00909A2D121D0CC3121CDB605B
:10390800087F077E0012413222909A35121D0090DE
:103918009A31121D0CC3121CDB60087F087E00124E
:10392800413222909A31121D00909A29E0A3E02595
:10393800E025E02413F582E4349AF583121D181269
:1039480041EEE4909A3DF0909A3DE0C3940A748069
:1039580094805018E025E02429F582E4349AF58310
:10396800E4F0A3F0909A3DE004F080DB7B017A9AC2
:103978007929909A5BE4F0A3740CF07F227EA6125A
:1039880027FE22759401759502758E007593007552
:10399800C87075C96075F800787FE4F6D8FD758140
:1039A800100239E70240EBE493A3F8E493A3400341
:1039B800F68001F208DFF48029E493A3F854072481
:1039C8000CC8C333C4540F4420C8834004F4568041
:1039D8000146F6DFE4800B010204081020408090C5
:1039E8000100E47E019360BCA3FF543F30E5095415
:1039F8001FFEE493A360010ECF54C025E060A840E9
:103A0800B8E493A3FAE493A3F8E493A3C8C582C8DF
:103A1800CAC583CAF0A3C8C582C8CAC583CADFE9B4
:103A2800DEE780BEC0E0C0F0C083C082C0D075D0E1
:103A380000C000C004C006C007909A5FE4F0C2AF9F
:103A4800E59B30E03DE59CF0E0FF9097BAE0FCA3F1
:103A5800E024C0F58274973CF583EFF09097BAE4C0
:103A680075F001121B3C539BFE539BFE9097BAE0E6
:103A7800FEA3E0C39480EE940040079097BAE4F068
:103A8800A3F0E59B30E10B539BFD539BFD9097B949
:103A9800E4F043C901D2AFD007D006D004D000D09B
:103AA800D0D082D083D0F0D0E032909A3EEFF0A30D
:103AB800ECF0A3EDF0E4F5F1F5F275F30475F4011B
:103AC80075F88F30FCFD909A3EE0F5FA909A411215
:103AD8001D007810121CEC8FFB909A41121D007883
:103AE80008121CEC8FFC909A41121D00EF54FEFF47
:103AF800E48FFDD2FE20FEFD909A3FE0FEA3E0EEAB
:103B0800F5FA909A3FE0A3E054FEF5FB909A45E061
:103B1800FEA3E0EEF5FC909A45E0A3E054FEF5FD27
:103B2800D2FE20FEFDE4F5F87F04FE123F1022903D
:103B38009A2DEEF0A3EFF0909A2DE0FEA3E04E70E0
:103B4800041241B822909A2DE0FEA3E064014E7061
:103B580004123F6922909A2DE0FEA3E064024E60B1
:103B68004A909A2DE0A3E064034E703FA3F0909A28
:103B78002FE0C3940674809480502DE025E025E062
:103B880024EFF582E43499F583121D00909A2FE012
:103B980025E025E0240FF582E4349AF583121D18F8
:103BA800909A2FE004F080C61241EE22909A4812B3
:103BB8001D81909A4BECF0A3EDF0A374FFF0A3F0F5
:103BC800909A4B74FFF5F0121B5245F0604D909A95
:103BD80048E475F001121D6A121AD2FF909A4DE05E
:103BE8006FFF909A4FE4F0A3EFF0909A4FE0FEA396
:103BF800E02438F58274953EF583E0FF909A4EE014
:103C08006F909A4DF0909A4FE0A3E02438F58274B3
:103C1800963EF583E0909A4EF080A5909A4DE0FE8E
:103C2800A3E0FDEEEDFF22C0E0C0F0C083C082C07B
:103C3800D075D000C000C004C006C007909A60E4E8
:103C4800F0C2AFE59754016401703AE59FF0E0FFD8
:103C58009097BCE0FCA3E02440F58274983CF5837F
:103C6800EFF09097BCE475F001121B3C5397FE905F
:103C780097BCE0FEA3E0C39480EE940040079097C1
:103C8800BCE4F0A3F043C901D2AFD007D006D004FA
:103C9800D000D0D0D082D083D0F0D0E032C0E0C005
:103CA800F0C083C082C0D075D000C000C004C00678
:103CB800C007909A61E4F0C2AFE5AB5401640170AB
:103CC8003AE5ADF0E0FF9097BEE0FCA3E02438F5BC
:103CD8008274973CF583EFF09097BEE475F001127B
:103CE8001B3C53ABFE9097BEE0FEA3E0C39480EE6E
:103CF800940040079097BEE4F0A3F043C901D2AF07
:103D0800D007D006D004D000D0D0D082D083D0F055
:103D1800D0E0327BFF7A43794778297C9A7D017E0F
:103D2800007F04121AAC7B017A9A7929909A5BE495
:103D3800F0A37404F07F207EA4122591909984E06A
:103D4800FF7B017A9A7929123FC1EF600D12417900
:103D5800909984E09099EBF080077F057E001241EE
:103D6800327E007F047D007B017A9A7929121F87B1
:103D78007B017A9A7929909A5BE4F0A37404F07F26
:103D8800207EA41227FE22909A2DEEF0A3EFF0A336
:103D9800E4F0A3745AF0909A2DE0FEA3E0641B4E61
:103DA8007021909A2DE0A3E0FEE42400FFEE34A0F9
:103DB800FE7B017A9A792F909A5BE4F0A37402F063
:103DC8001227FE909A2DE0FEA3E0642F4E702190FA
:103DD8009A2DE0A3E0FEE42400FFEE34A0FE7B0170
:103DE8007A9A792F909A5BE4F0A37402F01227FE76
:103DF80022C0E0C083C082C0D075D000C006C00712
:103E0800909A5EE4F0C2AF309830E599F09094B3A0
:103E1800E0C3948074809480501E909A5EE0FF9076
:103E280094B3E0FE04F074B42EF582E43494F58380
:103E3800EFF0908FB87401F0C298309907C299904A
:103E480097B8E4F0D2AFD007D006D0D0D082D083D4
:103E5800D0E032909A2DEEF0A3EFF0909A2DE0FE8C
:103E6800A3E0D394D1EE94A45019909A2DE0A3E046
:103E780025E0FFEE33FE74482FF58274503EF5833B
:103E8800E0FF22909A2DE0FEA3E0D394F3EE94A4F1
:103E98005019909A2DE0A3E025E0FFEE33FE742838
:103EA8002FF58274503EF583E0FF227F0522909A19
:103EB80048121D81909A4BEDF07B007A007900C082
:103EC80003C002C001909A48121D61D082D083D0ED
:103ED800E06B7008E965827003EA65836029909A4F
:103EE8004BE06023909A4BE0FF14F0EF6019909A32
:103EF80048121D61121AD2FF1242AB909A49E4751A
:103F0800F001121B3C80DD22909A47EEF0A3EFF0FF
:103F1800E4F5F1909A47E0FEA3E0EEF5F2909A47B7
:103F2800E0A3E0F5F3E4F5F4E4909A47F0A3F09009
:103F38009A47E0FEA3E0C394E8EE9403500F85FC93
:103F4800FB909A47E475F001121B3C80E275F8AFCC
:103F580030FCFDD2FE20FEFDE4F5F8AFFAEF70C8A4
:103F6800227E007F087D007B017A997907121F87DE
:103F78007B017A997907909A5BE4F0A37408F07F43
:103F8800007E301227FE909909E0FEA3E07803C373
:103F980033CE33CED8F92400FFEE3420FEE4FCFD06
:103FA800909A41121D18909A45E4F0A37404F07D8C
:103FB800007C307FA5123AB222909A2DEFF0A3121E
:103FC8001D81909A2DE070037F0122909A2DE07553
:103FD800F004A4240FF9749A35F0FA7B01C003C0E9
:103FE80002C001A3121D61A801AC02AD03D001D02B
:103FF80002D0037E007F04121F63EF3395E04F70F9
:10400800037F01227F0022909A29EEF0A3EFF0901F
:104018009A29E0A3E0FFA3E4F0A3EFF07B017A9AEA
:10402800792B909A5BE4F0A37402F07F207EB312A0
:1040380027FE909A2BE4F0A3745AF07B017A9A79C0
:104048002B909A5BE4F0A37402F07F807EB3122772
:10405800FE22909A29EEF0A3EFF0909A29E0FEA3B1
:10406800E02410FFEE345B909982F0A3EFF0909A71
:1040780029E0A3E0FF123E5B909984EFF0909A78D4
:10408800E0FEA3E0FF909985EEF0A3EFF09099ECA5
:104098007401F07F047E0012413222909A2BEEF0D8
:1040A800A3EFF0909A2BE0FEA3E02460FFEE345BD0
:1040B8009099EDF0A3EFF0909A78E0FEA3E0FF90DE
:1040C8009985EEF0A3EFF0909A2BE0FEA3E0FF12A3
:1040D8003E5B909984EFF0E49099ECF07F04FE1237
:1040E80041322212006E1242E4123808E50A30E02A
:1040F8001C430F01E50A30E103430F02E50A30E2F1
:1041080003430F04530AFE530AFD530AFB43C90134
:104118001230261231D3122CB1E50F30E0CE530FF6
:10412800FE530FFD530FFB80C322909A3EEEF0A37F
:10413800EFF07BFF7A43792F78407C9A7D017E00EF
:104148007F04121AAC909A3EE0FEA3E0EE909A42E9
:10415800F0909A3EA3E0909A43F07B017A9A7940D6
:10416800909A5BE4F0A37404F07F847E001227FE2B
:10417800229099ECE0121D8A418A0041A1010000B9
:1041880041B79099EDE0FEA3E0FF1241329099ED1E
:10419800E0FEA3E0FF123D8F22909982E0FEA3E0AB
:1041A800FF123B37909985E0FEA3E0FF12413222CF
:1041B800909A30E4F0A3745AF07B017A9A7930909F
:1041C8009A5BE4F0A37402F07F207EAC1227FE7B9A
:1041D800017A9A7930909A5BE4F0A37402F07F80B8
:1041E8007EAC1227FE227B017A9A790F909A5BE4C3
:1041F800F0A37414F07F007E301227FE909A4112CB
:104208001D2400003000909A45E4F0A3740AF07D64
:10421800007C307FA5123AB222E4909A29F0A3F0EC
:10422800909A76F0A3740BF0909A29E4F0A304F026
:10423800FB7A9A7929909A5BE4F0A37402F07F2CB8
:104248007EA01227FE22E49094B3F0908FB8F0FE7F
:104258007F80FD7B017A9479B4121F87E4908FB335
:10426800F0909534121D24000000002243B710433B
:10427800C940E49097B8F075D88075985053877FF7
:1042880075BA0375AA58D29CD2AC2275F90175B7D4
:104298000375BC03E4F5BD75BE0CF580F590F5A07B
:1042A800F5B022909A4CEFF09097B8E0640160F86E
:1042B8007401F0909A4CE0F5992275C870E4F5CD38
:1042C800F5CC75CBFF75CAEF43A820D2C822438925
:1042D80001758CBC758ACDD2A9D28C2212424E901F
:1042E8008FB4121D2400000000221242D61242C2CE
:1042F8002200000000000000000000000000000094
:1043080000000000000000000000000000000000A5
:104318000000000000000000000000000000000095
:10432800000000000000005A01000000000000002A
:104338000000000000000000000000000000000075
:0343480000000072
:00000001FF
