:1000000002341A020006C2AFD2AF32022F36C2AF9C
:10001000D2AF3202000E9093D7E0FEA3E0FF123B76
:1000200076223202388812002E223202005675F9EA
:1000300001E4F5A8F5B8F59AF5A9F5B9F580F590BC
:10004000F5A0F5B075B750F5BCF5BDF5BE22123C74
:02005000B822D4
:06005300020022C2C632C9
:03005B000236BEAC
:0300630002002A6E
:10006B00023734C2AF120026123CD712004E123D9B
:07007B003643C902D2AF2297
:100083000234BB90947BEEF0A3EFF090947BE0FE00
:10009300A3E08EF012180100AAA00000B3A0010093
:1000A300D0A002000000EB9093D2E4F0A304F0226E
:1000B3009093D2E0FEA3E064014E70099093D2F0D6
:1000C300A37403F022E49093D2F0A3F0229093D28E
:1000D300E0FEA3E064034E70077FAA7EA4123AE712
:1000E300E49093D2F0A3F022E49093D2F0A3F02211
:1000F800FFFF4457494E54354294CA00004294C801
:1001080000004294C600005A93123FC90069006477
:10011800000086000A2D2D203A3A00000000000059
:10012800000000005A932C3FCC0127006400008691
:10013800000A2D2D2F3A3A000000000000000000B0
:10014800005A93B83FD001E50064000001E500645F
:1001580002AD007D00100017181802000000603C76
:10016800937C400040A04140401040B041504020A6
:1001780040C04160403040D04170404040E0418044
:10018800405040F041904060410041A04070411013
:1001980041B04080412041C04090413041D054930B
:1001A8006841E041F84210422842404258427042B9
:1001B8008842A042B848935900000000000000009F
:1001C800429361000042936600004293630000413D
:1001D800936500419358004293460005498000B258
:1001E800E2CAD4BABAD7D6006E6080094944303022
:1001F800BBD8B7E7B8DFCEC200000000000000009F
:1002080000000000000000000000000049443031F8
:10021800BBD8B7E7B5CDCEC2000000000000000093
:1002280000000000000000000000000049443032D7
:10023800BBD8B7E7B8DFCAAA00000000000000007A
:1002480000000000000000000000000049443033B6
:10025800BBD8B7E7B8DFCAAA00000000000000005A
:100268000000000000000000000000004944303495
:10027800CBCDB7E7B8DFCEC2000000000000000019
:100288000000000000000000000000004944303574
:10029800CBCDB7E7B5CDCEC200000000000000000E
:1002A8000000000000000000000000004944303653
:1002B800CBCDB7E7B8DFCAAA0000000000000000F5
:1002C8000000000000000000000000004944303732
:1002D800CBCDB7E7B5CDCAAA0000000000000000EA
:1002E8000000000000000000000000004944303811
:1002F800B1A3C1F4000000000000000000000000ED
:1003080000000000000000000000000049443039EF
:10031800C4DAB2BFCDA8D0C50000000000000000BC
:1003280000000000000000000000000049443130D7
:100338004E5443D2ECB3A3000000000000000000BC
:1003480000000000000000000000000049443131B6
:10035800B7E7BBFA31B9CAD5CF00000000000000EA
:100368000000000000000000000000004944313295
:10037800B7E7BBFA32B9CAD5CF00000000000000C9
:100388000000000000000000000000004944313374
:10039800B7E7BBFA33B9CAD5CF00000000000000A8
:1003A8000000000000000000000000004944313453
:1003B800B7E7BBFA34B9CAD5CF0000000000000087
:1003C8000000000000000000000000004944313532
:1003D800B7E7BBFA35B9CAD5CF0000000000000066
:1003E8000000000000000000000000004944313611
:1003F800CDE2B7E7BBFAB9CAD5CF000000000000CC
:1004080000000000000000000000000049443137EF
:10041800B7E7BBFA31D4CBD0D0B3ACCAB100000037
:1004280000000000000000000000000049443138CE
:10043800B7E7BBFA32D4CBD0D0B3ACCAB100000016
:1004480000000000000000000000000049443139AD
:10045800B7E7BBFA33D4CBD0D0B3ACCAB1000000F5
:100468000000000000000000000000004944323095
:10047800B7E7BBFA34D4CBD0D0B3ACCAB1000000D4
:100488000000000000000000000000004944323174
:10049800B7E7BBFA35D4CBD0D0B3ACCAB1000000B3
:1004A8000000000000000000000000004944323253
:1004B800CDE2B7E7BBFAD4CBD0D0B3ACCAB1000019
:1004C8000000000000000000000000004944323332
:1004D800B8DFD1B931B8E6BEAF00000000000000B7
:1004E8000000000000000000000000004944323411
:1004F800B8DFD1B931CBF8CBC00000000000000054
:1005080000000000000000000000000049443235EF
:10051800B5CDD1B931B8E6BEAF000000000000008B
:1005280000000000000000000000000049443236CE
:10053800B5CDD1B931CBF8CBC00000000000000028
:1005480000000000000000000000000049443237AD
:10055800C5C5C6F8CEC2B6C831B8E6BEAF00000001
:10056800000000000000000000000000494432388C
:10057800C5C5C6F8CEC2B6C831CBF8CBC00000009E
:10058800000000000000000000000000494432396B
:10059800B6CCD6DCC6DA31B8E6BEAF000000000043
:1005A8000000000000000000000000004944333053
:1005B800D1B9BBFA31D4CBD0D0B3ACCAB1000000AA
:1005C8000000000000000000000000004944333132
:1005D800B8DFD1B932B8E6BEAF00000000000000B5
:1005E8000000000000000000000000004944333211
:1005F800B8DFD1B932CBF8CBC00000000000000052
:1006080000000000000000000000000049443333EF
:10061800B5CDD1B9D1B9C1A6B8E6BEAF00000000CA
:1006280000000000000000000000000049443334CE
:10063800B5CDD1B932CBF8CBC00000000000000026
:1006480000000000000000000000000049443335AD
:10065800C5C5C6F8CEC2B6C832B8E6BEAF000000FF
:10066800000000000000000000000000494433368C
:10067800C5C5C6F8CEC2B6C832CBF8CBC00000009C
:10068800000000000000000000000000494433376B
:10069800B6CCD6DCC6DA32B8E6BEAF000000000041
:1006A800000000000000000000000000494433384A
:1006B800D1B9BBFA32D4CBD0D0B3ACCAB1000000A8
:1006C8000000000000000000000000004944333929
:1006D800BCD3CAAAC6F7B5E7C1F7B9FDB4F30000A1
:1006E8000000000000000000000000004944343011
:1006F800BCD3CAAAC6F7B8DFCBAECEBB0000000099
:1007080000000000000000000000000049443431EF
:10071800BCD3CAAAC6F7C8B1CBAE0000000000001F
:1007280000000000000000000000000049443432CE
:10073800BCD3CAAAC6F7D4CBD0D0B3ACCAB10000D8
:1007480000000000000000000000000049443433AD
:10075800BCD3C8C8C6F7B8E6BEAF000000000000AA
:10076800000000000000000000000000494434348C
:10077800BCD3C8C8C6F731B3ACCAB100000000008A
:10078800000000000000000000000000494434356B
:10079800BCD3C8C8C6F732B3ACCAB1000000000069
:1007A800000000000000000000000000494434364A
:1007B800B6CFB5E7D6D8C6F40000000000000000A8
:1007C8000000000000000000000000004944343729
:1007D800B5E7D4B4CFE0D0F2B4EDCEF3000000001A
:1007E8000000000000000000000000004944343808
:1007F800B5E7D4B4C6B5C2CAC6ABB8DF00000000BE
:1008080000000000000000000000000049443439E6
:10081800B5E7D4B4C6B5C2CAC6ABB5CD00000000B2
:1008280000000000000000000000000049443530CE
:1008380041CFE0B9FDD1B900000000000000000080
:1008480000000000000000000000000049443531AD
:1008580042CFE0B9FDD1B90000000000000000005F
:10086800000000000000000000000000494435328C
:1008780043CFE0B9FDD1B92000000000000000001E
:10088800000000000000000000000000494435336B
:1008980041CFE0C7B7D1B900000000000000000058
:1008A800000000000000000000000000494435344A
:1008B80042CFE0C7B7D1B900000000000000000037
:1008C8000000000000000000000000004944353529
:1008D80043CFE0C7B7D1B900000000000000000016
:1008E8000000000000000000000000004944353608
:1008F80041CFE0C8B1CFE0000000000000000000D8
:1009080000000000000000000000000049443537E6
:1009180042CFE0C8B1CFE0000000000000000000B6
:1009280000000000000000000000000049443538C5
:1009380043CFE0C8B1CFE000000000000000000095
:1009480000000000000000000000000049443539A4
:10095800C6F8C1F7B6AACAA7B8E6BEAF000000003D
:10096800000000000000000000000000494436308C
:10097800B9FDC2CBCDF8D4CBD0D0B3ACCAB100004E
:10098800000000000000000000000000494436316B
:10099800B9FDC2CBCDF8B6C2B8E6BEAF00000000C4
:1009A800000000000000000000000000494436324A
:1009B800D4B6B3CCB9D8BBFAB8E6BEAF00000000D5
:1009C8000000000000000000000000004944363329
:1009D800D2E7CBAEB8E6BEAF0000000000000000D2
:1009E8000000000000000000000000004944363408
:1009F800C8BABFD8CDA8D0C5D2ECB3A300000000B8
:100A080000000000000000000000000049443635E6
:100A1800B1E4C6B5C6F7B9CAD5CF000000000000DA
:100A280000000000000000000000000049443636C5
:100A3800D7A2CBAEB5E7B5BCC2CAB8DF000000008C
:100A480000000000000000000000000049443637A4
:100A5800D7A2CBAEB5E7B5BCC2CAB5CD0000000081
:100A68000000000000000000000000004944363883
:100A7800D1CCCEEDB8E6BEAF00000000000000000B
:100A88000000000000000000000000004944363962
:100A9800D3C3BBA7D7D4B6A8D2E5B8E6BEAF00008B
:100AA800000000000000000000000000494437304A
:100AB800B5E7D4B4D2ECB3A30000000000000000F6
:100AC8000000000000000000000000004944373129
:100AD800C8EBCBAEB8DFCEC20000000000000000BB
:100AE8000000000000000000000000004944373208
:100AF800CBAEB7A7B9CAD5CF0000000000000000F0
:100B080000000000000000000000000049443733E6
:100B1800C5CCB9DCB6CFC1F7B8E6BEAF000000005F
:100B280000000000000000000000000049443734C5
:100B3800B7E7BBFA36B9CAD5CF00000000000000FD
:100B480000000000000000000000000049443735A4
:100B5800B7E7BBFA37B9CAD5CF00000000000000DC
:100B68000000000000000000000000004944373683
:100B7800B7E7BBFA38B9CAD5CF00000000000000BB
:100B88000000000000000000000000004944373762
:100B9800B7E7BBFA36B3ACCAB100000000000000EA
:100BA8000000000000000000000000004944373841
:100BB800B7E7BBFA37B3ACCAB100000000000000C9
:100BC8000000000000000000000000004944373920
:100BD800B7E7BBFA38B3ACCAB100000000000000A8
:100BE8000000000000000000000000004944383008
:100BF800C5C5CBAEB8DFCBAECEBB00000000000051
:100C080000000000000000000000000049443831E6
:100C1800BCD3CAAAC6F7D2ECB3A3000000000000F8
:100C280000000000000000000000000049443832C5
:100C3800B7E7D1B9B9FDB5CD00000000000000004C
:100C480000000000000000000000000049443833A4
:100C5800BAECCDE2BCD3CAAAB9FDC8C800000000EE
:100C68000000000000000000000000004944383483
:100C7800D1B9BBFA31B8DFD1B900000000000000DB
:100C88000000000000000000000000004944383562
:100C9800B7E7BBFAB5E7C1F7B9FDB4F30000000048
:100CA8000000000000000000000000004944383641
:100CB800B8A8C2B7C8EBCBAEB8DFCEC20000000000
:100CC8000000000000000000000000004944383720
:100CD800454556B8E6BEAF00000000000000000021
:100CE80000000000000000000000000049443838FF
:100CF800BDD3CBAEC5CCD2E7CBAE00000000000020
:100D080000000000000000000000000049443839DD
:100D1800C5C5C6F8B8DFCEC200000000000000005C
:100D280000000000000000000000000049443930C5
:100D3800C9E8B1B8CAB9D3C3B3ACCAB1000000009E
:100D480000000000000000000000000049443931A4
:100D5800B1A3C1F400000000000000000000000082
:100D68000000000000000000000000004944393283
:100D7800B1A3C1F400000000000000000000000062
:100D88000000000000000000000000004944393362
:100D9800B1A3C1F400000000000000000000000042
:100DA8000000000000000000000000004944393441
:100DB800B1A3C1F400000000000000000000000022
:100DC8000000000000000000000000004944393520
:100DD800B1A3C1F400000000000000000000000002
:100DE80000000000000000000000000049443936FF
:100DF800B1A3C1F4000000000000000000000000E2
:100E080000000000000000000000000049443937DD
:100E1800BBD8B7E7CEC2CAAAB6C8B4ABB8D0C6F773
:100E280000000000000000000000000049443938BC
:100E3800CBCDB7E7CEC2CAAAB6C8B4ABB8D0C6F74E
:100E4800000000000000000000000000494439399B
:100E5800BCD3CAAAB0E5D2ECB3A3000000000000DE
:100E6800000000000000000000000000494431308C
:100E780030C6C1C4BBD2D1CBF8B6A8000000000070
:100E8800000000000000000000000000494431306C
:100E980031D2BBCCECBDABCBF8B6A800000000004B
:100EA800000000000000000000000000494431304C
:100EB80032C8FDCCECBDABCBF8B6A80000000000F2
:100EC800000000000000000000000000494431302C
:100ED80033C6DFCCECBDABCBF8B6A80000000000F1
:100EE800000000000000000000000000494431300C
:100EF80034CAAECEE5CCECBDABCBF8B6A80000004A
:100F080000000000000000000000000049443130EB
:100F180035C8FDCAAECCECBDABCBF8B6A800000016
:100F280000000000000000000000000049443130CB
:100F380036B5E7D4B432CFE0D0F2B4ED000000000B
:100F480000000000000000000000000049443130AB
:100F580037B5E7D4B432C6B5C2CAB8DF000000005E
:100F6800000000000000000000000000494431308B
:100F780038B5E7D4B432C6B5C2CAB5CD0000000052
:100F8800000000000000000000000000494431306B
:100F980039B5E7D4B43241CFE0B9FDD1B90000008A
:100FA800000000000000000000000000494431314A
:100FB80030B5E7D4B43242CFE0B9FDD1B900000072
:100FC800000000000000000000000000494431312A
:100FD80031B5E7D4B43243CFE0B9FDD1B900000050
:100FE800000000000000000000000000494431310A
:100FF80032B5E7D4B43241CFE0C7B7D1B900000069
:1010080000000000000000000000000049443131E9
:1010180033B5E7D4B43242CFE0C7B7D1B900000046
:1010280000000000000000000000000049443131C9
:1010380034B5E7D4B43243CFE0C7B7D1B900000024
:101048000000000000000000000000004190E900DE
:101058004190EA004290EB00004290ED000042907F
:10106800EF00004294B600004294B800004294B4E5
:1010780000004494C2000000004294BA0000449466
:10108800BC0000000002080000040B000000004241
:1010980094C00000010A0061008E6900C18140010E
:1010A800C0804101C0804100C1814001C080410031
:1010B800C1814000C1814001C0804101C080410020
:1010C800C1814000C1814001C0804100C18140010F
:1010D800C0804101C0804100C1814001C080410001
:1010E800C1814000C1814001C0804100C1814001EF
:1010F800C0804101C0804100C1814000C1814001E0
:10110800C0804101C0804100C1814001C0804100D0
:10111800C1814000C1814001C0804101C0804100BF
:10112800C1814000C1814001C0804100C1814001AE
:10113800C0804101C0804100C1814000C18140019F
:10114800C0804101C0804100C1814001C080410090
:10115800C1814000C1814001C0804100C18140017E
:10116800C0804101C0804100C1814001C080410070
:10117800C1814000C1814001C0804101C08041005F
:10118800C1814000C1814001C0804100C18140014E
:10119800C0804101C0804100C1814061008F690069
:1011A800C0C101C30302C2C60607C705C5C404CC33
:1011B8000C0DCD0FCFCE0E0ACACB0BC90908C8D863
:1011C8001819D91BDBDA1A1EDEDF1FDD1D1CDC1423
:1011D800D4D515D71716D6D21213D311D1D010F0F3
:1011E8003031F133F3F23236F6F737F53534F43C73
:1011F800FCFD3DFF3F3EFEFA3A3BFB39F9F8382843
:10120800E8E929EB2B2AEAEE2E2FEF2DEDEC2CE462
:101218002425E527E7E62622E2E323E12120E0A0D2
:101228006061A163A3A26266A6A767A56564A46CB2
:10123800ACAD6DAF6F6EAEAA6A6BAB69A9A86878E2
:10124800B8B979BB7B7ABABE7E7FBF7DBDBC7CB4A2
:101258007475B577B7B67672B2B373B17170B050B2
:101268009091519353529296565797559594549CF2
:101278005C5D9D5F9F9E5E5A9A9B5B9959589888C2
:101288004849894B8B8A4A4E8E8F4F8D4D4C8C44E2
:101298008485458747468682424383418180404111
:1012A800928D004192000044930E0000000041918D
:1012B800FB004491FC00000000607E920F5A02037C
:1012C80001C8010000A020004B00FF5A020302C819
:1012D800010000A02101F600FF5A020302C8010024
:1012E80000A02301F900FF5A020302C8010000A070
:1012F8002501FF00FF5A020301C8010000A02700D2
:101308006400FF5A020301C8010000A028006D0014
:10131800FF5A020301C8010000A029007200FF5A09
:10132800020601C802A08AA02A006E00FF5A02061F
:1013380001C802A08BA02B006F00FF4E9201000095
:101348000000000000000000000000004191F200D1
:101358004891F30000A020A050A0804191F10058CE
:101368009461000000000000000000000000000080
:101378000000000000000000000058944100000038
:10138800000001B2070000000200027360000A2D8D
:10139800080007ED6541943DFF606493D9000001A2
:1013A8000002000300040005000600070008000909
:1013B800000A010B000C000D000E000F01100011B7
:1013C8000012021300140015001600170018001967
:1013D800001A001B021C001D001E001F0020002117
:1013E80000220023002400250026022700280029C7
:1013F800002A002B002C002D002E002F0330003176
:1014080000489459000101030203030542943F0078
:10141800004293D700004293D400004193D6004283
:1014280093D2000000E709F608DFFA8046E709F2E0
:1014380008DFFA803E88828C83E709F0A3DFFA8010
:1014480032E309F608DFFA8078E309F208DFFA8068
:101458007088828C83E309F0A3DFFA806489828A2A
:1014680083E0A3F608DFFA805889828A83E0A3F232
:1014780008DFFA804C80D280FA80C680D4806980E8
:10148800F28033801080A680EA809A80A880DA8073
:10149800E280CA803389828A83ECFAE493A3C8C5C0
:1014A80082C8CCC583CCF0A3C8C582C8CCC583CCC0
:1014B800DFE9DEE7800D89828A83E493A3F608DFFB
:1014C800F9ECFAA9F0EDFB2289828A83ECFAE0A311
:1014D800C8C582C8CCC583CCF0A3C8C582C8CCC552
:1014E80083CCDFEADEE880DB89828A83E493A3F297
:1014F80008DFF980CC88F0EF60010E4E60C388F0F9
:10150800ED2402B4040050B9F582EB2402B40400BF
:1015180050AF232345822390147D73BB0106898233
:101528008A83E0225002E722BBFE02E32289828AF4
:1015380083E49322BB010CE58229F582E5833AF521
:1015480083E0225006E92582F8E622BBFE06E9255B
:1015580082F8E222E58229F582E5833AF583E4936D
:1015680022BB010689828A83F0225002F722BBFE41
:1015780001F322EF8DF0A4A8F0CF8CF0A428CE8D33
:10158800F0A42EFE22C5F0F8A3E028F0C5F0F8E597
:1015980082158270021583E038F022A3F8E0C5F0C6
:1015A80025F0F0E582158270021583E0C838F0E86E
:1015B80022BB010A89828A83E0F5F0A3E022500663
:1015C80087F009E71922BBFE07E3F5F009E31922C2
:1015D80089828A83E493F5F074019322BB0110E5B4
:1015E8008229F582E5833AF583E0F5F0A3E02250FD
:1015F80009E92582F886F008E622BBFE0AE9258279
:10160800F8E2F5F008E222E5832AF583E993F5F09C
:10161800A3E99322BB010A89828A83F0E5F0A3F04B
:10162800225006F709A7F01922BBFE06F3E5F009D8
:10163800F31922EF2BFFEE3AFEED39FDEC38FC22D0
:1016480075F008758200EF2FFFEE33FECD33CDCC59
:1016580033CCC58233C5829BED9AEC99E5829840DC
:101668000CF582EE9BFEED9AFDEC99FC0FD5F0D6B9
:10167800E4CEFBE4CDFAE4CCF9A88222B800C1B9E3
:101688000059BA002DEC8BF084CFCECDFCE5F0CB21
:10169800F97818EF2FFFEE33FEED33FDEC33FCEB5A
:1016A80033FB10D703994004EB99FB0FD8E5E4F915
:1016B800FA227818EF2FFFEE33FEED33FDEC33FC02
:1016C800C933C910D7059BE99A4007EC9BFCE99AF6
:1016D800F90FD8E0E4C9FAE4CCFB2275F010EF2F3B
:1016E800FFEE33FEED33FDCC33CCC833C810D7073B
:1016F8009BEC9AE899400AED9BFDEC9AFCE899F876
:101708000FD5F0DAE4CDFBE4CCFAE4C8F922EB9F7C
:10171800F5F0EA9E42F0E99D42F0EC6480C86480EE
:101728009845F022EB9FF5F0EA9E42F0E99D42F0E1
:10173800E89C45F022E86010ECA2E713FCED13FDED
:10174800EE13FEEF13FFD8F022E0FCA3E0FDA3E0C8
:10175800FEA3E0FF22E0F8A3E0F9A3E0FAA3E0FB90
:1017680022ECF0A3EDF0A3EEF0A3EFF022A882851F
:1017780083F0D083D08212178C12178C12178C1218
:10178800178CE473E493A3C583C5F0C583C8C582E9
:10179800C8F0A3C583C5F0C583C8C582C822A425DF
:1017A80082F582E5F03583F58322E0FBA3E0FAA316
:1017B800E0F922F8E0FBA3A3E0F925F0F0E58215B3
:1017C8008270021583E0FA38F022EBF0A3EAF0A366
:1017D800E9F022D083D082F8E493701274019370F8
:1017E8000DA3A393F8740193F5828883E4737402BC
:1017F800936860EFA3A3A380DFD083D082F8E4933B
:101808007012740193700DA3A393F8740193F58279
:101818008883E473740293B5F0067403936860E9EF
:10182800A3A3A3A380D8E3F5F009E208B5F06BDF22
:10183800F58067E3F5F009E608B5F05EDFF5805A54
:1018480087F009E608B5F052DFF6804E87F009E226
:1018580008B5F046DFF6804288828C8387F009E07D
:10186800A3B5F036DFF6803288828C8387F009E4EE
:1018780093A3B5F025DFF5802188828C83E3F5F00A
:1018880009E0A3B5F014DFF5801088828C83E3F5B6
:10189800F009E493A3B5F002DFF402195D808780B4
:1018A800E9809080D4803E8015806E807E809D8007
:1018B800B7808D80A380518074803C021969898229
:1018C8008A83ECFAE493F5F0A3C8C582C8CCC58333
:1018D800CCE493A3C8C582C8CCC583CCB5F076DF69
:1018E800E3DEE1807089828A83E493F5F0A3E2085D
:1018F800B5F062DFF4805E89828A83E0F5F0A3E6C2
:1019080008B5F051DFF5804D89828A83E0F5F0A3B0
:10191800E208B5F040DFF5803C89828A83E493F5DC
:10192800F0A3E608B5F02EDFF4802A8002805789FC
:10193800828A83ECFAE493F5F0A3C8C582C8CCC5C3
:1019480083CCE0A3C8C582C8CCC583CCB5F006DF7C
:10195800E4DEE280007FFFB5F0020F2240027F0143
:101968002289828A83ECFAE0F5F0A3C8C582C8CC44
:10197800C583CCE0A3C8C582C8CCC583CCB5F0D597
:10198800DFE5DEE380CF89828A83ECFAE0F5F0A315
:10199800C8C582C8CCC583CCE493A3C8C582C8CCCB
:1019A800C583CCB5F0AFDFE4DEE280A988F0EF6054
:1019B800010E4E60ABED2402B404005098F582EBA2
:1019C8002402B40400508E23234582239018A57363
:1019D800EF4E6012EF60010EEDBB010B89828A8326
:1019E800F0A3DFFCDEFA2289F05007F709DFFCA933
:1019F800F022BBFEFCF309DFFCA9F022F8BB010DC5
:101A0800E58229F582E5833AF583E8F0225006E974
:101A18002582C8F622BBFE05E92582C8F2227BFF93
:101A28007A3D797778957C947D017E007F0C12143D
:101A3800FDE49094A3F07B017A9479819094ADF0C1
:101A4800A3740AF07F207EA0122274909485E0A3EC
:101A5800E020E36A90948BE4F0A304F0909481E092
:101A6800A3E030E63B909485E0A3E020E62890943C
:101A78008BE4F0A37402F0909485E0A3E020E40BDB
:101A880090948BE4F0A37403F0803A90948BE4F084
:101A9800A37402F0802F90948BE4F0A304F08025C7
:101AA800909485E0A3E020E40B90948BE4F0A37479
:101AB80003F0801190948BE4F0A304F08007E49085
:101AC800948BF0A3F07B017A94798B9094ADE4F039
:101AD800A37402F074A0FFFE1224E1909487E0FE44
:101AE800A3E0EE30E61E909487A3E0EE30E70B907B
:101AF800948BE4F0A37406F0805D90948BE4F0A3DB
:101B080004F08053909487E0FEA3E0EE30E70B905A
:101B1800948BE4F0A37402F0803D909489E0A3E0F4
:101B280030E009A3E4F0A37403F0802B909489E0DB
:101B3800A3E030E109A3E4F0A37404F080199094C1
:101B480089E0A3E030E209A3E4F0A37405F080077C
:101B5800E490948BF0A3F07B017A94798B9094AD08
:101B6800E4F0A37402F07FA17EA01224E190948790
:101B7800E0FEA3E0FFEE541F909487F0A3EFF0E49B
:101B88009094A1F09094A1E0C39402748094804052
:101B980003021C37E4A3F09094A2E0C3941074806D
:101BA80094805075E0FF7E007401A807088005C383
:101BB80033CE33CED8F9FF9094A1E025E02487F501
:101BC80082E43494F583E0FCA3E0FDEE5CFEEF5D77
:101BD8004E60309094A2E02401FDE433FC9094A17F
:101BE800E075F010A42DFFE5F03CFE9094A3E0FD15
:101BF80004F0ED25E02495F582E43494F583EEF0C5
:101C0800A3EFF09094A3E0C39406748094805009E5
:101C18009094A2E004F0021B9F9094A3E0C3940662
:101C28007480948050099094A1E004F0021B8C7B8E
:101C3800017A9479959094ADE4F0A3740AF07FA2A8
:101C48007EA01224E17B017A94798D9094ADE4F022
:101C5800A37406F07F277EA012227490948FE0FE72
:101C6800A3E064014E7008909493F0A3F08026904E
:101C7800948FE0FEA3E04E701C909483E0A3E020D4
:101C8800E20A909493E4F0A304F08009909493E41A
:101C9800F0A37402F0909485E0A3E030E31D9094E3
:101CA8008DE0FEA3E04E700A909493F0A37404F0C4
:101CB8008009909493E4F0A37403F0909491E0FE6B
:101CC800A3E064014E7008A3F0A37405F0803A9075
:101CD8009491E0FEA3E064024E7008A3F0A374069A
:101CE800F08026909491E0FEA3E064034E7008A370
:101CF800F0A37407F08012909491E0FEA3E06404CE
:101D08004E7006A3F0A37408F07B017A947993903F
:101D180094ADE4F0A37402F07FA77EA01224E12220
:101D280090947E1217D2909481ECF0A3EDF0E4A386
:101D3800F0A3F0909481E0FEA3E0FFA3E0FCA3E011
:101D4800C39FEC9E500C909483E475F00112158D9E
:101D580080E1909481E0FEA3E0C39405EE940050E6
:101D680003021FE1E4A3F0A3F090947E1217B2904F
:101D78009483E0FEA3E0F5828E8312153C64026032
:101D880003021FBB90947E1217B2909483E0A3E0E5
:101D980029F9EA3EFA90000112153C1217DB1DB032
:101DA800031F040600001FBB90947E1217B2909484
:101DB80083E0FEA3E029F9EA3EFA90000212153CFE
:101DC800FF909487E4F0A3EFF0909483E0A3E0FF02
:101DD800909487E0FCA3E02FFFEC3EFEEF2405FF84
:101DE800E43EFE909481E0FCA3E0FDD3EF9DEE9CE1
:101DF8004011909481E0FEA3E0FFA3EEF0A3EFF082
:101E0800021FBB90947E1217B2909483E0FEA3E069
:101E180029F9EA3EFA909487E0FEA3E02403FDE462
:101E28003EFC123643909485EEF0A3EFF090947E3A
:101E38001217B2909483E0FEA3E029F9EA3EFA90E3
:101E48009487E0FEA3E029F9EA3EFA900003121510
:101E58003CFD909485E0FEA3E0EE6D7001E4600324
:101E6800021FBB90947E1217B2909483E0FEA3E009
:101E780029F9EA3EFA909487E0FEA3E029F9EA3EC0
:101E8800FA90000412153CFF909485E0A3E06F706F
:101E980001E46003021FBB909209E0FEA3E0FF90FB
:101EA800947E1217B2E92403F9E43AFAC003C00297
:101EB800C00190947E1217B290000212153CFD905A
:101EC80094ADE4F0A3EDF0D001D002D0031224E1E8
:101ED8007E007F0E7D007B017A9279011219D890DD
:101EE8009487E0FEA3E02405FFE43E909483F0A3EA
:101EF800EFF09091F1E04402F0021FBB909483E070
:101F0800FEA3E02408FFE43EFE909481E0FCA3E0F9
:101F1800FDD3EF9DEE9C4011909481E0FEA3E0FF7D
:101F2800A3EEF0A3EFF0021FBB90947E1217B290BD
:101F38009483E0FEA3E029F9EA3EFA7D067C0012CC
:101F48003643909485EEF0A3EFF090947E1217B28A
:101F5800909483E0FEA3E029F9EA3EFA9000061285
:101F6800153CFD909485E0FEA3E0EE6D7001E470F1
:101F78004290947E1217B2909483E0FEA3E029F970
:101F8800EA3EFA90000712153CFF909485E0A3E022
:101F9800B50720E490948375F00812158D7E007FB4
:101FA8000E7D007B017A9279011219D89091F1E0A7
:101FB8004402F0909483E475F00112158D90948199
:101FC800E0FEA3E024FBFFEE34FFFEA3E0FCA3E069
:101FD800C39FEC9E5003021D712290947E1217D26B
:101FE80090947E1217B2121523909481F0909481E8
:101FF800E0C39409748094804003022264E075F081
:102008000EA4240FF582E43492F583E0645A600349
:1020180002225B909481E075F00EA42412F582E40C
:102028003492F583E0700302225B909481E075F0AE
:102038000EA42414F582E43492F583E0700302229E
:1020480064909481E075F00EA42414F582E434922F
:10205800F583E06401702D909481E075F00EA4245E
:1020680015F582E43492F583E0FEA3E0FF9094CA6C
:10207800E0FCA3E06F7002EC6E600302225B0222B8
:102088006402225B909481E075F00EA42414F5821A
:10209800E43492F583E06402600302216190948144
:1020A800E075F00EA42415F582E43492F583E0FE81
:1020B800A3E0FF7B017A9479829094ADE4F0A37455
:1020C80002F0122274909482E0A3E0645A60030242
:1020D800225B909481E0C39408748094805048E017
:1020E80075F00EA42422F582E43492F583E06402AC
:1020F8007035909481E075F00EA42423F582E434C1
:1021080092F583E0FEA3E0FF909481E075F00EA4C1
:102118002415F582E43492F583E0FCA3E06F7002A5
:10212800EC6E7003022264E4909482F0A3F0909421
:1021380081E075F00EA42415F582E43492F583E06D
:10214800FEA3E0FF7B017A9479829094ADE4F0A33A
:102158007402F01224E1022264909481E075F00E7A
:10216800A42414F582E43492F583E0640360030246
:10217800225B909481E075F00EA4241BF582E43470
:1021880092F583E0FEA3E0FF9094CAE0FCA3E0FD93
:10219800EF6D7002EE6C600302225B909481E07533
:1021A800F00EA42415F582E43492F583E0FEA3E052
:1021B800FF7B017A9479829094ADE4F0A37402F0E5
:1021C800122274909482E0A3E0645A600302225BB6
:1021D800909481E0C39408748094805045E075F031
:1021E8000EA42422F582E43492F583E0640370326D
:1021F800909481E075F00EA42423F582E43492F5DE
:1022080083E0FEA3E0FF909481E075F00EA424150E
:10221800F582E43492F583E0FCA3E06F7002EC6E83
:10222800603AE4909482F0A3F0909481E075F00E07
:10223800A42415F582E43492F583E0FEA3E0FF7B45
:10224800017A9479829094ADE4F0A37402F0122498
:10225800E18009909481E004F0021FF5909481E0F8
:10226800FF90947E1217B2EF121569229094A8EE8F
:10227800F0A3EFF0A31217D27B007A007900C00315
:10228800C002C0019094AA1217B2D082D083D0E0C5
:102298006B7008E965827003EA658370030224E0C5
:1022A8009094ADE0FEA3E04E70030224E09094AD5C
:1022B800E0A3E0FFEEC313FEEF13FF9094A8E0FC49
:1022C800A3E02FFFEE3CFED3EF94FEEE94FF400315
:1022D8000224E0C2AF9094A8E0A3E054019094AF28
:1022E800F09094A8E0FEA3E0FFEEC313FEEF13FF07
:1022F8009094A8EEF0A3EFF09094A8E0FEA3E07805
:1023080010CEC313CE13D8F9F5F19094A8E0FEA32C
:10231800E0EEF5F29094A8E0A3E0F5F3E4F5F875A3
:10232800F401D2FF30FCFDD2FD9094AFE06401705F
:10233800729094ADE0FEA3E064014E700AC2FBC245
:10234800FAD2F9C2F88008C2FBC2FAD2F9D2F8D29E
:10235800FE20FEFD9094ADE0FEA3E064014E701AED
:102368009094AA75F0011217BBE5FC1215699094B8
:10237800AD74FFF5F012158D80299094AAE475F0DC
:10238800011217BBE5FC1215699094AAE475F001D7
:102398001217BBE5FD1215699094AD74FF75F0FE38
:1023A80012158D9094ADE0FEA3E04E70030224DB7D
:1023B8009094ADE0A3E0C39404EE9400400302249B
:1023C800849094ADE0A3E08EF012180123F8000188
:1023D80023EE000223E4000300002400D2FBD2FA1B
:1023E800D2F9C2F88012D2FBD2FAC2F9C2F8800838
:1023F800D2FBC2FAC2F9C2F8D2FE20FEFD9094AD1B
:10240800E0FEA3E08EF012180124710001245100AF
:102418000224210003000024DB9094AAE475F00153
:102428001217BBE5FA1215699094AAE475F0011227
:1024380017BBE5FB1215699094AAE475F001121711
:10244800BBE5FC1215690224DB9094AAE475F0013F
:102458001217BBE5FA1215699094AAE475F00112F7
:1024680017BBE5FB121569806A9094AAE475F00120
:102478001217BBE5FA12156980598057D2FBD2FAB8
:10248800D2F9D2F8D2FE20FEFD9094AAE475F001AC
:102498001217BBE5FA1215699094AAE475F00112B7
:1024A80017BBE5FB1215699094AAE475F0011217A1
:1024B800BBE5FC1215699094AAE475F0011217BBEC
:1024C800E5FD1215699094AD74FF75F0FC12158D39
:1024D8000223ABE4F5F8D2AF229094A8EEF0A3EF74
:1024E800F0A31217D27B007A007900C003C002C0A3
:1024F800019094AA1217B2D082D083D0E06B7008F2
:10250800E965827003EA6583700302274C9094ADF5
:10251800E0FEA3E04E700302274C9094ADE0A3E0E8
:10252800FFEEC313FEEF13FF9094A8E0FCA3E02F87
:10253800FFEE3CFED3EF94FEEE94FF400302274CDF
:10254800C2AF9094A8E0A3E054019094AFF09094A7
:10255800A8E0FEA3E0FFEEC313FEEF13FF9094A8DC
:10256800EEF0A3EFF09094A8E0FEA3E07810CEC3BD
:1025780013CE13D8F9F5F19094A8E0FEA3E0EEF598
:10258800F29094A8E0A3E0F5F3E4F5F875F401D22D
:10259800FF30FCFDC2FD9094AFE06401707290942E
:1025A800ADE0FEA3E064014E700AC2FBC2FAD2F9A4
:1025B800C2F88008C2FBC2FAD2F9D2F89094ADE012
:1025C800FEA3E064014E701A9094AA75F0011217E8
:1025D800BB121523F5FC9094AD74FFF5F012158D20
:1025E80080299094AAE475F0011217BB121523F5FF
:1025F800FC9094AAE475F0011217BB121523F5FD9F
:102608009094AD74FF75F0FE12158DD2FE20FEFD7C
:102618009094ADE0FEA3E04E70030227479094AD7E
:10262800E0A3E0C39404EE940040030226F09094E3
:10263800ADE0A3E08EF012180126650001265B00CC
:1026480002265100030000266DD2FBD2FAD2F9C24D
:10265800F88012D2FBD2FAC2F9C2F88008D2FBC2C3
:10266800FAC2F9C2F89094ADE0FEA3E08EF0121819
:102678000126D8000126B80002268900030000269A
:10268800E79094AAE475F0011217BB121523F5FA26
:102698009094AAE475F0011217BB121523F5FB906C
:1026A80094AAE475F0011217BB121523F5FC802FCC
:1026B8009094AAE475F0011217BB121523F5FA904D
:1026C80094AAE475F0011217BB121523F5FB800FCD
:1026D8009094AAE475F0011217BB121523F5FAD2EB
:1026E800FE30FE5B80FB8057D2FBD2FAD2F9D2F8DB
:1026F8009094AAE475F0011217BB121523F5FA900D
:1027080094AAE475F0011217BB121523F5FB9094F7
:10271800AAE475F0011217BB121523F5FC9094AAD0
:10272800E475F0011217BB121523F5FDD2FE20FE49
:10273800FD9094AD74FF75F0FC12158D022618E417
:10274800F5F8D2AF2290947BEEF0A3EFF07BFF7AFE
:102758003D7983787D7C947D017E007F081214FD8D
:102768007B017A94797D9094ADE4F0A37402F07FB4
:10277800217EA012227490947BE0FEA3E08EF012DA
:1027880018012796A003283BA00400002900909474
:102798007DE0A3E030E245E4A3F0A3F0A3F0A3F0CA
:1027A8007B017A94797F9094ADF0A37404F07F2A2A
:1027B8007EA01224E190947FE4F0A3745AF0A3E47D
:1027C800F0A3745AF07B017A94797F9094ADE4F089
:1027D800A37404F07F8A7EA01224E12290947DE005
:1027E800A3E054846003022900A3F0A304F0A374B7
:1027F80013F0A37488F07B017A94797F9094ADE408
:10280800F0A37404F07F2A7EA01224E190947FE460
:10281800F0A3745AF0A3E4F0A3745AF07B017A94FD
:10282800797F9094ADE4F0A37404F07F8A7EA012BF
:1028380024E12290947DE0A3E030E745E4A3F0A3EF
:10284800F0A3F0A3F07B017A94797F9094ADF0A384
:102858007404F07F2A7EA01224E190947FE4F0A310
:10286800745AF0A3E4F0A3745AF07B017A94797F48
:102878009094ADE4F0A37404F07F8A7EA01224E162
:102888002290947DE0A3E05484706D7B017A947962
:10289800839094ADF0A37402F07F2C7EA012227472
:1028A800909483E0FEA3E064014E704C90947FF016
:1028B800A37402F0A37413F0A37488F07B017A94D4
:1028C800797F9094ADE4F0A37404F07F2A7EA0127F
:1028D80024E190947FE4F0A3745AF0A3E4F0A37485
:1028E8005AF07B017A94797F9094ADE4F0A3740454
:1028F800F07F8A7EA01224E1227B007A0079009082
:1029080094791217D2909200E0640160030229982A
:102918009091FBE0FF90928DE0D39F4011E0909161
:10292800FBF090930E1217750000000080629091E2
:10293800FBE0FF90928DE06F7056FFFEFDFC9093D8
:102948000E12175DD312172C403890930E12175D94
:10295800C3E50E9BFFE50D9AFEE50C99FDE50B9886
:10296800FCE47B0AFAF9F8C312172C50237B017A8E
:1029780092798E90928DE0FD7C00121D28123C9277
:10298800800EAF0EAE0DAD0CAC0B90930E12176906
:102998009091F1E030E03AE020E1299091FC1217A3
:1029A8005DC3E50E9BFBE50D9AFAE50C99F9E50B7D
:1029B80098F8909205E0FFE4FCFDFEC312172C5036
:1029C80003022AAD9091F1E030E12DA3E004F080FC
:1029D800279091FC12175DC3E50E9BFFE50D9AFE4B
:1029E800E50C99FDE50B98FCE47BF47A01F9F8D342
:1029F80012172C4003022AAD9091F2E07003122DB9
:102A0800F1AF0EAE0DAD0CAC0B9091FC12176990A6
:102A180091F1E054FDF0E054FEF07B017A9179F2F7
:102A2800121FE29091F2E0C3940974809480507070
:102A3800E075F00EA4240FF9749235F0FA7B017852
:102A4800017C927D017E007F0E1214FD909203E0BE
:102A5800640370117B017A9279011230649091F1CC
:102A6800E04401F022909203E064067038909209E5
:102A7800E0FEA3E0FF7B017A94797C9094ADE4F0CA
:102A8800A37402F01222747B017A92790190947CEB
:102A9800E0FCA3E0FD12317F9091F1E04401F022C7
:102AA800E49091F2F022E4909479F0A3F0E50F20FD
:102AB800E003022C517B017A9479799094ADE4F08B
:102AC800A37402F07F147E50122274909479E0FE71
:102AD800A3E04E7003022C51909479E0A3E08EF0AD
:102AE8001218012C18A0002C18A0012C18A0022CD8
:102AF80025A0032C25A0042C32A0052BEFA4002B25
:102B0800F4A4012BF9A4A02BF9A4A12BF9A4A22BBE
:102B1800F9A4A32BF9A4A42BF9A4A52BF9A4A62BFB
:102B2800F9A4A72BF9A4A82BF9A4A92BF9A4AA2BDB
:102B3800F9A4AB2BF9A4AC2BF9A4AD2BF9A4AE2BBB
:102B4800F9A4AF2BF9A4B02BF9A4B12BF9A4B22B9B
:102B5800F9A4B32BF9A4B42BF9A4B52BF9A4B62B7B
:102B6800F9A4B72BF9A4B82BF9A4B92BF9A4BA2B5B
:102B7800F9A4BB2BF9A4BC2BF9A4BD2BF9A4BE2B3B
:102B8800F9A4BF2BF9A4C02BF9A4C12BF9A4C22B1B
:102B9800F9A4C32BF9A4C42BF9A4C52BF9A4C62BFB
:102BA800F9A4C72BF9A4C82BF9A4C92BF9A4CA2BDB
:102BB800F9A4CB2BF9A4CC2BF9A4CD2BF9A4CE2BBB
:102BC800F9A4CF2BF9A4D02BF9A4D12C06A4F02C6E
:102BD80006A4F12C06A4F22C06A4F32C13A6002CB0
:102BE80035A60100002C351237AA80411200168044
:102BF8003C909479E0FEA3E0FF123AE7802F90948E
:102C080079E0FEA3E0FF123A9E8022123360801D15
:102C1800909479E0FEA3E0FF1200868010909479EA
:102C2800E0FEA3E0FF12274D8003123C65E4909478
:102C380079F0A3F07B017A9479799094ADF0A3743C
:102C480002F07F147E501224E122E50F30E0167B5B
:102C5800017A9479CA9094ADE4F0A37402F07F14D9
:102C68007E00122274E50F20E203022DF09094CA30
:102C7800E0FEA3E0642C4E6003022D097B017A94E8
:102C8800797F9094ADF0A37402F07FA07ECC1222DD
:102C98007490947FE0FEA3E0FFEEC4F854F0C86897
:102CA800FEEFC4540F48EE540F909479F0A3E4F06B
:102CB800909479E0FCA3E0FD90947FE0FEA3E07897
:102CC80007CEC313CE13D8F9541FFFECFEED4FFF08
:102CD800909479EEF0A3EFF090947FE0A3E0547F16
:102CE80090947BF0A3E4F004A3F0A3F0FB7A94792A
:102CF800799094ADE4F0A37406F07F207ECC122482
:102D0800E19094CAE0FEA3E04E7003121A267B01FC
:102D18007A9479799094ADE4F0A37402F07F167EEA
:102D280000122274909479E0FEA3E04E6025E490AE
:102D38009479F0A3F07B017A9479799094ADF0A31B
:102D48007402F07F167E001224E1E49094C6F0A38A
:102D5800F080439094C6E0FEA3E0C39458EE94023A
:102D6800500C9094C6E475F00112158D802890944B
:102D7800C6E0FEA3E0B4581EEEB4021A9094C6E46E
:102D880075F00112158D9094CAE0FEA3E04E60061E
:102D9800E4FFFE123B769094C8E0FEA3E0D39401D2
:102DA800EE9400400B9094C874FFF5F012158D2234
:102DB8009094C8E0FEA3E064014E702C909479F0E2
:102DC800A3F09094C874FFF5F012158DE4909479EF
:102DD800F0A3F07B017A9479799094ADF0A3740212
:102DE800F07F2C7EA01224E1227BFF7A3D793D788A
:102DF8007E7C947D017E007F281214FDE49094A6C9
:102E0800F0A3F09094A6E0FEA3E0C39401EE940032
:102E18004003022F359094A6E0A3E07803C333CE95
:102E280033CED8F924F4F58274913EF583E0FF900F
:102E380094CAE0FCA3E0FDEF6D7001EC6003022F83
:102E4800289094A6E0FEA3E07803C333CE33CED80F
:102E5800F924F5F58274913EF583E0FEA3E0FF7B4B
:102E6800017A94797E9094ADE4F0A37402F0122272
:102E7800749094A6E0FEA3E07803C333CE33CED893
:102E8800F924F7F58274913EF583E0FEA3E0FF7B19
:102E9800017A9479809094ADE4F0A37402F0122240
:102EA80074909480E0FEA3E0FF90947EE0FCA3E0A1
:102EB8006F7002EC6E60699094A6E0FEA3E0780360
:102EC800C333CE33CED8F924F7F58274913EF58317
:102ED800E0FEA3E0FF7B017A94797E9094ADE4F064
:102EE800A37402F01224E1909482E4F0A3745AF0DF
:102EF8009094A6E0FEA3E07803C333CE33CED8F98E
:102F080024F9F58274913EF583E0FEA3E0FF7B018E
:102F18007A9479829094ADE4F0A37402F01224E1DB
:102F28009094A6E475F00112158D022E0B22C0E0D4
:102F3800C0F0C083C082C0D075D000C000C001C03E
:102F480002C003C004C005C006C007C2AF758CBC70
:102F5800758ACD9094B6E475F00112158D9094B6EB
:102F6800E0FEA3E0D394E8EE940340189094B6E40E
:102F7800F0A3F0A375F00112158D9094B4E475F0E8
:102F88000112158D43C9019094C2121751E47B01B7
:102F9800FAF9F812163B9094C21217699094BAE4A1
:102FA80075F00112158D9094BC121751E4F81216A1
:102FB8003B9094BC1217699094C0E0FEA3E0FFE434
:102FC800FCFD7BDC7AFFF8D3121716400A9094C0F8
:102FD800E475F00112158D0509E50970020508AFC1
:102FE8000EAE0DAD0CAC0BE47B01FAF9F812163BF2
:102FF8008F0E8E0D8D0C8C0BE47B64121684AC0046
:10300800AD01AE02AF03E4FBFAF9F8C312172C7056
:1030180003430A02E47BF47A01F9F8AF0EAE0DAD72
:103028000CAC0B121684AC00AD01AE02AF03E4FB8E
:10303800FAF9F8C312172C7003430A04430A01D2A1
:10304800AFD007D006D005D004D003D002D001D02D
:1030580000D0D0D082D083D0F0D0E03290947E12CD
:1030680017D2E4909483F090947E1217B2900001E6
:1030780012153CFF909483E0FE04F074842EF582D0
:10308800E43494F583EFF0909483E0FF04F07484C3
:103098002FF582E43494F5837403F090947E12172C
:1030A800B290000A1215E4E5F0FF909483E0FE0464
:1030B800F074842EF582E43494F583EFF090947ED6
:1030C8001217B290000A1215E4FF909483E0FE04F0
:1030D800F074842EF582E43494F583EFF090947EB6
:1030E8001217B290000312153CFFE4909483E0FE9F
:1030F80004F074842EF582E43494F583E4F090941B
:103108007E1217B290000312153CFF909483E0FEE4
:1031180004F074842EF582E43494F583EFF07B0197
:103128007A947984909483E0FD7C001236439094DD
:1031380081EEF0A3EFF0909481E0FEA3E0EEFFA310
:10314800E0FE04F074842EF582E43494F583EFF005
:10315800909481E0A3E0FFA3E0FE04F074842EF5D0
:1031680082E43494F583EFF07B017A947984909427
:1031780083E0FD1239452290947E1217D2909481F3
:10318800ECF0A3EDF0E4909485F090947E1217B2E1
:1031980090000112153CFF909485E0FE04F07486BF
:1031A8002EF582E43494F583EFF0909485E0FF04E3
:1031B800F074862FF582E43494F5837406F09094C5
:1031C8007E1217B290000A1215E4E5F0FF9094857C
:1031D800E0FE04F074862EF582E43494F583EFF073
:1031E80090947E1217B290000A1215E4FF9094850D
:1031F800E0FE04F074862EF582E43494F583EFF053
:10320800909481E0FEA3E0EEFF909485E0FE04F048
:1032180074862EF582E43494F583EFF0909481E07F
:10322800A3E0FF909485E0FE04F074862EF582E416
:103238003494F583EFF07B017A947986909485E055
:10324800FD7C00123643909483EEF0A3EFF0909447
:1032580083E0FEA3E0EEFFA3E0FE04F074862EF503
:1032680082E43494F583EFF0909483E0A3E0FFA325
:10327800E0FE04F074862EF582E43494F583EFF0D2
:103288007B017A947986909485E0FD1239452290E5
:10329800949312177500003000909497E4F0A3748B
:1032A8000AF07D007C307F5A1235417B017A94798F
:1032B800619094ADE4F0A37414F07F007E30122284
:1032C80074E4909479F0909479E0C39406748094AF
:1032D80080506EE025E025E02461F582E43494F521
:1032E80083121751E4FBFAF9F8C312172C602290E5
:1032F8009479E025E025E02461F582E43494F583AF
:103308001217517B3F7A42790F7800C312172C505D
:1033180028909479E025E025E02441F582E434946E
:10332800F583121751909479E025E025E02461F5A2
:1033380082E43494F583121769909479E004F0805C
:10334800857B017A9479619094ADE4F0A37414F0CC
:103358007FA07EA61224E1227B017A94797B909447
:10336800ADE4F0A37410F07F207EA612227490942E
:103378007BE0A3E025E025E02465F582E43494F5BC
:103388008312175190947F12175DC312172C60088F
:103398007F077E00123B76229094871217519094F3
:1033A8008312175DC312172C60087F087E00123B3A
:1033B800762290948312175190947BE0A3E025E045
:1033C80025E02465F582E43494F583121769123CEC
:1033D80032E490948FF090948FE0C3940A748094B0
:1033E800805018E025E0247BF582E43494F583E4EA
:1033F800F0A3F090948FE004F080DB7B017A94795D
:103408007B9094ADE4F0A3740CF07F227EA6122486
:10341800E122759401759502758E0075930075C843
:103428007075C96075F800787FE4F6D8FD7581106D
:10343800023476023B2FE493A3F8E493A34003F607
:103448008001F208DFF48029E493A3F85407240CE0
:10345800C8C333C4540F4420C8834004F4568001C1
:1034680046F6DFE4800B010204081020408090013A
:1034780000E47E019360BCA3FF543F30E509541F6C
:10348800FEE493A360010ECF54C025E060A840B8C5
:10349800E493A3FAE493A3F8E493A3C8C582C8CA43
:1034A800C583CAF0A3C8C582C8CAC583CADFE9DE16
:1034B800E780BEC0E0C0F0C083C082C0D075D00035
:1034C800C000C004C006C0079094B1E4F0C2AFE5E4
:1034D8009B30E03DE59CF0E0FF9090EBE0FCA3E042
:1034E80024F1F58274903CF583EFF09090EBE4754D
:1034F800F00112158D539BFE539BFE9090EBE0FE5E
:10350800A3E0C39480EE940040079090EBE4F0A30E
:10351800F0E59B30E10B539BFD539BFD9090EAE453
:10352800F043C901D2AFD007D006D004D000D0D024
:10353800D082D083D0F0D0E032909490EFF0A3EC1A
:10354800F0A3EDF0E4F5F1F5F275F30475F4017507
:10355800F88F30FCFD909490E0F5FA909493121750
:1035680051781012173D8FFB9094931217517808D9
:1035780012173D8FFC909493121751EF54FEFFE4FD
:103588008FFDD2FE20FEFD909491E0FEA3E0EEF5C3
:10359800FA909491E0A3E054FEF5FB909497E0FE36
:1035A800A3E0EEF5FC909497E0A3E054FEF5FDD27D
:1035B800FE20FEFDE4F5F87F04FE12399F22909468
:1035C8007FEEF0A3EFF090947FE0FEA3E04E70044E
:1035D800123BFC2290947FE0FEA3E064014E70044D
:1035E8001239F82290947FE0FEA3E064024E604A0C
:1035F80090947FE0A3E064034E703FA3F090948121
:10360800E0C3940674809480502DE025E025E024E2
:1036180041F582E43494F583121751909481E025A2
:10362800E025E02461F582E43494F583121769906B
:103638009481E004F080C6123C322290949A1217CA
:10364800D290949DECF0A3EDF0A374FFF0A3F0905A
:10365800949D74FFF5F01215A345F0604D90949A6F
:10366800E475F0011217BB121523FF90949FE06FC9
:10367800FF9094A1E4F0A3EFF09094A1E0FEA3E002
:103688002469F582748E3EF583E0FF9094A0E06F84
:1036980090949FF09094A1E0A3E02469F582748F40
:1036A8003EF583E09094A0F080A590949FE0FEA35F
:1036B800E0FDEEEDFF22C0E0C0F0C083C082C0D0C4
:1036C80075D000C000C004C006C0079094B2E4F0F2
:1036D800C2AFE59754016401703AE59FF0E0FF90AE
:1036E80090EDE0FCA3E02471F58274913CF583EF42
:1036F800F09090EDE475F00112158D5397FE9090BF
:10370800EDE0FEA3E0C39480EE940040079090EDB6
:10371800E4F0A3F043C901D2AFD007D006D004D05B
:1037280000D0D0D082D083D0F0D0E032C0E0C0F05A
:10373800C083C082C0D075D000C000C004C006C01D
:10374800079094B3E4F0C2AFE5AB54016401703A5A
:10375800E5ADF0E0FF9090EFE0FCA3E02469F5828E
:1037680074903CF583EFF09090EFE475F00112153A
:103778008D53ABFE9090EFE0FEA3E0C39480EE94EF
:103788000040079090EFE4F0A3F043C901D2AFD016
:1037980007D006D004D000D0D0D082D083D0F0D0CB
:1037A800E0327BFF7A3D798B787B7C947D017E00CB
:1037B8007F041214FD7B017A94797B9094ADE4F038
:1037C800A37404F07F207EA41222749093D6E0FFA5
:1037D8007B017A94797B123A50EF600D123BBD90D1
:1037E80093D6E090943DF080077F057E00123B76EB
:1037F8007E007F047D007B017A94797B1219D87B47
:10380800017A94797B9094ADE4F0A37404F07F205E
:103818007EA41224E12290947FEEF0A3EFF0A3E4BB
:10382800F0A3745AF090947FE0FEA3E0641B4E70FE
:103838002190947FE0A3E0FEE42400FFEE34A0FE94
:103848007B017A9479819094ADE4F0A37402F0122C
:1038580024E190947FE0FEA3E0642F4E70219094C1
:103868007FE0A3E0FEE42400FFEE34A0FE7B017AB3
:103878009479819094ADE4F0A37402F01224E122CB
:10388800C0E0C083C082C0D075D000C006C0079019
:1038980094B0E4F0C2AF309830E599F090928DE0A2
:1038A800C3948074809480501E9094B0E0FF9092EE
:1038B8008DE0FE04F0748E2EF582E43492F583EFE9
:1038C800F09092007401F0C298309907C2999090D4
:1038D800E9E4F0D2AFD007D006D0D0D082D083D0E0
:1038E800E03290947FEEF0A3EFF090947FE0FEA397
:1038F800E0D394D1EE94A4501990947FE0A3E025EE
:10390800E0FFEE33FE749A2FF582744A3EF583E0A9
:10391800FF2290947FE0FEA3E0D394F3EE94A450AA
:103928001990947FE0A3E025E0FFEE33FE747A2F30
:10393800F582744A3EF583E0FF227F052290949A2F
:103948001217D290949DEDF07B007A007900C003A5
:10395800C002C00190949A1217B2D082D083D0E0EE
:103968006B7008E965827003EA6583602990949D0D
:10397800E0602390949DE0FF14F0EF601990949A12
:103988001217B2121523FF123CEF90949BE475F0C6
:103998000112158D80DD22909499EEF0A3EFF0E4EA
:1039A800F5F1909499E0FEA3E0EEF5F2909499E099
:1039B800A3E0F5F3E4F5F4E4909499F0A3F090947F
:1039C80099E0FEA3E0C394E8EE9403500F85FCFB56
:1039D800909499E475F00112158D80E275F8AF3076
:1039E800FCFDD2FE20FEFDE4F5F8AFFAEF70C82228
:1039F8007E007F087D007B017A9379591219D87B64
:103A0800017A9379599094ADE4F0A37408F07F009B
:103A18007E301224E190935BE0FEA3E07803C33389
:103A2800CE33CED8F92400FFEE3420FEE4FCFD901E
:103A38009493121769909497E4F0A37404F07D00AE
:103A48007C307FA51235412290947FEFF0A31217A6
:103A5800D290947FE070037F012290947FE075F00C
:103A680004A42461F9749435F0FA7B01C003C00200
:103A7800C001A31217B2A801AC02AD03D001D00255
:103A8800D0037E007F041219B4EF3395E04F700322
:103A98007F01227F002290947BEEF0A3EFF09094B8
:103AA8007BE0FEA3E02410FFEE345B9093D4F0A3F8
:103AB800EFF090947BE0A3E0FF1238EA9093D6EF02
:103AC800F09094CAE0FEA3E0FF9093D7EEF0A3EF46
:103AD800F090943E7401F07F047E00123B762290B1
:103AE800947DEEF0A3EFF090947DE0FEA3E02460D7
:103AF800FFEE345B90943FF0A3EFF09094CAE0FEA1
:103B0800A3E0FF9093D7EEF0A3EFF090947DE0FE52
:103B1800A3E0FF1238EA9093D6EFF0E490943EF0D9
:103B28007F04FE123B762212006E123D2812329755
:103B3800E50A30E01C430F01E50A30E103430F02B8
:103B4800E50A30E203430F04530AFE530AFD530A01
:103B5800FB43C901122901122C52122AAEE50F307B
:103B6800E0CE530FFE530FFD530FFB80C3229094FA
:103B780090EEF0A3EFF07BFF7A3D797378927C9416
:103B88007D017E007F041214FD909490E0FEA3E076
:103B9800EE909494F0909490A3E0909495F07B012B
:103BA8007A9479929094ADE4F0A37404F07F847EC3
:103BB800001224E12290943EE01217DB3BCE003B3A
:103BC800E50100003BFB90943FE0FEA3E0FF123BC1
:103BD8007690943FE0FEA3E0FF12381E229093D423
:103BE800E0FEA3E0FF1235C69093D7E0FEA3E0FF06
:103BF800123B7622909482E4F0A3745AF07B017A07
:103C08009479829094ADE4F0A37402F07F207EACA6
:103C18001224E17B017A9479829094ADE4F0A37444
:103C280002F07F807EAC1224E1227B017A947961D4
:103C38009094ADE4F0A37414F07F007E301224E178
:103C480090949312177500003000909497E4F0A3B5
:103C5800740AF07D007C307FA512354122E49094EF
:103C68007BF0A3F09094C8F0A3740BF090947BE4DD
:103C7800F0A304F0FB7A94797B9094ADE4F0A374FC
:103C880002F07F2C7EA01224E122E490928DF09025
:103C98009200F0FE7F80FD7B017A92798E1219D80E
:103CA800E49091FBF090930E12177500000000222B
:103CB80043B71043C940E49090E9F075D8807598EF
:103CC8005053877F75BA0375AA58D29CD2AC227517
:103CD800F90175B70375BC03E4F5BD75BE0CF58035
:103CE800F590F5A0F5B02290949EEFF09090E9E061
:103CF800640160F87401F090949EE0F5992275C80B
:103D080070E4F5CDF5CC75CBFF75CAEF43A820D28A
:103D1800C822438901758CBC758ACDD2A9D28C2260
:103D2800123C929091FC1217750000000022123D7F
:103D38001A123D06220000000000000000000000EA
:103D4800000000000000000000000000000000006B
:103D5800000000000000000000000000000000005B
:103D680000000000000000000000005A01000000F0
:103D7800000000000000000000000000000000003B
:073D88000000000000000034
:00000001FF
