:10000000023310020006C2AFD2AF32022D20C2AFBF
:10001000D2AF3202000E9093D7E0FEA3E0FF123A77
:100020006C223202377E12002E223202005675F9FF
:1000300001E4F5A8F5B8F59AF5A9F5B9F580F590BC
:10004000F5A0F5B075B750F5BCF5BDF5BE22123B75
:0200500081220B
:06005300020022C2C632C9
:03005B000235B4B7
:0300630002002A6E
:10006B0002362AC2AF120026123BA012004E123BE0
:07007B00FF43C902D2AF22CE
:100083000233B190947BEEF0A3EFF090947BE0FE0B
:10009300A3E08EF01217FC00AAA00000B3A0010099
:1000A300D0A002000000EB9093D2E4F0A304F0226E
:1000B3009093D2E0FEA3E064014E70099093D2F0D6
:1000C300A37403F022E49093D2F0A3F0229093D28E
:1000D300E0FEA3E064034E70077FAA7EA41239DD1D
:1000E300E49093D2F0A3F022E49093D2F0A3F02211
:1000F800FFFF4457494E54354294C800004294C605
:1001080000005A93123FC900690064000086000A83
:100118002D2D203A3A000000000000000000005A8F
:10012800932C3FCC01270064000086000A2D2D2F58
:100138003A3A000000000000000000005A93B83F5F
:10014800D001E50064000001E5006402AD007D0017
:10015800100017181802000000603C937C40004013
:10016800A04140401040B04150402040C041604054
:100178003040D04170404040E04180405040F04124
:10018800904060410041A04070411041B040804122
:100198002041C04090413041D054936841E041F83B
:1001A80042104228424042584270428842A042B817
:1001B80048935900000000000000004293610000CD
:1001C80042936600004293630000419365004193A7
:1001D80058004293460005498000B2E2CAD4BABA30
:1001E800D7D6006E60800949443030BBD8B7E7B82D
:1001F800DFCEC20000000000000000000000000088
:100208000000000000000049443031BBD8B7E7B512
:10021800CDCEC20000000000000000000000000079
:100228000000000000000049443032BBD8B7E7B8EE
:10023800DFCAAA0000000000000000000000000063
:100248000000000000000049443033BBD8B7E7B8CD
:10025800DFCAAA0000000000000000000000000043
:100268000000000000000049443034CBCDB7E7B8A7
:10027800DFCEC20000000000000000000000000007
:100288000000000000000049443035CBCDB7E7B589
:10029800CDCEC200000000000000000000000000F9
:1002A8000000000000000049443036CBCDB7E7B865
:1002B800DFCAAA00000000000000000000000000E3
:1002C8000000000000000049443037CBCDB7E7B547
:1002D800CDCAAA00000000000000000000000000D5
:1002E8000000000000000049443038B1A3C1F40008
:1002F80000000000000000000000000000000000F6
:100308000000000000000049443039C4DAB2BFCD13
:10031800A8D0C50000000000000000000000000098
:1003280000000000000000494431304E5443D2EC34
:10033800B3A300000000000000000000000000005F
:100348000000000000000049443131B7E7BBFA3132
:10035800B9CAD5CF0000000000000000000000006E
:100368000000000000000049443132B7E7BBFA3210
:10037800B9CAD5CF0000000000000000000000004E
:100388000000000000000049443133B7E7BBFA33EE
:10039800B9CAD5CF0000000000000000000000002E
:1003A8000000000000000049443134B7E7BBFA34CC
:1003B800B9CAD5CF0000000000000000000000000E
:1003C8000000000000000049443135B7E7BBFA35AA
:1003D800B9CAD5CF000000000000000000000000EE
:1003E8000000000000000049443136CDE2B7E7BB09
:1003F800FAB9CAD5CF0000000000000000000000D4
:100408000000000000000049443137B7E7BBFA316B
:10041800D4CBD0D0B3ACCAB10000000000000000BB
:100428000000000000000049443138B7E7BBFA3249
:10043800D4CBD0D0B3ACCAB100000000000000009B
:100448000000000000000049443139B7E7BBFA3327
:10045800D4CBD0D0B3ACCAB100000000000000007B
:100468000000000000000049443230B7E7BBFA340E
:10047800D4CBD0D0B3ACCAB100000000000000005B
:100488000000000000000049443231B7E7BBFA35EC
:10049800D4CBD0D0B3ACCAB100000000000000003B
:1004A8000000000000000049443232CDE2B7E7BB4B
:1004B800FAD4CBD0D0B3ACCAB10000000000000021
:1004C8000000000000000049443233B8DFD1B931E0
:1004D800B8E6BEAF00000000000000000000000009
:1004E8000000000000000049443234B8DFD1B931BF
:1004F800CBF8CBC0000000000000000000000000A6
:100508000000000000000049443235B5CDD1B931B2
:10051800B8E6BEAF000000000000000000000000C8
:100528000000000000000049443236B5CDD1B93191
:10053800CBF8CBC000000000000000000000000065
:100548000000000000000049443237C5C5C6F8CE97
:10055800C2B6C831B8E6BEAF000000000000000017
:100568000000000000000049443238C5C5C6F8CE76
:10057800C2B6C831CBF8CBC00000000000000000B4
:100588000000000000000049443239B6CCD6DCC671
:10059800DA31B8E6BEAF000000000000000000003D
:1005A8000000000000000049443330D1B9BBFA31E3
:1005B800D4CBD0D0B3ACCAB100000000000000001A
:1005C8000000000000000049443331B8DFD1B932DF
:1005D800B8E6BEAF00000000000000000000000008
:1005E8000000000000000049443332B8DFD1B932BE
:1005F800CBF8CBC0000000000000000000000000A5
:100608000000000000000049443333B5CDD1B9D112
:10061800B9C1A6B8E6BEAF000000000000000000A7
:100628000000000000000049443334B5CDD1B93290
:10063800CBF8CBC000000000000000000000000064
:100648000000000000000049443335C5C5C6F8CE97
:10065800C2B6C832B8E6BEAF000000000000000015
:100668000000000000000049443336C5C5C6F8CE76
:10067800C2B6C832CBF8CBC00000000000000000B2
:100688000000000000000049443337B6CCD6DCC671
:10069800DA32B8E6BEAF000000000000000000003B
:1006A8000000000000000049443338D1B9BBFA32D9
:1006B800D4CBD0D0B3ACCAB1000000000000000019
:1006C8000000000000000049443339BCD3CAAAC660
:1006D800F7B5E7C1F7B9FDB4F3000000000000006A
:1006E8000000000000000049443430BCD3CAAAC648
:1006F800F7B8DFCBAECEBB00000000000000000062
:100708000000000000000049443431BCD3CAAAC626
:10071800F7C8B1CBAE0000000000000000000000E8
:100728000000000000000049443432BCD3CAAAC605
:10073800F7D4CBD0D0B3ACCAB100000000000000A1
:100748000000000000000049443433BCD3C8C8C6C8
:10075800F7B8E6BEAF00000000000000000000008F
:100768000000000000000049443434BCD3C8C8C6A7
:10077800F731B3ACCAB1000000000000000000006F
:100788000000000000000049443435BCD3C8C8C686
:10079800F732B3ACCAB1000000000000000000004E
:1007A8000000000000000049443436B6CFB5E7D653
:1007B800D8C6F4000000000000000000000000009F
:1007C8000000000000000049443437B5E7D4B4CF36
:1007D800E0D0F2B4EDCEF30000000000000000000D
:1007E8000000000000000049443438B5E7D4B4C61E
:1007F800B5C2CAC6ABB8DF000000000000000000A8
:100808000000000000000049443439B5E7D4B4C6FC
:10081800B5C2CAC6ABB5CD0000000000000000009C
:10082800000000000000004944353041CFE0B9FD28
:10083800D1B9000000000000000000000000000026
:10084800000000000000004944353142CFE0B9FD06
:10085800D1B9000000000000000000000000000006
:10086800000000000000004944353243CFE0B9FDE4
:10087800D1B92000000000000000000000000000C6
:10088800000000000000004944353341CFE0C7B7FD
:10089800D1B90000000000000000000000000000C6
:1008A800000000000000004944353442CFE0C7B7DB
:1008B800D1B90000000000000000000000000000A6
:1008C800000000000000004944353543CFE0C7B7B9
:1008D800D1B9000000000000000000000000000086
:1008E800000000000000004944353641CFE0C8B19F
:1008F800CFE0000000000000000000000000000041
:10090800000000000000004944353742CFE0C8B17C
:10091800CFE0000000000000000000000000000020
:10092800000000000000004944353843CFE0C8B15A
:10093800CFE0000000000000000000000000000000
:100948000000000000000049443539C6F8C1F7B678
:10095800AACAA7B8E6BEAF00000000000000000069
:100968000000000000000049443630B9FDC2CBCD7C
:10097800F8D4CBD0D0B3ACCAB1000000000000005E
:100988000000000000000049443631B9FDC2CBCD5B
:10099800F8B6C2B8E6BEAF000000000000000000D4
:1009A8000000000000000049443632D4B6B3CCB988
:1009B800D8BBFAB8E6BEAF00000000000000000097
:1009C8000000000000000049443633D2E7CBAEB83F
:1009D800E6BEAF00000000000000000000000000BC
:1009E8000000000000000049443634C8BABFD8CD22
:1009F800A8D0C5D2ECB3A30000000000000000009E
:100A08000000000000000049443635B1E4C6B5C610
:100A1800F7B9CAD5CF0000000000000000000000B0
:100A28000000000000000049443636D7A2CBAEB51E
:100A3800E7B5BCC2CAB8DF00000000000000000033
:100A48000000000000000049443637D7A2CBAEB5FD
:100A5800E7B5BCC2CAB5CD00000000000000000028
:100A68000000000000000049443638D1CCCEEDB873
:100A7800E6BEAF000000000000000000000000001B
:100A88000000000000000049443639D3C3BBA7D793
:100A9800D4B6A8D2E5B8E6BEAF000000000000005A
:100AA8000000000000000049443730B5E7D4B4D254
:100AB800ECB3A300000000000000000000000000EC
:100AC8000000000000000049443731C8EBCBAEB845
:100AD800DFCEC2000000000000000000000000009F
:100AE8000000000000000049443732CBAEB7A7B978
:100AF800CAD5CF0000000000000000000000000080
:100B08000000000000000049443733C5CCB9DCB60A
:100B1800CFC1F7B8E6BEAF0000000000000000003B
:100B28000000000000000049443734B7E7BBFA363C
:100B3800B9CAD5CF00000000000000000000000086
:100B48000000000000000049443735B7E7BBFA371A
:100B5800B9CAD5CF00000000000000000000000066
:100B68000000000000000049443736B7E7BBFA38F8
:100B7800B9CAD5CF00000000000000000000000046
:100B88000000000000000049443737B7E7BBFA36D9
:100B9800B3ACCAB100000000000000000000000073
:100BA8000000000000000049443738B7E7BBFA37B7
:100BB800B3ACCAB100000000000000000000000053
:100BC8000000000000000049443739B7E7BBFA3895
:100BD800B3ACCAB100000000000000000000000033
:100BE8000000000000000049443830C5C5CBAEB84D
:100BF800DFCBAECEBB00000000000000000000000C
:100C08000000000000000049443831BCD3CAAAC61D
:100C1800F7D2ECB3A30000000000000000000000C1
:100C28000000000000000049443832B7E7D1B9B9E4
:100C3800FDB5CD000000000000000000000000002D
:100C48000000000000000049443833BAECCDE2BC93
:100C5800D3CAAAB9FDC8C8000000000000000000FF
:100C68000000000000000049443834D1B9BBFA3113
:100C7800B8DFD1B90000000000000000000000004B
:100C88000000000000000049443835B7E7BBFAB55A
:100C9800E7C1F7B9FDB4F300000000000000000050
:100CA8000000000000000049443836B8A8C2B7C8A0
:100CB800EBCBAEB8DFCEC2000000000000000000A1
:100CC8000000000000000049443837454556B8E6A2
:100CD800BEAF00000000000000000000000000009F
:100CE8000000000000000049443838BDD3CBAEC531
:100CF800CCD2E7CBAE0000000000000000000000EE
:100D08000000000000000049443839C5C5C6F8B8DD
:100D1800DFCEC2000000000000000000000000005C
:100D28000000000000000049443930C9E8B1B8CAE1
:100D3800B9D3C3B3ACCAB100000000000000000082
:100D48000000000000000049443931B1A3C1F4009B
:100D5800000000000000000000000000000000008B
:100D68000000000000000049443932B1A3C1F4007A
:100D7800000000000000000000000000000000006B
:100D88000000000000000049443933B1A3C1F40059
:100D9800000000000000000000000000000000004B
:100DA8000000000000000049443934B1A3C1F40038
:100DB800000000000000000000000000000000002B
:100DC8000000000000000049443935B1A3C1F40017
:100DD800000000000000000000000000000000000B
:100DE8000000000000000049443936B1A3C1F400F6
:100DF80000000000000000000000000000000000EB
:100E08000000000000000049443937BBD8B7E7CEDE
:100E1800C2CAAAB6C8B4ABB8D0C6F7000000000072
:100E28000000000000000049443938CBCDB7E7CEB8
:100E3800C2CAAAB6C8B4ABB8D0C6F7000000000052
:100E48000000000000000049443939BCD3CAAAB0E8
:100E5800E5D2ECB3A3000000000000000000000091
:100E6800000000000000004944313030C6C1C4BB56
:100E7800D2D1CBF8B6A800000000000000000000A6
:100E8800000000000000004944313031D2BBCCECF6
:100E9800BDABCBF8B6A800000000000000000000C1
:100EA800000000000000004944313032C8FDCCEC9D
:100EB800BDABCBF8B6A800000000000000000000A1
:100EC800000000000000004944313033C6DFCCEC9C
:100ED800BDABCBF8B6A80000000000000000000081
:100EE800000000000000004944313034CAAECEE5AD
:100EF800CCECBDABCBF8B6A80000000000000000A9
:100F0800000000000000004944313035C8FDCAAE79
:100F1800CCECBDABCBF8B6A8000000000000000088
:100F2800000000000000004944313036B5E7D4B471
:100F380032CFE0D0F2B4ED00000000000000000065
:100F4800000000000000004944313037B5E7D4B450
:100F580032C6B5C2CAB8DF000000000000000000B9
:100F6800000000000000004944313038B5E7D4B42F
:100F780032C6B5C2CAB5CD000000000000000000AE
:100F8800000000000000004944313039B5E7D4B40E
:100F98003241CFE0B9FDD1B90000000000000000E7
:100FA800000000000000004944313130B5E7D4B4F6
:100FB8003242CFE0B9FDD1B90000000000000000C6
:100FC800000000000000004944313131B5E7D4B4D5
:100FD8003243CFE0B9FDD1B90000000000000000A5
:100FE800000000000000004944313132B5E7D4B4B4
:100FF8003241CFE0C7B7D1B90000000000000000BF
:10100800000000000000004944313133B5E7D4B492
:101018003242CFE0C7B7D1B900000000000000009D
:10102800000000000000004944313134B5E7D4B471
:101038003243CFE0C7B7D1B900000000000000007C
:10104800000000000000004190E9004190EA0042E1
:1010580090EB00004290ED00004290EF00004294B7
:10106800B600004294B800004294B400004494C210
:10107800000000004294BA00004494BC0000000044
:1010880002080000040B000000004294C0000001A8
:101098000A0061008E6900C1814001C0804101C021
:1010A800804100C1814001C0804100C1814000C130
:1010B800814001C0804101C0804100C1814000C120
:1010C800814001C0804100C1814001C0804101C010
:1010D800804100C1814001C0804100C1814000C100
:1010E800814001C0804100C1814001C0804101C0F0
:1010F800804100C1814000C1814001C0804101C0E0
:10110800804100C1814001C0804100C1814000C1CF
:10111800814001C0804101C0804100C1814000C1BF
:10112800814001C0804100C1814001C0804101C0AF
:10113800804100C1814000C1814001C0804101C09F
:10114800804100C1814001C0804100C1814000C18F
:10115800814001C0804100C1814001C0804101C07F
:10116800804100C1814001C0804100C1814000C16F
:10117800814001C0804101C0804100C1814000C15F
:10118800814001C0804100C1814001C0804101C04F
:10119800804100C1814061008F6900C0C101C30363
:1011A80002C2C60607C705C5C404CC0C0DCD0FCFB7
:1011B800CE0E0ACACB0BC90908C8D81819D91BDB27
:1011C800DA1A1EDEDF1FDD1D1CDC14D4D515D71777
:1011D80016D6D21213D311D1D010F03031F133F327
:1011E800F23236F6F737F53534F43CFCFD3DFF3F77
:1011F8003EFEFA3A3BFB39F9F83828E8E929EB2BA7
:101208002AEAEE2E2FEF2DEDEC2CE42425E527E736
:10121800E62622E2E323E12120E0A06061A163A3A6
:10122800A26266A6A767A56564A46CACAD6DAF6F36
:101238006EAEAA6A6BAB69A9A86878B8B979BB7BA6
:101248007ABABE7E7FBF7DBDBC7CB47475B577B7F6
:10125800B67672B2B373B17170B050909151935326
:10126800529296565797559594549C5C5D9D5F9FF6
:101278009E5E5A9A9B5B99595898884849894B8B26
:101288008A4A4E8E8F4F8D4D4C8C448485458747B6
:101298004686824243834181804041928D0041923B
:1012A800000044930E000000004191FB004491FCB3
:1012B80000000000607E920F5A020301C80100007E
:1012C800A020004B00FF5A020302C8010000A02121
:1012D80001F600FF5A020302C8010000A02301F929
:1012E80000FF5A020302C8010000A02501FF00FF09
:1012F8005A020301C8010000A027006400FF5A0237
:101308000301C8010000A028006D00FF5A02030174
:10131800C8010000A029007200FF5A020601C80295
:10132800A08AA02A006E00FF5A020601C802A08BFC
:10133800A02B006F00FF4E9201000000000000008B
:10134800000000000000004191F2004891F3000005
:10135800A020A050A0804191F100589461000000A5
:101368000000000000000000000000000000000075
:101378000000000000589441000000000001B2077E
:101388000000000200027360000A2D080007ED65E6
:1013980041943DFF606493D90000010002000300FE
:1013A8000400050006000700080009000A010B00F8
:1013B8000C000D000E000F011000110012021300A6
:1013C8001400150016001700180019001A001B0257
:1013D8001C001D001E001F00200021002200230009
:1013E8002400250026022700280029002A002B00B7
:1013F8002C002D002E002F03300031004894590096
:101408000101030203030542943F00004293D70001
:10141800004293D400004193D6004293D2000000CA
:10142800E709F608DFFA8046E709F208DFFA803EA6
:1014380088828C83E709F0A3DFFA8032E309F60893
:10144800DFFA8078E309F208DFFA807088828C83FB
:10145800E309F0A3DFFA806489828A83E0A3F608AF
:10146800DFFA805889828A83E0A3F208DFFA804C89
:1014780080D280FA80C680D4806980F28033801060
:1014880080A680EA809A80A880DA80E280CA8033C9
:1014980089828A83ECFAE493A3C8C582C8CCC58341
:1014A800CCF0A3C8C582C8CCC583CCDFE9DEE78011
:1014B8000D89828A83E493A3F608DFF9ECFAA9F090
:1014C800EDFB2289828A83ECFAE0A3C8C582C8CCE6
:1014D800C583CCF0A3C8C582C8CCC583CCDFEADEFF
:1014E800E880DB89828A83E493A3F208DFF980CC61
:1014F80088F0EF60010E4E60C388F0ED2402B4045A
:101508000050B9F582EB2402B4040050AF23234500
:10151800822390147873BB010689828A83E0225063
:1015280002E722BBFE02E32289828A83E49322BB7C
:10153800010CE58229F582E5833AF583E02250061D
:10154800E92582F8E622BBFE06E92582F8E222E5D3
:101558008229F582E5833AF583E49322BB01068963
:10156800828A83F0225002F722BBFE01F322EF8D1C
:10157800F0A4A8F0CF8CF0A428CE8DF0A42EFE22E3
:10158800C5F0F8A3E028F0C5F0F8E58215827002EE
:101598001583E038F022A3F8E0C5F025F0F0E582E5
:1015A800158270021583E0C838F0E822BB010A8969
:1015B800828A83E0F5F0A3E022500687F009E71954
:1015C80022BBFE07E3F5F009E3192289828A83E446
:1015D80093F5F074019322BB0110E58229F582E5A9
:1015E800833AF583E0F5F0A3E0225009E92582F873
:1015F80086F008E622BBFE0AE92582F8E2F5F00843
:10160800E222E5832AF583E993F5F0A3E99322BB67
:10161800010A89828A83F0E5F0A3F0225006F709CF
:10162800A7F01922BBFE06F3E5F009F31922EF2B08
:10163800FFEE3AFEED39FDEC38FC2275F0087582B4
:1016480000EF2FFFEE33FECD33CDCC33CCC5823344
:10165800C5829BED9AEC99E58298400CF582EE9B49
:10166800FEED9AFDEC99FC0FD5F0D6E4CEFBE4CD67
:10167800FAE4CCF9A88222B800C1B90059BA002D01
:10168800EC8BF084CFCECDFCE5F0CBF97818EF2FBA
:10169800FFEE33FEED33FDEC33FCEB33FB10D703E9
:1016A800994004EB99FB0FD8E5E4F9FA227818EF92
:1016B8002FFFEE33FEED33FDEC33FCC933C910D7F1
:1016C800059BE99A4007EC9BFCE99AF90FD8E0E4FE
:1016D800C9FAE4CCFB2275F010EF2FFFEE33FEEDD4
:1016E80033FDCC33CCC833C810D7079BEC9AE899A4
:1016F800400AED9BFDEC9AFCE899F80FD5F0DAE486
:10170800CDFBE4CCFAE4C8F922EB9FF5F0EA9E425F
:10171800F0E99D42F0EC6480C864809845F022EBC3
:101728009FF5F0EA9E42F0E99D42F0E89C45F022E0
:10173800E86010ECA2E713FCED13FDEE13FEEF13C7
:10174800FFD8F022E0FCA3E0FDA3E0FEA3E0FF2227
:10175800E0F8A3E0F9A3E0FAA3E0FB22ECF0A3EDA4
:10176800F0A3EEF0A3EFF022A8828583F0D083D017
:1017780082121787121787121787121787E473E4E4
:1017880093A3C583C5F0C583C8C582C8F0A3C58324
:10179800C5F0C583C8C582C822A42582F582E5F0B4
:1017A8003583F58322E0FBA3E0FAA3E0F922F8E011
:1017B800FBA3A3E0F925F0F0E582158270021583FA
:1017C800E0FA38F022EBF0A3EAF0A3E9F022D083A4
:1017D800D082F8E4937012740193700DA3A393F868
:1017E800740193F5828883E4737402936860EFA3AD
:1017F800A3A380DFD083D082F8E49370127401939E
:10180800700DA3A393F8740193F5828883E473742D
:101818000293B5F0067403936860E9A3A3A3A380B9
:10182800D8E3F5F009E208B5F06BDFF58067E3F57A
:10183800F009E608B5F05EDFF5805A87F009E6089A
:10184800B5F052DFF6804E87F009E208B5F046DFC2
:10185800F6804288828C8387F009E0A3B5F036DFF2
:10186800F6803288828C8387F009E493A3B5F0254B
:10187800DFF5802188828C83E3F5F009E0A3B5F0D9
:1018880014DFF5801088828C83E3F5F009E493A3D4
:10189800B5F002DFF4021958808780E9809080D47F
:1018A800803E8015806E807E809D80B7808D80A36D
:1018B80080518074803C02196489828A83ECFAE43E
:1018C80093F5F0A3C8C582C8CCC583CCE493A3C85C
:1018D800C582C8CCC583CCB5F076DFE3DEE1807085
:1018E80089828A83E493F5F0A3E208B5F062DFF415
:1018F800805E89828A83E0F5F0A3E608B5F051DFBF
:10190800F5804D89828A83E0F5F0A3E208B5F040BE
:10191800DFF5803C89828A83E493F5F0A3E608B575
:10192800F02EDFF4802A8002805789828A83ECFABD
:10193800E493F5F0A3C8C582C8CCC583CCE0A3C89E
:10194800C582C8CCC583CCB5F006DFE4DEE28000F2
:101958007FFFB5F0020F2240027F012289828A832D
:10196800ECFAE0F5F0A3C8C582C8CCC583CCE0A3E7
:10197800C8C582C8CCC583CCB5F0D5DFE5DEE38029
:10198800CF89828A83ECFAE0F5F0A3C8C582C8CC77
:10199800C583CCE493A3C8C582C8CCC583CCB5F0B5
:1019A800AFDFE4DEE280A988F0EF60010E4E60ABA5
:1019B800ED2402B404005098F582EB2402B404002C
:1019C800508E23234582239018A073EF4E6012EFA8
:1019D80060010EEDBB010B89828A83F0A3DFFCDE78
:1019E800FA2289F05007F709DFFCA9F022BBFEFCB8
:1019F800F309DFFCA9F022F8BB010DE58229F58285
:101A0800E5833AF583E8F0225006E92582C8F622F4
:101A1800BBFE05E92582C8F2227BFF7A3C79407833
:101A2800957C947D017E007F0C1214F8E49094A3B9
:101A3800F07B017A9479819094ADF0A3740AF07FD9
:101A4800207EA012226F909485E0A3E020E36A90A4
:101A5800948BE4F0A304F0909481E0A3E030E63B9B
:101A6800909485E0A3E020E62890948BE4F0A3749A
:101A780002F0909485E0A3E020E40B90948BE4F0CE
:101A8800A37403F0803A90948BE4F0A37402F0807E
:101A98002F90948BE4F0A304F08025909485E0A324
:101AA800E020E40B90948BE4F0A37403F080119091
:101AB800948BE4F0A304F08007E490948BF0A3F0F7
:101AC8007B017A94798B9094ADE4F0A37402F0745E
:101AD800A0FFFE1224DC909487E0FEA3E0EE30E63F
:101AE8001E909487A3E0EE30E70B90948BE4F0A36C
:101AF8007406F0805D90948BE4F0A304F08053901A
:101B08009487E0FEA3E0EE30E70B90948BE4F0A31B
:101B18007402F0803D909489E0A3E030E009A3E4EA
:101B2800F0A37403F0802B909489E0A3E030E109DE
:101B3800A3E4F0A37404F08019909489E0A3E03042
:101B4800E209A3E4F0A37405F08007E490948BF015
:101B5800A3F07B017A94798B9094ADE4F0A374029E
:101B6800F07FA17EA01224DC909487E0FEA3E0FF22
:101B7800EE541F909487F0A3EFF0E49094A1F090B6
:101B880094A1E0C39402748094804003021C32E460
:101B9800A3F09094A2E0C39410748094805075E0F0
:101BA800FF7E007401A807088005C333CE33CED862
:101BB800F9FF9094A1E025E02487F582E43494F5B8
:101BC80083E0FCA3E0FDEE5CFEEF5D4E6030909498
:101BD800A2E02401FDE433FC9094A1E075F010A488
:101BE8002DFFE5F03CFE9094A3E0FD04F0ED25E028
:101BF8002495F582E43494F583EEF0A3EFF0909405
:101C0800A3E0C394067480948050099094A2E004E1
:101C1800F0021B9A9094A3E0C394067480948050B9
:101C2800099094A1E004F0021B877B017A947995CE
:101C38009094ADE4F0A3740AF07FA27EA01224DC95
:101C48007B017A94798D9094ADE4F0A37406F07FCB
:101C5800277EA012226F90948FE0FEA3E064014ECD
:101C68007008909493F0A3F0802690948FE0FEA3E0
:101C7800E04E701C909483E0A3E020E20A909493D5
:101C8800E4F0A304F08009909493E4F0A37402F0C4
:101C9800909485E0A3E030E31D90948DE0FEA3E0EE
:101CA8004E700A909493F0A37404F0800990949372
:101CB800E4F0A37403F0909491E0FEA3E064014E75
:101CC8007008A3F0A37405F0803A909491E0FEA305
:101CD800E064024E7008A3F0A37406F08026909486
:101CE80091E0FEA3E064034E7008A3F0A37407F02C
:101CF8008012909491E0FEA3E064044E7006A3F075
:101D0800A37408F07B017A9479939094ADE4F0A3DE
:101D18007402F07FA77EA01224DC2290947E121712
:101D2800CD909481ECF0A3EDF0E4A3F0A3F09094AF
:101D380081E0FEA3E0FFA3E0FCA3E0C39FEC9E507C
:101D48000C909483E475F00112158880E1909481D9
:101D5800E0FEA3E0C39405EE94005003021FDCE408
:101D6800A3F0A3F090947E1217AD909483E0FEA3A5
:101D7800E0F5828E8312153764026003021FB69065
:101D8800947E1217AD909483E0A3E029F9EA3EFA15
:101D98009000011215371217D61DAB031EFF06005F
:101DA800001FB690947E1217AD909483E0FEA3E0D6
:101DB80029F9EA3EFA900002121537FF909487E459
:101DC800F0A3EFF0909483E0A3E0FF909487E0FC09
:101DD800A3E02FFFEC3EFEEF2405FFE43EFE9094C7
:101DE80081E0FCA3E0FDD3EF9DEE9C40119094812F
:101DF800E0FEA3E0FFA3EEF0A3EFF0021FB690947D
:101E08007E1217AD909483E0FEA3E029F9EA3EFA2A
:101E1800909487E0FEA3E02403FDE43EFC123539EC
:101E2800909485EEF0A3EFF090947E1217AD909405
:101E380083E0FEA3E029F9EA3EFA909487E0FEA346
:101E4800E029F9EA3EFA900003121537FD909485CF
:101E5800E0FEA3E0EE6D7001E46003021FB690940B
:101E68007E1217AD909483E0FEA3E029F9EA3EFACA
:101E7800909487E0FEA3E029F9EA3EFA9000041264
:101E88001537FF909485E0A3E06F7001E4600302CA
:101E98001FB6909209E0FEA3E0FF90947E1217AD62
:101EA800E92403F9E43AFAC003C002C00190947E21
:101EB8001217AD900002121537FD9094ADE4F0A30F
:101EC800EDF0D001D002D0031224DC7E007F0E7D1D
:101ED800007B017A9279011219D3909487E0FEA3CE
:101EE800E02405FFE43E909483F0A3EFF09091F195
:101EF800E04402F0021FB6909483E0FEA3E02408B9
:101F0800FFE43EFE909481E0FCA3E0FDD3EF9DEE5C
:101F18009C4011909481E0FEA3E0FFA3EEF0A3EFB4
:101F2800F0021FB690947E1217AD909483E0FEA342
:101F3800E029F9EA3EFA7D067C001235399094854D
:101F4800EEF0A3EFF090947E1217AD909483E0FE2C
:101F5800A3E029F9EA3EFA900006121537FD90949D
:101F680085E0FEA3E0EE6D7001E4704290947E126D
:101F780017AD909483E0FEA3E029F9EA3EFA9000B9
:101F880007121537FF909485E0A3E0B50720E49089
:101F9800948375F0081215887E007F0E7D007B0102
:101FA8007A9279011219D39091F1E04402F0909459
:101FB80083E475F001121588909481E0FEA3E02473
:101FC800FBFFEE34FFFEA3E0FCA3E0C39FEC9E50B2
:101FD80003021D6C2290947E1217CD90947E1217E6
:101FE800AD12151E909481F0909481E0C394097409
:101FF800809480400302225FE075F00EA4240FF560
:1020080082E43492F583E0645A6003022256909485
:1020180081E075F00EA42412F582E43492F583E091
:102028007003022256909481E075F00EA42414F5F2
:1020380082E43492F583E0700302225F909481E099
:1020480075F00EA42414F582E43492F583E064015B
:10205800702D909481E075F00EA42415F582E43477
:1020680092F583E0FEA3E0FF9094C8E0FCA3E06F44
:102078007002EC6E600302225602225F0222569022
:102088009481E075F00EA42414F582E43492F5836B
:10209800E06402600302215C909481E075F00EA474
:1020A8002415F582E43492F583E0FEA3E0FF7B017A
:1020B8007A9479829094ADE4F0A37402F012226FBE
:1020C800909482E0A3E0645A6003022256909481BF
:1020D800E0C39408748094805048E075F00EA424FE
:1020E80022F582E43492F583E0640270359094819D
:1020F800E075F00EA42423F582E43492F583E0FE23
:10210800A3E0FF909481E075F00EA42415F582E415
:102118003492F583E0FCA3E06F7002EC6E7003026A
:10212800225FE4909482F0A3F0909481E075F00E21
:10213800A42415F582E43492F583E0FEA3E0FF7B46
:10214800017A9479829094ADE4F0A37402F0122499
:10215800DC02225F909481E075F00EA42414F582CD
:10216800E43492F583E0640360030222569094817C
:10217800E075F00EA4241BF582E43492F583E0FEAA
:10218800A3E0FF9094C8E0FCA3E0FDEF6D7002EEC1
:102198006C6003022256909481E075F00EA4241519
:1021A800F582E43492F583E0FEA3E0FF7B017A94A4
:1021B80079829094ADE4F0A37402F012226F9094A7
:1021C80082E0A3E0645A6003022256909481E0C33F
:1021D8009408748094805045E075F00EA42422F58C
:1021E80082E43492F583E064037032909481E07560
:1021F800F00EA42423F582E43492F583E0FEA3E0F4
:10220800FF909481E075F00EA42415F582E43492D1
:10221800F583E0FCA3E06F7002EC6E603AE4909402
:1022280082F0A3F0909481E075F00EA42415F58255
:10223800E43492F583E0FEA3E0FF7B017A9479828F
:102248009094ADE4F0A37402F01224DC8009909419
:1022580081E004F0021FF0909481E0FF90947E12D8
:1022680017ADEF121564229094A8EEF0A3EFF0A337
:102278001217CD7B007A007900C003C002C001901C
:1022880094AA1217ADD082D083D0E06B7008E965AC
:10229800827003EA658370030224DB9094ADE0FE4C
:1022A800A3E04E70030224DB9094ADE0A3E0FFEEC0
:1022B800C313FEEF13FF9094A8E0FCA3E02FFFEEFA
:1022C8003CFED3EF94FEEE94FF40030224DBC2AF42
:1022D8009094A8E0A3E054019094AFF09094A8E003
:1022E800FEA3E0FFEEC313FEEF13FF9094A8EEF0F9
:1022F800A3EFF09094A8E0FEA3E07810CEC313CE2D
:1023080013D8F9F5F19094A8E0FEA3E0EEF5F29069
:1023180094A8E0A3E0F5F3E4F5F875F401D2FF30F2
:10232800FCFDD2FD9094AFE0640170729094ADE032
:10233800FEA3E064014E700AC2FBC2FAD2F9C2F8E9
:102348008008C2FBC2FAD2F9D2F8D2FE20FEFD9074
:1023580094ADE0FEA3E064014E701A9094AA75F063
:10236800011217B6E5FC1215649094AD74FFF5F0F0
:1023780012158880299094AAE475F0011217B6E521
:10238800FC1215649094AAE475F0011217B6E5FDE5
:102398001215649094AD74FF75F0FE121588909430
:1023A800ADE0FEA3E04E70030224D69094ADE0A306
:1023B800E0C39404EE9400400302247F9094ADE0BF
:1023C800A3E08EF01217FC23F3000123E900022397
:1023D800DF0003000023FBD2FBD2FAD2F9C2F88057
:1023E80012D2FBD2FAC2F9C2F88008D2FBC2FAC2F2
:1023F800F9C2F8D2FE20FEFD9094ADE0FEA3E08E77
:10240800F01217FC246C0001244C0002241C000369
:10241800000024D69094AAE475F0011217B6E5FAE4
:102428001215649094AAE475F0011217B6E5FB1230
:1024380015649094AAE475F0011217B6E5FC12151C
:10244800640224D69094AAE475F0011217B6E5FA4E
:102458001215649094AAE475F0011217B6E5FB1200
:102468001564806A9094AAE475F0011217B6E5FA2B
:1024780012156480598057D2FBD2FAD2F9D2F8D219
:10248800FE20FEFD9094AAE475F0011217B6E5FA55
:102498001215649094AAE475F0011217B6E5FB12C0
:1024A80015649094AAE475F0011217B6E5FC1215AC
:1024B800649094AAE475F0011217B6E5FD1215644C
:1024C8009094AD74FF75F0FC1215880223A6E4F50C
:1024D800F8D2AF229094A8EEF0A3EFF0A31217CD94
:1024E8007B007A007900C003C002C0019094AA1250
:1024F80017ADD082D083D0E06B7008E96582700395
:10250800EA658370030227479094ADE0FEA3E04E8E
:1025180070030227479094ADE0A3E0FFEEC313FEDB
:10252800EF13FF9094A8E0FCA3E02FFFEE3CFED34E
:10253800EF94FEEE94FF4003022747C2AF9094A8A1
:10254800E0A3E054019094AFF09094A8E0FEA3E0DB
:10255800FFEEC313FEEF13FF9094A8EEF0A3EFF085
:102568009094A8E0FEA3E07810CEC313CE13D8F958
:10257800F5F19094A8E0FEA3E0EEF5F29094A8E0BF
:10258800A3E0F5F3E4F5F875F401D2FF30FCFDC2E1
:10259800FD9094AFE0640170729094ADE0FEA3E00A
:1025A80064014E700AC2FBC2FAD2F9C2F88008C2AE
:1025B800FBC2FAD2F9D2F89094ADE0FEA3E0640130
:1025C8004E701A9094AA75F0011217B612151EF5DE
:1025D800FC9094AD74FFF5F012158880299094AAA8
:1025E800E475F0011217B612151EF5FC9094AAE4D2
:1025F80075F0011217B612151EF5FD9094AD74FF13
:1026080075F0FE121588D2FE20FEFD9094ADE0FE16
:10261800A3E04E70030227429094ADE0A3E0C39478
:1026280004EE940040030226EB9094ADE0A3E08E04
:10263800F01217FC2660000126560002264C000303
:1026480000002668D2FBD2FAD2F9C2F88012D2FB77
:10265800D2FAC2F9C2F88008D2FBC2FAC2F9C2F8AB
:102668009094ADE0FEA3E08EF01217FC26D3000193
:1026780026B3000226840003000026E29094AAE410
:1026880075F0011217B612151EF5FA9094AAE475A2
:10269800F0011217B612151EF5FB9094AAE475F016
:1026A800011217B612151EF5FC802F9094AAE47536
:1026B800F0011217B612151EF5FA9094AAE475F0F7
:1026C800011217B612151EF5FB800F9094AAE47537
:1026D800F0011217B612151EF5FAD2FE30FE5B8015
:1026E800FB8057D2FBD2FAD2F9D2F89094AAE475BB
:1026F800F0011217B612151EF5FA9094AAE475F0B7
:10270800011217B612151EF5FB9094AAE475F00194
:102718001217B612151EF5FC9094AAE475F0011272
:1027280017B612151EF5FDD2FE20FEFD9094AD746D
:10273800FF75F0FC121588022613E4F5F8D2AF22D3
:102748007B007A0079009094791217CD909200E07E
:10275800640160030227DF9091FBE0FF90928DE017
:10276800D39F4011E09091FBF090930E12177000E8
:1027780000000080629091FBE0FF90928DE06F7006
:1027880056FFFEFDFC90930E121758D312172740E0
:102798003890930E121758C3E50E9BFFE50D9AFE6D
:1027A800E50C99FDE50B98FCE47B0AFAF9F8C312ED
:1027B800172750237B017A92798E90928DE0FD7CC9
:1027C80000121D23123B5B800EAF0EAE0DAD0CAC9C
:1027D8000B90930E1217649091F1E030E03AE020EC
:1027E800E1299091FC121758C3E50E9BFBE50D9A61
:1027F800FAE50C99F9E50B98F8909205E0FFE4FCEE
:10280800FDFEC312172750030228F49091F1E0301F
:10281800E12DA3E004F080279091FC121758C3E53E
:102828000E9BFFE50D9AFEE50C99FDE50B98FCE47F
:102838007BF47A01F9F8D312172740030228F490A1
:1028480091F2E07003122BDBAF0EAE0DAD0CAC0BAA
:102858009091FC1217649091F1E054FDF0E054FE61
:10286800F07B017A9179F2121FDD9091F2E0C39426
:1028780009748094805070E075F00EA4240FF974E8
:102888009235F0FA7B0178017C927D017E007F0E03
:102898001214F8909203E0640370117B017A927924
:1028A80001122E4E9091F1E04401F022909203E043
:1028B80064067038909209E0FEA3E0FF7B017A94E9
:1028C800797C9094ADE4F0A37402F012226F7B013E
:1028D8007A92790190947CE0FCA3E0FD122F699034
:1028E80091F1E04401F022E49091F2F022E4909416
:1028F80079F0A3F0E50F20E003022A8F7B017A9498
:1029080079799094ADE4F0A37402F07F147E5012AC
:10291800226F909479E0FEA3E04E7003022A8F9014
:102928009479E0A3E08EF01217FC2A5BA0002A5BE2
:10293800A0012A5BA0022A68A0032A68A0042A3200
:10294800A4002A37A4012A3CA4A02A3CA4A12A3C1A
:10295800A4A22A3CA4A32A3CA4A42A3CA4A52A3CB9
:10296800A4A62A3CA4A72A3CA4A82A3CA4A92A3C99
:10297800A4AA2A3CA4AB2A3CA4AC2A3CA4AD2A3C79
:10298800A4AE2A3CA4AF2A3CA4B02A3CA4B12A3C59
:10299800A4B22A3CA4B32A3CA4B42A3CA4B52A3C39
:1029A800A4B62A3CA4B72A3CA4B82A3CA4B92A3C19
:1029B800A4BA2A3CA4BB2A3CA4BC2A3CA4BD2A3CF9
:1029C800A4BE2A3CA4BF2A3CA4C02A3CA4C12A3CD9
:1029D800A4C22A3CA4C32A3CA4C42A3CA4C52A3CB9
:1029E800A4C62A3CA4C72A3CA4C82A3CA4C92A3C99
:1029F800A4CA2A3CA4CB2A3CA4CC2A3CA4CD2A3C79
:102A0800A4CE2A3CA4CF2A3CA4D02A3CA4D12A494B
:102A1800A4F02A49A4F12A49A4F22A49A4F32A567F
:102A2800A6002A73A60100002A731236A0803C1261
:102A380000168037909479E0FEA3E0FF1239DD801C
:102A48002A909479E0FEA3E0FF123994801D123297
:102A5800568018909479E0FEA3E0FF120086800B60
:102A6800909479E0FEA3E0FF123081E4909479F02D
:102A7800A3F07B017A9479799094ADF0A37402F075
:102A88007F147E501224DC22E50F30E0167B017A99
:102A98009479C89094ADE4F0A37402F07F147E009A
:102AA80012226FE50F20E203022BDA9094C8E0FEB1
:102AB800A3E0642C4E6003022B477B017A94797F54
:102AC8009094ADF0A37402F07FA07ECC12226F9098
:102AD800947FE0FEA3E0FFEEC4F854F0C868FEEF70
:102AE800C4540F48EE540F909479F0A3E4F09094F6
:102AF80079E0FCA3E0FD90947FE0FEA3E07807CEA8
:102B0800C313CE13D8F9541FFFECFEED4FFF90947A
:102B180079EEF0A3EFF090947FE0A3E0547F9094D7
:102B28007BF0A3E4F004A3F0A3F0FB7A9479799006
:102B380094ADE4F0A37406F07F207ECC1224DC90E0
:102B480094C8E0FEA3E04E7003121A217B017A9428
:102B580079799094ADE4F0A37402F07F167E0012A8
:102B6800226F909479E0FEA3E04E6024E49094797B
:102B7800F0A3F07B017A9479799094ADF0A3740274
:102B8800F07F167E001224DCE49094C6F0A3F022B5
:102B98009094C6E0FEA3E0C39458EE9402500B90C4
:102BA80094C6E475F001121588229094C6E0FEA33D
:102BB800E0B4581EEEB4021A9094C6E475F00112FF
:102BC80015889094C8E0FEA3E04E6006E4FFFE126C
:102BD8003A6C227BFF7A3C7906787E7C947D017E74
:102BE800007F281214F8E49094A6F0A3F09094A61D
:102BF800E0FEA3E0C39401EE94004003022D1F9071
:102C080094A6E0A3E07803C333CE33CED8F924F4F6
:102C1800F58274913EF583E0FF9094C8E0FCA3E050
:102C2800FDEF6D7001EC6003022D129094A6E0FE9A
:102C3800A3E07803C333CE33CED8F924F5F58274F4
:102C4800913EF583E0FEA3E0FF7B017A94797E90C4
:102C580094ADE4F0A37402F012226F9094A6E0FE03
:102C6800A3E07803C333CE33CED8F924F7F58274C2
:102C7800913EF583E0FEA3E0FF7B017A9479809092
:102C880094ADE4F0A37402F012226F909480E0FEF9
:102C9800A3E0FF90947EE0FCA3E06F7002EC6E600E
:102CA800699094A6E0FEA3E07803C333CE33CED870
:102CB800F924F7F58274913EF583E0FEA3E0FF7BEB
:102CC800017A94797E9094ADE4F0A37402F0122412
:102CD800DC909482E4F0A3745AF09094A6E0FEA3EA
:102CE800E07803C333CE33CED8F924F9F582749152
:102CF8003EF583E0FEA3E0FF7B017A94798290940D
:102D0800ADE4F0A37402F01224DC9094A6E475F00C
:102D180001121588022BF522C0E0C0F0C083C082E2
:102D2800C0D075D000C000C001C002C003C004C03C
:102D380005C006C007C2AF758CBC758ACD9094B625
:102D4800E475F0011215889094B6E0FEA3E0D394E0
:102D5800E8EE940340189094B6E4F0A3F0A375F05D
:102D6800011215889094B4E475F00112158843C9CE
:102D7800019094C212174CE47B01FAF9F812163646
:102D88009094C21217649094BAE475F001121588F1
:102D98009094BC12174CE4F81216369094BC121793
:102DA800649094C0E0FEA3E0FFE4FCFD7BDC7AFFC6
:102DB800F8D3121711400A9094C0E475F001121567
:102DC800880509E50970020508AF0EAE0DAD0CAC1B
:102DD8000BE47B01FAF9F81216368F0E8E0D8D0C66
:102DE8008C0BE47B6412167FAC00AD01AE02AF031E
:102DF800E4FBFAF9F8C31217277003430A02E47BCD
:102E0800F47A01F9F8AF0EAE0DAD0CAC0B12167FCB
:102E1800AC00AD01AE02AF03E4FBFAF9F8C3121738
:102E2800277003430A04430A01D2AFD007D006D063
:102E380005D004D003D002D001D000D0D0D082D0A9
:102E480083D0F0D0E03290947E1217CDE490948332
:102E5800F090947E1217AD900001121537FF9094F0
:102E680083E0FE04F074842EF582E43494F583EF55
:102E7800F0909483E0FF04F074842FF582E4349496
:102E8800F5837403F090947E1217AD90000A121522
:102E9800DFE5F0FF909483E0FE04F074842EF58261
:102EA800E43494F583EFF090947E1217AD90000A05
:102EB8001215DFFF909483E0FE04F074842EF582EF
:102EC800E43494F583EFF090947E1217AD900003EC
:102ED800121537FFE4909483E0FE04F074842EF515
:102EE80082E43494F583E4F090947E1217AD900058
:102EF80003121537FF909483E0FE04F074842EF5D6
:102F080082E43494F583EFF07B017A947984909489
:102F180083E0FD7C00123539909481EEF0A3EFF048
:102F2800909481E0FEA3E0EEFFA3E0FE04F0748439
:102F38002EF582E43494F583EFF0909481E0A3E0D9
:102F4800FFA3E0FE04F074842EF582E43494F58344
:102F5800EFF07B017A947984909483E0FD12383BFA
:102F68002290947E1217CD909481ECF0A3EDF0E4BA
:102F7800909485F090947E1217AD90000112153749
:102F8800FF909485E0FE04F074862EF582E4349474
:102F9800F583EFF0909485E0FF04F074862FF582B6
:102FA800E43494F5837406F090947E1217AD900083
:102FB8000A1215DFE5F0FF909485E0FE04F07486B0
:102FC8002EF582E43494F583EFF090947E1217ADD9
:102FD80090000A1215DFFF909485E0FE04F07486D5
:102FE8002EF582E43494F583EFF0909481E0FEA30B
:102FF800E0EEFF909485E0FE04F074862EF582E4FE
:103008003494F583EFF0909481E0A3E0FF909485E9
:10301800E0FE04F074862EF582E43494F583EFF034
:103028007B017A947986909485E0FD7C001235398D
:10303800909483EEF0A3EFF0909483E0FEA3E0EE8B
:10304800FFA3E0FE04F074862EF582E43494F58341
:10305800EFF0909483E0A3E0FFA3E0FE04F0748611
:103068002EF582E43494F583EFF07B017A94798627
:10307800909485E0FD12383B2290947BEEF0A3EF0C
:10308800F07BFF7A3C794C787D7C947D017E007FD3
:10309800081214F87B017A94797D9094ADE4F0A33A
:1030A8007402F07F217EA012226F90947BE0FEA331
:1030B800E08EF01217FC30CAA003312BA0040000E8
:1030C800318C90947DE0A3E030E20BE4A3F0A3F010
:1030D800A3F0A3F0801090947FE4F0A304F0A3740D
:1030E80013F0A37488F07B017A94797F9094ADE40F
:1030F800F0A37404F07F2A7EA01224DC90947FE46D
:10310800F0A3745AF0A3E4F0A3745AF07B017A9404
:10311800797F9094ADE4F0A37404F07F8A7EA012C6
:1031280024DC2290947DE0A3E030E70BE4A3F0A335
:10313800F0A3F0A3F0801190947FE4F0A37402F060
:10314800A37413F0A37488F07B017A94797F909428
:10315800ADE4F0A37404F07F2A7EA01224DC9094DE
:103168007FE4F0A3745AF0A3E4F0A3745AF07B014F
:103178007A94797F9094ADE4F0A37404F07F8A7E0A
:10318800A01224DC22909493121770000030009053
:103198009497E4F0A3740AF07D007C307F5A1234CF
:1031A800377B017A9479619094ADE4F0A37414F0BC
:1031B8007F007E3012226FE4909479F0909479E049
:1031C800C3940674809480506EE025E025E0246165
:1031D800F582E43494F58312174CE4FBFAF9F8C34A
:1031E8001217276022909479E025E025E02461F504
:1031F80082E43494F58312174C7B3F7A42790F7836
:1032080000C31217275028909479E025E025E02480
:1032180041F582E43494F58312174C909479E025B3
:10322800E025E02461F582E43494F5831217649074
:103238009479E004F080857B017A9479619094AD6B
:10324800E4F0A37414F07FA07EA61224DC227B0194
:103258007A94797B9094ADE4F0A37410F07F207E8B
:10326800A612226F90947BE0A3E025E025E0246578
:10327800F582E43494F58312174C90947F12175812
:10328800C312172760087F077E00123A6C229094B9
:103298008712174C909483121758C3121727600887
:1032A8007F087E00123A6C2290948312174C9094F7
:1032B8007BE0A3E025E025E02465F582E43494F57D
:1032C80083121764123B28E490948FF090948FE057
:1032D800C3940A748094805018E025E0247BF5821A
:1032E800E43494F583E4F0A3F090948FE004F08044
:1032F800DB7B017A94797B9094ADE4F0A3740CF0B5
:103308007F227EA61224DC22759401759502758EA3
:103318000075930075C87075C96075F800787FE40A
:10332800F6D8FD75811002336C023A25E493A3F8B0
:10333800E493A34003F68001F208DFF48029E493C4
:10334800A3F85407240CC8C333C4540F4420C883BB
:103358004004F456800146F6DFE4800B01020408BD
:1033680010204080900100E47E019360BCA3FF54CC
:103378003F30E509541FFEE493A360010ECF54C00B
:1033880025E060A840B8E493A3FAE493A3F8E49393
:10339800A3C8C582C8CAC583CAF0A3C8C582C8CA9B
:1033A800C583CADFE9DEE780BEC0E0C0F0C083C0E5
:1033B80082C0D075D000C000C004C006C007909479
:1033C800B1E4F0C2AFE59B30E03DE59CF0E0FF9052
:1033D80090EBE0FCA3E024F1F58274903CF583EFD8
:1033E800F09090EBE475F001121588539BFE539B07
:1033F800FE9090EBE0FEA3E0C39480EE94004007BB
:103408009090EBE4F0A3F0E59B30E10B539BFD5368
:103418009BFD9090EAE4F043C901D2AFD007D006F3
:10342800D004D000D0D0D082D083D0F0D0E0329079
:103438009490EFF0A3ECF0A3EDF0E4F5F1F5F2755C
:10344800F30475F40175F88F30FCFD909490E0F565
:10345800FA90949312174C78101217388FFB9094A7
:103468009312174C78081217388FFC909493121700
:103478004CEF54FEFFE48FFDD2FE20FEFD909491A8
:10348800E0FEA3E0EEF5FA909491E0A3E054FEF597
:10349800FB909497E0FEA3E0EEF5FC909497E0A3F0
:1034A800E054FEF5FDD2FE20FEFDE4F5F87F04FEB3
:1034B8001238952290947FEEF0A3EFF090947FE07D
:1034C800FEA3E04E7004123AF22290947FE0FEA32D
:1034D800E064014E70041238EE2290947FE0FEA35F
:1034E800E064024E604A90947FE0A3E064034E706B
:1034F8003FA3F0909481E0C3940674809480502D8B
:10350800E025E025E02441F582E43494F5831217A0
:103518004C909481E025E025E02461F582E4349420
:10352800F583121764909481E004F080C6123B285A
:103538002290949A1217CD90949DECF0A3EDF0A3ED
:1035480074FFF0A3F090949D74FFF5F012159E455A
:10355800F0604D90949AE475F0011217B612151E9A
:10356800FF90949FE06FFF9094A1E4F0A3EFF09098
:1035780094A1E0FEA3E02469F582748E3EF583E011
:10358800FF9094A0E06F90949FF09094A1E0A3E046
:103598002469F582748F3EF583E09094A0F080A5AD
:1035A80090949FE0FEA3E0FDEEEDFF22C0E0C0F0A6
:1035B800C083C082C0D075D000C000C004C006C09F
:1035C800079094B2E4F0C2AFE59754016401703AF1
:1035D800E59FF0E0FF9090EDE0FCA3E02471F58218
:1035E80074913CF583EFF09090EDE475F0011215BD
:1035F800885397FE9090EDE0FEA3E0C39480EE948C
:103608000040079090EDE4F0A3F043C901D2AFD099
:1036180007D006D004D000D0D0D082D083D0F0D04C
:10362800E032C0E0C0F0C083C082C0D075D000C016
:1036380000C004C006C0079094B3E4F0C2AFE5AB85
:1036480054016401703AE5ADF0E0FF9090EFE0FCC2
:10365800A3E02469F58274903CF583EFF09090EF35
:10366800E475F00112158853ABFE9090EFE0FEA3CD
:10367800E0C39480EE940040079090EFE4F0A3F04C
:1036880043C901D2AFD007D006D004D000D0D0D0E3
:1036980082D083D0F0D0E0327BFF7A3C7954787BBB
:1036A8007C947D017E007F041214F87B017A947962
:1036B8007B9094ADE4F0A37404F07F207EA41222E2
:1036C8006F9093D6E0FF7B017A94797B123946EFAD
:1036D800600D123AB39093D6E090943DF080077F46
:1036E800057E00123A6C7E007F047D007B017A948F
:1036F800797B1219D37B017A94797B9094ADE4F0AD
:10370800A37404F07F207EA41224DC2290947FEE20
:10371800F0A3EFF0A3E4F0A3745AF090947FE0FED6
:10372800A3E0641B4E702190947FE0A3E0FEE424A4
:1037380000FFEE34A0FE7B017A9479819094ADE489
:10374800F0A37402F01224DC90947FE0FEA3E064FE
:103758002F4E702190947FE0A3E0FEE42400FFEE5A
:1037680034A0FE7B017A9479819094ADE4F0A3743F
:1037780002F01224DC22C0E0C083C082C0D075D021
:1037880000C006C0079094B0E4F0C2AF309830E5AE
:1037980099F090928DE0C3948074809480501E902C
:1037A80094B0E0FF90928DE0FE04F0748E2EF582C6
:1037B800E43492F583EFF09092007401F0C29830EF
:1037C8009907C2999090E9E4F0D2AFD007D006D01B
:1037D800D0D082D083D0E03290947FEEF0A3EFF087
:1037E80090947FE0FEA3E0D394D1EE94A450199076
:1037F800947FE0A3E025E0FFEE33FE749A2FF58274
:10380800744A3EF583E0FF2290947FE0FEA3E0D364
:1038180094F3EE94A4501990947FE0A3E025E0FF80
:10382800EE33FE747A2FF582744A3EF583E0FF2268
:103838007F052290949A1217CD90949DEDF07B000D
:103848007A007900C003C002C00190949A1217ADA3
:10385800D082D083D0E06B7008E965827003EA6596
:1038680083602990949DE0602390949DE0FF14F07C
:10387800EF601990949A1217AD12151EFF123BB8FB
:1038880090949BE475F00112158880DD229094993C
:10389800EEF0A3EFF0E4F5F1909499E0FEA3E0EEEA
:1038A800F5F2909499E0A3E0F5F3E4F5F4E490944C
:1038B80099F0A3F0909499E0FEA3E0C394E8EE9405
:1038C80003500F85FCFB909499E475F0011215885C
:1038D80080E275F8AF30FCFDD2FE20FEFDE4F5F87D
:1038E800AFFAEF70C8227E007F087D007B017A93D3
:1038F80079591219D37B017A9379599094ADE4F0F0
:10390800A37408F07F007E301224DC90935BE0FE05
:10391800A3E07803C333CE33CED8F92400FFEE34C6
:1039280020FEE4FCFD909493121764909497E4F0C1
:10393800A37404F07D007C307FA512343722909464
:103948007FEFF0A31217CD90947FE070037F0122E0
:1039580090947FE075F004A42461F9749435F0FA2A
:103968007B01C003C002C001A31217ADA801AC02BD
:10397800AD03D001D002D0037E007F041219AFEF4F
:103988003395E04F70037F01227F002290947BEEF5
:10399800F0A3EFF090947BE0FEA3E02410FFEE3458
:1039A8005B9093D4F0A3EFF090947BE0A3E0FF1238
:1039B80037E09093D6EFF09094C8E0FEA3E0FF9034
:1039C80093D7EEF0A3EFF090943E7401F07F047E5D
:1039D80000123A6C2290947DEEF0A3EFF090947D63
:1039E800E0FEA3E02460FFEE345B90943FF0A3EF89
:1039F800F09094C8E0FEA3E0FF9093D7EEF0A3EF19
:103A0800F090947DE0FEA3E0FF1237E09093D6EFAC
:103A1800F0E490943EF07F04FE123A6C2212006E9D
:103A2800123BF112318DE50A30E01C430F01E50A23
:103A380030E103430F02E50A30E203430F04530A5F
:103A4800FE530AFD530AFB43C901122748122A9064
:103A58001228F5E50F30E0CE530FFE530FFD530F3C
:103A6800FB80C322909490EEF0A3EFF07BFF7A3CAA
:103A7800793C78927C947D017E007F041214F89042
:103A88009490E0FEA3E0EE909494F0909490A3E0DC
:103A9800909495F07B017A9479929094ADE4F0A398
:103AA8007404F07F847E001224DC2290943EE0129D
:103AB80017D63AC4003ADB0100003AF190943FE08F
:103AC800FEA3E0FF123A6C90943FE0FEA3E0FF12E1
:103AD8003714229093D4E0FEA3E0FF1234BC9093F5
:103AE800D7E0FEA3E0FF123A6C22909482E4F0A3A0
:103AF800745AF07B017A9479829094ADE4F0A374BF
:103B080002F07F207EAC1224DC7B017A94798290CB
:103B180094ADE4F0A37402F07F807EAC1224DC2222
:103B28007B017A9479619094ADE4F0A37414F07FEA
:103B3800007E301224DC909493121770000030003D
:103B4800909497E4F0A3740AF07D007C307FA5126E
:103B5800343722E490928DF0909200F0FE7F80FD41
:103B68007B017A92798E1219D3E49091FBF09093AD
:103B78000E121770000000002243B71043C940E43A
:103B88009090E9F075D88075985053877F75BA037F
:103B980075AA58D29CD2AC2275F90175B70375BCC9
:103BA80003E4F5BD75BE0CF580F590F5A0F5B022DF
:103BB80090949EEFF09090E9E0640160F87401F051
:103BC80090949EE0F5992275C870E4F5CDF5CC7512
:103BD800CBFF75CAEF43A820D2C822438901758C50
:103BE800BC758ACDD2A9D28C22123B5B9091FC1273
:103BF80017700000000022123BE3123BCF220000A6
:103C080000000000000000000000000000000000AC
:103C1800000000000000000000000000000000009C
:103C2800000000000000000000000000000000008C
:103C3800000000005A010000000000000000000021
:103C4800000000000000000000000000000000006C
:00000001FF
