:100000000248A2020006C2AFD2AF320242DCC2AF47
:10001000D2AF3202000E909BA1E0FEA3E0FF12518E
:10002000182232024DDB12002E223202005675F9E0
:1000300001E4F5A8F5B8F59AF5A9F5B9F580F590BC
:10004000F5A0F5B075B750F5BCF5BDF5BE2212525E
:02005000242268
:06005300020022C2C632C9
:03005B00024B4114
:0300630002002A6E
:10006B00024BB7C2AF12002612524312004E12526D
:07007B00A243C902D2AF222B
:10008300024943909C45EEF0A3EFF0909C45E0FEBF
:10009300A3E08EF01225DD00AAA00000B3A00100AA
:1000A300D0A002000000EB909B9CE4F0A304F0229C
:1000B300909B9CE0FEA3E064014E7009909B9CF032
:1000C300A37403F022E4909B9CF0A3F022909B9CEA
:1000D300E0FEA3E064034E70077FAA7EA41250D013
:1000E300E4909B9CF0A3F022E4909B9CF0A3F0226D
:1000F800FFFF4457494E5435429CC90000429CBFFB
:100108000000489CC10069005A003C0015429CBD93
:1001180000005A9ADC3FC900690046000086000AC0
:100128002D2D203A3A000000000000000000005A7F
:100138009AF63FCC01270046000086000A2D2D2F95
:100148003A3A000000000000000000005A9B823F7D
:10015800D00212004600000212004602DA006400D3
:10016800100017181802000000603C9B4640004031
:10017800A04140401040B04150402040C041604044
:100188003040D04170404040E04180405040F04114
:10019800904060410041A04070411041B040804112
:1001A8002041C04090413041D0549B3241E041F859
:1001B80042104228424042584270428842A042B807
:1001C800489B230000000000000000429B2B000019
:1001D800429B300000429B2D0000419B2F00419B19
:1001E8002200429B100005498000B2E2CAD4BABA84
:1001F800D7D6006E60800949443030BBD8B7E7B81D
:10020800DFCEC20000000000000000000000000077
:100218000000000000000049443031BBD8B7E7B502
:10022800CDCEC20000000000000000000000000069
:100238000000000000000049443032BBD8B7E7B8DE
:10024800DFCAAA0000000000000000000000000053
:100258000000000000000049443033BBD8B7E7B8BD
:10026800DFCAAA0000000000000000000000000033
:100278000000000000000049443034CBCDB7E7B897
:10028800DFCEC200000000000000000000000000F7
:100298000000000000000049443035CBCDB7E7B579
:1002A800CDCEC200000000000000000000000000E9
:1002B8000000000000000049443036CBCDB7E7B855
:1002C800DFCAAA00000000000000000000000000D3
:1002D8000000000000000049443037CBCDB7E7B537
:1002E800CDCAAA00000000000000000000000000C5
:1002F8000000000000000049443038B1A3C1F400F8
:1003080000000000000000000000000000000000E5
:100318000000000000000049443039C4DAB2BFCD03
:10032800A8D0C50000000000000000000000000088
:1003380000000000000000494431304E5443D2EC24
:10034800B3A300000000000000000000000000004F
:100358000000000000000049443131B7E7BBFA3122
:10036800B9CAD5CF0000000000000000000000005E
:100378000000000000000049443132B7E7BBFA3200
:10038800B9CAD5CF0000000000000000000000003E
:100398000000000000000049443133B7E7BBFA33DE
:1003A800B9CAD5CF0000000000000000000000001E
:1003B8000000000000000049443134B7E7BBFA34BC
:1003C800B9CAD5CF000000000000000000000000FE
:1003D8000000000000000049443135B7E7BBFA359A
:1003E800B9CAD5CF000000000000000000000000DE
:1003F8000000000000000049443136CDE2B7E7BBF9
:10040800FAB9CAD5CF0000000000000000000000C3
:100418000000000000000049443137B7E7BBFA315B
:10042800D4CBD0D0B3ACCAB10000000000000000AB
:100438000000000000000049443138B7E7BBFA3239
:10044800D4CBD0D0B3ACCAB100000000000000008B
:100458000000000000000049443139B7E7BBFA3317
:10046800D4CBD0D0B3ACCAB100000000000000006B
:100478000000000000000049443230B7E7BBFA34FE
:10048800D4CBD0D0B3ACCAB100000000000000004B
:100498000000000000000049443231B7E7BBFA35DC
:1004A800D4CBD0D0B3ACCAB100000000000000002B
:1004B8000000000000000049443232CDE2B7E7BB3B
:1004C800FAD4CBD0D0B3ACCAB10000000000000011
:1004D8000000000000000049443233B8DFD1B931D0
:1004E800B8E6BEAF000000000000000000000000F9
:1004F8000000000000000049443234B8DFD1B931AF
:10050800CBF8CBC000000000000000000000000095
:100518000000000000000049443235B5CDD1B931A2
:10052800B8E6BEAF000000000000000000000000B8
:100538000000000000000049443236B5CDD1B93181
:10054800CBF8CBC000000000000000000000000055
:100558000000000000000049443237C5C5C6F8CE87
:10056800C2B6C831B8E6BEAF000000000000000007
:100578000000000000000049443238C5C5C6F8CE66
:10058800C2B6C831CBF8CBC00000000000000000A4
:100598000000000000000049443239B6CCD6DCC661
:1005A800DA31B8E6BEAF000000000000000000002D
:1005B8000000000000000049443330D1B9BBFA31D3
:1005C800D4CBD0D0B3ACCAB100000000000000000A
:1005D8000000000000000049443331B8DFD1B932CF
:1005E800B8E6BEAF000000000000000000000000F8
:1005F8000000000000000049443332B8DFD1B932AE
:10060800CBF8CBC000000000000000000000000094
:100618000000000000000049443333B5CDD1B9D102
:10062800B9C1A6B8E6BEAF00000000000000000097
:100638000000000000000049443334B5CDD1B93280
:10064800CBF8CBC000000000000000000000000054
:100658000000000000000049443335C5C5C6F8CE87
:10066800C2B6C832B8E6BEAF000000000000000005
:100678000000000000000049443336C5C5C6F8CE66
:10068800C2B6C832CBF8CBC00000000000000000A2
:100698000000000000000049443337B6CCD6DCC661
:1006A800DA32B8E6BEAF000000000000000000002B
:1006B8000000000000000049443338D1B9BBFA32C9
:1006C800D4CBD0D0B3ACCAB1000000000000000009
:1006D8000000000000000049443339BCD3CAAAC650
:1006E800F7B5E7C1F7B9FDB4F3000000000000005A
:1006F8000000000000000049443430BCD3CAAAC638
:10070800F7B8DFCBAECEBB00000000000000000051
:100718000000000000000049443431BCD3CAAAC616
:10072800F7C8B1CBAE0000000000000000000000D8
:100738000000000000000049443432BCD3CAAAC6F5
:10074800F7D4CBD0D0B3ACCAB10000000000000091
:100758000000000000000049443433BCD3C8C8C6B8
:10076800F7B8E6BEAF00000000000000000000007F
:100778000000000000000049443434BCD3C8C8C697
:10078800F731B3ACCAB1000000000000000000005F
:100798000000000000000049443435BCD3C8C8C676
:1007A800F732B3ACCAB1000000000000000000003E
:1007B8000000000000000049443436B6CFB5E7D643
:1007C800D8C6F4000000000000000000000000008F
:1007D8000000000000000049443437B5E7D4B4CF26
:1007E800E0D0F2B4EDCEF3000000000000000000FD
:1007F8000000000000000049443438B5E7D4B4C60E
:10080800B5C2CAC6ABB8DF00000000000000000097
:100818000000000000000049443439B5E7D4B4C6EC
:10082800B5C2CAC6ABB5CD0000000000000000008C
:10083800000000000000004944353041CFE0B9FD18
:10084800D1B9000000000000000000000000000016
:10085800000000000000004944353142CFE0B9FDF6
:10086800D1B90000000000000000000000000000F6
:10087800000000000000004944353243CFE0B9FDD4
:10088800D1B92000000000000000000000000000B6
:10089800000000000000004944353341CFE0C7B7ED
:1008A800D1B90000000000000000000000000000B6
:1008B800000000000000004944353442CFE0C7B7CB
:1008C800D1B9000000000000000000000000000096
:1008D800000000000000004944353543CFE0C7B7A9
:1008E800D1B9000000000000000000000000000076
:1008F800000000000000004944353641CFE0C8B18F
:10090800CFE0000000000000000000000000000030
:10091800000000000000004944353742CFE0C8B16C
:10092800CFE0000000000000000000000000000010
:10093800000000000000004944353843CFE0C8B14A
:10094800CFE00000000000000000000000000000F0
:100958000000000000000049443539C6F8C1F7B668
:10096800AACAA7B8E6BEAF00000000000000000059
:100978000000000000000049443630B9FDC2CBCD6C
:10098800F8D4CBD0D0B3ACCAB1000000000000004E
:100998000000000000000049443631B9FDC2CBCD4B
:1009A800F8B6C2B8E6BEAF000000000000000000C4
:1009B8000000000000000049443632D4B6B3CCB978
:1009C800D8BBFAB8E6BEAF00000000000000000087
:1009D8000000000000000049443633D2E7CBAEB82F
:1009E800E6BEAF00000000000000000000000000AC
:1009F8000000000000000049443634C8BABFD8CD12
:100A0800A8D0C5D2ECB3A30000000000000000008D
:100A18000000000000000049443635B1E4C6B5C600
:100A2800F7B9CAD5CF0000000000000000000000A0
:100A38000000000000000049443636D7A2CBAEB50E
:100A4800E7B5BCC2CAB8DF00000000000000000023
:100A58000000000000000049443637D7A2CBAEB5ED
:100A6800E7B5BCC2CAB5CD00000000000000000018
:100A78000000000000000049443638D1CCCEEDB863
:100A8800E6BEAF000000000000000000000000000B
:100A98000000000000000049443639D3C3BBA7D783
:100AA800D4B6A8D2E5B8E6BEAF000000000000004A
:100AB8000000000000000049443730B5E7D4B4D244
:100AC800ECB3A300000000000000000000000000DC
:100AD8000000000000000049443731C8EBCBAEB835
:100AE800DFCEC2000000000000000000000000008F
:100AF8000000000000000049443732CBAEB7A7B968
:100B0800CAD5CF000000000000000000000000006F
:100B18000000000000000049443733C5CCB9DCB6FA
:100B2800CFC1F7B8E6BEAF0000000000000000002B
:100B38000000000000000049443734B7E7BBFA362C
:100B4800B9CAD5CF00000000000000000000000076
:100B58000000000000000049443735B7E7BBFA370A
:100B6800B9CAD5CF00000000000000000000000056
:100B78000000000000000049443736B7E7BBFA38E8
:100B8800B9CAD5CF00000000000000000000000036
:100B98000000000000000049443737B7E7BBFA36C9
:100BA800B3ACCAB100000000000000000000000063
:100BB8000000000000000049443738B7E7BBFA37A7
:100BC800B3ACCAB100000000000000000000000043
:100BD8000000000000000049443739B7E7BBFA3885
:100BE800B3ACCAB100000000000000000000000023
:100BF8000000000000000049443830C5C5CBAEB83D
:100C0800DFCBAECEBB0000000000000000000000FB
:100C18000000000000000049443831BCD3CAAAC60D
:100C2800F7D2ECB3A30000000000000000000000B1
:100C38000000000000000049443832B7E7D1B9B9D4
:100C4800FDB5CD000000000000000000000000001D
:100C58000000000000000049443833BAECCDE2BC83
:100C6800D3CAAAB9FDC8C8000000000000000000EF
:100C78000000000000000049443834D1B9BBFA3103
:100C8800B8DFD1B90000000000000000000000003B
:100C98000000000000000049443835B7E7BBFAB54A
:100CA800E7C1F7B9FDB4F300000000000000000040
:100CB8000000000000000049443836B8A8C2B7C890
:100CC800EBCBAEB8DFCEC200000000000000000091
:100CD8000000000000000049443837454556B8E692
:100CE800BEAF00000000000000000000000000008F
:100CF8000000000000000049443838BDD3CBAEC521
:100D0800CCD2E7CBAE0000000000000000000000DD
:100D18000000000000000049443839C5C5C6F8B8CD
:100D2800DFCEC2000000000000000000000000004C
:100D38000000000000000049443930C9E8B1B8CAD1
:100D4800B9D3C3B3ACCAB100000000000000000072
:100D58000000000000000049443931B1A3C1F4008B
:100D6800000000000000000000000000000000007B
:100D78000000000000000049443932B1A3C1F4006A
:100D8800000000000000000000000000000000005B
:100D98000000000000000049443933B1A3C1F40049
:100DA800000000000000000000000000000000003B
:100DB8000000000000000049443934B1A3C1F40028
:100DC800000000000000000000000000000000001B
:100DD8000000000000000049443935B1A3C1F40007
:100DE80000000000000000000000000000000000FB
:100DF8000000000000000049443936B1A3C1F400E6
:100E080000000000000000000000000000000000DA
:100E18000000000000000049443937BBD8B7E7CECE
:100E2800C2CAAAB6C8B4ABB8D0C6F7000000000062
:100E38000000000000000049443938CBCDB7E7CEA8
:100E4800C2CAAAB6C8B4ABB8D0C6F7000000000042
:100E58000000000000000049443939BCD3CAAAB0D8
:100E6800E5D2ECB3A3000000000000000000000081
:100E7800000000000000004944313030C6C1C4BB46
:100E8800D2D1CBF8B6A80000000000000000000096
:100E9800000000000000004944313031D2BBCCECE6
:100EA800BDABCBF8B6A800000000000000000000B1
:100EB800000000000000004944313032C8FDCCEC8D
:100EC800BDABCBF8B6A80000000000000000000091
:100ED800000000000000004944313033C6DFCCEC8C
:100EE800BDABCBF8B6A80000000000000000000071
:100EF800000000000000004944313034CAAECEE59D
:100F0800CCECBDABCBF8B6A8000000000000000098
:100F1800000000000000004944313035C8FDCAAE69
:100F2800CCECBDABCBF8B6A8000000000000000078
:100F3800000000000000004944313036B5E7D4B461
:100F480032CFE0D0F2B4ED00000000000000000055
:100F5800000000000000004944313037B5E7D4B440
:100F680032C6B5C2CAB8DF000000000000000000A9
:100F7800000000000000004944313038B5E7D4B41F
:100F880032C6B5C2CAB5CD0000000000000000009E
:100F9800000000000000004944313039B5E7D4B4FE
:100FA8003241CFE0B9FDD1B90000000000000000D7
:100FB800000000000000004944313130B5E7D4B4E6
:100FC8003242CFE0B9FDD1B90000000000000000B6
:100FD800000000000000004944313131B5E7D4B4C5
:100FE8003243CFE0B9FDD1B9000000000000000095
:100FF800000000000000004944313132B5E7D4B4A4
:101008003241CFE0C7B7D1B90000000000000000AE
:10101800000000000000004944313133B5E7D4B482
:101028003242CFE0C7B7D1B900000000000000008D
:10103800000000000000004944313134B5E7D4B461
:101048003243CFE0C7B7D1B900000000000000006C
:10105800000000000000004199D4004199D50042E9
:1010680099D600004299D800004299DA0000429CC3
:10107800AD0000429CAF0000429CAB0000449CB90C
:1010880000000000429CB10000449CB30000000036
:1010980002080000040B00000000429CB700000199
:1010A8000A006100975400C1814001C0804101C01D
:1010B800804100C1814001C0804100C1814000C120
:1010C800814001C0804101C0804100C1814000C110
:1010D800814001C0804100C1814001C0804101C000
:1010E800804100C1814001C0804100C1814000C1F0
:1010F800814001C0804100C1814001C0804101C0E0
:10110800804100C1814000C1814001C0804101C0CF
:10111800804100C1814001C0804100C1814000C1BF
:10112800814001C0804101C0804100C1814000C1AF
:10113800814001C0804100C1814001C0804101C09F
:10114800804100C1814000C1814001C0804101C08F
:10115800804100C1814001C0804100C1814000C17F
:10116800814001C0804100C1814001C0804101C06F
:10117800804100C1814001C0804100C1814000C15F
:10118800814001C0804101C0804100C1814000C14F
:10119800814001C0804100C1814001C0804101C03F
:1011A800804100C181406100985400C0C101C3035F
:1011B80002C2C60607C705C5C404CC0C0DCD0FCFA7
:1011C800CE0E0ACACB0BC90908C8D81819D91BDB17
:1011D800DA1A1EDEDF1FDD1D1CDC14D4D515D71767
:1011E80016D6D21213D311D1D010F03031F133F317
:1011F800F23236F6F737F53534F43CFCFD3DFF3F67
:101208003EFEFA3A3BFB39F9F83828E8E929EB2B96
:101218002AEAEE2E2FEF2DEDEC2CE42425E527E726
:10122800E62622E2E323E12120E0A06061A163A396
:10123800A26266A6A767A56564A46CACAD6DAF6F26
:101248006EAEAA6A6BAB69A9A86878B8B979BB7B96
:101258007ABABE7E7FBF7DBDBC7CB47475B577B7E6
:10126800B67672B2B373B17170B050909151935316
:10127800529296565797559594549C5C5D9D5F9FE6
:101288009E5E5A9A9B5B99595898884849894B8B16
:101298008A4A4E8E8F4F8D4D4C8C448485458747A6
:1012A800468682424383418180404196CF004190E7
:1012B80030004497500000000041902B0044902CCF
:1012C800000000006690903F5A010301C801000029
:1012D800A020004B00FF5A010302C8010000A02112
:1012E80001F600FF5A010302C8010000A02301F91A
:1012F80000FF5A010302C8010000A02501FF00FFFA
:101308005A010301C8010000A027006400FF5A0128
:101318000301C8010000A028006D00FF5A01030165
:10132800C8010000A029007200FF5A010601C80286
:10133800A08AA02A006E00FF5A010601C802A08BED
:10134800A02B006F00FF5A010301C801000BAB205E
:10135800020100FF5A010301C801000BAB2102037F
:1013680000FF5A010301C801000BAB22020200FF73
:101378005A010303C801000BAB23020A00FF5A01FC
:101388000301C801000CAC2000AB00FF5A0103099F
:10139800C801000CAC2101F600FF5A010301C80185
:1013A800000CAC2A020600FF5A010304C801000C15
:1013B800AC2B021300FF5A010301C801000DAD2038
:1013C80001F600FF5A010301C801000DAD2101FB20
:1013D80000FF5A010301C801000DAD22021700FFEA
:1013E8005A010301C801000DAD23021A00FF5A017A
:1013F8000305C803AE00AE200064000E5A010301C5
:10140800C803AE00AE250094000E5A010302C803BB
:10141800AE00AE2600A1000E5A010302C803AE00BA
:10142800AE2800B6000E5A010601C803AE80AE20F1
:101438000064000E5A010601C803AE81AE210065A2
:10144800000E5A010601C803AE82AE220066000EE5
:101458005A010601C803AE83AE230067000E5A0185
:101468000601C803AE84AE240068000E5A010601C6
:10147800C803AE85AE250094000E5A010601C803C4
:10148800AE86AE2600A1000E5A010601C803AE873B
:10149800AE2700A2000E5A010601C803AE88AE2886
:1014A80000B6000E5A010601C803AE89AE2900B77E
:1014B800000E5A010301C803AF00AF200048000F17
:1014C8005A010301C803AF00AF21004B000F5A01B6
:1014D8000302C803AF00AF220069000F5A010301DD
:1014E800C803AF00AF240072000F5A010303C803FA
:1014F800AF00AF250096000F5A010302C803AF00E2
:10150800AF28009E000F5A010601C803AF80AF2024
:101518000048000F5A010601C803AF81AF21004BF4
:10152800000F5A010601C803AF82AF220069000FFD
:101538005A010601C803AF83AF23006A000F5A019E
:101548000601C803AF84AF240072000F5A010601D8
:10155800C803AF85AF250096000F5A010601C803DE
:10156800AF86AF260097000F5A010601C803AF8760
:10157800AF270098000F5A010601C803AF88AF28AB
:10158800009E000F5A010601C803AF89AF29009FCA
:10159800000F5A010301C803B000B0200071001009
:1015A8005A010301C803B000B021007F00105A019E
:1015B8000301C803B000B022008100105A010302E1
:1015C800C803B000B023009B00105A010301C803F0
:1015D800B000B02500A000105A010302C803B000F3
:1015E800B02600B900105A010301C803B000B028A2
:1015F80000BD00105A010301C803B000B02900C2A1
:1016080000105A010601C803B080B0200071001014
:101618005A010601C803B081B021007F00105A01A9
:101628000601C803B082B022008100105A010601E9
:10163800C803B083B023009B00105A010601C803F9
:10164800B084B024009C00105A010601C803B0857C
:10165800B02500A000105A010601C803B086B026C4
:1016680000B900105A010601C803B087B02700BAB4
:1016780000105A010601C803B088B02800BD001048
:101688005A010601C803B089B02900C200105A01E6
:101698000302C803B100B120006B00115A01030214
:1016A800C803B100B122007400115A010301C80334
:1016B800B100B124007700115A010302C803B10038
:1016C800B12500A700115A010301C803B100B127D1
:1016D80000AA00115A010303C803B100B12800ACE5
:1016E80000115A010601C803B180B120006B001136
:1016F8005A010601C803B181B121006C00115A01D9
:101708000601C803B182B122007400115A01060112
:10171800C803B183B123007500115A010601C8033B
:10172800B184B124007700115A010601C803B185BC
:10173800B12500A700115A010601C803B186B126D8
:1017480000A800115A010601C803B187B12700AAF1
:1017580000115A010601C803B188B12800AC001174
:101768005A010601C803B189B12900AD00115A0117
:101778000601C803B18AB12A00AE00115A01060158
:10178800C803B380B320008200135A010302C801C2
:101798000013B321020800FF5A010301C801001316
:1017A800B323021100FF5A010301C8010013B32437
:1017B800020D00FF5A010308C803B400B420008BCF
:1017C80000145A010601C803B480B420008B001429
:1017D8005A010601C803B481B421008C00145A01CF
:1017E8000601C803B482B422008D00145A01060110
:1017F800C803B483B423008E00145A010601C80339
:10180800B484B424008F00145A010601C803B485B7
:10181800B425009000145A010601C803B486B42602
:10182800009100145A010601C803B487B427009236
:1018380000145A010301C803B500B5200072001551
:101848005A010601C803B580B520007200155A0177
:101858000601C803B581B521008300155A010301AB
:10186800C803B800B821007900185A010302C80358
:10187800B800B82200A300185A010601C803B881AD
:10188800B821007900185A010601C803B882B822A5
:1018980000A300185A010601C803B883B82300A49E
:1018A80000185A010601C803B884B8240078001843
:1018B8005A010301C803B900B920007200195A017E
:1018C8000301C803B900B92100B500195A01030181
:1018D800C803B900B92200BE00195A010301C803A0
:1018E800B900B92301F500195A010601C803B980E6
:1018F800B920007200195A010601C803B981B9213B
:1019080000B500195A010601C803B982B92200BE00
:1019180000195A010601C803BA80BA200082001AC9
:101928005A010302C801001ABA21020800FF5A012D
:101938000301C801001ABA24020D00FF5A0106016A
:10194800C803C080C020008300205A010302C801D8
:101958000022C2A001F900FF4E90310000000000F3
:10196800000000000000000000418E6A0061C08E87
:101978006B5A0EAE20AE50AE805A0EAE21AE51AEAE
:10198800815A0EAE22AE52AE825A0EAE23AE53AE7E
:10199800835A0EAE24AE54AE845A0EAE25AE55AE62
:1019A800855A0EAE26AE56AE865A0EAE27AE57AE46
:1019B800875A0EAE28AE58AE885A0EAE29AE59AE2A
:1019C800895A0FAF20AF50AF805A0FAF21AF51AF38
:1019D800815A0FAF22AF52AF825A0FAF23AF53AF26
:1019E800835A0FAF24AF54AF845A0FAF25AF55AF0A
:1019F800855A0FAF26AF56AF865A0FAF27AF57AFEE
:101A0800875A0FAF28AF58AF885A0FAF29AF59AFD1
:101A1800895A10B020B050B0805A10B021B051B0DF
:101A2800815A10B022B052B0825A10B023B053B0CD
:101A3800835A10B024B054B0845A10B025B055B0B1
:101A4800855A10B026B056B0865A10B027B057B095
:101A5800875A10B028B058B0885A10B029B059B079
:101A6800895A11B120B150B1805A11B121B151B187
:101A7800815A11B122B152B1825A11B123B153B175
:101A8800835A11B124B154B1845A11B125B155B159
:101A9800855A11B126B156B1865A11B127B157B13D
:101AA800875A11B128B158B1885A11B129B159B121
:101AB800895A11B12AB15AB18A5A14B420B450B40F
:101AC800805A14B421B451B4815A14B422B452B413
:101AD800825A14B423B453B4835A14B424B454B4F7
:101AE800845A14B425B455B4855A14B426B456B4DB
:101AF800865A14B427B457B4875A15B520B550B5CB
:101B0800805A18B821B851B8815A18B822B852B8B2
:101B1800825A18B823B853B8835A19B920B950B99A
:101B2800805A19B921B951B9815A19B922B952B98A
:101B380082418E6900589C2B0000000000000000C4
:101B4800000000000000000000000000000000008D
:101B5800589C0B00000000000A2997000A2D080075
:101B68000CF13B0002C2460007ED65419C07FF608F
:101B7800649BA300000100020003000400050006A6
:101B8800000700080009000A010B000C000D000EF8
:101B9800020F0010001100120313001400150016A4
:101BA800001700180419001A001B001C001D001E55
:101BB800001F002000210022002300240025002609
:101BC800002700280029002A002B002C002D002EB9
:101BD800002F0030003100489C230001010302035C
:101BE8000305429C090000429BA10000429B9E0005
:101BF80000419BA000429B9C000000AF0FEF131315
:101C0800543F540164016003022208909CC9E0FE1D
:101C1800A3E064224E6003021FBA909CC9E0A3E0CF
:101C2800FF909B2BE0FCA3E06F7002EC6E601EE45B
:101C3800909B30F0A3F07B017A9B7930909CA4F0C4
:101C4800A37402F07F017EC212306080167B017A95
:101C58009B7930909C90E4F0A37402F07F017EC2DF
:101C6800122DF37B017A9C7943909C90E4F0A37445
:101C780010F07FA07EC2122DF3E4909C51F0A3E0F7
:101C88005407F07B017A9B791278437C9C7D017E16
:101C9800007F10122790EF702F909B2DE0FEA3E09D
:101CA800FF909B30E0FCA3E0B5071DECB50619904A
:101CB8009CC9E0FEA3E0FF909B2BE0FCA3E06F70C3
:101CC80002EC6E70030221F87B017A9C794378124A
:101CD8007C9B7D017E007F101222D9E4909B2FF01F
:101CE800909C76F0909C76E0C39408748094804031
:101CF80003021F62E4909C75F0909C75E0C39410F9
:101D0800748094804003021F59A3E0C454F0FF90EC
:101D18009C75E02F909C7AF0E075F018A42400FFE1
:101D2800E5F03435FE7B017A9C7943909C90E4F091
:101D3800A37430F0122DF37B017A9C7943909C7741
:101D48001225AE909C75E0FF7E007401A8070880FC
:101D580005C333CE33CED8F9FF909C76E025E02436
:101D680012F582E4349BF583E0FCA3E0FDEE5CFE13
:101D7800EF5D4E7003021EB0909C7712258E1223E1
:101D880095645A7004E5F064A57003021E4D909C9A
:101D98007712258E74A575F05A1223F87B017A9C68
:101DA8007957909C90E4F0A37408F07F107E00129D
:101DB8002DF37B017A9C795778457C9C7D017E00C8
:101DC8007F031222D97B017A9C795B78487C9C7DC1
:101DD800017E007F031222D97E007F087D007B01EF
:101DE8007A9C794B1227B4909C7AE0FF909C51E43E
:101DF800F0A3EFF07B017A9C7953C002C001909C5C
:101E08007A75F020A42409F9748035F0FA909C7E44
:101E18001225AE909C81E4F0A37420F0D001D0028A
:101E2800124D73909C7AE075F018A42400FFE5F039
:101E38003435FE7B017A9C7943909CA4E4F0A3742A
:101E480030F0123060909B30E0FEA3E0FF7C007D14
:101E58000A122357909B2FE0C39FEC9E4041A3E0BA
:101E6800FEA3E0FF122357EF240AFFE43EFE909BF7
:101E78002FE0C39FEC9E5027909C7AE075F018A441
:101E88002400FDE5F03435FC909B30E0A3E075F0CC
:101E98000AA4FF909B2FE0C39FFF7B221241A790CB
:101EA8009B2FE004F0021F50909C7712258E12237E
:101EB80095645A7004E5F064A56003021F507B0125
:101EC8007A9C7957909C90F0A37408F07F107E005C
:101ED800122DF37B017A9C7957784B7C9C7D017E8F
:101EE800007F031222D97B017A9C795B784E7C9C17
:101EF8007D017E007F031222D9909C7AE0FF909C9E
:101F080051E4F0A3EFF07B017A9C7943909CA4E420
:101F1800F0A37410F07F007E3012306012463DE46A
:101F2800909C43F0A3F0909C7AE075F018A42400EC
:101F3800FFE5F03435FE7B017A9C7943909CA4E45C
:101F4800F0A37402F0123060909C75E004F0021D5A
:101F580001909C76E004F0021CEC909B2FE0909C92
:101F680075F0909B30E0FEA3E0FF7C007D0A122311
:101F780057EF240AFFE43EFE909C75E0C39FEC9E59
:101F8800501D909B30E0A3E075F00AA4FF909C756B
:101F9800E0C39FFF124068909C75E004F080C390F6
:101FA8009B30E0FEA3E0FF909B2DEEF0A3EFF00244
:101FB80021F8909CC9E0FEA3E064234E600302214F
:101FC800F8909CC9E0A3E0FF909B2BE0FCA3E06F96
:101FD8007002EC6E601EE4909B30F0A3F07B017AF7
:101FE8009B7930909CA4F0A37402F07F017EC2120A
:101FF800306080347B017A9B7930909C90E4F0A328
:102008007402F07F017EC2122DF3909B2DE0FEA397
:10201800E0FF909B30E0FCA3E06F7002EC6E700371
:102028000221F880030221F8909B30E0FEA3E0FF34
:10203800909B2DEEF0A3EFF0E4A3F0909B2FE0C36C
:10204800940A7480948040030221DEA3E0FEA3E09A
:10205800FF7C007D0A122357909B2FE02FFFEC3E58
:10206800FE909B29E0FCA3E0FDC3EF9DEE9C40039E
:102078000221DE909B30E0FEA3E0FF7C007D0A1287
:102088002357909B2FE02FFFEC3EFE909B25E0FC12
:10209800A3E0D39FEC9E4032909B30E0FEA3E0FF8C
:1020A8007C00122357909B2FE02FFFEC3EFEEF247D
:1020B80001FFE43EFE909B25E0FCA3E0C39FFFECFC
:1020C8009E909C77F0A3EFF0803A909B30E0FEA3BF
:1020D800E0FF7C007D0A122357909B2FE02FFFEC36
:1020E8003EFEEF2401FFE43EFE909B25E0FCA3E0CA
:1020F8002400FDEC3402FCC3ED9FFFEC9E909C771E
:10210800F0A3EFF0909C77E0FEA3E07803C333CE12
:1021180033CED8F92400FFEE3420FEE4FCFD909C79
:102128008E122545909C92E4F0A37408F07D007C03
:10213800307F5A1249C97B017A9C7943909C90E47C
:10214800F0A37410F07F007E30122DF37B017A9C8F
:102158007953C003C002C001909C51E0FEA3E0780F
:1021680005C333CE33CED8F92409F974803EFA7BFF
:1021780001909C7E1225AE909C81E4F0A37420F01F
:10218800D001D002D003124D73909B2FE025E0249C
:1021980032F582E4349BF583E0FEA3E0FF7B017A0D
:1021A8009C7943909CA4E4F0A37430F012306090C2
:1021B8009B2FE025E02432F582E4349BF583E0FC94
:1021C800A3E0FD909B2FE0FF7B231241A7909B2F5C
:1021D800E004F0022043909B2FE0C3940A7480949B
:1021E80080500DE0FF124068909B2FE004F080E6DD
:1021F800909CC9E0FEA3E0FF909B2BEEF0A3EFF0CC
:1022080022E709F608DFFA8046E709F208DFFA80D4
:102218003E88828C83E709F0A3DFFA8032E309F66F
:1022280008DFFA8078E309F208DFFA807088828C88
:1022380083E309F0A3DFFA806489828A83E0A3F646
:1022480008DFFA805889828A83E0A3F208DFFA80DF
:102258004C80D280FA80C680D4806980F280338036
:102268001080A680EA809A80A880DA80E280CA80FE
:102278003389828A83ECFAE493A3C8C582C8CCC5A3
:1022880083CCF0A3C8C582C8CCC583CCDFE9DEE720
:10229800800D89828A83E493A3F608DFF9ECFAA912
:1022A800F0EDFB2289828A83ECFAE0A3C8C582C8D4
:1022B800CCC583CCF0A3C8C582C8CCC583CCDFEA23
:1022C800DEE880DB89828A83E493A3F208DFF98061
:1022D800CC88F0EF60010E4E60C388F0ED2402B4A4
:1022E800040050B9F582EB2402B4040050AF232354
:1022F80045822390225973BB010689828A83E02292
:102308005002E722BBFE02E32289828A83E49322F9
:10231800BB010CE58229F582E5833AF583E022507A
:1023280006E92582F8E622BBFE06E92582F8E222C4
:10233800E58229F582E5833AF583E49322BB010619
:1023480089828A83F0225002F722BBFE01F322EF32
:102358008DF0A4A8F0CF8CF0A428CE8DF0A42EFE8A
:1023680022C5F0F8A3E028F0C5F0F8E582158270E0
:10237800021583E038F022A3F8E0C5F025F0F0E577
:1023880082158270021583E0C838F0E822BB010A82
:1023980089828A83E0F5F0A3E022500687F009E7F6
:1023A8001922BBFE07E3F5F009E3192289828A8323
:1023B800E493F5F074019322BB0110E58229F582BC
:1023C800E5833AF583E0F5F0A3E0225009E9258298
:1023D800F886F008E622BBFE0AE92582F8E2F5F065
:1023E80008E222E5832AF583E993F5F0A3E993222D
:1023F800BB010A89828A83F0E5F0A3F0225006F730
:1024080009A7F01922BBFE06F3E5F009F31922EF3C
:102418002BFFEE3AFEED39FDEC38FC2275F008751D
:102428008200EF2FFFEE33FECD33CDCC33CCC58207
:1024380033C5829BED9AEC99E58298400CF582EEC3
:102448009BFEED9AFDEC99FC0FD5F0D6E4CEFBE4AB
:10245800CDFAE4CCF9A88222B800C1B90059BA0073
:102468002DEC8BF084CFCECDFCE5F0CBF97818EFCE
:102478002FFFEE33FEED33FDEC33FCEB33FB10D7CF
:1024880003994004EB99FB0FD8E5E4F9FA22781890
:10249800EF2FFFEE33FEED33FDEC33FCC933C910EB
:1024A800D7059BE99A4007EC9BFCE99AF90FD8E01D
:1024B800E4C9FAE4CCFB2275F010EF2FFFEE33FEEF
:1024C800ED33FDCC33CCC833C810D7079BEC9AE862
:1024D80099400AED9BFDEC9AFCE899F80FD5F0DAE3
:1024E800E4CDFBE4CCFAE4C8F922EB9FF5F0EA9ED0
:1024F80042F0E99D42F0EC6480C864809845F0227F
:10250800EB9FF5F0EA9E42F0E99D42F0E89C45F029
:1025180022E86010ECA2E713FCED13FDEE13FEEFCA
:1025280013FFD8F022E0FCA3E0FDA3E0FEA3E0FF48
:1025380022E0F8A3E0F9A3E0FAA3E0FB22ECF0A381
:10254800EDF0A3EEF0A3EFF022A8828583F0D0830C
:10255800D082122568122568122568122568E4734E
:10256800E493A3C583C5F0C583C8C582C8F0A3C5D5
:1025780083C5F0C583C8C582C822A42582F582E533
:10258800F03583F58322E0FBA3E0FAA3E0F922F813
:10259800E0FBA3A3E0F925F0F0E5821582700215AF
:1025A80083E0FA38F022EBF0A3EAF0A3E9F022D0B6
:1025B80083D082F8E4937012740193700DA3A393EF
:1025C800F8740193F5828883E4737402936860EF6A
:1025D800A3A3A380DFD083D082F8E49370127401A0
:1025E80093700DA3A393F8740193F5828883E47321
:1025F800740293B5F0067403936860E9A3A3A3A3D8
:1026080080D8E3F5F009E208B5F06BDFF58067E301
:10261800F5F009E608B5F05EDFF5805A87F009E6BF
:1026280008B5F052DFF6804E87F009E208B5F046AB
:10263800DFF6804288828C8387F009E0A3B5F03604
:10264800DFF6803288828C8387F009E493A3B5F0A3
:1026580025DFF5802188828C83E3F5F009E0A3B5B6
:10266800F014DFF5801088828C83E3F5F009E49399
:10267800A3B5F002DFF4022739808780E9809080D3
:10268800D4803E8015806E807E809D80B7808D804E
:10269800A380518074803C02274589828A83ECFAA2
:1026A800E493F5F0A3C8C582C8CCC583CCE493A352
:1026B800C8C582C8CCC583CCB5F076DFE3DEE1803F
:1026C8007089828A83E493F5F0A3E208B5F062DFAB
:1026D800F4805E89828A83E0F5F0A3E608B5F051BC
:1026E800DFF5804D89828A83E0F5F0A3E208B5F032
:1026F80040DFF5803C89828A83E493F5F0A3E608FD
:10270800B5F02EDFF4802A8002805789828A83EC14
:10271800FAE493F5F0A3C8C582C8CCC583CCE0A37E
:10272800C8C582C8CCC583CCB5F006DFE4DEE2803C
:10273800007FFFB5F0020F2240027F012289828AC2
:1027480083ECFAE0F5F0A3C8C582C8CCC583CCE019
:10275800A3C8C582C8CCC583CCB5F0D5DFE5DEE318
:1027680080CF89828A83ECFAE0F5F0A3C8C582C8D5
:10277800CCC583CCE493A3C8C582C8CCC583CCB5EB
:10278800F0AFDFE4DEE280A988F0EF60010E4E6072
:10279800ABED2402B404005098F582EB2402B40493
:1027A80000508E232345822390268173EF4E6012BA
:1027B800EF60010EEDBB010B89828A83F0A3DFFC79
:1027C800DEFA2289F05007F709DFFCA9F022BBFEE8
:1027D800FCF309DFFCA9F022F8BB010DE58229F51D
:1027E80082E5833AF583E8F0225006E92582C8F6A7
:1027F80022BBFE05E92582C8F2227BFF7A53796362
:10280800785F7C9C7D017E007F0C1222D9E4909C2D
:102818006DF07B017A9C794B909C90F0A3740AF040
:102828007F207EA0122DF3909C4FE0A3E020E36A66
:10283800909C55E4F0A304F0909C4BE0A3E030E6B4
:102848003B909C4FE0A3E020E628909C55E4F0A341
:102858007402F0909C4FE0A3E020E40B909C55E4B8
:10286800F0A37403F0803A909C55E4F0A37402F04E
:10287800802F909C55E4F0A304F08025909C4FE0B5
:10288800A3E020E40B909C55E4F0A37403F08011BE
:10289800909C55E4F0A304F08007E4909C55F0A3C5
:1028A800F07B017A9C7955909CA4E4F0A37402F023
:1028B80074A0FFFE123060909C51E0FEA3E0EE3061
:1028C800E61E909C51A3E0EE30E70B909C55E4F097
:1028D800A37406F0805D909C55E4F0A304F0805347
:1028E800909C51E0FEA3E0EE30E70B909C55E4F09D
:1028F800A37402F0803D909C53E0A3E030E009A36C
:10290800E4F0A37403F0802B909C53E0A3E030E143
:1029180009A3E4F0A37404F08019909C53E0A3E0A9
:1029280030E209A3E4F0A37405F08007E4909C5515
:10293800F0A3F07B017A9C7955909CA4E4F0A374F1
:1029480002F07FA17EA0123060909C51E0FEA3E0CF
:10295800FFEE541F909C51F0A3EFF0E4909C6BF0B5
:10296800909C6BE0C39402748094804003022A1305
:10297800E4A3F0909C6CE0C394107480948050752C
:10298800E0FF7E007401A807088005C333CE33CE6C
:10299800D8F9FF909C6BE025E02451F582E4349C43
:1029A800F583E0FCA3E0FDEE5CFEEF5D4E60309049
:1029B8009C6CE02401FDE433FC909C6BE075F01006
:1029C800A42DFFE5F03CFE909C6DE0FD04F0ED25A4
:1029D800E0245FF582E4349CF583EEF0A3EFF090F9
:1029E8009C6DE0C39406748094805009909C6CE0C0
:1029F80004F002297B909C6DE0C394067480948057
:102A08005009909C6BE004F00229687B017A9C795C
:102A18005F909CA4E4F0A3740AF07FA27EA0123019
:102A2800607B017A9C7957909C90E4F0A37406F03F
:102A38007F277EA0122DF3E4909C5DF0A3F0909C7C
:102A48004DE0A3E020E20A909C5DE4F0A304F0804E
:102A580009909C5DE4F0A37402F0909C4FE0A3E021
:102A680030E31D909C57E0FEA3E04E700A909C5DF9
:102A7800F0A37404F08009909C5DE4F0A37403F063
:102A8800909C5BE0FEA3E064014E7008A3F0A37481
:102A980005F0803A909C5BE0FEA3E064024E70086B
:102AA800A3F0A37406F08026909C5BE0FEA3E0648C
:102AB800034E7008A3F0A37407F08012909C5BE0AB
:102AC800FEA3E064044E7006A3F0A37408F07B0133
:102AD8007A9C795D909CA4E4F0A37402F07FA77EB1
:102AE800A01230607B017A9C7957909C90E4F0A307
:102AF8007402F07F2A7EA0122DF3909C4DE0A3E093
:102B080030E210909C57E0FEA3E0FFA3EEF0A3EFA5
:102B1800F08007E4909C59F0A3F07B017A9C7959E6
:102B2800909CA4E4F0A37402F07F2D7EA012306084
:102B380022909C481225AE909C4BECF0A3EDF0E45B
:102B4800A3F0A3F0909C4BE0FEA3E0FFA3E0FCA35E
:102B5800E0C39FEC9E500C909C4DE475F00112234D
:102B68006980E1909C4BE0FEA3E0C39405EE9400DD
:102B78005003022DF2E4A3F0A3F0909C4812258E96
:102B8800909C4DE0FEA3E0F5828E83122318640129
:102B98006003022DCC909C4812258E909C4DE0A39A
:102BA800E029F9EA3EFA9000011223181225B72B02
:102BB800C1032D150600002DCC909C4812258E903F
:102BC8009C4DE0FEA3E029F9EA3EFA9000021223A8
:102BD80018FF909C51E4F0A3EFF0909C4DE0A3E027
:102BE800FF909C51E0FCA3E02FFFEC3EFEEF240594
:102BF800FFE43EFE909C4BE0FCA3E0FDD3EF9DEE8E
:102C08009C4011909C4BE0FEA3E0FFA3EEF0A3EFE5
:102C1800F0022DCC909C4812258E909C4DE0FEA38E
:102C2800E029F9EA3EFA909C51E0FEA3E02403FD76
:102C3800E43EFC124A4E909C4FEEF0A3EFF0909CBD
:102C48004812258E909C4DE0FEA3E029F9EA3EFA51
:102C5800909C51E0FEA3E029F9EA3EFA90000312A5
:102C68002318FD909C4FE0FEA3E0EE6D7001E46038
:102C780003022DCC909C4812258E909C4DE0FEA31B
:102C8800E029F9EA3EFA909C51E0FEA3E029F9EA2E
:102C98003EFA900004122318FF909C4FE0A3E06FC7
:102CA8007001E46003022DCC909039E0FEA3E0FFB0
:102CB800909C4812258EE92403F9E43AFAC003C02F
:102CC80002C001909C4812258E900002122318FD24
:102CD800909CA4E4F0A3EDF0D001D002D003123010
:102CE800607E007F0E7D007B017A9079311227B4D7
:102CF800909C51E0FEA3E02405FFE43E909C4DF03B
:102D0800A3EFF0908E69E04402F0022DCC909C4D28
:102D1800E0FEA3E02408FFE43EFE909C4BE0FCA309
:102D2800E0FDD3EF9DEE9C4011909C4BE0FEA3E0AC
:102D3800FFA3EEF0A3EFF0022DCC909C4812258E55
:102D4800909C4DE0FEA3E029F9EA3EFA7D067C005E
:102D5800124A4E909C4FEEF0A3EFF0909C4812253B
:102D68008E909C4DE0FEA3E029F9EA3EFA90000619
:102D7800122318FD909C4FE0FEA3E0EE6D7001E475
:102D88007042909C4812258E909C4DE0FEA3E0294D
:102D9800F9EA3EFA900007122318FF909C4FE0A32F
:102DA800E0B50720E4909C4D75F0081223697E0079
:102DB8007F0E7D007B017A9079311227B4908E695D
:102DC800E04402F0909C4DE475F001122369909C58
:102DD8004BE0FEA3E024FBFFEE34FFFEA3E0FCA3E0
:102DE800E0C39FEC9E5003022B8222909C8BEEF056
:102DF800A3EFF0A31225AE7B007A007900C003C0D0
:102E080002C001909C8D12258ED082D083D0E06BB9
:102E18007008E965827003EA6583700302305F9089
:102E28009C90E0FEA3E04E700302305F909C90E01F
:102E3800A3E0FFEEC313FEEF13FF909C8BE0FCA30F
:102E4800E02FFFEE3CFED3EF94FEEE94FF4003022A
:102E5800305FC2AF909C8BE0A3E05401909C92F04D
:102E6800909C8BE0FEA3E0FFEEC313FEEF13FF90F0
:102E78009C8BEEF0A3EFF0909C8BE0FEA3E0781023
:102E8800CEC313CE13D8F9F5F1909C8BE0FEA3E0E6
:102E9800EEF5F2909C8BE0A3E0F5F3E4F5F875F419
:102EA80001D2FF30FCFDD2FD909C92E0640170726B
:102EB800909C90E0FEA3E064014E700AC2FBC2FA47
:102EC800D2F9C2F88008C2FBC2FAD2F9D2F8D2FE0F
:102ED80020FEFD909C90E0FEA3E064014E701A90E5
:102EE8009C8D75F001122597E5FC122345909C9066
:102EF80074FFF5F01223698029909C8DE475F00128
:102F0800122597E5FC122345909C8DE475F001127B
:102F18002597E5FD122345909C9074FF75F0FE12ED
:102F28002369909C90E0FEA3E04E700302305A9013
:102F38009C90E0A3E0C39404EE94004003023003A5
:102F4800909C90E0A3E08EF01225DD2F7700012FF2
:102F58006D00022F63000300002F7FD2FBD2FAD24C
:102F6800F9C2F88012D2FBD2FAC2F9C2F88008D2AC
:102F7800FBC2FAC2F9C2F8D2FE20FEFD909C90E096
:102F8800FEA3E08EF01225DD2FF000012FD0000205
:102F98002FA000030000305A909C8DE475F00112B8
:102FA8002597E5FA122345909C8DE475F0011225CA
:102FB80097E5FB122345909C8DE475F00112259747
:102FC800E5FC12234502305A909C8DE475F00112FD
:102FD8002597E5FA122345909C8DE475F00112259A
:102FE80097E5FB122345806A909C8DE475F00112E9
:102FF8002597E5FA12234580598057D2FBD2FAD299
:10300800F9D2F8D2FE20FEFD909C8DE475F00112F5
:103018002597E5FA122345909C8DE475F001122559
:1030280097E5FB122345909C8DE475F001122597D6
:10303800E5FC122345909C8DE475F001122597E577
:10304800FD122345909C9074FF75F0FC12236902D1
:103058002F2AE4F5F8D2AF22909C9FEEF0A3EFF070
:10306800A31225AE7B007A007900C003C002C0011C
:10307800909CA112258ED082D083D0E06B7008E995
:1030880065827003EA658370030232CB909CA4E0EA
:10309800FEA3E04E70030232CB909CA4E0A3E0FFB5
:1030A800EEC313FEEF13FF909C9FE0FCA3E02FFFFD
:1030B800EE3CFED3EF94FEEE94FF40030232CBC207
:1030C800AF909C9FE0A3E05401909CA6F0909C9F39
:1030D800E0FEA3E0FFEEC313FEEF13FF909C9FEE0C
:1030E800F0A3EFF0909C9FE0FEA3E07810CEC3130E
:1030F800CE13D8F9F5F1909C9FE0FEA3E0EEF5F22F
:10310800909C9FE0A3E0F5F3E4F5F875F401D2FF95
:1031180030FCFDC2FD909CA6E064017072909CA4F6
:10312800E0FEA3E064014E700AC2FBC2FAD2F9C203
:10313800F88008C2FBC2FAD2F9D2F8909CA4E0FE4B
:10314800A3E064014E701A909CA175F001122597B6
:103158001222FFF5FC909CA474FFF5F012236980FD
:1031680029909CA1E475F0011225971222FFF5FC25
:10317800909CA1E475F0011225971222FFF5FD90AD
:103188009CA474FF75F0FE122369D2FE20FEFD9008
:103198009CA4E0FEA3E04E70030232C6909CA4E01B
:1031A800A3E0C39404EE9400400302326F909CA401
:1031B800E0A3E08EF01225DD31E4000131DA0002EF
:1031C80031D00003000031ECD2FBD2FAD2F9C2F8B8
:1031D8008012D2FBD2FAC2F9C2F88008D2FBC2FA36
:1031E800C2F9C2F8909CA4E0FEA3E08EF01225DD9F
:1031F80032570001323700023208000300003266FD
:10320800909CA1E475F0011225971222FFF5FA901F
:103218009CA1E475F0011225971222FFF5FB909C02
:10322800A1E475F0011225971222FFF5FC802F907A
:103238009CA1E475F0011225971222FFF5FA909CE3
:10324800A1E475F0011225971222FFF5FB800F907B
:103258009CA1E475F0011225971222FFF5FAD2FE1F
:1032680030FE5B80FB8057D2FBD2FAD2F9D2F890BD
:103278009CA1E475F0011225971222FFF5FA909CA3
:10328800A1E475F0011225971222FFF5FB909CA18D
:10329800E475F0011225971222FFF5FC909CA1E439
:1032A80075F0011225971222FFF5FDD2FE20FEFDD2
:1032B800909CA474FF75F0FC122369023197E4F521
:1032C800F8D2AF227BFF7A5279A978437C9C7D01A2
:1032D8007E007F201222D97B017A9C7943909C65DD
:1032E8001225AE909C681225AEE4909C63F0A3F082
:1032F800909C63E0FEA3E0C3EE9402400302339582
:10330800909C63E0A3E07803C333CE33CED8F9248E
:1033180000FFEE3420FEE4FCFD909C8E12254590C3
:103328009C92E4F0A37408F07D007C307F5A124927
:10333800C97B017A9C7943909C90E4F0A37410F0C7
:103348007F007E30122DF3909C6512258E122395F6
:10335800645A7004E5F064A56026909C6812258E76
:10336800122395B4A527E5F0B45A22909C6812253B
:103378008E78237C9B7D017E007F081222D9800DE8
:10338800909C63E475F0011223690232F8E4909C82
:1033980063F0A3F0909C63E0FEA3E0C3940AEE946C
:1033A8000040030235277BFF7A5279C9786B7C9CF1
:1033B8007D017E007F201222D97B017A9A79DC7800
:1033C8006B7C9C7D017E007F1A1222D9909C63E061
:1033D800FEA3E0FF7C007D24122357EF2446FFE480
:1033E8003E909C6FF0A3EFF0909C747401F0909C59
:1033F80063E0FEA3E0909B4675F006122582EE7509
:10340800F006A42583F583E0FEA3E0FF7B017A9C08
:10341800796B909CA4E4F0A37420F01230607B01D7
:103428007A9A79F6786B7C9C7D017E007F1A12224D
:10343800D9909C63E0FEA3E0FF7C007D2412235713
:10344800EF2446FFE43E909C6FF0A3EFF0909C744D
:103458007401F0909C63E0FEA3E0909B4875F00631
:10346800122582EE75F006A42583F583E0FEA3E01D
:10347800FF7B017A9C796B909CA4E4F0A37420F004
:103488001230607B017A9B7982786B7C9C7D017E0F
:10349800007F1A1222D9909C63E0FEA3E0FF7C0013
:1034A8007D24122357EF2446FFE43E909C6FF0A33F
:1034B800EFF0909C63E0FEA3E0FF122357EF244651
:1034C800FFE43E909C75F0A3EFF0909C63E0FEA3B0
:1034D800E0FF122357EF2464FFE43E909C79F0A3A9
:1034E800EFF0909C63E0FEA3E0909B4A75F0061213
:1034F8002582EE75F006A42583F583E0FEA3E0FFA0
:103508007B017A9C796B909CA4E4F0A37420F01260
:103518003060909C63E475F00112236902339C22A9
:10352800909C481225AE909C4812258E1222FF903E
:103538009C4BF0909C4BE0C394787480948040033B
:1035480002375FE075F00E90903F122582E0645AD2
:103558006003023756909C4BE075F00E9090421233
:103568002582E07003023756909C4BE075F00E9070
:103578009044122582E0700302375F909C4BE075FF
:10358800F00E909044122582E064017029909C4BC3
:10359800E075F00E909045122582E0FEA3E0FF90C2
:1035A8009CC9E0FCA3E06F7002EC6E600302375622
:1035B80002375F023756909C4BE075F00E909044AE
:1035C800122582E06402600302367B909C4BE07512
:1035D800F00E909045122582E0FEA3E0FF7B017A71
:1035E8009C794C909C90E4F0A37402F0122DF39017
:1035F8009C4CE0A3E0645A6003023756909C4BE071
:10360800C3947774809480503CE075F00E9090528B
:10361800122582E06402702D909C4BE075F00E90AC
:103628009053122582E0FEA3E0FF909C4BE075F0DA
:103638000E909045122582E0FCA3E06F7002EC6EBC
:10364800700302375FE4909C4CF0A3F0909C4BE031
:1036580075F00E909045122582E0FEA3E0FF7B01F5
:103668007A9C794C909CA4E4F0A37402F012306028
:1036780002375F909C4BE075F00E909044122582C3
:10368800E064036003023756909C4BE075F00E909F
:10369800904B122582E0FEA3E0FF909CC9E0FCA3BA
:1036A800E0FDEF6D7002EE6C6003023756909C4BA4
:1036B800E075F00E909045122582E0FEA3E0FF7BB6
:1036C800017A9C794C909C90E4F0A37402F0122D3E
:1036D800F3909C4CE0A3E0645A7073909C4BE0C359
:1036E8009477748094805039E075F00E909052125F
:1036F8002582E06403702A909C4BE075F00E909050
:1037080053122582E0FEA3E0FF909C4BE075F00E7B
:10371800909045122582E0FCA3E06F7002EC6E6089
:1037280036E4909C4CF0A3F0909C4BE075F00E9022
:103738009045122582E0FEA3E0FF7B017A9C794C3C
:10374800909CA4E4F0A37402F01230608009909C6D
:103758004BE004F002353B909C4BE0FF909C4812F4
:10376800258EEF12234522E50F30E0167B017A9C67
:1037780079C9909C90E4F0A37402F07F147E001243
:103788002DF3E50F20E2030239AA909CC9E0FEA3BD
:10379800E04E7003122802909CC9E0FEA3E0641872
:1037A8004E600302383C7B017A9C7943909C90F0F0
:1037B800A37402F07F207EB8122DF3909C43E0FEA4
:1037C800A3E04E606F909C43E0A3E0D39404EE9492
:1037D800005061909C43E0A3E025E0FFEE33FE74C7
:1037E800BF2FF9749C3EFA7B01909CA4E4F0A3746B
:1037F80002F07F247EB8123060909C43E4F0A374FA
:103808005AF07B017A9C7943909CA4E4F0A374025B
:10381800F07F847EB8123060E4909C43F0A3F07B84
:10382800017A9C7943909CA4F0A37402F07F207ED7
:10383800B8123060909CC9E0FEA3E064194E6003A2
:103848000238D07B017A9C7949909C90F0A374024D
:10385800F07F237EB9122DF3909C49E0FEA3E0FF90
:10386800EEC4F854F0C868FEEFC4540F48EE540F85
:10387800909C43F0A3E4F0909C43E0FCA3E0FD900F
:103888009C49E0FEA3E07807CEC313CE13D8F954C1
:103898001FFFECFEED4FFF909C43EEF0A3EFF0907E
:1038A8009C49E0A3E0547F909C45F0A3E4F004A376
:1038B800F0A3F0FB7A9C7943909CA4E4F0A37406EF
:1038C800F07F247EB91230607B017A9C7943909C0A
:1038D80090E4F0A37402F07F167E00122DF3909C02
:1038E80043E0FEA3E04E6025E4909C43F0A3F07B08
:1038F800017A9C7943909CA4F0A37402F07F167E11
:1039080000123060E4909CBDF0A3F08043909CBD11
:10391800E0FEA3E0C39458EE9402500C909CBDE4E2
:1039280075F0011223698028909CBDE0FEA3E0B4E5
:10393800581EEEB4021A909CBDE475F0011223697A
:10394800909CC9E0FEA3E04E6006E4FFFE12511809
:10395800909CBFE0FEA3E0D39401EE9400400B904E
:103968009CBF74FFF5F012236922909CBFE0FEA370
:10397800E064014E702C909C43F0A3F0909CBF74BF
:10398800FFF5F0122369E4909C43F0A3F07B017AE1
:103998009C7943909CA4F0A37402F07F2C7EA01223
:1039A800306022909C45EEF0A3EFF07BFF7A5379CC
:1039B8006F78477C9C7D017E007F081222D97B01AD
:1039C8007A9C7947909C90E4F0A37402F07F217E62
:1039D800A0122DF3909C45E0FEA3E08EF01225DDA9
:1039E80039F4A0033AB3A00400003B93909C47E04D
:1039F800A3E030E2697B017A9C7949909C90E4F0DD
:103A0800A37402F07F2A7EA0122DF3909C49E0FE59
:103A1800A3E064014E6003023B93A3F0A3F0A3F07C
:103A2800A3F07B017A9C794B909CA4F0A37404F0DA
:103A38007F2A7EA0123060909C4BE4F0A3745AF069
:103A4800A3E4F0A3745AF07B017A9C794B909CA470
:103A5800E4F0A37404F07F8A7EA012306022909C68
:103A68004BE4F0A304F0A37413F0A37488F07B0173
:103A78007A9C794B909CA4E4F0A37404F07F2A7E8E
:103A8800A0123060909C4BE4F0A3745AF0A3E4F0C9
:103A9800A3745AF07B017A9C794B909CA4E4F0A320
:103AA8007404F07F8A7EA012306022909C47E0A3C5
:103AB800E030E2697B017A9C7949909C90E4F0A31C
:103AC8007402F07F2A7EA0122DF3909C49E0FEA399
:103AD800E064024E6003023B93A3F0A3F0A3F0A3BB
:103AE800F07B017A9C794B909CA4F0A37404F07F3E
:103AF8002A7EA0123060909C4BE4F0A3745AF0A385
:103B0800E4F0A3745AF07B017A9C794B909CA4E46E
:103B1800F0A37404F07F8A7EA0123060227B017AC1
:103B28009C794D909C90E4F0A37402F07F2C7EA0C9
:103B3800122DF3909C4DE0FEA3E064014E704C9072
:103B48009C4BF0A37402F0A37413F0A37488F07B69
:103B5800017A9C794B909CA4E4F0A37404F07F2A2A
:103B68007EA0123060909C4BE4F0A3745AF0A3E45A
:103B7800F0A3745AF07B017A9C794B909CA4E4F0F2
:103B8800A37404F07F8A7EA012306022E4909C43E4
:103B9800F0A3F0E50F20E003023D757B017A9C79E4
:103BA80043909C90E4F0A37402F07F147E50122D91
:103BB800F3909C43E0FEA3E04E7003023D75909C99
:103BC80043E0A3E08EF01225DD3D22A0003D22A0B7
:103BD800013D22A0023D2FA0033D2FA0043D3CA0A3
:103BE800053CF9A4003CFEA4013D03A4A03D03A4A8
:103BF800A13D03A4A23D03A4A33D03A4A43D03A4A3
:103C0800A53D03A4A63D03A4A73D03A4A83D03A482
:103C1800A93D03A4AA3D03A4AB3D03A4AC3D03A462
:103C2800AD3D03A4AE3D03A4AF3D03A4B03D03A442
:103C3800B13D03A4B23D03A4B33D03A4B43D03A422
:103C4800B53D03A4B63D03A4B73D03A4B83D03A402
:103C5800B93D03A4BA3D03A4BB3D03A4BC3D03A4E2
:103C6800BD3D03A4BE3D03A4BF3D03A4C03D03A4C2
:103C7800C13D03A4C23D03A4C33D03A4C43D03A4A2
:103C8800C53D03A4C63D03A4C73D03A4C83D03A482
:103C9800C93D03A4CA3D03A4CB3D03A4CC3D03A462
:103CA800CD3D03A4CE3D03A4CF3D03A4D03D03A442
:103CB800D13D10A4F03D10A4F13D10A4F23D10A494
:103CC800F33D1DA6003D59A6013D4EB3083D4EB338
:103CD800213D4EB3223D4EB3233D41B5213D4EBA61
:103CE800213D4EBA223D4EBA233D41C02000003D41
:103CF80059124C2D805B1200168056909C43E0FEB2
:103D0800A3E0FF1250D08049909C43E0FEA3E0FF5F
:103D1800125087803C1247E88037909C43E0FEA30E
:103D2800E0FF120086802A909C43E0FEA3E0FF1289
:103D380039AB801D1251D18018909C43E0FEA3E05E
:103D4800FF12503E800B909C43E0FEA3E0FF124D13
:103D58000BE4909C43F0A3F07B017A9C7943909C00
:103D6800A4F0A37402F07F147E50123060227B000E
:103D78007A007900909C431225AE909030E064015F
:103D88006003023E0D90902BE0FF9096CFE0D39F0A
:103D98004011E090902BF0909750122551000000B0
:103DA80000806290902BE0FF9096CFE06F7056FFF6
:103DB800FEFDFC909750122539D312250840389003
:103DC8009750122539C3E50E9BFFE50D9AFEE50CC9
:103DD80099FDE50B98FCE47B0AFAF9F8C31225086B
:103DE80050237B017A9679D09096CFE0FD7C001223
:103DF8002B391251FE800EAF0EAE0DAD0CAC0B90F0
:103E08009750122545908E69E030E03AE020E1298C
:103E180090902C122539C3E50E9BFBE50D9AFAE527
:103E28000C99F9E50B98F8909035E0FFE4FCFDFE5D
:103E3800C31225085003023F22908E69E030E12D1D
:103E4800A3E004F0802790902C122539C3E50E9B3F
:103E5800FFE50D9AFEE50C99FDE50B98FCE47BF473
:103E68007A01F9F8D31225084003023F22908E6A9E
:103E7800E07003123F23AF0EAE0DAD0CAC0B90906B
:103E88002C122545908E69E054FDF0E054FEF07B3D
:103E9800017A8E796A123528908E6AE0C394787414
:103EA8008094805070E075F00EA4243FF97490352A
:103EB800F0FA7B0178317C907D017E007F0E122222
:103EC800D9909033E0640370117B017A90793112B4
:103ED800440A908E69E04401F022909033E0640631
:103EE8007038909039E0FEA3E0FF7B017A9C794618
:103EF800909C90E4F0A37402F0122DF37B017A9069
:103F08007931909C46E0FCA3E0FD124525908E692E
:103F1800E04401F022E4908E6AF0227BFF7A537924
:103F28002978487C9C7D017E007F281222D9E49064
:103F38009C70F0A3F0909C70E0FEA3E0C39438EE70
:103F480094004003024067909C70E0A3E07803C3AC
:103F580033CE33CED8F9246CF582748E3EF583E0E7
:103F6800FF909CC9E0FCA3E0FDEF6D7001EC6003DD
:103F780002405A909C70E0FEA3E07803C333CE332E
:103F8800CED8F9246DF582748E3EF583E0FEA3E069
:103F9800FF7B017A9C7948909C90E4F0A37402F02E
:103FA800122DF3909C70E0FEA3E07803C333CE3368
:103FB800CED8F9246FF582748E3EF583E0FEA3E037
:103FC800FF7B017A9C794A909C90E4F0A37402F0FC
:103FD800122DF3909C4AE0FEA3E0FF909C48E0FC81
:103FE800A3E06F7002EC6E6069909C70E0FEA3E045
:103FF8007803C333CE33CED8F9246FF582748E3E5E
:10400800F583E0FEA3E0FF7B017A9C7948909CA4AD
:10401800E4F0A37402F0123060909C4CE4F0A374B6
:104028005AF0909C70E0FEA3E07803C333CE33CE01
:10403800D8F92471F582748E3EF583E0FEA3E0FF83
:104048007B017A9C794C909CA4E4F0A37402F01252
:104058003060909C70E475F001122369023F3D22A4
:10406800909C7BEFF07BFF7A537909787C7C9C7D70
:10407800017E007F201222D97B017A9A79DC787C34
:104088007C9C7D017E007F1A1222D9909C7BE07572
:10409800F024A42446FFE435F0909C80F0A3EFF0D0
:1040A800909C857401F0909C7BE075F006A42446F2
:1040B800F582E4349BF583E0FEA3E0FF7B017A9C64
:1040C800797C909CA4E4F0A37420F01230607B010A
:1040D8007A9A79F6787C7C9C7D017E007F1A122280
:1040E800D9909C7BE075F024A42446FFE435F09039
:1040F8009C80F0A3EFF0909C857401F0909C7BE08D
:1041080075F006A42448F582E4349BF583E0FEA309
:10411800E0FF7B017A9C797C909CA4E4F0A3742056
:10412800F01230607B017A9B7982787C7C9C7D01DF
:104138007E007F1A1222D9909C7BE075F024A4247B
:1041480046FFE435F0909C80F0A3EFF0909C7BE074
:1041580075F024A42446FFE435F0909C86F0A3EF84
:10416800F0909C7BE075F024A42464FFE435F09083
:104178009C8AF0A3EFF0909C7BE075F006A4244A9B
:10418800F582E4349BF583E0FEA3E0FF7B017A9C93
:10419800797C909CA4E4F0A37420F0123060229003
:1041A8009C7BEFF0A3ECF0A3EDF0A3EBF07BFF7AA0
:1041B8005279E9787F7C9C7D017E007F201222D98C
:1041C8007B017A9A79DC787F7C9C7D017E007F1A5E
:1041D8001222D9909C7BE075F024A42446FFE43594
:1041E800F0909C83F0A3EFF0E4909C88F0909C7C86
:1041F800E0FEA3E02401FFE43E909C7FF0A3EFF0F3
:10420800909C7BE075F006A42446F582E4349BF587
:1042180083E0FEA3E0FF7B017A9C797F909CA4E475
:10422800F0A37420F01230607B017A9A79F6787FD7
:104238007C9C7D017E007F1A1222D9909C7BE075C0
:10424800F024A42446FFE435F0909C83F0A3EFF01B
:10425800909C7EE0FFC374239F909C88F0909C7C88
:10426800E0FEA3E02404FFE43E909C7FF0A3EFF07F
:10427800909C7BE075F006A42448F582E4349BF515
:1042880083E0FEA3E0FF7B017A9C797F909CA4E405
:10429800F0A37420F0123060909C7CE0FEA3E02430
:1042A80008FFE43E909C7FF0A3EFF0909C7BE075C4
:1042B800F006A4244AF582E4349BF583E0FEA3E0EB
:1042C800FF7B017A9C797F909CA4E4F0A37402F0B0
:1042D80012306022C0E0C0F0C083C082C0D075D068
:1042E80000C000C001C002C003C004C005C006C0B1
:1042F80007C2AF758CBC758ACD909CADE475F00192
:10430800122369909CADE0FEA3E0D394E8EE9403F9
:104318004018909CADE4F0A3F0A375F00112236956
:10432800909CABE475F00112236943C901909CB9D4
:1043380012252DE47B01FAF9F8122417909CB91282
:104348002545909CB1E475F001122369909CB31245
:10435800252DE4F8122417909CB3122545909CB79C
:10436800E0FEA3E0FFE4FCFD7BDC7AFFF8D3122437
:10437800F2400A909CB7E475F0011223690509E53B
:104388000970020508AF0EAE0DAD0CAC0BE47B0155
:10439800FAF9F81224178F0E8E0D8D0C8C0BE47B16
:1043A80064122460AC00AD01AE02AF03E4FBFAF97D
:1043B800F8C31225087003430A02E47BF47A01F972
:1043C800F8AF0EAE0DAD0CAC0B122460AC00AD0115
:1043D800AE02AF03E4FBFAF9F8C3122508700343F1
:1043E8000A04430A01D2AFD007D006D005D004D0C2
:1043F80003D002D001D000D0D0D082D083D0F0D06A
:10440800E032909C481225AEE4909C4DF0909C4878
:1044180012258E900001122318FF909C4DE0FE0497
:10442800F0744E2EF582E4349CF583EFF0909C4DA9
:10443800E0FF04F0744E2FF582E4349CF583740396
:10444800F0909C4812258E90000A1223C0E5F0FFD8
:10445800909C4DE0FE04F0744E2EF582E4349CF5F9
:1044680083EFF0909C4812258E90000A1223C0FF1B
:10447800909C4DE0FE04F0744E2EF582E4349CF5D9
:1044880083EFF0909C4812258E900003122318FFAA
:10449800E4909C4DE0FE04F0744E2EF582E4349CCA
:1044A800F583E4F0909C4812258E9000031223189F
:1044B800FF909C4DE0FE04F0744E2EF582E4349C8F
:1044C800F583EFF07B017A9C794E909C4DE0FD7C62
:1044D80000124A4E909C4BEEF0A3EFF0909C4BE0FC
:1044E800FEA3E0EEFFA3E0FE04F0744E2EF582E496
:1044F800349CF583EFF0909C4BE0A3E0FFA3E0FE33
:1045080004F0744E2EF582E4349CF583EFF07B01C1
:104518007A9C794E909C4DE0FD124E9822909C48D2
:104528001225AE909C4BECF0A3EDF0E4909C4FF07C
:10453800909C4812258E900001122318FF909C4FE2
:10454800E0FE04F074502EF582E4349CF583EFF01D
:10455800909C4FE0FF04F074502FF582E4349CF5F2
:10456800837406F0909C4812258E90000A1223C08E
:10457800E5F0FF909C4FE0FE04F074502EF582E4C5
:10458800349CF583EFF0909C4812258E90000A1217
:1045980023C0FF909C4FE0FE04F074502EF582E497
:1045A800349CF583EFF0909C4BE0FEA3E0EEFF9087
:1045B8009C4FE0FE04F074502EF582E4349CF583A1
:1045C800EFF0909C4BE0A3E0FF909C4FE0FE04F0DE
:1045D80074502EF582E4349CF583EFF07B017A9CCD
:1045E8007950909C4FE0FD7C00124A4E909C4DEE15
:1045F800F0A3EFF0909C4DE0FEA3E0EEFFA3E0FEF9
:1046080004F074502EF582E4349CF583EFF0909C0E
:104618004DE0A3E0FFA3E0FE04F074502EF582E421
:10462800349CF583EFF07B017A9C7950909C4FE0A5
:10463800FD124E9822909B25E0FEA3E07803C33339
:10464800CE33CED8F92400FFEE3420FEE4FCFD90F2
:104658009C8E122545909C92E4F0A37408F07D008E
:104668007C307FA51249C9909B25E475F00112237F
:1046780069909B25E0FEA3E0C3EE94024007E49016
:104688009B25F0A3F0909B29E0FEA3E0C3EE9402E3
:104698004028909B297402F0A3E4F0909B2775F0C2
:1046A80001122369909B27E0FEA3E0C3EE94024029
:1046B80013E4909B27F0A3F0800A909B29E475F0FF
:1046C80001122369909B23745AF0A374A5F07B010F
:1046D8007A9B7923909CA4E4F0A37408F07F007E71
:1046E80030123060909B25E0FEA3E07803C333CE00
:1046F80033CED8F92400FFEE3420FEE4FCFD909C74
:104708008E122545909C92E4F0A37404F07D007C01
:10471800307FA51249C922909C8E12255100003085
:1047280000909C92E4F0A3740AF07D007C307F5ADC
:104738001249C97B017A9C792B909C90E4F0A37470
:1047480014F07F007E30122DF3E4909C43F0909C8F
:1047580043E0C3940674809480506EE025E025E021
:10476800242BF582E4349CF58312252DE4FBFAF919
:10477800F8C31225086022909C43E025E025E02438
:104788002BF582E4349CF58312252D7B3F7A427900
:104798000F7800C31225085028909C43E025E02597
:1047A800E0240BF582E4349CF58312252D909C437C
:1047B800E025E025E0242BF582E4349CF5831225DE
:1047C80045909C43E004F080857B017A9C792B908E
:1047D8009CA4E4F0A37414F07FA07EA6123060229B
:1047E8007B017A9C7945909C90E4F0A37410F07F4B
:1047F800207EA6122DF3909C45E0A3E025E025E05D
:10480800242FF582E4349CF58312252D909C4912BF
:104818002539C312250860087F077E001251182227
:10482800909C5112252D909C4D122539C3122508B4
:1048380060087F087E0012511822909C4D12252D89
:10484800909C45E0A3E025E025E0242FF582E434A0
:104858009CF58312254512519EE4909C59F0909C3A
:1048680059E0C3940A748094805018E025E02445E8
:10487800F582E4349CF583E4F0A3F0909C59E004BD
:10488800F080DB7B017A9C7945909CA4E4F0A374CA
:104898000CF07F227EA61230602275940175950275
:1048A800758E0075930075C87075C96075F80078C5
:1048B8007FE4F6D8FD7581100248FE024FF1E493BB
:1048C800A3F8E493A34003F68001F208DFF48029FB
:1048D800E493A3F85407240CC8C333C4540F4420EA
:1048E800C8834004F456800146F6DFE4800B0102D9
:1048F800040810204080900100E47E019360BCA36E
:10490800FF543F30E509541FFEE493A360010ECF26
:1049180054C025E060A840B8E493A3FAE493A3F850
:10492800E493A3C8C582C8CAC583CAF0A3C8C58210
:10493800C8CAC583CADFE9DEE780BEC0E0C0F0C0F0
:1049480083C082C0D075D000C000C004C006C007B4
:10495800909CA8E4F0C2AFE59B30E03DE59CF0E018
:10496800FF9099D6E0FCA3E024DCF58274993CF52D
:1049780083EFF09099D6E475F001122369539BFEFA
:10498800539BFE9099D6E0FEA3E0C39480EE94007A
:1049980040079099D6E4F0A3F0E59B30E10B539BD8
:1049A800FD539BFD9099D5E4F043C901D2AFD007E0
:1049B800D006D004D000D0D0D082D083D0F0D0E0C0
:1049C80032909C8BEFF0A3ECF0A3EDF0E4F5F1F559
:1049D800F275F30475F40175F88F30FCFD909C8B2B
:1049E800E0F5FA909C8E12252D78101225198FFB70
:1049F800909C8E12252D78081225198FFC909C8E7C
:104A080012252DEF54FEFFE48FFDD2FE20FEFD900F
:104A18009C8CE0FEA3E0EEF5FA909C8CE0A3E054B9
:104A2800FEF5FB909C92E0FEA3E0EEF5FC909C92D4
:104A3800E0A3E054FEF5FDD2FE20FEFDE4F5F87F8C
:104A480004FE124EF222909C641225AE909C67ECF4
:104A5800F0A3EDF0A374FFF0A3F0909C6774FFF54A
:104A6800F012237F45F0604D909C64E475F00112CC
:104A780025971222FFFF909C69E06FFF909C6BE4E2
:104A8800F0A3EFF0909C6BE0FEA3E02454F5827451
:104A9800973EF583E0FF909C6AE06F909C69F090E8
:104AA8009C6BE0A3E02454F58274983EF583E09073
:104AB8009C6AF080A5909C69E0FEA3E0FDEEEDFF06
:104AC80022909C49EEF0A3EFF0909C49E0FEA3E011
:104AD8004E6065909C49E0A3E064014E7004124F5B
:104AE8004B22909C49E0FEA3E064024E604A909CF1
:104AF80049E0A3E064034E703FA3F0909C4BE0C3F1
:104B0800940674809480502DE025E025E0240BF570
:104B180082E4349CF58312252D909C4BE025E025FA
:104B2800E0242BF582E4349CF583122545909C4BB8
:104B3800E004F080C612519E22C0E0C0F0C083C0DD
:104B480082C0D075D000C000C004C006C007909CC9
:104B5800A9E4F0C2AFE59754016401703AE59FF00B
:104B6800E0FF9099D8E0FCA3E0245CF582749A3CBD
:104B7800F583EFF09099D8E475F001122369539703
:104B8800FE9099D8E0FEA3E0C39480EE940040071D
:104B98009099D8E4F0A3F043C901D2AFD007D0066A
:104BA800D004D000D0D0D082D083D0F0D0E032C0B2
:104BB800E0C0F0C083C082C0D075D000C000C0047F
:104BC800C006C007909CAAE4F0C2AFE5AB540164EC
:104BD80001703AE5ADF0E0FF9099DAE0FCA3E0243B
:104BE80054F58274993CF583EFF09099DAE475F006
:104BF8000112236953ABFE9099DAE0FEA3E0C39457
:104C080080EE940040079099DAE4F0A3F043C901DC
:104C1800D2AFD007D006D004D000D0D0D082D08375
:104C2800D0F0D0E0327BFF7A53797778457C9C7D51
:104C3800017E007F041222D97B017A9C7945909CE1
:104C480090E4F0A37404F07F207EA4122DF3909BCF
:104C5800A0E0FF7B017A9C7945124FA3EF600D120B
:104C6800515F909BA0E0909C07F080077F057E0035
:104C78001251187E007F047D007B017A9C794512D1
:104C880027B47B017A9C7945909CA4E4F0A3740432
:104C9800F07F207EA412306022909C49EEF0A3EFB2
:104CA800F0A3E4F0A3745AF0909C49E0FEA3E064FA
:104CB8000E4E7021909C49E0A3E0FEE42400FFEE34
:104CC80034A0FE7B017A9C794B909CA4E4F0A374F9
:104CD80002F0123060909C49E0FEA3E064184E7028
:104CE80021909C49E0A3E0FEE42400FFEE34A0FEFE
:104CF8007B017A9C794B909CA4E4F0A37402F01297
:104D0800306022909C45EEF0A3EFF0909C45E0A324
:104D1800E0FFA3E4F0A3EFF0909C45E0FEA3E0746D
:104D280020909C49EEF0A37420F0909C49E0FEA3EB
:104D3800E0FF7B017A9C7947909CA4E4F0A374027D
:104D4800F0123060909C47E4F0A3745AF0A3E0FEA0
:104D5800A3E02460FFE43EFE7B017A9C7947909CA7
:104D6800A4E4F0A37402F012306022909C7BEBF074
:104D7800A3EAF0A3E9F0E4909C83F0A3F0909C816F
:104D880074FFF5F012237F45F0603C909C7EE0FBB9
:104D9800A3E0FAA3E0F91222FFFF909C7BE0FBA3BB
:104DA800E0FAA3E0F9909C83E475F00112237F8573
:104DB800F082F583EF1227E0EF60C2909C7FE475E4
:104DC800F00112236980B6909C7BE0FBA3E0FAA374
:104DD800E0F922C0E0C083C082C0D075D000C00610
:104DE800C007909CA7E4F0C2AF309830E599F090E6
:104DF80096CFE0C3948074809480501E909CA7E066
:104E0800FF9096CFE0FE04F074D02EF582E434963D
:104E1800F583EFF09090307401F0C298309907C292
:104E2800999099D4E4F0D2AFD007D006D0D0D082F0
:104E3800D083D0E032909C49EEF0A3EFF0909C49EB
:104E4800E0FEA3E0D394D1EE94A45019909C49E0DD
:104E5800A3E025E0FFEE33FE74642FF58274523E22
:104E6800F583E0FF22909C49E0FEA3E0D394F3EEA3
:104E780094A45019909C49E0A3E025E0FFEE33FE8E
:104E880074442FF58274523EF583E0FF227F052299
:104E9800909C641225AE909C67EDF07B007A0079B7
:104EA80000C003C002C001909C6412258ED082D03D
:104EB80083D0E06B7008E965827003EA6583602936
:104EC800909C67E06023909C67E0FF14F0EF601906
:104ED800909C6412258E1222FFFF12525B909C65F3
:104EE800E475F00112236980DD22909C94EEF0A312
:104EF800EFF0E4F5F1909C94E0FEA3E0EEF5F2907B
:104F08009C94E0A3E0F5F3E4F5F4E4909C94F0A31A
:104F1800F0909C94E0FEA3E0C394E8EE9403500F55
:104F280085FCFB909C94E475F00112236980E2757E
:104F3800F8AF30FCFDD2FE20FEFDE4F5F8AFFAEF45
:104F480070C8227E007F087D007B017A9B7923123E
:104F580027B47B017A9B7923909CA4E4F0A374087E
:104F6800F07F007E30123060909B25E0FEA3E07851
:104F780003C333CE33CED8F92400FFEE3420FEE449
:104F8800FCFD909C8E122545909C92E4F0A374043D
:104F9800F07D007C307FA51249C922909C49EFF032
:104FA800A31225AE909C49E070037F0122909C4992
:104FB800E075F004A4242BF9749C35F0FA7B01C049
:104FC80003C002C001A312258EA801AC02AD03D014
:104FD80001D002D0037E007F04122790EF3395E0C2
:104FE8004F70037F01227F002212006E125294122A
:104FF80032CC12471FE50A30E01C430F01E50A30A6
:10500800E103430F02E50A30E203430F04530AFEAB
:10501800530AFD530AFB43C901123D7612376F123A
:105028001C03123B94E50F30E0CB530FFE530FFDEA
:10503800530FFB80C022909C45EEF0A3EFF0A3E451
:10504800F0A3745AF0909C45E0FEA3E0FF7B017A40
:105058009C7947909CA4E4F0A37402F0123060900D
:105068009C45E0FEA3E02460FFE43EFE7B017A9CC1
:105078007947909CA4E4F0A37402F0123060229067
:105088009C45EEF0A3EFF0909C45E0FEA3E02410D1
:10509800FFEE345B909B9EF0A3EFF0909C45E0A35D
:1050A800E0FF124E3D909BA0EFF0909CC9E0FEA35C
:1050B800E0FF909BA1EEF0A3EFF0909C087401F044
:1050C8007F047E0012511822909C47EEF0A3EFF067
:1050D800909C47E0FEA3E02460FFEE345B909C09BF
:1050E800F0A3EFF0909CC9E0FEA3E0FF909BA1EE37
:1050F800F0A3EFF0909C47E0FEA3E0FF124E3D9036
:105108009BA0EFF0E4909C08F07F04FE1251182257
:10511800909C5AEEF0A3EFF07BFF7A53795F785CAE
:105128007C9C7D017E007F041222D9909C5AE0FE6F
:10513800A3E0EE909C5EF0909C5AA3E0909C5FF0F8
:105148007B017A9C795C909CA4E4F0A37404F07FC2
:10515800847E0012306022909C08E01225B75170BE
:10516800005187010000519D909C09E0FEA3E0FFDB
:10517800125118909C09E0FEA3E0FF124CA1229066
:105188009B9EE0FEA3E0FF124AC9909BA1E0FEA30C
:10519800E0FF125118227B017A9C792B909CA4E4A1
:1051A800F0A37414F07F007E30123060909C8E1251
:1051B800255100003000909C92E4F0A3740AF07D21
:1051C800007C307FA51249C922E4909C45F0A3F0E9
:1051D800909CBFF0A3740BF0909C45E4F0A304F0FE
:1051E800FB7A9C7945909CA4E4F0A37402F07F2C90
:1051F8007EA012306022E49096CFF0909030F0FEBE
:105208007F80FD7B017A9679D01227B4E490902BA9
:10521800F0909750122551000000002243B7104328
:10522800C940E49099D4F075D88075985053877F19
:1052380075BA0375AA58D29CD2AC2275F90175B714
:105248000375BC03E4F5BD75BE0CF580F590F5A0BB
:10525800F5B022909C68EFF09099D4E0640160F872
:105268007401F0909C68E0F5992275C870E4F5CD5A
:10527800F5CC75CBFF75CAEF43A820D2C822438965
:1052880001758CBC758ACDD2A9D28C221251FE90A0
:10529800902C1225510000000022125286125272E0
:1052A80022000000000000000000000000000000D4
:1052B80000000000000000000000000000000000E6
:1052C80000000000000000000000000000000000D6
:1052D80000000000000000000000000000000000C6
:1052E80000000000000000000000000000000000B6
:1052F80000000000000000000000000000000000A6
:105308000000000000000000000000000000000095
:105318000000000000000000000000000000000085
:105328000000000000000000000000000000000075
:105338000000000000000000000000000000000065
:105348000000000000000000000000000000000055
:10535800000000000000005A0100000000000000EA
:105368000000000000000000000000000000000035
:0353780000000032
:00000001FF
