:1000000002474C020006C2AFD2AF32024186C2AFF5
:10001000D2AF3202000E909AD1E0FEA3E0FF124F61
:10002000A52232024C1D12002E223202005675F912
:1000300001E4F5A8F5B8F59AF5A9F5B9F580F590BC
:10004000F5A0F5B075B750F5BCF5BDF5BE22125060
:02005000B122DB
:06005300020022C2C632C9
:03005B000249EB6C
:0300630002002A6E
:10006B00024A61C2AF1200261250D012004E12513A
:07007B002F43C902D2AF229E
:100083000247ED909B75EEF0A3EFF0909B75E0FEB9
:10009300A3E08EF012250D00AAA00000B3A001007A
:1000A300D0A002000000EB909ACCE4F0A304F0226D
:1000B300909ACCE0FEA3E064014E7009909ACCF0D4
:1000C300A37403F022E4909ACCF0A3F022909ACC8C
:1000D300E0FEA3E064034E70077FAA7EA4124F5D87
:1000E300E4909ACCF0A3F022E4909ACCF0A3F0220F
:1000F800FFFF4457494E5435429BF90000429BEF9D
:100108000000489BF10069005A003C0015429BED35
:1001180000005A9A0C3FC900690046000086000A90
:100128002D2D203A3A000000000000000000005A7F
:100138009A263FCC01270046000086000A2D2D2F65
:100148003A3A000000000000000000005A9AB23F4E
:10015800D00212004600000212004602DA006400D3
:10016800100017181802000000603C9A7640004002
:10017800A04140401040B04150402040C041604044
:100188003040D04170404040E04180405040F04114
:10019800904060410041A04070411041B040804112
:1001A8002041C04090413041D0549A6241E041F82A
:1001B80042104228424042584270428842A042B807
:1001C800489A530000000000000000429A5B0000BB
:1001D800429A600000429A5D0000419A5F00419A8D
:1001E8005200429A400005498000B2E2CAD4BABA25
:1001F800D7D6006E60800949443030BBD8B7E7B81D
:10020800DFCEC20000000000000000000000000077
:100218000000000000000049443031BBD8B7E7B502
:10022800CDCEC20000000000000000000000000069
:100238000000000000000049443032BBD8B7E7B8DE
:10024800DFCAAA0000000000000000000000000053
:100258000000000000000049443033BBD8B7E7B8BD
:10026800DFCAAA0000000000000000000000000033
:100278000000000000000049443034CBCDB7E7B897
:10028800DFCEC200000000000000000000000000F7
:100298000000000000000049443035CBCDB7E7B579
:1002A800CDCEC200000000000000000000000000E9
:1002B8000000000000000049443036CBCDB7E7B855
:1002C800DFCAAA00000000000000000000000000D3
:1002D8000000000000000049443037CBCDB7E7B537
:1002E800CDCAAA00000000000000000000000000C5
:1002F8000000000000000049443038B1A3C1F400F8
:1003080000000000000000000000000000000000E5
:100318000000000000000049443039C4DAB2BFCD03
:10032800A8D0C50000000000000000000000000088
:1003380000000000000000494431304E5443D2EC24
:10034800B3A300000000000000000000000000004F
:100358000000000000000049443131B7E7BBFA3122
:10036800B9CAD5CF0000000000000000000000005E
:100378000000000000000049443132B7E7BBFA3200
:10038800B9CAD5CF0000000000000000000000003E
:100398000000000000000049443133B7E7BBFA33DE
:1003A800B9CAD5CF0000000000000000000000001E
:1003B8000000000000000049443134B7E7BBFA34BC
:1003C800B9CAD5CF000000000000000000000000FE
:1003D8000000000000000049443135B7E7BBFA359A
:1003E800B9CAD5CF000000000000000000000000DE
:1003F8000000000000000049443136CDE2B7E7BBF9
:10040800FAB9CAD5CF0000000000000000000000C3
:100418000000000000000049443137B7E7BBFA315B
:10042800D4CBD0D0B3ACCAB10000000000000000AB
:100438000000000000000049443138B7E7BBFA3239
:10044800D4CBD0D0B3ACCAB100000000000000008B
:100458000000000000000049443139B7E7BBFA3317
:10046800D4CBD0D0B3ACCAB100000000000000006B
:100478000000000000000049443230B7E7BBFA34FE
:10048800D4CBD0D0B3ACCAB100000000000000004B
:100498000000000000000049443231B7E7BBFA35DC
:1004A800D4CBD0D0B3ACCAB100000000000000002B
:1004B8000000000000000049443232CDE2B7E7BB3B
:1004C800FAD4CBD0D0B3ACCAB10000000000000011
:1004D8000000000000000049443233B8DFD1B931D0
:1004E800B8E6BEAF000000000000000000000000F9
:1004F8000000000000000049443234B8DFD1B931AF
:10050800CBF8CBC000000000000000000000000095
:100518000000000000000049443235B5CDD1B931A2
:10052800B8E6BEAF000000000000000000000000B8
:100538000000000000000049443236B5CDD1B93181
:10054800CBF8CBC000000000000000000000000055
:100558000000000000000049443237C5C5C6F8CE87
:10056800C2B6C831B8E6BEAF000000000000000007
:100578000000000000000049443238C5C5C6F8CE66
:10058800C2B6C831CBF8CBC00000000000000000A4
:100598000000000000000049443239B6CCD6DCC661
:1005A800DA31B8E6BEAF000000000000000000002D
:1005B8000000000000000049443330D1B9BBFA31D3
:1005C800D4CBD0D0B3ACCAB100000000000000000A
:1005D8000000000000000049443331B8DFD1B932CF
:1005E800B8E6BEAF000000000000000000000000F8
:1005F8000000000000000049443332B8DFD1B932AE
:10060800CBF8CBC000000000000000000000000094
:100618000000000000000049443333B5CDD1B9D102
:10062800B9C1A6B8E6BEAF00000000000000000097
:100638000000000000000049443334B5CDD1B93280
:10064800CBF8CBC000000000000000000000000054
:100658000000000000000049443335C5C5C6F8CE87
:10066800C2B6C832B8E6BEAF000000000000000005
:100678000000000000000049443336C5C5C6F8CE66
:10068800C2B6C832CBF8CBC00000000000000000A2
:100698000000000000000049443337B6CCD6DCC661
:1006A800DA32B8E6BEAF000000000000000000002B
:1006B8000000000000000049443338D1B9BBFA32C9
:1006C800D4CBD0D0B3ACCAB1000000000000000009
:1006D8000000000000000049443339BCD3CAAAC650
:1006E800F7B5E7C1F7B9FDB4F3000000000000005A
:1006F8000000000000000049443430BCD3CAAAC638
:10070800F7B8DFCBAECEBB00000000000000000051
:100718000000000000000049443431BCD3CAAAC616
:10072800F7C8B1CBAE0000000000000000000000D8
:100738000000000000000049443432BCD3CAAAC6F5
:10074800F7D4CBD0D0B3ACCAB10000000000000091
:100758000000000000000049443433BCD3C8C8C6B8
:10076800F7B8E6BEAF00000000000000000000007F
:100778000000000000000049443434BCD3C8C8C697
:10078800F731B3ACCAB1000000000000000000005F
:100798000000000000000049443435BCD3C8C8C676
:1007A800F732B3ACCAB1000000000000000000003E
:1007B8000000000000000049443436B6CFB5E7D643
:1007C800D8C6F4000000000000000000000000008F
:1007D8000000000000000049443437B5E7D4B4CF26
:1007E800E0D0F2B4EDCEF3000000000000000000FD
:1007F8000000000000000049443438B5E7D4B4C60E
:10080800B5C2CAC6ABB8DF00000000000000000097
:100818000000000000000049443439B5E7D4B4C6EC
:10082800B5C2CAC6ABB5CD0000000000000000008C
:10083800000000000000004944353041CFE0B9FD18
:10084800D1B9000000000000000000000000000016
:10085800000000000000004944353142CFE0B9FDF6
:10086800D1B90000000000000000000000000000F6
:10087800000000000000004944353243CFE0B9FDD4
:10088800D1B92000000000000000000000000000B6
:10089800000000000000004944353341CFE0C7B7ED
:1008A800D1B90000000000000000000000000000B6
:1008B800000000000000004944353442CFE0C7B7CB
:1008C800D1B9000000000000000000000000000096
:1008D800000000000000004944353543CFE0C7B7A9
:1008E800D1B9000000000000000000000000000076
:1008F800000000000000004944353641CFE0C8B18F
:10090800CFE0000000000000000000000000000030
:10091800000000000000004944353742CFE0C8B16C
:10092800CFE0000000000000000000000000000010
:10093800000000000000004944353843CFE0C8B14A
:10094800CFE00000000000000000000000000000F0
:100958000000000000000049443539C6F8C1F7B668
:10096800AACAA7B8E6BEAF00000000000000000059
:100978000000000000000049443630B9FDC2CBCD6C
:10098800F8D4CBD0D0B3ACCAB1000000000000004E
:100998000000000000000049443631B9FDC2CBCD4B
:1009A800F8B6C2B8E6BEAF000000000000000000C4
:1009B8000000000000000049443632D4B6B3CCB978
:1009C800D8BBFAB8E6BEAF00000000000000000087
:1009D8000000000000000049443633D2E7CBAEB82F
:1009E800E6BEAF00000000000000000000000000AC
:1009F8000000000000000049443634C8BABFD8CD12
:100A0800A8D0C5D2ECB3A30000000000000000008D
:100A18000000000000000049443635B1E4C6B5C600
:100A2800F7B9CAD5CF0000000000000000000000A0
:100A38000000000000000049443636D7A2CBAEB50E
:100A4800E7B5BCC2CAB8DF00000000000000000023
:100A58000000000000000049443637D7A2CBAEB5ED
:100A6800E7B5BCC2CAB5CD00000000000000000018
:100A78000000000000000049443638D1CCCEEDB863
:100A8800E6BEAF000000000000000000000000000B
:100A98000000000000000049443639D3C3BBA7D783
:100AA800D4B6A8D2E5B8E6BEAF000000000000004A
:100AB8000000000000000049443730B5E7D4B4D244
:100AC800ECB3A300000000000000000000000000DC
:100AD8000000000000000049443731C8EBCBAEB835
:100AE800DFCEC2000000000000000000000000008F
:100AF8000000000000000049443732CBAEB7A7B968
:100B0800CAD5CF000000000000000000000000006F
:100B18000000000000000049443733C5CCB9DCB6FA
:100B2800CFC1F7B8E6BEAF0000000000000000002B
:100B38000000000000000049443734B7E7BBFA362C
:100B4800B9CAD5CF00000000000000000000000076
:100B58000000000000000049443735B7E7BBFA370A
:100B6800B9CAD5CF00000000000000000000000056
:100B78000000000000000049443736B7E7BBFA38E8
:100B8800B9CAD5CF00000000000000000000000036
:100B98000000000000000049443737B7E7BBFA36C9
:100BA800B3ACCAB100000000000000000000000063
:100BB8000000000000000049443738B7E7BBFA37A7
:100BC800B3ACCAB100000000000000000000000043
:100BD8000000000000000049443739B7E7BBFA3885
:100BE800B3ACCAB100000000000000000000000023
:100BF8000000000000000049443830C5C5CBAEB83D
:100C0800DFCBAECEBB0000000000000000000000FB
:100C18000000000000000049443831BCD3CAAAC60D
:100C2800F7D2ECB3A30000000000000000000000B1
:100C38000000000000000049443832B7E7D1B9B9D4
:100C4800FDB5CD000000000000000000000000001D
:100C58000000000000000049443833BAECCDE2BC83
:100C6800D3CAAAB9FDC8C8000000000000000000EF
:100C78000000000000000049443834D1B9BBFA3103
:100C8800B8DFD1B90000000000000000000000003B
:100C98000000000000000049443835B7E7BBFAB54A
:100CA800E7C1F7B9FDB4F300000000000000000040
:100CB8000000000000000049443836B8A8C2B7C890
:100CC800EBCBAEB8DFCEC200000000000000000091
:100CD8000000000000000049443837454556B8E692
:100CE800BEAF00000000000000000000000000008F
:100CF8000000000000000049443838BDD3CBAEC521
:100D0800CCD2E7CBAE0000000000000000000000DD
:100D18000000000000000049443839C5C5C6F8B8CD
:100D2800DFCEC2000000000000000000000000004C
:100D38000000000000000049443930C9E8B1B8CAD1
:100D4800B9D3C3B3ACCAB100000000000000000072
:100D58000000000000000049443931B1A3C1F4008B
:100D6800000000000000000000000000000000007B
:100D78000000000000000049443932B1A3C1F4006A
:100D8800000000000000000000000000000000005B
:100D98000000000000000049443933B1A3C1F40049
:100DA800000000000000000000000000000000003B
:100DB8000000000000000049443934B1A3C1F40028
:100DC800000000000000000000000000000000001B
:100DD8000000000000000049443935B1A3C1F40007
:100DE80000000000000000000000000000000000FB
:100DF8000000000000000049443936B1A3C1F400E6
:100E080000000000000000000000000000000000DA
:100E18000000000000000049443937BBD8B7E7CECE
:100E2800C2CAAAB6C8B4ABB8D0C6F7000000000062
:100E38000000000000000049443938CBCDB7E7CEA8
:100E4800C2CAAAB6C8B4ABB8D0C6F7000000000042
:100E58000000000000000049443939BCD3CAAAB0D8
:100E6800E5D2ECB3A3000000000000000000000081
:100E7800000000000000004944313030C6C1C4BB46
:100E8800D2D1CBF8B6A80000000000000000000096
:100E9800000000000000004944313031D2BBCCECE6
:100EA800BDABCBF8B6A800000000000000000000B1
:100EB800000000000000004944313032C8FDCCEC8D
:100EC800BDABCBF8B6A80000000000000000000091
:100ED800000000000000004944313033C6DFCCEC8C
:100EE800BDABCBF8B6A80000000000000000000071
:100EF800000000000000004944313034CAAECEE59D
:100F0800CCECBDABCBF8B6A8000000000000000098
:100F1800000000000000004944313035C8FDCAAE69
:100F2800CCECBDABCBF8B6A8000000000000000078
:100F3800000000000000004944313036B5E7D4B461
:100F480032CFE0D0F2B4ED00000000000000000055
:100F5800000000000000004944313037B5E7D4B440
:100F680032C6B5C2CAB8DF000000000000000000A9
:100F7800000000000000004944313038B5E7D4B41F
:100F880032C6B5C2CAB5CD0000000000000000009E
:100F9800000000000000004944313039B5E7D4B4FE
:100FA8003241CFE0B9FDD1B90000000000000000D7
:100FB800000000000000004944313130B5E7D4B4E6
:100FC8003242CFE0B9FDD1B90000000000000000B6
:100FD800000000000000004944313131B5E7D4B4C5
:100FE8003243CFE0B9FDD1B9000000000000000095
:100FF800000000000000004944313132B5E7D4B4A4
:101008003241CFE0C7B7D1B90000000000000000AE
:10101800000000000000004944313133B5E7D4B482
:101028003242CFE0C7B7D1B900000000000000008D
:10103800000000000000004944313134B5E7D4B461
:101048003243CFE0C7B7D1B900000000000000006C
:101058000000000000000041990400419905004289
:1010680099060000429908000042990A0000429B34
:10107800DD0000429BDF0000429BDB0000449BE94F
:1010880000000000429BE10000449BE300000000D8
:1010980002080000040B00000000429BE70000016A
:1010A8000A006100968400C1814001C0804101C0EE
:1010B800804100C1814001C0804100C1814000C120
:1010C800814001C0804101C0804100C1814000C110
:1010D800814001C0804100C1814001C0804101C000
:1010E800804100C1814001C0804100C1814000C1F0
:1010F800814001C0804100C1814001C0804101C0E0
:10110800804100C1814000C1814001C0804101C0CF
:10111800804100C1814001C0804100C1814000C1BF
:10112800814001C0804101C0804100C1814000C1AF
:10113800814001C0804100C1814001C0804101C09F
:10114800804100C1814000C1814001C0804101C08F
:10115800804100C1814001C0804100C1814000C17F
:10116800814001C0804100C1814001C0804101C06F
:10117800804100C1814001C0804100C1814000C15F
:10118800814001C0804101C0804100C1814000C14F
:10119800814001C0804100C1814001C0804101C03F
:1011A800804100C181406100978400C0C101C30330
:1011B80002C2C60607C705C5C404CC0C0DCD0FCFA7
:1011C800CE0E0ACACB0BC90908C8D81819D91BDB17
:1011D800DA1A1EDEDF1FDD1D1CDC14D4D515D71767
:1011E80016D6D21213D311D1D010F03031F133F317
:1011F800F23236F6F737F53534F43CFCFD3DFF3F67
:101208003EFEFA3A3BFB39F9F83828E8E929EB2B96
:101218002AEAEE2E2FEF2DEDEC2CE42425E527E726
:10122800E62622E2E323E12120E0A06061A163A396
:10123800A26266A6A767A56564A46CACAD6DAF6F26
:101248006EAEAA6A6BAB69A9A86878B8B979BB7B96
:101258007ABABE7E7FBF7DBDBC7CB47475B577B7E6
:10126800B67672B2B373B17170B050909151935316
:10127800529296565797559594549C5C5D9D5F9FE6
:101288009E5E5A9A9B5B99595898884849894B8B16
:101298008A4A4E8E8F4F8D4D4C8C448485458747A6
:1012A800468682424383418180404195FF004190B8
:1012B8000800449680000000004190030044900418
:1012C8000000000065E890175A020301C8010000F9
:1012D800A020004B00FF5A020302C8010000A02111
:1012E80001F600FF5A020302C8010000A02301F919
:1012F80000FF5A020302C8010000A02501FF00FFF9
:101308005A020301C8010000A027006400FF5A0226
:101318000301C8010000A028006D00FF5A02030164
:10132800C8010000A029007200FF5A020601C80285
:10133800A08AA02A006E00FF5A020601C802A08BEC
:10134800A02B006F00FF5A020301C801000BAB205D
:10135800020100FF5A020301C801000BAB2102037E
:1013680000FF5A020301C801000BAB22020200FF72
:101378005A020303C801000BAB23020A00FF5A02FA
:101388000301C801000CAC2000AB00FF5A0203099E
:10139800C801000CAC2101F600FF5A020301C80184
:1013A800000CAC2A020600FF5A020304C801000C14
:1013B800AC2B021300FF5A020301C801000DAD2037
:1013C80001F600FF5A020301C801000DAD2101FB1F
:1013D80000FF5A020301C801000DAD22021700FFE9
:1013E8005A020301C801000DAD23021A00FF5A0278
:1013F8000305C803AE00AE200064000E5A020301C4
:10140800C803AE00AE250094000E5A020302C803BA
:10141800AE00AE2600A1000E5A020302C803AE00B9
:10142800AE2800B6000E5A020601C803AE80AE20F0
:101438000064000E5A020601C803AE81AE210065A1
:10144800000E5A020601C803AE82AE220066000EE4
:101458005A020601C803AE83AE230067000E5A0283
:101468000601C803AE84AE240068000E5A020601C5
:10147800C803AE85AE250094000E5A020601C803C3
:10148800AE86AE2600A1000E5A020601C803AE873A
:10149800AE2700A2000E5A020601C803AE88AE2885
:1014A80000B6000E5A020601C803AE89AE2900B77D
:1014B800000E5A020301C803AF00AF200048000F16
:1014C8005A020301C803AF00AF21004B000F5A02B4
:1014D8000302C803AF00AF220069000F5A020301DC
:1014E800C803AF00AF240072000F5A020303C803F9
:1014F800AF00AF250096000F5A020302C803AF00E1
:10150800AF28009E000F5A020601C803AF80AF2023
:101518000048000F5A020601C803AF81AF21004BF3
:10152800000F5A020601C803AF82AF220069000FFC
:101538005A020601C803AF83AF23006A000F5A029C
:101548000601C803AF84AF240072000F5A020601D7
:10155800C803AF85AF250096000F5A020601C803DD
:10156800AF86AF260097000F5A020601C803AF875F
:10157800AF270098000F5A020601C803AF88AF28AA
:10158800009E000F5A020601C803AF89AF29009FC9
:10159800000F5A020301C803B000B0200071001008
:1015A8005A020301C803B000B021007F00105A029C
:1015B8000301C803B000B022008100105A020302E0
:1015C800C803B000B023009B00105A020301C803EF
:1015D800B000B02500A000105A020302C803B000F2
:1015E800B02600B900105A020301C803B000B028A1
:1015F80000BD00105A020301C803B000B02900C2A0
:1016080000105A020601C803B080B0200071001013
:101618005A020601C803B081B021007F00105A02A7
:101628000601C803B082B022008100105A020601E8
:10163800C803B083B023009B00105A020601C803F8
:10164800B084B024009C00105A020601C803B0857B
:10165800B02500A000105A020601C803B086B026C3
:1016680000B900105A020601C803B087B02700BAB3
:1016780000105A020601C803B088B02800BD001047
:101688005A020601C803B089B02900C200105A02E4
:101698000302C803B100B120006B00115A02030213
:1016A800C803B100B122007400115A020301C80333
:1016B800B100B124007700115A020302C803B10037
:1016C800B12500A700115A020301C803B100B127D0
:1016D80000AA00115A020303C803B100B12800ACE4
:1016E80000115A020601C803B180B120006B001135
:1016F8005A020601C803B181B121006C00115A02D7
:101708000601C803B182B122007400115A02060111
:10171800C803B183B123007500115A020601C8033A
:10172800B184B124007700115A020601C803B185BB
:10173800B12500A700115A020601C803B186B126D7
:1017480000A800115A020601C803B187B12700AAF0
:1017580000115A020601C803B188B12800AC001173
:101768005A020601C803B189B12900AD00115A0215
:101778000601C803B18AB12A00AE00115A02060157
:10178800C803B380B320008200135A020302C801C1
:101798000013B321020800FF5A020301C801001315
:1017A800B323021100FF5A020301C8010013B32436
:1017B800020D00FF5A020308C803B400B420008BCE
:1017C80000145A020601C803B480B420008B001428
:1017D8005A020601C803B481B421008C00145A02CD
:1017E8000601C803B482B422008D00145A0206010F
:1017F800C803B483B423008E00145A020601C80338
:10180800B484B424008F00145A020601C803B485B6
:10181800B425009000145A020601C803B486B42601
:10182800009100145A020601C803B487B427009235
:1018380000145A020301C803B500B5200072001550
:101848005A020601C803B580B520007200155A0275
:101858000601C803B581B521008300155A020301AA
:10186800C803B800B821007800185A020302C8015A
:101878000018B82200A300185A020601C803B88449
:10188800B824007800185A020601C803B881B821A4
:10189800007900185A020601C803C080C0200083DE
:1018A80000205A020306C8010022C2A0032000FF3C
:1018B8004E90090000000000000000000000000039
:1018C80000418E6A0061988E6B5A0EAE20AE50AE03
:1018D800805A0EAE21AE51AE815A0EAE22AE52AE35
:1018E800825A0EAE23AE53AE835A0EAE24AE54AE19
:1018F800845A0EAE25AE55AE855A0EAE26AE56AEFD
:10190800865A0EAE27AE57AE875A0EAE28AE58AEE0
:10191800885A0EAE29AE59AE895A0FAF20AF50AFD4
:10192800805A0FAF21AF51AF815A0FAF22AF52AFDC
:10193800825A0FAF23AF53AF835A0FAF24AF54AFC0
:10194800845A0FAF25AF55AF855A0FAF26AF56AFA4
:10195800865A0FAF27AF57AF875A0FAF28AF58AF88
:10196800885A0FAF29AF59AF895A10B020B050B07C
:10197800805A10B021B051B0815A10B022B052B084
:10198800825A10B023B053B0835A10B024B054B068
:10199800845A10B025B055B0855A10B026B056B04C
:1019A800865A10B027B057B0875A10B028B058B030
:1019B800885A10B029B059B0895A11B120B150B124
:1019C800805A11B121B151B1815A11B122B152B12C
:1019D800825A11B123B153B1835A11B124B154B110
:1019E800845A11B125B155B1855A11B126B156B1F4
:1019F800865A11B127B157B1875A11B128B158B1D8
:101A0800885A11B129B159B1895A11B12AB15AB1BB
:101A18008A5A14B420B450B4805A14B421B451B4BE
:101A2800815A14B422B452B4825A14B423B453B4AD
:101A3800835A14B424B454B4845A14B425B455B491
:101A4800855A14B426B456B4865A14B427B457B475
:101A5800875A15B520B550B5805A18B821B851B86D
:101A680081418E6900589B5B000000000000000067
:101A7800000000000000000000000000000000005E
:101A8800589B3B000000000001B207000000020064
:101A9800027360000A2D080007ED65419B37FF605F
:101AA800649AD30000010002000300040005000648
:101AB800000700080009000A010B000C000D000EC9
:101AC800000F011000110012021300140015001677
:101AD800001700180019011A001B021C001D001E27
:101AE800001F0020002100220023002400250026DA
:101AF800022700280029002A002B002C002D002E88
:101B0800002F0330003100489B53000101030203FA
:101B18000305429B390000429AD10000429ACE0048
:101B280000419AD000429ACC000000AF0FEF131387
:101B3800543F540164016003022138909BF9E0FE90
:101B4800A3E064224E6003021EEA909BF9E0A3E042
:101B5800FF909A5BE0FCA3E06F7002EC6E601EE4FD
:101B6800909A60F0A3F07B017A9A7960909BD4F008
:101B7800A37402F07F017EC2122F5B80167B017A6C
:101B88009A7960909BC0E4F0A37402F07F017EC252
:101B9800122CEE7B017A9B7973909BC0E4F0A374BE
:101BA80010F07FA07EC2122CEEE4909B81F0A3E09F
:101BB8005407F07B017A9A794278737C9B7D017E89
:101BC800007F101226C0EF702F909A5DE0FEA3E010
:101BD800FF909A60E0FCA3E0B5071DECB5061990EC
:101BE8009BF9E0FEA3E0FF909A5BE0FCA3E06F7036
:101BF80002EC6E70030221287B017A9B797378428C
:101C08007C9A7D017E007F10122209E4909A5FF091
:101C1800909BA6F0909BA6E0C394087480948040A3
:101C280003021E92E4909BA5F0909BA5E0C394103C
:101C3800748094804003021E89A3E0C454F0FF908E
:101C48009BA5E02F909BAAF0E075F018A42400FF54
:101C5800E5F03435FE7B017A9B7973909BC0E4F004
:101C6800A37430F0122CEE7B017A9B7973909BA7BA
:101C78001224DE909BA5E0FF7E007401A80708806F
:101C880005C333CE33CED8F9FF909BA6E025E024D8
:101C980042F582E4349AF583E0FCA3E0FDEE5CFEB5
:101CA800EF5D4E7003021DE0909BA71224BE122226
:101CB800C5645A7004E5F064A57003021D7D909B0D
:101CC800A71224BE74A575F05A1223287B017A9BAB
:101CD8007987909BC0E4F0A37408F07F107E00120F
:101CE8002CEE7B017A9B798778757C9B7D017E0041
:101CF8007F031222097B017A9B798B78787C9B7D04
:101D0800017E007F031222097E007F087D007B018F
:101D18007A9B797B1226E4909BAAE0FF909B81E452
:101D2800F0A3EFF07B017A9B7983C002C001909BFE
:101D3800AA75F020A42409F9748035F0FA909BAEB6
:101D48001224DE909BB1E4F0A37420F0D001D002FD
:101D5800124BB5909BAAE075F018A42400FFE5F09B
:101D68003435FE7B017A9B7973909BD4E4F0A3749D
:101D780030F0122F5B909A60E0FEA3E0FF7C007DBC
:101D88000A122287909A5FE0C39FEC9E4041A3E02D
:101D9800FEA3E0FF122287EF240AFFE43EFE909A9A
:101DA8005FE0C39FEC9E5027909BAAE075F018A4B3
:101DB8002400FDE5F03435FC909A60E0A3E075F06E
:101DC8000AA4FF909A5FE0C39FFF7B2212405190C4
:101DD8009A5FE004F0021E80909BA71224BE122294
:101DE800C5645A7004E5F064A56003021E807B0197
:101DF8007A9B7987909BC0F0A37408F07F107E00CF
:101E0800122CEE7B017A9B7987787B7C9B7D017E07
:101E1800007F031222097B017A9B798B787E7C9B59
:101E28007D017E007F03122209909BAAE0FF909B10
:101E380081E4F0A3EFF07B017A9B7973909BD4E463
:101E4800F0A37410F07F007E30122F5B1244E7E499
:101E5800909B73F0A3F0909BAAE075F018A424005F
:101E6800FFE5F03435FE7B017A9B7973909BD4E4CF
:101E7800F0A37402F0122F5B909BA5E004F0021C03
:101E880031909BA6E004F0021C1C909A5FE0909BA6
:101E9800A5F0909A60E0FEA3E0FF7C007D0A122284
:101EA80087EF240AFFE43EFE909BA5E0C39FEC9ECB
:101EB800501D909A60E0A3E075F00AA4FF909BA5DE
:101EC800E0C39FFF123F12909BA5E004F080C390EF
:101ED8009A60E0FEA3E0FF909A5DEEF0A3EFF002B7
:101EE8002128909BF9E0FEA3E064234E60030221C1
:101EF80028909BF9E0A3E0FF909A5BE0FCA3E06FD9
:101F08007002EC6E601EE4909A60F0A3F07B017A98
:101F18009A7960909BD4F0A37402F07F017EC2127C
:101F28002F5B80347B017A9A7960909BC0E4F0A3A0
:101F38007402F07F017EC2122CEE909A5DE0FEA33F
:101F4800E0FF909A60E0FCA3E06F7002EC6E700313
:101F58000221288003022128909A60E0FEA3E0FF76
:101F6800909A5DEEF0A3EFF0E4A3F0909A5FE0C3DF
:101F7800940A74809480400302210EA3E0FEA3E03B
:101F8800FF7C007D0A122287909A5FE02FFFEC3ECB
:101F9800FE909A59E0FCA3E0FDC3EF9DEE9C400340
:101FA80002210E909A60E0FEA3E0FF7C007D0A12F9
:101FB8002287909A5FE02FFFEC3EFE909A55E0FC56
:101FC800A3E0D39FEC9E4032909A60E0FEA3E0FF2E
:101FD8007C00122287909A5FE02FFFEC3EFEEF24F0
:101FE80001FFE43EFE909A55E0FCA3E0C39FFFEC9E
:101FF8009E909BA7F0A3EFF0803A909A60E0FEA332
:10200800E0FF7C007D0A122287909A5FE02FFFECA8
:102018003EFEEF2401FFE43EFE909A55E0FCA3E06B
:102028002400FDEC3402FCC3ED9FFFEC9E909BA7BF
:10203800F0A3EFF0909BA7E0FEA3E07803C333CEB4
:1020480033CED8F92400FFEE3420FEE4FCFD909B4B
:10205800BE122475909BC2E4F0A37408F07D007C46
:10206800307F5A1248737B017A9B7973909BC0E446
:10207800F0A37410F07F007E30122CEE7B017A9B67
:102088007983C003C002C001909B81E0FEA3E07881
:1020980005C333CE33CED8F92409F974803EFA7BD0
:1020A80001909BAE1224DE909BB1E4F0A37420F063
:1020B800D001D002D003124BB5909A5FE025E024FE
:1020C80062F582E4349AF583E0FEA3E0FF7B017AAF
:1020D8009B7973909BD4E4F0A37430F0122F5B903B
:1020E8009A5FE025E02462F582E4349AF583E0FC07
:1020F800A3E0FD909A5FE0FF7B23124051909A5F26
:10210800E004F0021F73909A5FE0C3940A7480940D
:1021180080500DE0FF123F12909A5FE004F080E6D5
:10212800909BF9E0FEA3E0FF909A5BEEF0A3EFF03E
:1021380022E709F608DFFA8046E709F208DFFA80A5
:102148003E88828C83E709F0A3DFFA8032E309F640
:1021580008DFFA8078E309F208DFFA807088828C59
:1021680083E309F0A3DFFA806489828A83E0A3F617
:1021780008DFFA805889828A83E0A3F208DFFA80B0
:102188004C80D280FA80C680D4806980F280338007
:102198001080A680EA809A80A880DA80E280CA80CF
:1021A8003389828A83ECFAE493A3C8C582C8CCC574
:1021B80083CCF0A3C8C582C8CCC583CCDFE9DEE7F1
:1021C800800D89828A83E493A3F608DFF9ECFAA9E3
:1021D800F0EDFB2289828A83ECFAE0A3C8C582C8A5
:1021E800CCC583CCF0A3C8C582C8CCC583CCDFEAF4
:1021F800DEE880DB89828A83E493A3F208DFF98032
:10220800CC88F0EF60010E4E60C388F0ED2402B474
:10221800040050B9F582EB2402B4040050AF232324
:1022280045822390218973BB010689828A83E02233
:102238005002E722BBFE02E32289828A83E49322CA
:10224800BB010CE58229F582E5833AF583E022504B
:1022580006E92582F8E622BBFE06E92582F8E22295
:10226800E58229F582E5833AF583E49322BB0106EA
:1022780089828A83F0225002F722BBFE01F322EF03
:102288008DF0A4A8F0CF8CF0A428CE8DF0A42EFE5B
:1022980022C5F0F8A3E028F0C5F0F8E582158270B1
:1022A800021583E038F022A3F8E0C5F025F0F0E548
:1022B80082158270021583E0C838F0E822BB010A53
:1022C80089828A83E0F5F0A3E022500687F009E7C7
:1022D8001922BBFE07E3F5F009E3192289828A83F4
:1022E800E493F5F074019322BB0110E58229F5828D
:1022F800E5833AF583E0F5F0A3E0225009E9258269
:10230800F886F008E622BBFE0AE92582F8E2F5F035
:1023180008E222E5832AF583E993F5F0A3E99322FD
:10232800BB010A89828A83F0E5F0A3F0225006F700
:1023380009A7F01922BBFE06F3E5F009F31922EF0D
:102348002BFFEE3AFEED39FDEC38FC2275F00875EE
:102358008200EF2FFFEE33FECD33CDCC33CCC582D8
:1023680033C5829BED9AEC99E58298400CF582EE94
:102378009BFEED9AFDEC99FC0FD5F0D6E4CEFBE47C
:10238800CDFAE4CCF9A88222B800C1B90059BA0044
:102398002DEC8BF084CFCECDFCE5F0CBF97818EF9F
:1023A8002FFFEE33FEED33FDEC33FCEB33FB10D7A0
:1023B80003994004EB99FB0FD8E5E4F9FA22781861
:1023C800EF2FFFEE33FEED33FDEC33FCC933C910BC
:1023D800D7059BE99A4007EC9BFCE99AF90FD8E0EE
:1023E800E4C9FAE4CCFB2275F010EF2FFFEE33FEC0
:1023F800ED33FDCC33CCC833C810D7079BEC9AE833
:1024080099400AED9BFDEC9AFCE899F80FD5F0DAB3
:10241800E4CDFBE4CCFAE4C8F922EB9FF5F0EA9EA0
:1024280042F0E99D42F0EC6480C864809845F0224F
:10243800EB9FF5F0EA9E42F0E99D42F0E89C45F0FA
:1024480022E86010ECA2E713FCED13FDEE13FEEF9B
:1024580013FFD8F022E0FCA3E0FDA3E0FEA3E0FF19
:1024680022E0F8A3E0F9A3E0FAA3E0FB22ECF0A352
:10247800EDF0A3EEF0A3EFF022A8828583F0D083DD
:10248800D082122498122498122498122498E47363
:10249800E493A3C583C5F0C583C8C582C8F0A3C5A6
:1024A80083C5F0C583C8C582C822A42582F582E504
:1024B800F03583F58322E0FBA3E0FAA3E0F922F8E4
:1024C800E0FBA3A3E0F925F0F0E582158270021580
:1024D80083E0FA38F022EBF0A3EAF0A3E9F022D087
:1024E80083D082F8E4937012740193700DA3A393C0
:1024F800F8740193F5828883E4737402936860EF3B
:10250800A3A3A380DFD083D082F8E4937012740170
:1025180093700DA3A393F8740193F5828883E473F1
:10252800740293B5F0067403936860E9A3A3A3A3A8
:1025380080D8E3F5F009E208B5F06BDFF58067E3D2
:10254800F5F009E608B5F05EDFF5805A87F009E690
:1025580008B5F052DFF6804E87F009E208B5F0467C
:10256800DFF6804288828C8387F009E0A3B5F036D5
:10257800DFF6803288828C8387F009E493A3B5F074
:1025880025DFF5802188828C83E3F5F009E0A3B587
:10259800F014DFF5801088828C83E3F5F009E4936A
:1025A800A3B5F002DFF4022669808780E980908075
:1025B800D4803E8015806E807E809D80B7808D801F
:1025C800A380518074803C02267589828A83ECFA44
:1025D800E493F5F0A3C8C582C8CCC583CCE493A323
:1025E800C8C582C8CCC583CCB5F076DFE3DEE18010
:1025F8007089828A83E493F5F0A3E208B5F062DF7C
:10260800F4805E89828A83E0F5F0A3E608B5F0518C
:10261800DFF5804D89828A83E0F5F0A3E208B5F002
:1026280040DFF5803C89828A83E493F5F0A3E608CD
:10263800B5F02EDFF4802A8002805789828A83ECE5
:10264800FAE493F5F0A3C8C582C8CCC583CCE0A34F
:10265800C8C582C8CCC583CCB5F006DFE4DEE2800D
:10266800007FFFB5F0020F2240027F012289828A93
:1026780083ECFAE0F5F0A3C8C582C8CCC583CCE0EA
:10268800A3C8C582C8CCC583CCB5F0D5DFE5DEE3E9
:1026980080CF89828A83ECFAE0F5F0A3C8C582C8A6
:1026A800CCC583CCE493A3C8C582C8CCC583CCB5BC
:1026B800F0AFDFE4DEE280A988F0EF60010E4E6043
:1026C800ABED2402B404005098F582EB2402B40464
:1026D80000508E23234582239025B173EF4E60125C
:1026E800EF60010EEDBB010B89828A83F0A3DFFC4A
:1026F800DEFA2289F05007F709DFFCA9F022BBFEB9
:10270800FCF309DFFCA9F022F8BB010DE58229F5ED
:1027180082E5833AF583E8F0225006E92582C8F677
:1027280022BBFE05E92582C8F2227BFF7A5179F0A7
:10273800788F7C9B7D017E007F0C122209E4909BA0
:102748009DF07B017A9B797B909BC0F0A3740AF083
:102758007F207EA0122CEE909B7FE0A3E020E36A0E
:10276800909B85E4F0A304F0909B7BE0A3E030E627
:102778003B909B7FE0A3E020E628909B85E4F0A3B4
:102788007402F0909B7FE0A3E020E40B909B85E42B
:10279800F0A37403F0803A909B85E4F0A37402F0F0
:1027A800802F909B85E4F0A304F08025909B7FE028
:1027B800A3E020E40B909B85E4F0A37403F0801160
:1027C800909B85E4F0A304F08007E4909B85F0A338
:1027D800F07B017A9B7985909BD4E4F0A37402F096
:1027E80074A0FFFE122F5B909B81E0FEA3E0EE3009
:1027F800E61E909B81A3E0EE30E70B909B85E4F00A
:10280800A37406F0805D909B85E4F0A304F08053E8
:10281800909B81E0FEA3E0EE30E70B909B85E4F00F
:10282800A37402F0803D909B83E0A3E030E009A30D
:10283800E4F0A37403F0802B909B83E0A3E030E1E5
:1028480009A3E4F0A37404F08019909B83E0A3E04B
:1028580030E209A3E4F0A37405F08007E4909B85B7
:10286800F0A3F07B017A9B7985909BD4E4F0A37464
:1028780002F07FA17EA0122F5B909B81E0FEA3E077
:10288800FFEE541F909B81F0A3EFF0E4909B9BF028
:10289800909B9BE0C3940274809480400302294378
:1028A800E4A3F0909B9CE0C39410748094805075CE
:1028B800E0FF7E007401A807088005C333CE33CE3D
:1028C800D8F9FF909B9BE025E02481F582E4349BB6
:1028D800F583E0FCA3E0FDEE5CFEEF5D4E6030901A
:1028E8009B9CE02401FDE433FC909B9BE075F01079
:1028F800A42DFFE5F03CFE909B9DE0FD04F0ED2546
:10290800E0248FF582E4349BF583EEF0A3EFF0909A
:102918009B9DE0C39406748094805009909B9CE032
:1029280004F00228AB909B9DE0C3940674809480C9
:102938005009909B9BE004F00228987B017A9B79D0
:102948008F909BD4E4F0A3740AF07FA27EA0122F8C
:102958005B7B017A9B7987909BC0E4F0A37406F0B7
:102968007F277EA0122CEE909B89E0FEA3E06401F5
:102978004E7008909B8DF0A3F08026909B89E0FE16
:10298800A3E04E701C909B7DE0A3E020E20A909BA0
:102998008DE4F0A304F08009909B8DE4F0A3740209
:1029A800F0909B7FE0A3E030E31D909B87E0FEA3BF
:1029B800E04E700A909B8DF0A37404F08009909B00
:1029C8008DE4F0A37403F0909B8BE0FEA3E0640118
:1029D8004E7008A3F0A37405F0803A909B8BE0FE3C
:1029E800A3E064024E7008A3F0A37406F08026905A
:1029F8009B8BE0FEA3E064034E7008A3F0A374076A
:102A0800F08012909B8BE0FEA3E064044E7006A356
:102A1800F0A37408F07B017A9B798D909BD4E4F045
:102A2800A37402F07FA77EA0122F5B22909B7812DE
:102A380024DE909B7BECF0A3EDF0E4A3F0A3F090F0
:102A48009B7BE0FEA3E0FFA3E0FCA3E0C39FEC9E1A
:102A5800500C909B7DE475F00112229980E1909BC7
:102A68007BE0FEA3E0C39405EE94005003022CED36
:102A7800E4A3F0A3F0909B781224BE909B7DE0FE27
:102A8800A3E0F5828E8312224864026003022CC7F9
:102A9800909B781224BE909B7DE0A3E029F9EA3E42
:102AA800FA9000011222481224E72ABC032C1006CF
:102AB80000002CC7909B781224BE909B7DE0FEA35B
:102AC800E029F9EA3EFA900002122248FF909B8121
:102AD800E4F0A3EFF0909B7DE0A3E0FF909B81E002
:102AE800FCA3E02FFFEC3EFEEF2405FFE43EFE9042
:102AF8009B7BE0FCA3E0FDD3EF9DEE9C4011909BF7
:102B08007BE0FEA3E0FFA3EEF0A3EFF0022CC7905A
:102B18009B781224BE909B7DE0FEA3E029F9EA3E53
:102B2800FA909B81E0FEA3E02403FDE43EFC1248FA
:102B3800F8909B7FEEF0A3EFF0909B781224BE9064
:102B48009B7DE0FEA3E029F9EA3EFA909B81E0FE36
:102B5800A3E029F9EA3EFA900003122248FD909B6F
:102B68007FE0FEA3E0EE6D7001E46003022CC790E5
:102B78009B781224BE909B7DE0FEA3E029F9EA3EF3
:102B8800FA909B81E0FEA3E029F9EA3EFA9000045E
:102B9800122248FF909B7FE0A3E06F7001E460037E
:102BA800022CC7909011E0FEA3E0FF909B781224BE
:102BB800BEE92403F9E43AFAC003C002C001909BBD
:102BC800781224BE900002122248FD909BD4E4F0B3
:102BD800A3EDF0D001D002D003122F5B7E007F0E50
:102BE8007D007B017A9079091226E4909B81E0FEB2
:102BF800A3E02405FFE43E909B7DF0A3EFF0908EC8
:102C080069E04402F0022CC7909B7DE0FEA3E0241B
:102C180008FFE43EFE909B7BE0FCA3E0FDD3EF9D24
:102C2800EE9C4011909B7BE0FEA3E0FFA3EEF0A397
:102C3800EFF0022CC7909B781224BE909B7DE0FE9B
:102C4800A3E029F9EA3EFA7D067C001248F8909B39
:102C58007FEEF0A3EFF0909B781224BE909B7DE06E
:102C6800FEA3E029F9EA3EFA900006122248FD90F8
:102C78009B7FE0FEA3E0EE6D7001E47042909B78CC
:102C88001224BE909B7DE0FEA3E029F9EA3EFA906B
:102C98000007122248FF909B7FE0A3E0B50720E4DD
:102CA800909B7D75F0081222997E007F0E7D007B37
:102CB800017A9079091226E4908E69E04402F09036
:102CC8009B7DE475F001122299909B7BE0FEA3E0C6
:102CD80024FBFFEE34FFFEA3E0FCA3E0C39FEC9EC1
:102CE8005003022A7D22909BBBEEF0A3EFF0A312C3
:102CF80024DE7B007A007900C003C002C001909BEB
:102D0800BD1224BED082D083D0E06B7008E9658202
:102D18007003EA65837003022F5A909BC0E0FEA3FC
:102D2800E04E7003022F5A909BC0E0A3E0FFEEC371
:102D380013FEEF13FF909BBBE0FCA3E02FFFEE3CDC
:102D4800FED3EF94FEEE94FF4003022F5AC2AF90D9
:102D58009BBBE0A3E05401909BC2F0909BBBE0FEBC
:102D6800A3E0FFEEC313FEEF13FF909BBBEEF0A3AF
:102D7800EFF0909BBBE0FEA3E07810CEC313CE1318
:102D8800D8F9F5F1909BBBE0FEA3E0EEF5F2909B3D
:102D9800BBE0A3E0F5F3E4F5F875F401D2FF30FCED
:102DA800FDD2FD909BC2E064017072909BC0E0FE72
:102DB800A3E064014E700AC2FBC2FAD2F9C2F880DD
:102DC80008C2FBC2FAD2F9D2F8D2FE20FEFD909BCF
:102DD800C0E0FEA3E064014E701A909BBD75F0013F
:102DE8001224C7E5FC122275909BC074FFF5F012FF
:102DF80022998029909BBDE475F0011224C7E5FC57
:102E0800122275909BBDE475F0011224C7E5FD12EE
:102E18002275909BC074FF75F0FE122299909BC09A
:102E2800E0FEA3E04E7003022F55909BC0E0A3E0A4
:102E3800C39404EE94004003022EFE909BC0E0A3CE
:102E4800E08EF012250D2E7200012E6800022E5E13
:102E5800000300002E7AD2FBD2FAD2F9C2F880120F
:102E6800D2FBD2FAC2F9C2F88008D2FBC2FAC2F980
:102E7800C2F8D2FE20FEFD909BC0E0FEA3E08EF0DB
:102E880012250D2EEB00012ECB00022E9B00030015
:102E9800002F55909BBDE475F0011224C7E5FA1286
:102EA8002275909BBDE475F0011224C7E5FB122240
:102EB80075909BBDE475F0011224C7E5FC122275DC
:102EC800022F55909BBDE475F0011224C7E5FA1254
:102ED8002275909BBDE475F0011224C7E5FB122210
:102EE80075806A909BBDE475F0011224C7E5FA125B
:102EF800227580598057D2FBD2FAD2F9D2F8D2FE85
:102F080020FEFD909BBDE475F0011224C7E5FA127E
:102F18002275909BBDE475F0011224C7E5FB1222CF
:102F280075909BBDE475F0011224C7E5FC1222756B
:102F3800909BBDE475F0011224C7E5FD122275903F
:102F48009BC074FF75F0FC122299022E25E4F5F857
:102F5800D2AF22909BCFEEF0A3EFF0A31224DE7B3A
:102F6800007A007900C003C002C001909BD11224EE
:102F7800BED082D083D0E06B7008E965827003EA26
:102F8800658370030231C6909BD4E0FEA3E04E70C7
:102F9800030231C6909BD4E0A3E0FFEEC313FEEF1B
:102FA80013FF909BCFE0FCA3E02FFFEE3CFED3EF96
:102FB80094FEEE94FF40030231C6C2AF909BCFE06F
:102FC800A3E05401909BD6F0909BCFE0FEA3E0FFD6
:102FD800EEC313FEEF13FF909BCFEEF0A3EFF0903C
:102FE8009BCFE0FEA3E07810CEC313CE13D8F9F53B
:102FF800F1909BCFE0FEA3E0EEF5F2909BCFE0A32B
:10300800E0F5F3E4F5F875F401D2FF30FCFDC2FDFC
:10301800909BD6E064017072909BD4E0FEA3E064BC
:10302800014E700AC2FBC2FAD2F9C2F88008C2FB8C
:10303800C2FAD2F9D2F8909BD4E0FEA3E064014E24
:10304800701A909BD175F0011224C712222FF5FC3B
:10305800909BD474FFF5F01222998029909BD1E4BB
:1030680075F0011224C712222FF5FC909BD1E4754C
:10307800F0011224C712222FF5FD909BD474FF751E
:10308800F0FE122299D2FE20FEFD909BD4E0FEA312
:10309800E04E70030231C1909BD4E0A3E0C39404D6
:1030A800EE9400400302316A909BD4E0A3E08EF0D6
:1030B80012250D30DF000130D5000230CB000300AF
:1030C8000030E7D2FBD2FAD2F9C2F88012D2FBD292
:1030D800FAC2F9C2F88008D2FBC2FAC2F9C2F89063
:1030E8009BD4E0FEA3E08EF012250D315200013191
:1030F8003200023103000300003161909BD1E47576
:10310800F0011224C712222FF5FA909BD1E475F032
:10311800011224C712222FF5FB909BD1E475F00110
:103128001224C712222FF5FC802F909BD1E475F052
:10313800011224C712222FF5FA909BD1E475F001F1
:103148001224C712222FF5FB800F909BD1E475F053
:10315800011224C712222FF5FAD2FE30FE5B80FB43
:103168008057D2FBD2FAD2F9D2F8909BD1E475F00D
:10317800011224C712222FF5FA909BD1E475F001B1
:103188001224C712222FF5FB909BD1E475F001128F
:1031980024C712222FF5FC909BD1E475F00112246C
:1031A800C712222FF5FDD2FE20FEFD909BD474FF9E
:1031B80075F0FC122299023092E4F5F8D2AF227B26
:1031C800FF7A51793678737C9B7D017E007F2012CF
:1031D80022097B017A9B7973909B951224DE909B40
:1031E800981224DEE4909B93F0A3F0909B93E0FE6A
:1031F800A3E0C3EE94024003023290909B93E0A3B5
:10320800E07803C333CE33CED8F92400FFEE342060
:10321800FEE4FCFD909BBE122475909BC2E4F0A3D3
:103228007408F07D007C307F5A1248737B017A9BCA
:103238007973909BC0E4F0A37410F07F007E301285
:103248002CEE909B951224BE1222C5645A7004E598
:10325800F064A56026909B981224BE1222C5B4A5DE
:1032680027E5F0B45A22909B981224BE78537C9A92
:103278007D017E007F08122209800D909B93E475E2
:10328800F0011222990231F3E4909B93F0A3F0909D
:103298009B93E0FEA3E0C3940AEE9400400302343B
:1032A800227BFF7A517956789B7C9B7D017E007F3B
:1032B800201222097B017A9A790C789B7C9B7D01EC
:1032C8007E007F1A122209909B93E0FEA3E0FF7C08
:1032D800007D24122287EF2446FFE43E909B9FF056
:1032E800A3EFF0909BA47401F0909B93E0FEA3E001
:1032F800909A7675F0061224B2EE75F006A425832E
:10330800F583E0FEA3E0FF7B017A9B799B909BD439
:10331800E4F0A37420F0122F5B7B017A9A79267867
:103328009B7C9B7D017E007F1A122209909B93E073
:10333800FEA3E0FF7C007D24122287EF2446FFE4F1
:103348003E909B9FF0A3EFF0909BA47401F0909B9C
:1033580093E0FEA3E0909A7875F0061224B2EE7519
:10336800F006A42583F583E0FEA3E0FF7B017A9BAA
:10337800799B909BD4E4F0A37420F0122F5B7B011F
:103388007A9A79B2789B7C9B7D017E007F1A122203
:1033980009909B93E0FEA3E0FF7C007D2412228726
:1033A800EF2446FFE43E909B9FF0A3EFF0909B93A1
:1033B800E0FEA3E0FF122287EF2446FFE43E909B45
:1033C800A5F0A3EFF0909B93E0FEA3E0FF12228705
:1033D800EF2464FFE43E909BA9F0A3EFF0909B9349
:1033E800E0FEA3E0909A7A75F0061224B2EE75F02A
:1033F80006A42583F583E0FEA3E0FF7B017A9B7991
:103408009B909BD4E4F0A37420F0122F5B909B93C5
:10341800E475F00112229902329722909B781224C7
:10342800DE909B781224BE12222F909B7BF0909BFB
:103438007BE0C3946C74809480400302365AE07534
:10344800F00E9090171224B2E0645A6003023651CD
:10345800909B7BE075F00E90901A1224B2E07003F6
:10346800023651909B7BE075F00E90901C1224B2AE
:10347800E0700302365A909B7BE075F00E90901C2A
:103488001224B2E064017029909B7BE075F00E90E5
:10349800901D1224B2E0FEA3E0FF909BF9E0FCA38C
:1034A800E06F7002EC6E600302365102365A023643
:1034B80051909B7BE075F00E90901C1224B2E06452
:1034C800026003023576909B7BE075F00E90901DAC
:1034D8001224B2E0FEA3E0FF7B017A9B797C909BEB
:1034E800C0E4F0A37402F0122CEE909B7CE0A3E001
:1034F800645A6003023651909B7BE0C3946B7480DE
:103508009480503CE075F00E90902A1224B2E0644A
:1035180002702D909B7BE075F00E90902B1224B2D8
:10352800E0FEA3E0FF909B7BE075F00E90901D12EB
:1035380024B2E0FCA3E06F7002EC6E700302365A0E
:10354800E4909B7CF0A3F0909B7BE075F00E90904C
:103558001D1224B2E0FEA3E0FF7B017A9B797C90E8
:103568009BD4E4F0A37402F0122F5B02365A909BAE
:103578007BE075F00E90901C1224B2E064036003A7
:10358800023651909B7BE075F00E9090231224B286
:10359800E0FEA3E0FF909BF9E0FCA3E0FDEF6D7077
:1035A80002EE6C6003023651909B7BE075F00E9042
:1035B800901D1224B2E0FEA3E0FF7B017A9B797C88
:1035C800909BC0E4F0A37402F0122CEE909B7CE078
:1035D800A3E0645A7073909B7BE0C3946B748094EF
:1035E800805039E075F00E90902A1224B2E06403FE
:1035F800702A909B7BE075F00E90902B1224B2E01D
:10360800FEA3E0FF909B7BE075F00E90901D1224C6
:10361800B2E0FCA3E06F7002EC6E6036E4909B7C35
:10362800F0A3F0909B7BE075F00E90901D1224B2F1
:10363800E0FEA3E0FF7B017A9B797C909BD4E4F0C9
:10364800A37402F0122F5B8009909B7BE004F002C8
:103658003436909B7BE0FF909B781224BEEF1222B9
:103668007522E50F30E0167B017A9B79F9909BC0B3
:10367800E4F0A37402F07F147E00122CEEE50F2014
:10368800E203023895909BF9E0FEA3E04E70031226
:103698002732909BF9E0FEA3E064184E60030237DE
:1036A800377B017A9B7973909BC0F0A37402F07FFB
:1036B800207EB8122CEE909B73E0FEA3E04E606F64
:1036C800909B73E0A3E0D39404EE94005061909B28
:1036D80073E0A3E025E0FFEE33FE74EF2FF9749B4F
:1036E8003EFA7B01909BD4E4F0A37402F07F247E21
:1036F800B8122F5B909B73E4F0A3745AF07B017AA5
:103708009B7973909BD4E4F0A37402F07F847EB815
:10371800122F5BE4909B73F0A3F07B017A9B797383
:10372800909BD4F0A37402F07F207EB8122F5B9098
:103738009BF9E0FEA3E0642C4E60030237CB7B01CB
:103748007A9B7979909BC0F0A37402F07FA07ECC1D
:10375800122CEE909B79E0FEA3E0FFEEC4F854F043
:10376800C868FEEFC4540F48EE540F909B73F0A343
:10377800E4F0909B73E0FCA3E0FD909B79E0FEA34E
:10378800E07807CEC313CE13D8F9541FFFECFEED33
:103798004FFF909B73EEF0A3EFF0909B79E0A3E0CE
:1037A800547F909B75F0A3E4F004A3F0A3F0FB7A98
:1037B8009B7973909BD4E4F0A37406F07F207ECCB1
:1037C800122F5B7B017A9B7973909BC0E4F0A37402
:1037D80002F07F167E00122CEE909B73E0FEA3E0B1
:1037E8004E6025E4909B73F0A3F07B017A9B79737C
:1037F800909BD4F0A37402F07F167E00122F5BE436
:10380800909BEDF0A3F08033909BEDE0FEA3E0C326
:103818009458EE9402500C909BEDE475F00112223E
:10382800998018909BEDE0FEA3E0B4580EEEB40228
:103838000A909BEDE475F001122299909BEFE0FE4F
:10384800A3E0D39401EE9400400B909BEF74FFF536
:10385800F012229922909BEFE0FEA3E064014E70E3
:103868002C909B73F0A3F0909BEF74FFF5F012225D
:1038780099E4909B73F0A3F07B017A9B7973909BFA
:10388800D4F0A37402F07F2C7EA0122F5B22E49068
:103898009B73F0A3F0E50F20E003023A6B7B017AFB
:1038A8009B7973909BC0E4F0A37402F07F147E5060
:1038B800122CEE909B73E0FEA3E04E7003023A6B6D
:1038C800909B73E0A3E08EF012250D3A18A0003A01
:1038D80018A0013A18A0023A25A0033A25A0043AF4
:1038E80032A00539EFA40039F4A40139F9A4A039AC
:1038F800F9A4A139F9A4A239F9A4A339F9A4A439DE
:10390800F9A4A539F9A4A639F9A4A739F9A4A839BD
:10391800F9A4A939F9A4AA39F9A4AB39F9A4AC399D
:10392800F9A4AD39F9A4AE39F9A4AF39F9A4B0397D
:10393800F9A4B139F9A4B239F9A4B339F9A4B4395D
:10394800F9A4B539F9A4B639F9A4B739F9A4B8393D
:10395800F9A4B939F9A4BA39F9A4BB39F9A4BC391D
:10396800F9A4BD39F9A4BE39F9A4BF39F9A4C039FD
:10397800F9A4C139F9A4C239F9A4C339F9A4C439DD
:10398800F9A4C539F9A4C639F9A4C739F9A4C839BD
:10399800F9A4C939F9A4CA39F9A4CB39F9A4CC399D
:1039A800F9A4CD39F9A4CE39F9A4CF39F9A4D0397D
:1039B800F9A4D13A06A4F03A06A4F13A06A4F23AD8
:1039C80006A4F33A13A6003A4FA6013A44B3083ABC
:1039D80044B3213A44B3223A44B3233A37B5213A9F
:1039E80037C02100003A4F124AD7805B1200168078
:1039F80056909B73E0FEA3E0FF124F5D8049909BB9
:103A080073E0FEA3E0FF124F14803C124692803709
:103A1800909B73E0FEA3E0FF120086802A909B73C0
:103A2800E0FEA3E0FF123A6C801D12505E801890F1
:103A38009B73E0FEA3E0FF124ECB800B909B73E0DC
:103A4800FEA3E0FF124E80E4909B73F0A3F07B018D
:103A58007A9B7973909BD4F0A37402F07F147E5004
:103A6800122F5B22909B75EEF0A3EFF07BFF7A514B
:103A780079FC78777C9B7D017E007F081222097B88
:103A8800017A9B7977909BC0E4F0A37402F07F21C0
:103A98007EA0122CEE909B75E0FEA3E08EF012251E
:103AA8000D3AB5A0033B5AA00400003C1F909B7739
:103AB800E0A3E030E245E4A3F0A3F0A3F0A3F07B99
:103AC800017A9B7979909BD4F0A37404F07F2A7EC5
:103AD800A0122F5B909B79E4F0A3745AF0A3E4F052
:103AE800A3745AF07B017A9B7979909BD4E4F0A374
:103AF8007404F07F8A7EA0122F5B22909B77E0A34C
:103B0800E054846003023C1FA3F0A304F0A37413E1
:103B1800F0A37488F07B017A9B7979909BD4E4F0C8
:103B2800A37404F07F2A7EA0122F5B909B79E4F0A7
:103B3800A3745AF0A3E4F0A3745AF07B017A9B793A
:103B480079909BD4E4F0A37404F07F8A7EA0122FAE
:103B58005B22909B77E0A3E030E745E4A3F0A3F075
:103B6800A3F0A3F07B017A9B7979909BD4F0A3749E
:103B780004F07F2A7EA0122F5B909B79E4F0A37457
:103B88005AF0A3E4F0A3745AF07B017A9B797990F8
:103B98009BD4E4F0A37404F07F8A7EA0122F5B22EA
:103BA800909B77E0A3E05484706D7B017A9B797DCC
:103BB800909BC0F0A37402F07F2C7EA0122CEE9094
:103BC8009B7DE0FEA3E064014E704C909B79F0A3CE
:103BD8007402F0A37413F0A37488F07B017A9B79C4
:103BE80079909BD4E4F0A37404F07F2A7EA0122F6E
:103BF8005B909B79E4F0A3745AF0A3E4F0A3745AA1
:103C0800F07B017A9B7979909BD4E4F0A37404F05B
:103C18007F8A7EA0122F5B227B007A007900909B1E
:103C2800731224DE909008E064016003023CB790B0
:103C38009003E0FF9095FFE0D39F4011E090900340
:103C4800F09096801224810000000080629090031A
:103C5800E0FF9095FFE06F7056FFFEFDFC909680A8
:103C6800122469D31224384038909680122469C3EC
:103C7800E50E9BFFE50D9AFEE50C99FDE50B98FC1A
:103C8800E47B0AFAF9F8C312243850237B017A96A8
:103C980079009095FFE0FD7C00122A3412508B8049
:103CA8000EAF0EAE0DAD0CAC0B9096801224759035
:103CB8008E69E030E03AE020E1299090041224690E
:103CC800C3E50E9BFBE50D9AFAE50C99F9E50B980F
:103CD800F890900DE0FFE4FCFDFEC3122438500379
:103CE800023DCC908E69E030E12DA3E004F08027FE
:103CF800909004122469C3E50E9BFFE50D9AFEE53A
:103D08000C99FDE50B98FCE47BF47A01F9F8D312E1
:103D180024384003023DCC908E6AE07003123DCDFA
:103D2800AF0EAE0DAD0CAC0B909004122475908EB6
:103D380069E054FDF0E054FEF07B017A8E796A1256
:103D48003423908E6AE0C3946C748094805070E041
:103D580075F00EA42417F9749035F0FA7B017809F0
:103D68007C907D017E007F0E12220990900BE0640A
:103D78000370117B017A9079091242B4908E69E040
:103D88004401F02290900BE064067038909011E0A6
:103D9800FEA3E0FF7B017A9B7976909BC0E4F0A3B9
:103DA8007402F0122CEE7B017A907909909B76E0F0
:103DB800FCA3E0FD1243CF908E69E04401F022E4B9
:103DC800908E6AF0227BFF7A5179B678787C9B7D59
:103DD800017E007F28122209E4909BA0F0A3F090B6
:103DE8009BA0E0FEA3E0C39433EE94004003023F9F
:103DF80011909BA0E0A3E07803C333CE33CED8F96B
:103E0800246CF582748E3EF583E0FF909BF9E0FC0C
:103E1800A3E0FDEF6D7001EC6003023F04909BA0EE
:103E2800E0FEA3E07803C333CE33CED8F9246DF592
:103E380082748E3EF583E0FEA3E0FF7B017A9B79D6
:103E480078909BC0E4F0A37402F0122CEE909BA033
:103E5800E0FEA3E07803C333CE33CED8F9246FF560
:103E680082748E3EF583E0FEA3E0FF7B017A9B79A6
:103E78007A909BC0E4F0A37402F0122CEE909B7A27
:103E8800E0FEA3E0FF909B78E0FCA3E06F7002ECFB
:103E98006E6069909BA0E0FEA3E07803C333CE3345
:103EA800CED8F9246FF582748E3EF583E0FEA3E048
:103EB800FF7B017A9B7978909BD4E4F0A37402F09D
:103EC800122F5B909B7CE4F0A3745AF0909BA0E0C7
:103ED800FEA3E07803C333CE33CED8F92471F5823C
:103EE800748E3EF583E0FEA3E0FF7B017A9B797C2C
:103EF800909BD4E4F0A37402F0122F5B909BA0E493
:103F080075F001122299023DE722909BABEFF07BFE
:103F1800FF7A51799678AC7C9B7D017E007F2012D8
:103F280022097B017A9A790C78AC7C9B7D017E0012
:103F38007F1A122209909BABE075F024A42446FF57
:103F4800E435F0909BB0F0A3EFF0909BB57401F0CE
:103F5800909BABE075F006A42476F582E4349AF5DC
:103F680083E0FEA3E0FF7B017A9B79AC909BD4E4CD
:103F7800F0A37420F0122F5B7B017A9A792678AC33
:103F88007C9B7D017E007F1A122209909BABE07515
:103F9800F024A42446FFE435F0909BB0F0A3EFF0A2
:103FA800909BB57401F0909BABE075F006A4247863
:103FB800F582E4349AF583E0FEA3E0FF7B017A9B67
:103FC80079AC909BD4E4F0A37420F0122F5B7B01B2
:103FD8007A9A79B278AC7C9B7D017E007F1A122296
:103FE80009909BABE075F024A42446FFE435F090DB
:103FF8009BB0F0A3EFF0909BABE075F024A42446AF
:10400800FFE435F0909BB6F0A3EFF0909BABE07522
:10401800F024A42464FFE435F0909BBAF0A3EFF0F9
:10402800909BABE075F006A4247AF582E4349AF507
:1040380083E0FEA3E0FF7B017A9B79AC909BD4E4FC
:10404800F0A37420F0122F5B22909BABEFF0A3EC4F
:10405800F0A3EDF0A3EBF07BFF7A51797678AF7C93
:104068009B7D017E007F201222097B017A9A790CC0
:1040780078AF7C9B7D017E007F1A122209909BAB52
:10408800E075F024A42446FFE435F0909BB3F0A338
:10409800EFF0E4909BB8F0909BACE0FEA3E0240125
:1040A800FFE43E909BAFF0A3EFF0909BABE075F080
:1040B80006A42476F582E4349AF583E0FEA3E0FFB3
:1040C8007B017A9B79AF909BD4E4F0A37420F01223
:1040D8002F5B7B017A9A792678AF7C9B7D017E00E5
:1040E8007F1A122209909BABE075F024A42446FFA6
:1040F800E435F0909BB3F0A3EFF0909BAEE0FFC3E4
:1041080074239F909BB8F0909BACE0FEA3E024043E
:10411800FFE43E909BAFF0A3EFF0909BABE075F00F
:1041280006A42478F582E4349AF583E0FEA3E0FF40
:104138007B017A9B79AF909BD4E4F0A37420F012B2
:104148002F5B909BACE0FEA3E02408FFE43E909B2D
:10415800AFF0A3EFF0909BABE075F006A4247AF5DE
:1041680082E4349AF583E0FEA3E0FF7B017A9B7931
:10417800AF909BD4E4F0A37402F0122F5B22C0E04E
:10418800C0F0C083C082C0D075D000C000C001C0DC
:1041980002C003C004C005C006C007C2AF758CBC0E
:1041A800758ACD909BDDE475F001122299909BDD14
:1041B800E0FEA3E0D394E8EE94034018909BDDE47E
:1041C800F0A3F0A375F001122299909BDBE475F03F
:1041D8000112229943C901909BE912245DE47B01F5
:1041E800FAF9F8122347909BE9122475909BE1E4B1
:1041F80075F001122299909BE312245DE4F81223D2
:1042080047909BE3122475909BE7E0FEA3E0FFE450
:10421800FCFD7BDC7AFFF8D3122422400A909BE74E
:10422800E475F0011222990509E50970020508AF45
:104238000EAE0DAD0CAC0BE47B01FAF9F812234776
:104248008F0E8E0D8D0C8C0BE47B64122390AC00CA
:10425800AD01AE02AF03E4FBFAF9F8C312243870DB
:1042680003430A02E47BF47A01F9F8AF0EAE0DAD10
:104278000CAC0B122390AC00AD01AE02AF03E4FB13
:10428800FAF9F8C31224387003430A04430A01D226
:10429800AFD007D006D005D004D003D002D001D0CB
:1042A80000D0D0D082D083D0F0D0E032909B78126A
:1042B80024DEE4909B7DF0909B781224BE90000150
:1042C800122248FF909B7DE0FE04F0747E2EF5825A
:1042D800E4349BF583EFF0909B7DE0FF04F0747E5F
:1042E8002FF582E4349BF5837403F0909B781224B5
:1042F800BE90000A1222F0E5F0FF909B7DE0FE04DC
:10430800F0747E2EF582E4349BF583EFF0909B7871
:104318001224BE90000A1222F0FF909B7DE0FE045A
:10432800F0747E2EF582E4349BF583EFF0909B7851
:104338001224BE900003122248FFE4909B7DE0FE09
:1043480004F0747E2EF582E4349BF583E4F0909BB0
:10435800781224BE900003122248FF909B7DE0FE55
:1043680004F0747E2EF582E4349BF583EFF07B0134
:104378007A9B797E909B7DE0FD7C001248F8909BAB
:104388007BEEF0A3EFF0909B7BE0FEA3E0EEFFA3B3
:10439800E0FE04F0747E2EF582E4349BF583EFF0A2
:1043A800909B7BE0A3E0FFA3E0FE04F0747E2EF573
:1043B80082E4349BF583EFF07B017A9B797E909BB6
:1043C8007DE0FD124CDA22909B781224DE909B7BD4
:1043D800ECF0A3EDF0E4909B7FF0909B781224BE64
:1043E800900001122248FF909B7FE0FE04F0748049
:1043F8002EF582E4349BF583EFF0909B7FE0FF0479
:10440800F074802FF582E4349BF5837406F0909B5A
:10441800781224BE90000A1222F0E5F0FF909B7FEC
:10442800E0FE04F074802EF582E4349BF583EFF00F
:10443800909B781224BE90000A1222F0FF909B7F76
:10444800E0FE04F074802EF582E4349BF583EFF0EF
:10445800909B7BE0FEA3E0EEFF909B7FE0FE04F0E4
:1044680074802EF582E4349BF583EFF0909B7BE01B
:10447800A3E0FF909B7FE0FE04F074802EF582E4B9
:10448800349BF583EFF07B017A9B7980909B7FE0EA
:10449800FD7C001248F8909B7DEEF0A3EFF0909B16
:1044A8007DE0FEA3E0EEFFA3E0FE04F074802EF5AD
:1044B80082E4349BF583EFF0909B7DE0A3E0FFA3BB
:1044C800E0FE04F074802EF582E4349BF583EFF06F
:1044D8007B017A9B7980909B7FE0FD124CDA2290D9
:1044E8009A55E0FEA3E07803C333CE33CED8F9243F
:1044F80000FFEE3420FEE4FCFD909BBE1224759074
:104508009BC2E4F0A37408F07D007C307FA51248BC
:1045180073909A55E475F001122299909A55E0FE2D
:10452800A3E0C3EE94024007E4909A55F0A3F090FC
:104538009A59E0FEA3E0C3EE94024028909A597479
:1045480002F0A3E4F0909A5775F001122299909A1C
:1045580057E0FEA3E0C3EE94024013E4909A57F0AC
:10456800A3F0800A909A59E475F001122299909A62
:1045780053745AF0A374A5F07B017A9A7953909BEF
:10458800D4E4F0A37408F07F007E30122F5B909A79
:1045980055E0FEA3E07803C333CE33CED8F9240028
:1045A800FFEE3420FEE4FCFD909BBE122475909B28
:1045B800C2E4F0A37404F07D007C307FA512487338
:1045C80022909BBE12248100003000909BC2E4F030
:1045D800A3740AF07D007C307F5A1248737B017AFD
:1045E8009B795B909BC0E4F0A37414F07F007E304D
:1045F800122CEEE4909B73F0909B73E0C3940674C6
:10460800809480506EE025E025E0245BF582E43458
:104618009BF58312245DE4FBFAF9F8C31224386091
:1046280022909B73E025E025E0245BF582E4349B2F
:10463800F58312245D7B3F7A42790F7800C31224F8
:10464800385028909B73E025E025E0243BF582E470
:10465800349BF58312245D909B73E025E025E024CC
:104668005BF582E4349BF583122475909B73E00418
:10467800F080857B017A9B795B909BD4E4F0A374EE
:1046880014F07FA07EA6122F5B227B017A9B79759E
:10469800909BC0E4F0A37410F07F207EA6122CEE4D
:1046A800909B75E0A3E025E025E0245FF582E434E3
:1046B8009BF58312245D909B79122469C3122438D8
:1046C80060087F077E00124FA522909B8112245D0F
:1046D800909B7D122469C312243860087F087E00ED
:1046E800124FA522909B7D12245D909B75E0A3E05C
:1046F80025E025E0245FF582E4349BF583122475D8
:1047080012502BE4909B89F0909B89E0C3940A7423
:104718008094805018E025E02475F582E4349BF5F8
:1047280083E4F0A3F0909B89E004F080DB7B017ABE
:104738009B7975909BD4E4F0A3740CF07F227EA63D
:10474800122F5B22759401759502758E0075930082
:1047580075C87075C96075F800787FE4F6D8FD757E
:1047680081100247A8024E33E493A3F8E493A340D0
:1047780003F68001F208DFF48029E493A3F85407D4
:10478800240CC8C333C4540F4420C8834004F456CF
:10479800800146F6DFE4800B010204081020408007
:1047A800900100E47E019360BCA3FF543F30E5090B
:1047B800541FFEE493A360010ECF54C025E060A807
:1047C80040B8E493A3FAE493A3F8E493A3C8C5829A
:1047D800C8CAC583CAF0A3C8C582C8CAC583CADF08
:1047E800E9DEE780BEC0E0C0F0C083C082C0D075FB
:1047F800D000C000C004C006C007909BD8E4F0C237
:10480800AFE59B30E03DE59CF0E0FF909906E0FCC9
:10481800A3E0240CF58274993CF583EFF090990697
:10482800E475F001122299539BFE539BFE90990662
:10483800E0FEA3E0C39480EE94004007909906E45C
:10484800F0A3F0E59B30E10B539BFD539BFD909942
:1048580005E4F043C901D2AFD007D006D004D00098
:10486800D0D0D082D083D0F0D0E032909BBBEFF094
:10487800A3ECF0A3EDF0E4F5F1F5F275F30475F4AB
:104888000175F88F30FCFD909BBBE0F5FA909BBE5C
:1048980012245D78101224498FFB909BBE12245D70
:1048A80078081224498FFC909BBE12245DEF54FEB9
:1048B800FFE48FFDD2FE20FEFD909BBCE0FEA3E04E
:1048C800EEF5FA909BBCE0A3E054FEF5FB909BC28A
:1048D800E0FEA3E0EEF5FC909BC2E0A3E054FEF5F9
:1048E800FDD2FE20FEFDE4F5F87F04FE124D3422D1
:1048F800909B941224DE909B97ECF0A3EDF0A374A8
:10490800FFF0A3F0909B9774FFF5F01222AF45F0EB
:10491800604D909B94E475F0011224C712222FFF7A
:10492800909B99E06FFF909B9BE4F0A3EFF0909B26
:104938009BE0FEA3E02484F58274963EF583E0FFB5
:10494800909B9AE06F909B99F0909B9BE0A3E0244A
:1049580084F58274973EF583E0909B9AF080A59049
:104968009B99E0FEA3E0FDEEEDFF22909B79EEF02F
:10497800A3EFF0909B79E0FEA3E04E6065909B79F1
:10498800E0A3E064014E7004124D8D22909B79E003
:10499800FEA3E064024E604A909B79E0A3E06403C2
:1049A8004E703FA3F0909B7BE0C394067480948084
:1049B800502DE025E025E0243BF582E4349BF58387
:1049C80012245D909B7BE025E025E0245BF582E4E2
:1049D800349BF583122475909B7BE004F080C6120B
:1049E800502B22C0E0C0F0C083C082C0D075D00078
:1049F800C000C004C006C007909BD9E4F0C2AFE570
:104A08009754016401703AE59FF0E0FF909908E03F
:104A1800FCA3E0248CF58274993CF583EFF090991F
:104A280008E475F0011222995397FE909908E0FE68
:104A3800A3E0C39480EE94004007909908E4F0A3A3
:104A4800F043C901D2AFD007D006D004D000D0D0EF
:104A5800D082D083D0F0D0E032C0E0C0F0C083C0B4
:104A680082C0D075D000C000C004C006C007909BAB
:104A7800DAE4F0C2AFE5AB54016401703AE5ADF099
:104A8800E0FF90990AE0FCA3E02484F58274983C46
:104A9800F583EFF090990AE475F00112229953AB6F
:104AA800FE90990AE0FEA3E0C39480EE94004007CC
:104AB80090990AE4F0A3F043C901D2AFD007D00619
:104AC800D004D000D0D0D082D083D0F0D0E0327BD8
:104AD800FF7A52790478757C9B7D017E007F0412F1
:104AE80022097B017A9B7975909BC0E4F0A374043A
:104AF800F07F207EA4122CEE909AD0E0FF7B017A02
:104B08009B7975124DE5EF600D124FEC909AD0E04D
:104B1800909B37F080077F057E00124FA57E007FAF
:104B2800047D007B017A9B79751226E47B017A9BD0
:104B38007975909BD4E4F0A37404F07F207EA412CE
:104B48002F5B22909B79EEF0A3EFF0A3E4F0A3741F
:104B58005AF0909B79E0FEA3E0641B4E7021909B75
:104B680079E0A3E0FEE42400FFEE34A0FE7B017AA6
:104B78009B797B909BD4E4F0A37402F0122F5B9096
:104B88009B79E0FEA3E0642F4E7021909B79E0A30F
:104B9800E0FEE42400FFEE34A0FE7B017A9B797BE3
:104BA800909BD4E4F0A37402F0122F5B22909BAB8D
:104BB800EBF0A3EAF0A3E9F0E4909BB3F0A3F09044
:104BC8009BB174FFF5F01222AF45F0603C909BAEAC
:104BD800E0FBA3E0FAA3E0F912222FFF909BABE0E1
:104BE800FBA3E0FAA3E0F9909BB3E475F00112226D
:104BF800AF85F082F583EF122710EF60C2909BAF6C
:104C0800E475F00112229980B6909BABE0FBA3E01B
:104C1800FAA3E0F922C0E0C083C082C0D075D000FA
:104C2800C006C007909BD7E4F0C2AF309830E59932
:104C3800F09095FFE0C3948074809480501E909B00
:104C4800D7E0FF9095FFE0FE04F074002EF582E4B3
:104C58003496F583EFF09090087401F0C29830997B
:104C680007C299909904E4F0D2AFD007D006D0D00B
:104C7800D082D083D0E032909B79EEF0A3EFF09011
:104C88009B79E0FEA3E0D394D1EE94A45019909BB5
:104C980079E0A3E025E0FFEE33FE74942FF58274EB
:104CA800513EF583E0FF22909B79E0FEA3E0D39488
:104CB800F3EE94A45019909B79E0A3E025E0FFEE71
:104CC80033FE74742FF58274513EF583E0FF227F22
:104CD8000522909B941224DE909B97EDF07B007A3E
:104CE800007900C003C002C001909B941224BED07A
:104CF80082D083D0E06B7008E965827003EA65832F
:104D08006029909B97E06023909B97E0FF14F0EF59
:104D18006019909B941224BE12222FFF1250E89023
:104D28009B95E475F00112229980DD22909BC4EED8
:104D3800F0A3EFF0E4F5F1909BC4E0FEA3E0EEF5FC
:104D4800F2909BC4E0A3E0F5F3E4F5F4E4909BC48F
:104D5800F0A3F0909BC4E0FEA3E0C394E8EE9403B4
:104D6800500F85FCFB909BC4E475F00112229980DA
:104D7800E275F8AF30FCFDD2FE20FEFDE4F5F8AF99
:104D8800FAEF70C8227E007F087D007B017A9A794D
:104D9800531226E47B017A9A7953909BD4E4F0A3CA
:104DA8007408F07F007E30122F5B909A55E0FEA3C6
:104DB800E07803C333CE33CED8F92400FFEE342095
:104DC800FEE4FCFD909BBE122475909BC2E4F0A308
:104DD8007404F07D007C307FA512487322909B7983
:104DE800EFF0A31224DE909B79E070037F012290FC
:104DF8009B79E075F004A4245BF9749B35F0FA7B89
:104E080001C003C002C001A31224BEA801AC02ADB8
:104E180003D001D002D0037E007F041226C0EF33F6
:104E280095E04F70037F01227F002212006E12511D
:104E3800211231C71245C9E50A30E01C430F01E5CC
:104E48000A30E103430F02E50A30E203430F04533B
:104E58000AFE530AFD530AFB43C901123C201236CD
:104E68006A121B33123896E50F30E0CB530FFE530E
:104E78000FFD530FFB80C022909B75EEF0A3EFF05F
:104E8800909B75E0A3E0FFA3E4F0A3EFF07B017A29
:104E98009B7977909BD4E4F0A37402F07F207EB3D3
:104EA800122F5B909B77E4F0A3745AF07B017A9BF6
:104EB8007977909BD4E4F0A37402F07F807EB312DC
:104EC8002F5B22909B75EEF0A3EFF0A3E4F0A374A0
:104ED8005AF0909B75E0FEA3E0FF7B017A9B7977FF
:104EE800909BD4E4F0A37402F0122F5B909B75E0C2
:104EF800FEA3E02430FFE43EFE7B017A9B797790A5
:104F08009BD4E4F0A37402F0122F5B22909B75EE01
:104F1800F0A3EFF0909B75E0FEA3E02410FFEE34C1
:104F28005B909ACEF0A3EFF0909B75E0A3E0FF12A0
:104F38004C7F909AD0EFF0909BF9E0FEA3E0FF90B1
:104F48009AD1EEF0A3EFF0909B387401F07F047EC5
:104F580000124FA522909B77EEF0A3EFF0909B777D
:104F6800E0FEA3E02460FFEE345B909B39F0A3EFF2
:104F7800F0909BF9E0FEA3E0FF909AD1EEF0A3EF4A
:104F8800F0909B77E0FEA3E0FF124C7F909AD0EF61
:104F9800F0E4909B38F07F04FE124FA522909B8A84
:104FA800EEF0A3EFF07BFF7A5179EC788C7C9B7D57
:104FB800017E007F04122209909B8AE0FEA3E0EEA6
:104FC800909B8EF0909B8AA3E0909B8FF07B017A58
:104FD8009B798C909BD4E4F0A37404F07F847E00CA
:104FE800122F5B22909B38E01224E74FFD005014EB
:104FF800010000502A909B39E0FEA3E0FF124FA564
:10500800909B39E0FEA3E0FF124B4B22909ACEE032
:10501800FEA3E0FF124973909AD1E0FEA3E0FF12CD
:105028004FA5227B017A9B795B909BD4E4F0A37413
:1050380014F07F007E30122F5B909BBE12248100FB
:10504800003000909BC2E4F0A3740AF07D007C302D
:105058007FA512487322E4909B75F0A3F0909BEF14
:10506800F0A3740BF0909B75E4F0A304F0FB7A9B1B
:105078007975909BD4E4F0A37402F07F2C7EA01283
:105088002F5B22E49095FFF0909008F0FE7F80FD62
:105098007B017A9679001226E4E4909003F09096CA
:1050A80080122481000000002243B71043C940E465
:1050B800909904F075D88075985053877F75BA0316
:1050C80075AA58D29CD2AC2275F90175B70375BC84
:1050D80003E4F5BD75BE0CF580F590F5A0F5B0229A
:1050E800909B98EFF0909904E0640160F87401F0E7
:1050F800909B98E0F5992275C870E4F5CDF5CC75CC
:10510800CBFF75CAEF43A820D2C822438901758C0A
:10511800BC758ACDD2A9D28C2212508B90900412E1
:10512800248100000000221251131250FF220000B7
:105138000000000000000000000000000000000067
:105148000000000000000000000000000000000057
:105158000000000000000000000000000000000047
:105168000000000000000000000000000000000037
:105178000000000000000000000000000000000027
:105188000000000000000000000000000000000017
:105198000000000000000000000000000000000007
:1051A80000000000000000000000000000000000F7
:1051B80000000000000000000000000000000000E7
:1051C80000000000000000000000000000000000D7
:1051D80000000000000000000000000000000000C7
:1051E800000000005A01000000000000000000005C
:1051F80000000000000000000000000000000000A7
:00000001FF
