:1000000002480C020006C2AFD2AF32024246C2AF73
:10001000D2AF3202000E909B75E0FEA3E0FF1250BB
:10002000AF2232024D7212002E223202005675F9B2
:1000300001E4F5A8F5B8F59AF5A9F5B9F580F590BC
:10004000F5A0F5B075B750F5BCF5BDF5BE2212515F
:02005000BB22D1
:06005300020022C2C632C9
:03005B00024B4213
:0300630002002A6E
:10006B00024BB8C2AF1200261251DA12004E1252D6
:07007B003943C902D2AF2294
:10008300024944909C19EEF0A3EFF0909C19E0FE16
:10009300A3E08EF01225B100AAA00000B3A00100D6
:1000A300D0A002000000EB909B70E4F0A304F022C8
:1000B300909B70E0FEA3E064014E7009909B70F08A
:1000C300A37403F022E4909B70F0A3F022909B7042
:1000D300E0FEA3E064034E70077FAA7EA41250677C
:1000E300E4909B70F0A3F022E4909B70F0A3F022C5
:1000F800FFFF4457494E5435429C9D0000429C9353
:100108000000489C950069005A003C0015429C91EB
:1001180000005A9AB03FC900690046000086000AEC
:100128002D2D203A3A000000000000000000005A7F
:100138009ACA3FCC01270046000086000A2D2D2FC1
:100148003A3A000000000000000000005A9B563FA9
:10015800D00212004600000212004602DA006400D3
:10016800100017181802000000603C9B1A4000405D
:10017800A04140401040B04150402040C041604044
:100188003040D04170404040E04180405040F04114
:10019800904060410041A04070411041B040804112
:1001A8002041C04090413041D0549B0641E041F885
:1001B80042104228424042584270428842A042B807
:1001C800489AF70000000000000000429AFF000073
:1001D800429B040000429B010000419B0300419A9E
:1001E800F600429AE40005498000B2E2CAD4BABADD
:1001F800D7D6006E60800949443030BBD8B7E7B81D
:10020800DFCEC20000000000000000000000000077
:100218000000000000000049443031BBD8B7E7B502
:10022800CDCEC20000000000000000000000000069
:100238000000000000000049443032BBD8B7E7B8DE
:10024800DFCAAA0000000000000000000000000053
:100258000000000000000049443033BBD8B7E7B8BD
:10026800DFCAAA0000000000000000000000000033
:100278000000000000000049443034CBCDB7E7B897
:10028800DFCEC200000000000000000000000000F7
:100298000000000000000049443035CBCDB7E7B579
:1002A800CDCEC200000000000000000000000000E9
:1002B8000000000000000049443036CBCDB7E7B855
:1002C800DFCAAA00000000000000000000000000D3
:1002D8000000000000000049443037CBCDB7E7B537
:1002E800CDCAAA00000000000000000000000000C5
:1002F8000000000000000049443038B1A3C1F400F8
:1003080000000000000000000000000000000000E5
:100318000000000000000049443039C4DAB2BFCD03
:10032800A8D0C50000000000000000000000000088
:1003380000000000000000494431304E5443D2EC24
:10034800B3A300000000000000000000000000004F
:100358000000000000000049443131B7E7BBFA3122
:10036800B9CAD5CF0000000000000000000000005E
:100378000000000000000049443132B7E7BBFA3200
:10038800B9CAD5CF0000000000000000000000003E
:100398000000000000000049443133B7E7BBFA33DE
:1003A800B9CAD5CF0000000000000000000000001E
:1003B8000000000000000049443134B7E7BBFA34BC
:1003C800B9CAD5CF000000000000000000000000FE
:1003D8000000000000000049443135B7E7BBFA359A
:1003E800B9CAD5CF000000000000000000000000DE
:1003F8000000000000000049443136CDE2B7E7BBF9
:10040800FAB9CAD5CF0000000000000000000000C3
:100418000000000000000049443137B7E7BBFA315B
:10042800D4CBD0D0B3ACCAB10000000000000000AB
:100438000000000000000049443138B7E7BBFA3239
:10044800D4CBD0D0B3ACCAB100000000000000008B
:100458000000000000000049443139B7E7BBFA3317
:10046800D4CBD0D0B3ACCAB100000000000000006B
:100478000000000000000049443230B7E7BBFA34FE
:10048800D4CBD0D0B3ACCAB100000000000000004B
:100498000000000000000049443231B7E7BBFA35DC
:1004A800D4CBD0D0B3ACCAB100000000000000002B
:1004B8000000000000000049443232CDE2B7E7BB3B
:1004C800FAD4CBD0D0B3ACCAB10000000000000011
:1004D8000000000000000049443233B8DFD1B931D0
:1004E800B8E6BEAF000000000000000000000000F9
:1004F8000000000000000049443234B8DFD1B931AF
:10050800CBF8CBC000000000000000000000000095
:100518000000000000000049443235B5CDD1B931A2
:10052800B8E6BEAF000000000000000000000000B8
:100538000000000000000049443236B5CDD1B93181
:10054800CBF8CBC000000000000000000000000055
:100558000000000000000049443237C5C5C6F8CE87
:10056800C2B6C831B8E6BEAF000000000000000007
:100578000000000000000049443238C5C5C6F8CE66
:10058800C2B6C831CBF8CBC00000000000000000A4
:100598000000000000000049443239B6CCD6DCC661
:1005A800DA31B8E6BEAF000000000000000000002D
:1005B8000000000000000049443330D1B9BBFA31D3
:1005C800D4CBD0D0B3ACCAB100000000000000000A
:1005D8000000000000000049443331B8DFD1B932CF
:1005E800B8E6BEAF000000000000000000000000F8
:1005F8000000000000000049443332B8DFD1B932AE
:10060800CBF8CBC000000000000000000000000094
:100618000000000000000049443333B5CDD1B9D102
:10062800B9C1A6B8E6BEAF00000000000000000097
:100638000000000000000049443334B5CDD1B93280
:10064800CBF8CBC000000000000000000000000054
:100658000000000000000049443335C5C5C6F8CE87
:10066800C2B6C832B8E6BEAF000000000000000005
:100678000000000000000049443336C5C5C6F8CE66
:10068800C2B6C832CBF8CBC00000000000000000A2
:100698000000000000000049443337B6CCD6DCC661
:1006A800DA32B8E6BEAF000000000000000000002B
:1006B8000000000000000049443338D1B9BBFA32C9
:1006C800D4CBD0D0B3ACCAB1000000000000000009
:1006D8000000000000000049443339BCD3CAAAC650
:1006E800F7B5E7C1F7B9FDB4F3000000000000005A
:1006F8000000000000000049443430BCD3CAAAC638
:10070800F7B8DFCBAECEBB00000000000000000051
:100718000000000000000049443431BCD3CAAAC616
:10072800F7C8B1CBAE0000000000000000000000D8
:100738000000000000000049443432BCD3CAAAC6F5
:10074800F7D4CBD0D0B3ACCAB10000000000000091
:100758000000000000000049443433BCD3C8C8C6B8
:10076800F7B8E6BEAF00000000000000000000007F
:100778000000000000000049443434BCD3C8C8C697
:10078800F731B3ACCAB1000000000000000000005F
:100798000000000000000049443435BCD3C8C8C676
:1007A800F732B3ACCAB1000000000000000000003E
:1007B8000000000000000049443436B6CFB5E7D643
:1007C800D8C6F4000000000000000000000000008F
:1007D8000000000000000049443437B5E7D4B4CF26
:1007E800E0D0F2B4EDCEF3000000000000000000FD
:1007F8000000000000000049443438B5E7D4B4C60E
:10080800B5C2CAC6ABB8DF00000000000000000097
:100818000000000000000049443439B5E7D4B4C6EC
:10082800B5C2CAC6ABB5CD0000000000000000008C
:10083800000000000000004944353041CFE0B9FD18
:10084800D1B9000000000000000000000000000016
:10085800000000000000004944353142CFE0B9FDF6
:10086800D1B90000000000000000000000000000F6
:10087800000000000000004944353243CFE0B9FDD4
:10088800D1B92000000000000000000000000000B6
:10089800000000000000004944353341CFE0C7B7ED
:1008A800D1B90000000000000000000000000000B6
:1008B800000000000000004944353442CFE0C7B7CB
:1008C800D1B9000000000000000000000000000096
:1008D800000000000000004944353543CFE0C7B7A9
:1008E800D1B9000000000000000000000000000076
:1008F800000000000000004944353641CFE0C8B18F
:10090800CFE0000000000000000000000000000030
:10091800000000000000004944353742CFE0C8B16C
:10092800CFE0000000000000000000000000000010
:10093800000000000000004944353843CFE0C8B14A
:10094800CFE00000000000000000000000000000F0
:100958000000000000000049443539C6F8C1F7B668
:10096800AACAA7B8E6BEAF00000000000000000059
:100978000000000000000049443630B9FDC2CBCD6C
:10098800F8D4CBD0D0B3ACCAB1000000000000004E
:100998000000000000000049443631B9FDC2CBCD4B
:1009A800F8B6C2B8E6BEAF000000000000000000C4
:1009B8000000000000000049443632D4B6B3CCB978
:1009C800D8BBFAB8E6BEAF00000000000000000087
:1009D8000000000000000049443633D2E7CBAEB82F
:1009E800E6BEAF00000000000000000000000000AC
:1009F8000000000000000049443634C8BABFD8CD12
:100A0800A8D0C5D2ECB3A30000000000000000008D
:100A18000000000000000049443635B1E4C6B5C600
:100A2800F7B9CAD5CF0000000000000000000000A0
:100A38000000000000000049443636D7A2CBAEB50E
:100A4800E7B5BCC2CAB8DF00000000000000000023
:100A58000000000000000049443637D7A2CBAEB5ED
:100A6800E7B5BCC2CAB5CD00000000000000000018
:100A78000000000000000049443638D1CCCEEDB863
:100A8800E6BEAF000000000000000000000000000B
:100A98000000000000000049443639D3C3BBA7D783
:100AA800D4B6A8D2E5B8E6BEAF000000000000004A
:100AB8000000000000000049443730B5E7D4B4D244
:100AC800ECB3A300000000000000000000000000DC
:100AD8000000000000000049443731C8EBCBAEB835
:100AE800DFCEC2000000000000000000000000008F
:100AF8000000000000000049443732CBAEB7A7B968
:100B0800CAD5CF000000000000000000000000006F
:100B18000000000000000049443733C5CCB9DCB6FA
:100B2800CFC1F7B8E6BEAF0000000000000000002B
:100B38000000000000000049443734B7E7BBFA362C
:100B4800B9CAD5CF00000000000000000000000076
:100B58000000000000000049443735B7E7BBFA370A
:100B6800B9CAD5CF00000000000000000000000056
:100B78000000000000000049443736B7E7BBFA38E8
:100B8800B9CAD5CF00000000000000000000000036
:100B98000000000000000049443737B7E7BBFA36C9
:100BA800B3ACCAB100000000000000000000000063
:100BB8000000000000000049443738B7E7BBFA37A7
:100BC800B3ACCAB100000000000000000000000043
:100BD8000000000000000049443739B7E7BBFA3885
:100BE800B3ACCAB100000000000000000000000023
:100BF8000000000000000049443830C5C5CBAEB83D
:100C0800DFCBAECEBB0000000000000000000000FB
:100C18000000000000000049443831BCD3CAAAC60D
:100C2800F7D2ECB3A30000000000000000000000B1
:100C38000000000000000049443832B7E7D1B9B9D4
:100C4800FDB5CD000000000000000000000000001D
:100C58000000000000000049443833BAECCDE2BC83
:100C6800D3CAAAB9FDC8C8000000000000000000EF
:100C78000000000000000049443834D1B9BBFA3103
:100C8800B8DFD1B90000000000000000000000003B
:100C98000000000000000049443835B7E7BBFAB54A
:100CA800E7C1F7B9FDB4F300000000000000000040
:100CB8000000000000000049443836B8A8C2B7C890
:100CC800EBCBAEB8DFCEC200000000000000000091
:100CD8000000000000000049443837454556B8E692
:100CE800BEAF00000000000000000000000000008F
:100CF8000000000000000049443838BDD3CBAEC521
:100D0800CCD2E7CBAE0000000000000000000000DD
:100D18000000000000000049443839C5C5C6F8B8CD
:100D2800DFCEC2000000000000000000000000004C
:100D38000000000000000049443930C9E8B1B8CAD1
:100D4800B9D3C3B3ACCAB100000000000000000072
:100D58000000000000000049443931B1A3C1F4008B
:100D6800000000000000000000000000000000007B
:100D78000000000000000049443932B1A3C1F4006A
:100D8800000000000000000000000000000000005B
:100D98000000000000000049443933B1A3C1F40049
:100DA800000000000000000000000000000000003B
:100DB8000000000000000049443934B1A3C1F40028
:100DC800000000000000000000000000000000001B
:100DD8000000000000000049443935B1A3C1F40007
:100DE80000000000000000000000000000000000FB
:100DF8000000000000000049443936B1A3C1F400E6
:100E080000000000000000000000000000000000DA
:100E18000000000000000049443937BBD8B7E7CECE
:100E2800C2CAAAB6C8B4ABB8D0C6F7000000000062
:100E38000000000000000049443938CBCDB7E7CEA8
:100E4800C2CAAAB6C8B4ABB8D0C6F7000000000042
:100E58000000000000000049443939BCD3CAAAB0D8
:100E6800E5D2ECB3A3000000000000000000000081
:100E7800000000000000004944313030C6C1C4BB46
:100E8800D2D1CBF8B6A80000000000000000000096
:100E9800000000000000004944313031D2BBCCECE6
:100EA800BDABCBF8B6A800000000000000000000B1
:100EB800000000000000004944313032C8FDCCEC8D
:100EC800BDABCBF8B6A80000000000000000000091
:100ED800000000000000004944313033C6DFCCEC8C
:100EE800BDABCBF8B6A80000000000000000000071
:100EF800000000000000004944313034CAAECEE59D
:100F0800CCECBDABCBF8B6A8000000000000000098
:100F1800000000000000004944313035C8FDCAAE69
:100F2800CCECBDABCBF8B6A8000000000000000078
:100F3800000000000000004944313036B5E7D4B461
:100F480032CFE0D0F2B4ED00000000000000000055
:100F5800000000000000004944313037B5E7D4B440
:100F680032C6B5C2CAB8DF000000000000000000A9
:100F7800000000000000004944313038B5E7D4B41F
:100F880032C6B5C2CAB5CD0000000000000000009E
:100F9800000000000000004944313039B5E7D4B4FE
:100FA8003241CFE0B9FDD1B90000000000000000D7
:100FB800000000000000004944313130B5E7D4B4E6
:100FC8003242CFE0B9FDD1B90000000000000000B6
:100FD800000000000000004944313131B5E7D4B4C5
:100FE8003243CFE0B9FDD1B9000000000000000095
:100FF800000000000000004944313132B5E7D4B4A4
:101008003241CFE0C7B7D1B90000000000000000AE
:10101800000000000000004944313133B5E7D4B482
:101028003242CFE0C7B7D1B900000000000000008D
:10103800000000000000004944313134B5E7D4B461
:101048003243CFE0C7B7D1B900000000000000006C
:10105800000000000000004199A8004199A9004241
:1010680099AA00004299AC00004299AE0000429C47
:10107800810000429C830000429C7F0000449C8DBC
:1010880000000000429C850000449C87000000008E
:1010980002080000040B00000000429C8B000001C5
:1010A8000A006100972800C1814001C0804101C049
:1010B800804100C1814001C0804100C1814000C120
:1010C800814001C0804101C0804100C1814000C110
:1010D800814001C0804100C1814001C0804101C000
:1010E800804100C1814001C0804100C1814000C1F0
:1010F800814001C0804100C1814001C0804101C0E0
:10110800804100C1814000C1814001C0804101C0CF
:10111800804100C1814001C0804100C1814000C1BF
:10112800814001C0804101C0804100C1814000C1AF
:10113800814001C0804100C1814001C0804101C09F
:10114800804100C1814000C1814001C0804101C08F
:10115800804100C1814001C0804100C1814000C17F
:10116800814001C0804100C1814001C0804101C06F
:10117800804100C1814001C0804100C1814000C15F
:10118800814001C0804101C0804100C1814000C14F
:10119800814001C0804100C1814001C0804101C03F
:1011A800804100C181406100982800C0C101C3038B
:1011B80002C2C60607C705C5C404CC0C0DCD0FCFA7
:1011C800CE0E0ACACB0BC90908C8D81819D91BDB17
:1011D800DA1A1EDEDF1FDD1D1CDC14D4D515D71767
:1011E80016D6D21213D311D1D010F03031F133F317
:1011F800F23236F6F737F53534F43CFCFD3DFF3F67
:101208003EFEFA3A3BFB39F9F83828E8E929EB2B96
:101218002AEAEE2E2FEF2DEDEC2CE42425E527E726
:10122800E62622E2E323E12120E0A06061A163A396
:10123800A26266A6A767A56564A46CACAD6DAF6F26
:101248006EAEAA6A6BAB69A9A86878B8B979BB7B96
:101258007ABABE7E7FBF7DBDBC7CB47475B577B7E6
:10126800B67672B2B373B17170B050909151935316
:10127800529296565797559594549C5C5D9D5F9FE6
:101288009E5E5A9A9B5B99595898884849894B8B16
:101298008A4A4E8E8F4F8D4D4C8C448485458747A6
:1012A800468682424383418180404196A300419013
:1012B80020004497240000000041901B0044901C2B
:1012C800000000006674902F5A020301C801000054
:1012D800A020004B00FF5A020302C8010000A02111
:1012E80001F600FF5A020302C8010000A02301F919
:1012F80000FF5A020302C8010000A02501FF00FFF9
:101308005A020301C8010000A027006400FF5A0226
:101318000301C8010000A028006D00FF5A02030164
:10132800C8010000A029007200FF5A020601C80285
:10133800A08AA02A006E00FF5A020601C802A08BEC
:10134800A02B006F00FF5A020301C801000BAB205D
:10135800020100FF5A020301C801000BAB2102037E
:1013680000FF5A020301C801000BAB22020200FF72
:101378005A020303C801000BAB23020A00FF5A02FA
:101388000301C801000CAC2000AB00FF5A0203099E
:10139800C801000CAC2101F600FF5A020301C80184
:1013A800000CAC2A020600FF5A020304C801000C14
:1013B800AC2B021300FF5A020301C801000DAD2037
:1013C80001F600FF5A020301C801000DAD2101FB1F
:1013D80000FF5A020301C801000DAD22021700FFE9
:1013E8005A020301C801000DAD23021A00FF5A0278
:1013F8000305C803AE00AE200064000E5A020301C4
:10140800C803AE00AE250094000E5A020302C803BA
:10141800AE00AE2600A1000E5A020302C803AE00B9
:10142800AE2800B6000E5A020601C803AE80AE20F0
:101438000064000E5A020601C803AE81AE210065A1
:10144800000E5A020601C803AE82AE220066000EE4
:101458005A020601C803AE83AE230067000E5A0283
:101468000601C803AE84AE240068000E5A020601C5
:10147800C803AE85AE250094000E5A020601C803C3
:10148800AE86AE2600A1000E5A020601C803AE873A
:10149800AE2700A2000E5A020601C803AE88AE2885
:1014A80000B6000E5A020601C803AE89AE2900B77D
:1014B800000E5A020301C803AF00AF200048000F16
:1014C8005A020301C803AF00AF21004B000F5A02B4
:1014D8000302C803AF00AF220069000F5A020301DC
:1014E800C803AF00AF240072000F5A020303C803F9
:1014F800AF00AF250096000F5A020302C803AF00E1
:10150800AF28009E000F5A020601C803AF80AF2023
:101518000048000F5A020601C803AF81AF21004BF3
:10152800000F5A020601C803AF82AF220069000FFC
:101538005A020601C803AF83AF23006A000F5A029C
:101548000601C803AF84AF240072000F5A020601D7
:10155800C803AF85AF250096000F5A020601C803DD
:10156800AF86AF260097000F5A020601C803AF875F
:10157800AF270098000F5A020601C803AF88AF28AA
:10158800009E000F5A020601C803AF89AF29009FC9
:10159800000F5A020301C803B000B0200071001008
:1015A8005A020301C803B000B021007F00105A029C
:1015B8000301C803B000B022008100105A020302E0
:1015C800C803B000B023009B00105A020301C803EF
:1015D800B000B02500A000105A020302C803B000F2
:1015E800B02600B900105A020301C803B000B028A1
:1015F80000BD00105A020301C803B000B02900C2A0
:1016080000105A020601C803B080B0200071001013
:101618005A020601C803B081B021007F00105A02A7
:101628000601C803B082B022008100105A020601E8
:10163800C803B083B023009B00105A020601C803F8
:10164800B084B024009C00105A020601C803B0857B
:10165800B02500A000105A020601C803B086B026C3
:1016680000B900105A020601C803B087B02700BAB3
:1016780000105A020601C803B088B02800BD001047
:101688005A020601C803B089B02900C200105A02E4
:101698000302C803B100B120006B00115A02030213
:1016A800C803B100B122007400115A020301C80333
:1016B800B100B124007700115A020302C803B10037
:1016C800B12500A700115A020301C803B100B127D0
:1016D80000AA00115A020303C803B100B12800ACE4
:1016E80000115A020601C803B180B120006B001135
:1016F8005A020601C803B181B121006C00115A02D7
:101708000601C803B182B122007400115A02060111
:10171800C803B183B123007500115A020601C8033A
:10172800B184B124007700115A020601C803B185BB
:10173800B12500A700115A020601C803B186B126D7
:1017480000A800115A020601C803B187B12700AAF0
:1017580000115A020601C803B188B12800AC001173
:101768005A020601C803B189B12900AD00115A0215
:101778000601C803B18AB12A00AE00115A02060157
:10178800C803B380B320008200135A020302C801C1
:101798000013B321020800FF5A020301C801001315
:1017A800B323021100FF5A020301C8010013B32436
:1017B800020D00FF5A020308C803B400B420008BCE
:1017C80000145A020601C803B480B420008B001428
:1017D8005A020601C803B481B421008C00145A02CD
:1017E8000601C803B482B422008D00145A0206010F
:1017F800C803B483B423008E00145A020601C80338
:10180800B484B424008F00145A020601C803B485B6
:10181800B425009000145A020601C803B486B42601
:10182800009100145A020601C803B487B427009235
:1018380000145A020301C803B500B5200072001550
:101848005A020601C803B580B520007200155A0275
:101858000601C803B581B521008300155A020301AA
:10186800C803B800B821007800185A020302C8015A
:101878000018B82200A300185A020601C803B88449
:10188800B824007800185A020601C803B881B821A4
:10189800007900185A020301C803B900B920007280
:1018A80000195A020301C803B900B92100B500198B
:1018B8005A020301C803B900B92200BE00195A022E
:1018C8000301C803B900B92301F500195A0206013A
:1018D800C803B980B920007200195A020601C8036A
:1018E800B981B92100B500195A020601C803B982A5
:1018F800B92200BE00195A020601C803BA80BA20EC
:101908000082001A5A020302C801001ABA2102080A
:1019180000FF5A020301C801001ABA24020D00FF91
:101928005A020601C803C080C020008300205A0262
:101938000306C8010022C2A0032000FF4E90210028
:1019480000000000000000000000000000418E6A56
:101958000061B08E6B5A0EAE20AE50AE805A0EAEFD
:1019680021AE51AE815A0EAE22AE52AE825A0EAEA2
:1019780023AE53AE835A0EAE24AE54AE845A0EAE86
:1019880025AE55AE855A0EAE26AE56AE865A0EAE6A
:1019980027AE57AE875A0EAE28AE58AE885A0EAE4E
:1019A80029AE59AE895A0FAF20AF50AF805A0FAF4A
:1019B80021AF51AF815A0FAF22AF52AF825A0FAF4A
:1019C80023AF53AF835A0FAF24AF54AF845A0FAF2E
:1019D80025AF55AF855A0FAF26AF56AF865A0FAF12
:1019E80027AF57AF875A0FAF28AF58AF885A0FAFF6
:1019F80029AF59AF895A10B020B050B0805A10B0F2
:101A080021B051B0815A10B022B052B0825A10B0F1
:101A180023B053B0835A10B024B054B0845A10B0D5
:101A280025B055B0855A10B026B056B0865A10B0B9
:101A380027B057B0875A10B028B058B0885A10B09D
:101A480029B059B0895A11B120B150B1805A11B199
:101A580021B151B1815A11B122B152B1825A11B199
:101A680023B153B1835A11B124B154B1845A11B17D
:101A780025B155B1855A11B126B156B1865A11B161
:101A880027B157B1875A11B128B158B1885A11B145
:101A980029B159B1895A11B12AB15AB18A5A14B423
:101AA80020B450B4805A14B421B451B4815A14B437
:101AB80022B452B4825A14B423B453B4835A14B41B
:101AC80024B454B4845A14B425B455B4855A14B4FF
:101AD80026B456B4865A14B427B457B4875A15B5E1
:101AE80020B550B5805A18B821B851B8815A19B9DB
:101AF80020B950B9805A19B921B951B9815A19B9BF
:101B080022B952B982418E6900589BFF000000003B
:101B180000000000000000000000000000000000BD
:101B280000000000589BDF000000000001B2070021
:101B380000000200027360000A2D080007ED6541ED
:101B48009BDBFF60649B7700000100020003000438
:101B580000050006000700080009000A010B000C38
:101B6800000D000E000F01100011001202130014E6
:101B780000150016001700180019011A001B021C96
:101B8800001D001E001F0020002100220023002449
:101B980000250026022700280029002A002B002CF7
:101BA800002D002E002F0330003100489BF7000164
:101BB800010302030305429BDD0000429B75000000
:101BC800429B720000419B7400429B70000000AF72
:101BD8000FEF1313543F5401640160030221DC909A
:101BE8009C9DE0FEA3E064224E6003021F8E909C41
:101BF8009DE0A3E0FF909AFFE0FCA3E06F7002EC89
:101C08006E601EE4909B04F0A3F07B017A9B79043C
:101C1800909C78F0A37402F07F017EC2122FFF809F
:101C2800167B017A9B7904909C64E4F0A37402F01B
:101C38007F017EC2122D927B017A9C7917909C6459
:101C4800E4F0A37410F07FA07EC2122D92E4909C61
:101C580025F0A3E05407F07B017A9A79E678177C9F
:101C68009C7D017E007F10122764EF702F909B01EE
:101C7800E0FEA3E0FF909B04E0FCA3E0B5071DECA9
:101C8800B50619909C9DE0FEA3E0FF909AFFE0FC4A
:101C9800A3E06F7002EC6E70030221CC7B017A9C8A
:101CA800791778E67C9A7D017E007F101222ADE4D8
:101CB800909B03F0909C4AF0909C4AE0C39408746F
:101CC8008094804003021F36E4909C49F0909C4920
:101CD800E0C39410748094804003021F2DA3E0C4D5
:101CE80054F0FF909C49E02F909C4EF0E075F0185E
:101CF800A42400FFE5F03435FE7B017A9C79179027
:101D08009C64E4F0A37430F0122D927B017A9C79E4
:101D180017909C4B122582909C49E0FF7E0074012D
:101D2800A807088005C333CE33CED8F9FF909C4A64
:101D3800E025E024E6F582E4349AF583E0FCA3E0AC
:101D4800FDEE5CFEEF5D4E7003021E84909C4B120C
:101D58002562122369645A7004E5F064A5700302D1
:101D68001E21909C4B12256274A575F05A1223CC43
:101D78007B017A9C792B909C64E4F0A37408F07F33
:101D8800107E00122D927B017A9C792B78197C9C0D
:101D98007D017E007F031222AD7B017A9C792F782A
:101DA8001C7C9C7D017E007F031222AD7E007F0893
:101DB8007D007B017A9C791F122788909C4EE0FF5A
:101DC800909C25E4F0A3EFF07B017A9C7927C00270
:101DD800C001909C4E75F020A42409F9748035F058
:101DE800FA909C52122582909C55E4F0A37420F03E
:101DF800D001D002124D0A909C4EE075F018A42430
:101E080000FFE5F03435FE7B017A9C7917909C78C9
:101E1800E4F0A37430F0122FFF909B04E0FEA3E0DF
:101E2800FF7C007D0A12232B909B03E0C39FEC9E4E
:101E38004041A3E0FEA3E0FF12232BEF240AFFE4B6
:101E48003EFE909B03E0C39FEC9E5027909C4EE083
:101E580075F018A42400FDE5F03435FC909B04E0EF
:101E6800A3E075F00AA4FF909B03E0C39FFF7B22C9
:101E7800124111909B03E004F0021F24909C4B1226
:101E88002562122369645A7004E5F064A5600302B0
:101E98001F247B017A9C792B909C64F0A37408F032
:101EA8007F107E00122D927B017A9C792B781F7C03
:101EB8009C7D017E007F031222AD7B017A9C792FE5
:101EC80078227C9C7D017E007F031222AD909C4E7F
:101ED800E0FF909C25E4F0A3EFF07B017A9C791752
:101EE800909C78E4F0A37410F07F007E30122FFFEE
:101EF8001245A7E4909C17F0A3F0909C4EE075F073
:101F080018A42400FFE5F03435FE7B017A9C79178C
:101F1800909C78E4F0A37402F0122FFF909C49E0A3
:101F280004F0021CD5909C4AE004F0021CC0909B6F
:101F380003E0909C49F0909B04E0FEA3E0FF7C0046
:101F48007D0A12232BEF240AFFE43EFE909C49E011
:101F5800C39FEC9E501D909B04E0A3E075F00AA47B
:101F6800FF909C49E0C39FFF123FD2909C49E00438
:101F7800F080C3909B04E0FEA3E0FF909B01EEF08D
:101F8800A3EFF00221CC909C9DE0FEA3E064234ED9
:101F980060030221CC909C9DE0A3E0FF909AFFE0B3
:101FA800FCA3E06F7002EC6E601EE4909B04F0A34B
:101FB800F07B017A9B7904909C78F0A37402F07FFF
:101FC800017EC2122FFF80347B017A9B7904909C9A
:101FD80064E4F0A37402F07F017EC2122D92909BFC
:101FE80001E0FEA3E0FF909B04E0FCA3E06F700219
:101FF800EC6E70030221CC80030221CC909B04E09C
:10200800FEA3E0FF909B01EEF0A3EFF0E4A3F090B5
:102018009B03E0C3940A7480948040030221B2A316
:10202800E0FEA3E0FF7C007D0A12232B909B03E0D7
:102038002FFFEC3EFE909AFDE0FCA3E0FDC3EF9D70
:10204800EE9C40030221B2909B04E0FEA3E0FF7CDB
:10205800007D0A12232B909B03E02FFFEC3EFE909D
:102068009AF9E0FCA3E0D39FEC9E4032909B04E0F9
:10207800FEA3E0FF7C0012232B909B03E02FFFECD4
:102088003EFEEF2401FFE43EFE909AF9E0FCA3E057
:10209800C39FFFEC9E909C4BF0A3EFF0803A909B7F
:1020A80004E0FEA3E0FF7C007D0A12232B909B0333
:1020B800E02FFFEC3EFEEF2401FFE43EFE909AF98C
:1020C800E0FCA3E02400FDEC3402FCC3ED9FFFEC30
:1020D8009E909C4BF0A3EFF0909C4BE0FEA3E07821
:1020E80003C333CE33CED8F92400FFEE3420FEE408
:1020F800FCFD909C62122519909C66E4F0A374087C
:10210800F07D007C307F5A1249CA7B017A9C79178E
:10211800909C64E4F0A37410F07F007E30122D923E
:102128007B017A9C7927C003C002C001909C25E0FE
:10213800FEA3E07805C333CE33CED8F92409F97469
:10214800803EFA7B01909C52122582909C55E4F0C7
:10215800A37420F0D001D002D003124D0A909B0343
:10216800E025E02406F582E4349BF583E0FEA3E055
:10217800FF7B017A9C7917909C78E4F0A37430F087
:10218800122FFF909B03E025E02406F582E4349BA0
:10219800F583E0FCA3E0FD909B03E0FF7B23124165
:1021A80011909B03E004F0022017909B03E0C39476
:1021B8000A74809480500DE0FF123FD2909B03E098
:1021C80004F080E6909C9DE0FEA3E0FF909AFFEE6D
:1021D800F0A3EFF022E709F608DFFA8046E709F2F4
:1021E80008DFFA803E88828C83E709F0A3DFFA8053
:1021F80032E309F608DFFA8078E309F208DFFA80AB
:102208007088828C83E309F0A3DFFA806489828A6C
:1022180083E0A3F608DFFA805889828A83E0A3F274
:1022280008DFFA804C80D280FA80C680D48069802A
:10223800F28033801080A680EA809A80A880DA80B5
:10224800E280CA803389828A83ECFAE493A3C8C502
:1022580082C8CCC583CCF0A3C8C582C8CCC583CC02
:10226800DFE9DEE7800D89828A83E493A3F608DF3D
:10227800F9ECFAA9F0EDFB2289828A83ECFAE0A353
:10228800C8C582C8CCC583CCF0A3C8C582C8CCC594
:1022980083CCDFEADEE880DB89828A83E493A3F2D9
:1022A80008DFF980CC88F0EF60010E4E60C388F03B
:1022B800ED2402B4040050B9F582EB2402B4040002
:1022C80050AF232345822390222D73BB01068982B8
:1022D8008A83E0225002E722BBFE02E32289828A37
:1022E80083E49322BB010CE58229F582E5833AF564
:1022F80083E0225006E92582F8E622BBFE06E9259E
:1023080082F8E222E58229F582E5833AF583E493AF
:1023180022BB010689828A83F0225002F722BBFE83
:1023280001F322EF8DF0A4A8F0CF8CF0A428CE8D75
:10233800F0A42EFE22C5F0F8A3E028F0C5F0F8E5D9
:1023480082158270021583E038F022A3F8E0C5F008
:1023580025F0F0E582158270021583E0C838F0E8B0
:1023680022BB010A89828A83E0F5F0A3E0225006A5
:1023780087F009E71922BBFE07E3F5F009E3192204
:1023880089828A83E493F5F074019322BB0110E5F6
:102398008229F582E5833AF583E0F5F0A3E022503F
:1023A80009E92582F886F008E622BBFE0AE92582BB
:1023B800F8E2F5F008E222E5832AF583E993F5F0DF
:1023C800A3E99322BB010A89828A83F0E5F0A3F08E
:1023D800225006F709A7F01922BBFE06F3E5F0091B
:1023E800F31922EF2BFFEE3AFEED39FDEC38FC2213
:1023F80075F008758200EF2FFFEE33FECD33CDCC9C
:1024080033CCC58233C5829BED9AEC99E58298401E
:102418000CF582EE9BFEED9AFDEC99FC0FD5F0D6FB
:10242800E4CEFBE4CDFAE4CCF9A88222B800C1B925
:102438000059BA002DEC8BF084CFCECDFCE5F0CB63
:10244800F97818EF2FFFEE33FEED33FDEC33FCEB9C
:1024580033FB10D703994004EB99FB0FD8E5E4F957
:10246800FA227818EF2FFFEE33FEED33FDEC33FC44
:10247800C933C910D7059BE99A4007EC9BFCE99A38
:10248800F90FD8E0E4C9FAE4CCFB2275F010EF2F7D
:10249800FFEE33FEED33FDCC33CCC833C810D7077D
:1024A8009BEC9AE899400AED9BFDEC9AFCE899F8B8
:1024B8000FD5F0DAE4CDFBE4CCFAE4C8F922EB9FBF
:1024C800F5F0EA9E42F0E99D42F0EC6480C8648031
:1024D8009845F022EB9FF5F0EA9E42F0E99D42F024
:1024E800E89C45F022E86010ECA2E713FCED13FD30
:1024F800EE13FEEF13FFD8F022E0FCA3E0FDA3E00B
:10250800FEA3E0FF22E0F8A3E0F9A3E0FAA3E0FBD2
:1025180022ECF0A3EDF0A3EEF0A3EFF022A8828561
:1025280083F0D083D08212253C12253C12253C1220
:10253800253CE473E493A3C583C5F0C583C8C5826D
:10254800C8F0A3C583C5F0C583C8C582C822A42521
:1025580082F582E5F03583F58322E0FBA3E0FAA358
:10256800E0F922F8E0FBA3A3E0F925F0F0E58215F5
:102578008270021583E0FA38F022EBF0A3EAF0A3A8
:10258800E9F022D083D082F8E4937012740193703A
:102598000DA3A393F8740193F5828883E4737402FE
:1025A800936860EFA3A3A380DFD083D082F8E4937D
:1025B8007012740193700DA3A393F8740193F582BC
:1025C8008883E473740293B5F0067403936860E932
:1025D800A3A3A3A380D8E3F5F009E208B5F06BDF65
:1025E800F58067E3F5F009E608B5F05EDFF5805A97
:1025F80087F009E608B5F052DFF6804E87F009E269
:1026080008B5F046DFF6804288828C8387F009E0BF
:10261800A3B5F036DFF6803288828C8387F009E430
:1026280093A3B5F025DFF5802188828C83E3F5F04C
:1026380009E0A3B5F014DFF5801088828C83E3F5F8
:10264800F009E493A3B5F002DFF402270D80878038
:10265800E9809080D4803E8015806E807E809D8049
:10266800B7808D80A380518074803C0227198982AD
:102678008A83ECFAE493F5F0A3C8C582C8CCC58375
:10268800CCE493A3C8C582C8CCC583CCB5F076DFAB
:10269800E3DEE1807089828A83E493F5F0A3E2089F
:1026A800B5F062DFF4805E89828A83E0F5F0A3E604
:1026B80008B5F051DFF5804D89828A83E0F5F0A3F3
:1026C800E208B5F040DFF5803C89828A83E493F51F
:1026D800F0A3E608B5F02EDFF4802A80028057893F
:1026E800828A83ECFAE493F5F0A3C8C582C8CCC506
:1026F80083CCE0A3C8C582C8CCC583CCB5F006DFBF
:10270800E4DEE280007FFFB5F0020F2240027F0185
:102718002289828A83ECFAE0F5F0A3C8C582C8CC86
:10272800C583CCE0A3C8C582C8CCC583CCB5F0D5D9
:10273800DFE5DEE380CF89828A83ECFAE0F5F0A357
:10274800C8C582C8CCC583CCE493A3C8C582C8CC0D
:10275800C583CCB5F0AFDFE4DEE280A988F0EF6096
:10276800010E4E60ABED2402B404005098F582EBE4
:102778002402B40400508E232345822390265573E7
:10278800EF4E6012EF60010EEDBB010B89828A8368
:10279800F0A3DFFCDEFA2289F05007F709DFFCA975
:1027A800F022BBFEFCF309DFFCA9F022F8BB010D07
:1027B800E58229F582E5833AF583E8F0225006E9B7
:1027C8002582C8F622BBFE05E92582C8F2227BFFD6
:1027D8007A5279FA78337C9C7D017E007F0C122234
:1027E800ADE4909C41F07B017A9C791F909C64F049
:1027F800A3740AF07F207EA0122D92909C23E0A360
:10280800E020E36A909C29E4F0A304F0909C1FE088
:10281800A3E030E63B909C23E0A3E020E628909CD0
:1028280029E4F0A37402F0909C23E0A3E020E40BD9
:10283800909C29E4F0A37403F0803A909C29E4F07A
:10284800A37402F0802F909C29E4F0A304F0802563
:10285800909C23E0A3E020E40B909C29E4F0A3746F
:1028680003F08011909C29E4F0A304F08007E49021
:102878009C29F0A3F07B017A9C7929909C78E4F05C
:10288800A37402F074A0FFFE122FFF909C25E0FEB7
:10289800A3E0EE30E61E909C25A3E0EE30E70B9017
:1028A8009C29E4F0A37406F0805D909C29E4F0A3D1
:1028B80004F08053909C25E0FEA3E0EE30E70B90F7
:1028C8009C29E4F0A37402F0803D909C27E0A3E0EB
:1028D80030E009A3E4F0A37403F0802B909C27E078
:1028E800A3E030E109A3E4F0A37404F08019909CFC
:1028F80027E0A3E030E209A3E4F0A37405F0800721
:10290800E4909C29F0A3F07B017A9C7929909C782B
:10291800E4F0A37402F07FA17EA0122FFF909C2503
:10292800E0FEA3E0FFEE541F909C25F0A3EFF0E437
:10293800909C3FF0909C3FE0C39402748094804048
:10294800030229E7E4A3F0909C40E0C3941074804C
:1029580094805075E0FF7E007401A807088005C3C5
:1029680033CE33CED8F9FF909C3FE025E02425F5FF
:1029780082E4349CF583E0FCA3E0FDEE5CFEEF5DB1
:102988004E6030909C40E02401FDE433FC909C3F75
:10299800E075F010A42DFFE5F03CFE909C41E0FDB1
:1029A80004F0ED25E02433F582E4349CF583EEF061
:1029B800A3EFF0909C41E0C3940674809480500982
:1029C800909C40E004F002294F909C41E0C394069B
:1029D800748094805009909C3FE004F002293C7B6D
:1029E800017A9C7933909C78E4F0A3740AF07FA272
:1029F8007EA0122FFF7B017A9C792B909C64E4F0D7
:102A0800A37406F07F277EA0122D92909C2DE0FEE5
:102A1800A3E064014E7008909C31F0A3F0802690EA
:102A28009C2DE0FEA3E04E701C909C21E0A3E020CA
:102A3800E20A909C31E4F0A304F08009909C31E410
:102A4800F0A37402F0909C23E0A3E030E31D909C77
:102A58002BE0FEA3E04E700A909C31F0A37404F0C2
:102A68008009909C31E4F0A37403F0909C2FE0FE61
:102A7800A3E064014E7008A3F0A37405F0803A90B7
:102A88009C2FE0FEA3E064024E7008A3F0A3740636
:102A9800F08026909C2FE0FEA3E064034E7008A30C
:102AA800F0A37407F08012909C2FE0FEA3E064046A
:102AB8004E7006A3F0A37408F07B017A9C793190DC
:102AC8009C78E4F0A37402F07FA77EA0122FFF2267
:102AD800909C1C122582909C1FECF0A3EDF0E4A3BF
:102AE800F0A3F0909C1FE0FEA3E0FFA3E0FCA3E0AE
:102AF800C39FEC9E500C909C21E475F00112233D7D
:102B080080E1909C1FE0FEA3E0C39405EE94005082
:102B180003022D91E4A3F0A3F0909C1C122562906F
:102B28009C21E0FEA3E0F5828E831222EC64026011
:102B380003022D6B909C1C122562909C21E0A3E05F
:102B480029F9EA3EFA9000011222EC12258B2B603B
:102B5800032CB40600002D6B909C1C122562909CDF
:102B680021E0FEA3E029F9EA3EFA9000021222ECE5
:102B7800FF909C25E4F0A3EFF0909C21E0A3E0FFF8
:102B8800909C25E0FCA3E02FFFEC3EFEEF2405FF20
:102B9800E43EFE909C1FE0FCA3E0FDD3EF9DEE9C7D
:102BA8004011909C1FE0FEA3E0FFA3EEF0A3EFF01E
:102BB800022D6B909C1C122562909C21E0FEA3E0E4
:102BC80029F9EA3EFA909C25E0FEA3E02403FDE4FF
:102BD8003EFC124A4F909C23EEF0A3EFF0909C1C11
:102BE800122562909C21E0FEA3E029F9EA3EFA90C2
:102BF8009C25E0FEA3E029F9EA3EFA9000031222A0
:102C0800ECFD909C23E0FEA3E0EE6D7001E4600310
:102C1800022D6B909C1C122562909C21E0FEA3E083
:102C280029F9EA3EFA909C25E0FEA3E029F9EA3E5C
:102C3800FA9000041222ECFF909C23E0A3E06F704E
:102C480001E46003022D6B909029E0FEA3E0FF9061
:102C58009C1C122562E92403F9E43AFAC003C00275
:102C6800C001909C1C1225629000021222ECFD907B
:102C78009C78E4F0A3EDF0D001D002D003122FFF2E
:102C88007E007F0E7D007B017A9079211227889043
:102C98009C25E0FEA3E02405FFE43E909C21F0A3E0
:102CA800EFF0908E69E04402F0022D6B909C21E0D9
:102CB800FEA3E02408FFE43EFE909C1FE0FCA3E096
:102CC800FDD3EF9DEE9C4011909C1FE0FEA3E0FF1A
:102CD800A3EEF0A3EFF0022D6B909C1C12256290DE
:102CE8009C21E0FEA3E029F9EA3EFA7D067C001269
:102CF8004A4F909C23EEF0A3EFF0909C1C122562A3
:102D0800909C21E0FEA3E029F9EA3EFA9000061221
:102D180022ECFD909C23E0FEA3E0EE6D7001E470D0
:102D280042909C1C122562909C21E0FEA3E029F9A8
:102D3800EA3EFA9000071222ECFF909C23E0A3E001
:102D4800B50720E4909C2175F00812233D7E007F92
:102D58000E7D007B017A907921122788908E69E098
:102D68004402F0909C21E475F00112233D909C1FD1
:102D7800E0FEA3E024FBFFEE34FFFEA3E0FCA3E0AB
:102D8800C39FEC9E5003022B2122909C5FEEF0A380
:102D9800EFF0A31225827B007A007900C003C002FD
:102DA800C001909C61122562D082D083D0E06B7004
:102DB80008E965827003EA65837003022FFE909C20
:102DC80064E0FEA3E04E7003022FFE909C64E0A333
:102DD800E0FFEEC313FEEF13FF909C5FE0FCA3E05F
:102DE8002FFFEE3CFED3EF94FEEE94FF4003022F3C
:102DF800FEC2AF909C5FE0A3E05401909C66F09007
:102E08009C5FE0FEA3E0FFEEC313FEEF13FF909C70
:102E18005FEEF0A3EFF0909C5FE0FEA3E07810CEA9
:102E2800C313CE13D8F9F5F1909C5FE0FEA3E0EE52
:102E3800F5F2909C5FE0A3E0F5F3E4F5F875F40192
:102E4800D2FF30FCFDD2FD909C66E0640170729068
:102E58009C64E0FEA3E064014E700AC2FBC2FAD291
:102E6800F9C2F88008C2FBC2FAD2F9D2F8D2FE2021
:102E7800FEFD909C64E0FEA3E064014E701A909CF5
:102E88006175F00112256BE5FC122319909C64749E
:102E9800FFF5F012233D8029909C61E475F0011242
:102EA800256BE5FC122319909C61E475F00112254D
:102EB8006BE5FD122319909C6474FF75F0FE1223D4
:102EC8003D909C64E0FEA3E04E7003022FF9909CB5
:102ED80064E0A3E0C39404EE94004003022FA290A0
:102EE8009C64E0A3E08EF01225B12F1600012F0C90
:102EF80000022F02000300002F1ED2FBD2FAD2F9E3
:102F0800C2F88012D2FBD2FAC2F9C2F88008D2FB0A
:102F1800C2FAC2F9C2F8D2FE20FEFD909C64E0FE1F
:102F2800A3E08EF01225B12F8F00012F6F00022F22
:102F38003F000300002FF9909C61E475F001122511
:102F48006BE5FA122319909C61E475F00112256B68
:102F5800E5FB122319909C61E475F00112256BE5DD
:102F6800FC122319022FF9909C61E475F0011225D7
:102F78006BE5FA122319909C61E475F00112256B38
:102F8800E5FB122319806A909C61E475F001122513
:102F98006BE5FA12231980598057D2FBD2FAD2F97D
:102FA800D2F8D2FE20FEFD909C61E475F001122556
:102FB8006BE5FA122319909C61E475F00112256BF8
:102FC800E5FB122319909C61E475F00112256BE56D
:102FD800FC122319909C61E475F00112256BE5FD44
:102FE800122319909C6474FF75F0FC12233D022E85
:102FF800C9E4F5F8D2AF22909C73EEF0A3EFF0A3EA
:103008001225827B007A007900C003C002C00190BB
:103018009C75122562D082D083D0E06B7008E96578
:10302800827003EA6583700302326A909C78E0FE3E
:10303800A3E04E700302326A909C78E0A3E0FFEEB2
:10304800C313FEEF13FF909C73E0FCA3E02FFFEE89
:103058003CFED3EF94FEEE94FF400302326AC2AF07
:10306800909C73E0A3E05401909C7AF0909C73E0EC
:10307800FEA3E0FFEEC313FEEF13FF909C73EEF088
:10308800A3EFF0909C73E0FEA3E07810CEC313CEBC
:1030980013D8F9F5F1909C73E0FEA3E0EEF5F290F9
:1030A8009C73E0A3E0F5F3E4F5F875F401D2FF3082
:1030B800FCFDC2FD909C7AE064017072909C78E0FF
:1030C800FEA3E064014E700AC2FBC2FAD2F9C2F84C
:1030D8008008C2FBC2FAD2F9D2F8909C78E0FEA32D
:1030E800E064014E701A909C7575F00112256B1200
:1030F80022D3F5FC909C7874FFF5F012233D8029CB
:10310800909C75E475F00112256B1222D3F5FC90A2
:103118009C75E475F00112256B1222D3F5FD909C85
:103128007874FF75F0FE12233DD2FE20FEFD909CC0
:1031380078E0FEA3E04E7003023265909C78E0A32D
:10314800E0C39404EE9400400302320E909C78E0B1
:10315800A3E08EF01225B1318300013179000231EC
:103168006F00030000318BD2FBD2FAD2F9C2F8808B
:1031780012D2FBD2FAC2F9C2F88008D2FBC2FAC254
:10318800F9C2F8909C78E0FEA3E08EF01225B131E8
:10319800F6000131D6000231A70003000032059085
:1031A8009C75E475F00112256B1222D3F5FA909CF8
:1031B80075E475F00112256B1222D3F5FB909C750E
:1031C800E475F00112256B1222D3F5FC802F909C38
:1031D80075E475F00112256B1222D3F5FA909C75EF
:1031E800E475F00112256B1222D3F5FB800F909C39
:1031F80075E475F00112256B1222D3F5FAD2FE3070
:10320800FE5B80FB8057D2FBD2FAD2F9D2F8909CB1
:1032180075E475F00112256B1222D3F5FA909C75AE
:10322800E475F00112256B1222D3F5FB909C75E42E
:1032380075F00112256B1222D3F5FC909C75E4758C
:10324800F00112256B1222D3F5FDD2FE20FEFD906F
:103258009C7874FF75F0FC12233D023136E4F5F8D2
:10326800D2AF227BFF7A52794078177C9C7D017E11
:10327800007F201222AD7B017A9C7917909C39122D
:103288002582909C3C122582E4909C37F0A3F09014
:103298009C37E0FEA3E0C3EE94024003023334906F
:1032A8009C37E0A3E07803C333CE33CED8F92400AB
:1032B800FFEE3420FEE4FCFD909C62122519909CE0
:1032C80066E4F0A37408F07D007C307F5A1249CA86
:1032D8007B017A9C7917909C64E4F0A37410F07FCA
:1032E800007E30122D92909C391225621223696457
:1032F8005A7004E5F064A56026909C3C1225621281
:103308002369B4A527E5F0B45A22909C3C122562A3
:1033180078F77C9A7D017E007F081222AD800D909F
:103328009C37E475F00112233D023297E4909C37F4
:10333800F0A3F0909C37E0FEA3E0C3940AEE94005B
:1033480040030234C67BFF7A527960783F7C9C7DCB
:10335800017E007F201222AD7B017A9A79B0783FF6
:103368007C9C7D017E007F1A1222AD909C37E0FE86
:10337800A3E0FF7C007D2412232BEF2446FFE43ECC
:10338800909C43F0A3EFF0909C487401F0909C3718
:10339800E0FEA3E0909B1A75F006122556EE75F034
:1033A80006A42583F583E0FEA3E0FF7B017A9C79E0
:1033B8003F909C78E4F0A37420F0122FFF7B017AF1
:1033C8009A79CA783F7C9C7D017E007F1A1222ADD3
:1033D800909C37E0FEA3E0FF7C007D2412232BEFB6
:1033E8002446FFE43E909C43F0A3EFF0909C487481
:1033F80001F0909C37E0FEA3E0909B1C75F006124C
:103408002556EE75F006A42583F583E0FEA3E0FFBC
:103418007B017A9C793F909C78E4F0A37420F012A9
:103428002FFF7B017A9B7956783F7C9C7D017E003B
:103438007F1A1222AD909C37E0FEA3E0FF7C007D4E
:103448002412232BEF2446FFE43E909C43F0A3EF85
:10345800F0909C37E0FEA3E0FF12232BEF2446FFF9
:10346800E43E909C49F0A3EFF0909C37E0FEA3E087
:10347800FF12232BEF2464FFE43E909C4DF0A3EF52
:10348800F0909C37E0FEA3E0909B1E75F006122595
:1034980056EE75F006A42583F583E0FEA3E0FF7BD6
:1034A800017A9C793F909C78E4F0A37420F0122F65
:1034B800FF909C37E475F00112233D02333B2290C4
:1034C8009C1C122582909C1C1225621222D3909C6F
:1034D8001FF0909C1FE0C394767480948040030290
:1034E80036FEE075F00E90902F122556E0645A6073
:1034F800030236F5909C1FE075F00E90903212256D
:1035080056E070030236F5909C1FE075F00E90901F
:1035180034122556E070030236FE909C1FE075F0C9
:103528000E909034122556E064017029909C1FE09B
:1035380075F00E909035122556E0FEA3E0FF909CA2
:103548009DE0FCA3E06F7002EC6E60030236F502AA
:1035580036FE0236F5909C1FE075F00E90903412FE
:103568002556E06402600302361A909C1FE075F04D
:103578000E909035122556E0FEA3E0FF7B017A9C61
:103588007920909C64E4F0A37402F0122D92909C30
:1035980020E0A3E0645A60030236F5909C1FE0C364
:1035A800947574809480503CE075F00E90904212AF
:1035B8002556E06402702D909C1FE075F00E9090E7
:1035C80043122556E0FEA3E0FF909C1FE075F00E25
:1035D800909035122556E0FCA3E06F7002EC6E70F7
:1035E800030236FEE4909C20F0A3F0909C1FE07547
:1035F800F00E909035122556E0FEA3E0FF7B017A8D
:103608009C7920909C78E4F0A37402F0122FFF02BA
:1036180036FE909C1FE075F00E909034122556E00F
:10362800640360030236F5909C1FE075F00E9090DD
:103638003B122556E0FEA3E0FF909C9DE0FCA3E032
:10364800FDEF6D7002EE6C60030236F5909C1FE092
:1036580075F00E909035122556E0FEA3E0FF7B0131
:103668007A9C7920909C64E4F0A37402F0122D9265
:10367800909C20E0A3E0645A7073909C1FE0C39470
:1036880075748094805039E075F00E909042122540
:1036980056E06403702A909C1FE075F00E909043EA
:1036A800122556E0FEA3E0FF909C1FE075F00E90F7
:1036B8009035122556E0FCA3E06F7002EC6E603680
:1036C800E4909C20F0A3F0909C1FE075F00E909081
:1036D80035122556E0FEA3E0FF7B017A9C79209005
:1036E8009C78E4F0A37402F0122FFF8009909C1FCD
:1036F800E004F00234DA909C1FE0FF909C1C122535
:1037080062EF12231922E50F30E0167B017A9C79CB
:103718009D909C64E4F0A37402F07F147E00122D47
:1037280092E50F20E203023949909C9DE0FEA3E058
:103738004E70031227D6909C9DE0FEA3E064184EBD
:1037480060030237DB7B017A9C7917909C64F0A3B5
:103758007402F07F207EB8122D92909C17E0FEA391
:10376800E04E606F909C17E0A3E0D39404EE9400C1
:103778005061909C17E0A3E025E0FFEE33FE7493C0
:103788002FF9749C3EFA7B01909C78E4F0A37402B4
:10379800F07F247EB8122FFF909C17E4F0A3745A90
:1037A800F07B017A9C7917909C78E4F0A37402F07E
:1037B8007F847EB8122FFFE4909C17F0A3F07B0162
:1037C8007A9C7917909C78F0A37402F07F207EB8D9
:1037D800122FFF909C9DE0FEA3E064194E60030247
:1037E800386F7B017A9C791D909C64F0A37402F079
:1037F8007F237EB9122D92909C1DE0FEA3E0FFEE80
:10380800C4F854F0C868FEEFC4540F48EE540F9043
:103818009C17F0A3E4F0909C17E0FCA3E0FD909CBB
:103828001DE0FEA3E07807CEC313CE13D8F9541FCA
:10383800FFECFEED4FFF909C17EEF0A3EFF0909C8D
:103848001DE0A3E0547F909C19F0A3E4F004A3F0DA
:10385800A3F0FB7A9C7917909C78E4F0A37406F0A7
:103868007F247EB9122FFF7B017A9C7917909C6484
:10387800E4F0A37402F07F167E00122D92909C173C
:10388800E0FEA3E04E6025E4909C17F0A3F07B01D6
:103898007A9C7917909C78F0A37402F07F167E00CA
:1038A800122FFFE4909C91F0A3F08043909C91E04C
:1038B800FEA3E0C39458EE9402500C909C91E475DA
:1038C800F00112233D8028909C91E0FEA3E0B458BB
:1038D8001EEEB4021A909C91E475F00112233D90FB
:1038E8009C9DE0FEA3E04E6006E4FFFE1250AF9000
:1038F8009C93E0FEA3E0D39401EE9400400B909CCF
:103908009374FFF5F012233D22909C93E0FEA3E010
:1039180064014E702C909C17F0A3F0909C9374FF58
:10392800F5F012233DE4909C17F0A3F07B017A9CFC
:103938007917909C78F0A37402F07F2C7EA0122F48
:10394800FF22E4909C17F0A3F0E50F20E003023B70
:103958002B7B017A9C7917909C64E4F0A37402F0A5
:103968007F147E50122D92909C17E0FEA3E04E70BB
:1039780003023B2B909C17E0A3E08EF01225B13A8E
:10398800D8A0003AD8A0013AD8A0023AE5A0033A54
:10399800E5A0043AF2A0053AAFA4003AB4A4013A6B
:1039A800B9A4A03AB9A4A13AB9A4A23AB9A4A33A2D
:1039B800B9A4A43AB9A4A53AB9A4A63AB9A4A73A0D
:1039C800B9A4A83AB9A4A93AB9A4AA3AB9A4AB3AED
:1039D800B9A4AC3AB9A4AD3AB9A4AE3AB9A4AF3ACD
:1039E800B9A4B03AB9A4B13AB9A4B23AB9A4B33AAD
:1039F800B9A4B43AB9A4B53AB9A4B63AB9A4B73A8D
:103A0800B9A4B83AB9A4B93AB9A4BA3AB9A4BB3A6C
:103A1800B9A4BC3AB9A4BD3AB9A4BE3AB9A4BF3A4C
:103A2800B9A4C03AB9A4C13AB9A4C23AB9A4C33A2C
:103A3800B9A4C43AB9A4C53AB9A4C63AB9A4C73A0C
:103A4800B9A4C83AB9A4C93AB9A4CA3AB9A4CB3AEC
:103A5800B9A4CC3AB9A4CD3AB9A4CE3AB9A4CF3ACC
:103A6800B9A4D03AB9A4D13AC6A4F03AC6A4F13A56
:103A7800C6A4F23AC6A4F33AD3A6003B0FA6013B6C
:103A880004B3083B04B3213B04B3223B04B3233AF9
:103A9800F7B5213B04BA213B04BA223B04BA233AC6
:103AA800F7C02100003B0F124C2E805B12001680DD
:103AB80056909C17E0FEA3E0FF1250678049909C47
:103AC80017E0FEA3E0FF12501E803C1247528037D9
:103AD800909C17E0FEA3E0FF120086802A909C17B6
:103AE800E0FEA3E0FF123B2C801D12516880189065
:103AF8009C17E0FEA3E0FF124FD5800B909C17E0C7
:103B0800FEA3E0FF124CA2E4909C17F0A3F07B0107
:103B18007A9C7917909C78F0A37402F07F147E50F9
:103B2800122FFF22909C19EEF0A3EFF07BFF7A533F
:103B38007906781B7C9C7D017E007F081222AD7B74
:103B4800017A9C791B909C64E4F0A37402F07F21B5
:103B58007EA0122D92909C19E0FEA3E08EF0122513
:103B6800B13B75A0033C1AA00400003CDF909C1BED
:103B7800E0A3E030E245E4A3F0A3F0A3F0A3F07BD8
:103B8800017A9C791D909C78F0A37404F07F2A7EBA
:103B9800A0122FFF909C1DE4F0A3745AF0A3E4F048
:103BA800A3745AF07B017A9C791D909C78E4F0A369
:103BB8007404F07F8A7EA0122FFF22909C1BE0A342
:103BC800E054846003023CDFA3F0A304F0A3741361
:103BD800F0A37488F07B017A9C791D909C78E4F0BE
:103BE800A37404F07F2A7EA0122FFF909C1DE4F09E
:103BF800A3745AF0A3E4F0A3745AF07B017A9C7979
:103C08001D909C78E4F0A37404F07F8A7EA0122FA4
:103C1800FF22909C1BE0A3E030E745E4A3F0A3F06B
:103C2800A3F0A3F07B017A9C791D909C78F0A37493
:103C380004F07F2A7EA0122FFF909C1DE4F0A3744D
:103C48005AF0A3E4F0A3745AF07B017A9C791D9092
:103C58009C78E4F0A37404F07F8A7EA0122FFF22E0
:103C6800909C1BE0A3E05484706D7B017A9C7921C1
:103C7800909C64F0A37402F07F2C7EA0122D929089
:103C88009C21E0FEA3E064014E704C909C1DF0A3C3
:103C98007402F0A37413F0A37488F07B017A9C7902
:103CA8001D909C78E4F0A37404F07F2A7EA0122F64
:103CB800FF909C1DE4F0A3745AF0A3E4F0A3745A97
:103CC800F07B017A9C791D909C78E4F0A37404F051
:103CD8007F8A7EA0122FFF227B007A007900909CB9
:103CE80017122582909020E064016003023D7790CE
:103CF800901BE0FF9096A3E0D39F4011E090901BAB
:103D0800F090972412252500000000806290901BF7
:103D1800E0FF9096A3E06F7056FFFEFDFC9097249D
:103D280012250DD31224DC403890972412250DC398
:103D3800E50E9BFFE50D9AFEE50C99FDE50B98FC59
:103D4800E47B0AFAF9F8C31224DC50237B017A9643
:103D580079A49096A3E0FD7C00122AD81251958090
:103D68000EAF0EAE0DAD0CAC0B909724122519902A
:103D78008E69E030E03AE020E12990901C12250D90
:103D8800C3E50E9BFBE50D9AFAE50C99F9E50B984E
:103D9800F8909025E0FFE4FCFDFEC31224DC5003FC
:103DA800023E8C908E69E030E12DA3E004F080277C
:103DB80090901C12250DC3E50E9BFFE50D9AFEE5BC
:103DC8000C99FDE50B98FCE47BF47A01F9F8D31221
:103DD80024DC4003023E8C908E6AE07003123E8D14
:103DE800AF0EAE0DAD0CAC0B90901C122519908E39
:103DF80069E054FDF0E054FEF07B017A8E796A1296
:103E080034C7908E6AE0C39476748094805070E0D2
:103E180075F00EA4242FF9749035F0FA7B017821FF
:103E28007C907D017E007F0E1222AD909023E0648D
:103E38000370117B017A907921124374908E69E0A6
:103E48004401F022909023E064067038909029E0B5
:103E5800FEA3E0FF7B017A9C791A909C64E4F0A3AE
:103E68007402F0122D927B017A907921909C1AE0CD
:103E7800FCA3E0FD12448F908E69E04401F022E437
:103E8800908E6AF0227BFF7A5279C0781C7C9C7DE8
:103E9800017E007F281222ADE4909C44F0A3F090AC
:103EA8009C44E0FEA3E0C39436EE94004003023F36
:103EB800D1909C44E0A3E07803C333CE33CED8F945
:103EC800246CF582748E3EF583E0FF909C9DE0FCA7
:103ED800A3E0FDEF6D7001EC6003023FC4909C44C9
:103EE800E0FEA3E07803C333CE33CED8F9246DF5D2
:103EF80082748E3EF583E0FEA3E0FF7B017A9C7915
:103F08001C909C64E4F0A37402F0122D92909C44DF
:103F1800E0FEA3E07803C333CE33CED8F9246FF59F
:103F280082748E3EF583E0FEA3E0FF7B017A9C79E4
:103F38001E909C64E4F0A37402F0122D92909C1ED3
:103F4800E0FEA3E0FF909C1CE0FCA3E06F7002EC95
:103F58006E6069909C44E0FEA3E07803C333CE33DF
:103F6800CED8F9246FF582748E3EF583E0FEA3E087
:103F7800FF7B017A9C791C909C78E4F0A37402F092
:103F8800122FFF909C20E4F0A3745AF0909C44E018
:103F9800FEA3E07803C333CE33CED8F92471F5827B
:103FA800748E3EF583E0FEA3E0FF7B017A9C7920C6
:103FB800909C78E4F0A37402F0122FFF909C44E4E4
:103FC80075F00112233D023EA722909C4FEFF07B33
:103FD800FF7A5279A078507C9C7D017E007F201268
:103FE80022AD7B017A9A79B078507C9C7D017E0065
:103FF8007F1A1222AD909C4FE075F024A42446FF4E
:10400800E435F0909C54F0A3EFF0909C597401F0C3
:10401800909C4FE075F006A4241AF582E4349BF5D1
:1040280083E0FEA3E0FF7B017A9C7950909C78E4C2
:10403800F0A37420F0122FFF7B017A9A79CA785086
:104048007C9C7D017E007F1A1222AD909C4FE0750A
:10405800F024A42446FFE435F0909C54F0A3EFF03C
:10406800909C597401F0909C4FE075F006A4241CB4
:10407800F582E4349BF583E0FEA3E0FF7B017A9CA4
:104088007950909C78E4F0A37420F0122FFF7B0104
:104098007A9B795678507C9C7D017E007F1A12228B
:1040A800AD909C4FE075F024A42446FFE435F090D1
:1040B8009C54F0A3EFF0909C4FE075F024A42446A4
:1040C800FFE435F0909C5AF0A3EFF0909C4FE07518
:1040D800F024A42464FFE435F0909C5EF0A3EFF094
:1040E800909C4FE075F006A4241EF582E4349BF5FD
:1040F80083E0FEA3E0FF7B017A9C7950909C78E4F2
:10410800F0A37420F0122FFF22909C4FEFF0A3EC45
:10411800F0A3EDF0A3EBF07BFF7A52798078537C23
:104128009C7D017E007F201222AD7B017A9A79B0B6
:1041380078537C9C7D017E007F1A1222AD909C4FA3
:10414800E075F024A42446FFE435F0909C57F0A3D2
:10415800EFF0E4909C5CF0909C50E0FEA3E024011A
:10416800FFE43E909C53F0A3EFF0909C4FE075F075
:1041780006A4241AF582E4349BF583E0FEA3E0FF4D
:104188007B017A9C7953909C78E4F0A37420F01218
:104198002FFF7B017A9A79CA78537C9C7D017E0037
:1041A8007F1A1222AD909C4FE075F024A42446FF9C
:1041B800E435F0909C57F0A3EFF0909C52E0FFC3D9
:1041C80074239F909C5CF0909C50E0FEA3E0240434
:1041D800FFE43E909C53F0A3EFF0909C4FE075F005
:1041E80006A4241CF582E4349BF583E0FEA3E0FFDB
:1041F8007B017A9C7953909C78E4F0A37420F012A8
:104208002FFF909C50E0FEA3E02408FFE43E909C22
:1042180053F0A3EFF0909C4FE075F006A4241EF530
:1042280082E4349BF583E0FEA3E0FF7B017A9C796E
:1042380053909C78E4F0A37402F0122FFF22C0E0A0
:10424800C0F0C083C082C0D075D000C000C001C01B
:1042580002C003C004C005C006C007C2AF758CBC4D
:10426800758ACD909C81E475F00112233D909C8164
:10427800E0FEA3E0D394E8EE94034018909C81E418
:10428800F0A3F0A375F00112233D909C7FE475F034
:104298000112233D43C901909C8D122501E47B0145
:1042A800FAF9F81223EB909C8D122519909C85E45D
:1042B80075F00112233D909C87122501E4F8122322
:1042C800EB909C87122519909C8BE0FEA3E0FFE4FD
:1042D800FCFD7BDC7AFFF8D31224C6400A909C8B45
:1042E800E475F00112233D0509E50970020508AFE0
:1042F8000EAE0DAD0CAC0BE47B01FAF9F81223EB12
:104308008F0E8E0D8D0C8C0BE47B64122434AC0064
:10431800AD01AE02AF03E4FBFAF9F8C31224DC7076
:1043280003430A02E47BF47A01F9F8AF0EAE0DAD4F
:104338000CAC0B122434AC00AD01AE02AF03E4FBAD
:10434800FAF9F8C31224DC7003430A04430A01D2C1
:10435800AFD007D006D005D004D003D002D001D00A
:1043680000D0D0D082D083D0F0D0E032909C1C1204
:104378002582E4909C21F0909C1C122562900001FB
:104388001222ECFF909C21E0FE04F074222EF582AC
:10439800E4349CF583EFF0909C21E0FF04F0742254
:1043A8002FF582E4349CF5837403F0909C1C12254D
:1043B8006290000A122394E5F0FF909C21E0FE042D
:1043C800F074222EF582E4349CF583EFF0909C1C67
:1043D80012256290000A122394FF909C21E0FE04AB
:1043E800F074222EF582E4349CF583EFF0909C1C47
:1043F8001225629000031222ECFFE4909C21E0FE5B
:1044080004F074222EF582E4349CF583E4F0909C49
:104418001C1225629000031222ECFF909C21E0FE02
:1044280004F074222EF582E4349CF583EFF07B01CE
:104438007A9C7922909C21E0FD7C00124A4F909C46
:104448001FEEF0A3EFF0909C1FE0FEA3E0EEFFA3A9
:10445800E0FE04F074222EF582E4349CF583EFF03C
:10446800909C1FE0A3E0FFA3E0FE04F074222EF569
:1044780082E4349CF583EFF07B017A9C7922909C4E
:1044880021E0FD124E2F22909C1C122582909C1F29
:10449800ECF0A3EDF0E4909C23F0909C1C122562B4
:1044A8009000011222ECFF909C23E0FE04F074249B
:1044B8002EF582E4349CF583EFF0909C23E0FF0412
:1044C800F074242FF582E4349CF5837406F0909CF4
:1044D8001C12256290000A122394E5F0FF909C2399
:1044E800E0FE04F074242EF582E4349CF583EFF0AA
:1044F800909C1C12256290000A122394FF909C2322
:10450800E0FE04F074242EF582E4349CF583EFF089
:10451800909C1FE0FEA3E0EEFF909C23E0FE04F0D9
:1045280074242EF582E4349CF583EFF0909C1FE010
:10453800A3E0FF909C23E0FE04F074242EF582E4AF
:10454800349CF583EFF07B017A9C7924909C23E0DE
:10455800FD7C00124A4F909C21EEF0A3EFF0909C56
:1045680021E0FEA3E0EEFFA3E0FE04F074242EF5A4
:1045780082E4349CF583EFF0909C21E0A3E0FFA354
:10458800E0FE04F074242EF582E4349CF583EFF009
:104598007B017A9C7924909C23E0FD124E2F229077
:1045A8009AF9E0FEA3E07803C333CE33CED8F924DA
:1045B80000FFEE3420FEE4FCFD909C621225199069
:1045C8009C66E4F0A37408F07D007C307FA5124956
:1045D800CA909AF9E475F00112233D909AF9E0FE29
:1045E800A3E0C3EE94024007E4909AF9F0A3F09098
:1045F8009AFDE0FEA3E0C3EE94024028909AFD7471
:1046080002F0A3E4F0909AFB75F00112233D909A12
:10461800FBE0FEA3E0C3EE94024013E4909AFBF0A3
:10462800A3F0800A909AFDE475F00112233D909A58
:10463800F7745AF0A374A5F07B017A9A79F7909CE5
:1046480078E4F0A37408F07F007E30122FFF909A70
:10465800F9E0FEA3E07803C333CE33CED8F92400C3
:10466800FFEE3420FEE4FCFD909C62122519909C1C
:1046780066E4F0A37404F07D007C307FA51249CA7B
:1046880022909C6212252500003000909C66E4F080
:10469800A3740AF07D007C307F5A1249CA7B017AE4
:1046A8009B79FF909C64E4F0A37414F07F007E3043
:1046B800122D92E4909C17F0909C17E0C394067416
:1046C800809480506EE025E025E024FFF582E434F4
:1046D8009BF583122501E4FBFAF9F8C31224DC6088
:1046E80022909C17E025E025E024FFF582E4349B26
:1046F800F5831225017B3F7A42790F7800C3122493
:10470800DC5028909C17E025E025E024DFF582E4C2
:10471800349BF583122501909C17E025E025E024C1
:10472800FFF582E4349BF583122519909C17E00469
:10473800F080857B017A9B79FF909C78E4F0A374E4
:1047480014F07FA07EA6122FFF227B017A9C791994
:10475800909C64E4F0A37410F07F207EA6122D9242
:10476800909C19E0A3E025E025E02403F582E434D9
:104778009CF583122501909C1D12250DC31224DC83
:1047880060087F077E001250AF22909C25122501F9
:10479800909C2112250DC31224DC60087F087E003E
:1047A8001250AF22909C21122501909C19E0A3E0A1
:1047B80025E025E02403F582E4349CF583122519CD
:1047C800125135E4909C2DF0909C2DE0C3940A740E
:1047D8008094805018E025E02419F582E4349CF593
:1047E80083E4F0A3F0909C2DE004F080DB7B017A59
:1047F8009C7919909C78E4F0A3740CF07F227EA633
:10480800122FFF22759401759502758E007593001D
:1048180075C87075C96075F800787FE4F6D8FD75BD
:104828008110024868024F88E493A3F8E493A340F8
:1048380003F68001F208DFF48029E493A3F8540713
:10484800240CC8C333C4540F4420C8834004F4560E
:10485800800146F6DFE4800B010204081020408046
:10486800900100E47E019360BCA3FF543F30E5094A
:10487800541FFEE493A360010ECF54C025E060A846
:1048880040B8E493A3FAE493A3F8E493A3C8C582D9
:10489800C8CAC583CAF0A3C8C582C8CAC583CADF47
:1048A800E9DEE780BE909C1DEEF0A3EFF0A3E4F0F4
:1048B800A3745AF0909C1DE0FEA3E064194E702189
:1048C800909C1DE0A3E0FEE42400FFEE34A0FE7BF4
:1048D800017A9C791F909C78E4F0A37402F0122F5F
:1048E800FF909C1DE0FEA3E0641B4E7021909C1D70
:1048F800E0A3E0FEE42400FFEE34A0FE7B017A9CF6
:10490800791F909C78E4F0A37402F0122FFF909C1A
:104918001DE0FEA3E0642F4E7021909C1DE0A3E0F3
:10492800FEE42400FFEE34A0FE7B017A9C791F9000
:104938009C78E4F0A37402F0122FFF22C0E0C0F0CC
:10494800C083C082C0D075D000C000C004C006C0FB
:1049580007909C7CE4F0C2AFE59B30E03DE59CF01D
:10496800E0FF9099AAE0FCA3E024B0F58274993C9A
:10497800F583EFF09099AAE475F00112233D539B5B
:10498800FE539BFE9099AAE0FEA3E0C39480EE94A8
:104998000040079099AAE4F0A3F0E59B30E10B539F
:1049A8009BFD539BFD9099A9E4F043C901D2AFD078
:1049B80007D006D004D000D0D0D082D083D0F0D099
:1049C800E032909C5FEFF0A3ECF0A3EDF0E4F5F19A
:1049D800F5F275F30475F40175F88F30FCFD909CC1
:1049E8005FE0F5FA909C6212250178101224ED8F91
:1049F800FB909C6212250178081224ED8FFC909C94
:104A080062122501EF54FEFFE48FFDD2FE20FEFD69
:104A1800909C60E0FEA3E0EEF5FA909C60E0A3E0D5
:104A280054FEF5FB909C66E0FEA3E0EEF5FC909C3E
:104A380066E0A3E054FEF5FDD2FE20FEFDE4F5F8A5
:104A48007F04FE124E8922909C38122582909C3B4E
:104A5800ECF0A3EDF0A374FFF0A3F0909C3B74FF7F
:104A6800F5F012235345F0604D909C38E475F00141
:104A780012256B1222D3FF909C3DE06FFF909C3F64
:104A8800E4F0A3EFF0909C3FE0FEA3E02428F58239
:104A980074973EF583E0FF909C3EE06F909C3DF05C
:104AA800909C3FE0A3E02428F58274983EF583E0CB
:104AB800909C3EF080A5909C3DE0FEA3E0FDEEEDCD
:104AC800FF22909C1DEEF0A3EFF0909C1DE0FEA34A
:104AD800E04E6065909C1DE0A3E064014E700412F6
:104AE8004EE222909C1DE0FEA3E064024E604A90D4
:104AF8009C1DE0A3E064034E703FA3F0909C1FE070
:104B0800C3940674809480502DE025E025E024DFCE
:104B1800F582E4349BF583122501909C1FE025E083
:104B280025E024FFF582E4349BF583122519909C37
:104B38001FE004F080C612513522C0E0C0F0C083E7
:104B4800C082C0D075D000C000C004C006C00790A5
:104B58009C7DE4F0C2AFE59754016401703AE59F8B
:104B6800F0E0FF9099ACE0FCA3E02430F582749A61
:104B78003CF583EFF09099ACE475F00112233D53B6
:104B880097FE9099ACE0FEA3E0C39480EE940040B9
:104B9800079099ACE4F0A3F043C901D2AFD007D095
:104BA80006D004D000D0D0D082D083D0F0D0E0326C
:104BB800C0E0C0F0C083C082C0D075D000C000C0C3
:104BC80004C006C007909C7EE4F0C2AFE5AB540178
:104BD8006401703AE5ADF0E0FF9099AEE0FCA3E027
:104BE8002428F58274993CF583EFF09099AEE4752A
:104BF800F00112233D53ABFE9099AEE0FEA3E0C353
:104C08009480EE940040079099AEE4F0A3F043C975
:104C180001D2AFD007D006D004D000D0D0D082D0F7
:104C280083D0F0D0E0327BFF7A53790E78197C9CE0
:104C38007D017E007F041222AD7B017A9C79199058
:104C48009C64E4F0A37404F07F207EA4122D92905B
:104C58009B74E0FF7B017A9C7919124F3AEF600D43
:104C68001250F6909B74E0909BDBF080077F057EE6
:104C7800001250AF7E007F047D007B017A9C791979
:104C88001227887B017A9C7919909C78E4F0A374A8
:104C980004F07F207EA4122FFF22909C19EEF0A32F
:104CA800EFF0909C19E0A3E0FFA3E4F0A3EFF090ED
:104CB8009C19E0FEA3E07420909C1DEEF0A37420E4
:104CC800F0909C1DE0FEA3E0FF7B017A9C791B908D
:104CD8009C78E4F0A37402F0122FFF909C1BE4F080
:104CE800A3745AF0A3E0FEA3E02460FFE43EFE7B39
:104CF800017A9C791B909C78E4F0A37402F0122F3F
:104D0800FF22909C4FEBF0A3EAF0A3E9F0E4909C1B
:104D180057F0A3F0909C5574FFF5F012235345F01B
:104D2800603C909C52E0FBA3E0FAA3E0F91222D386
:104D3800FF909C4FE0FBA3E0FAA3E0F9909C57E4B6
:104D480075F00112235385F082F583EF1227B4EF33
:104D580060C2909C53E475F00112233D80B6909C8C
:104D68004FE0FBA3E0FAA3E0F922C0E0C083C082D1
:104D7800C0D075D000C006C007909C7BE4F0C2AFDD
:104D8800309830E599F09096A3E0C39480748094AD
:104D980080501E909C7BE0FF9096A3E0FE04F07488
:104DA800A42EF582E43496F583EFF09090207401F8
:104DB800F0C298309907C2999099A8E4F0D2AFD080
:104DC80007D006D0D0D082D083D0E032909C1DEEA0
:104DD800F0A3EFF0909C1DE0FEA3E0D394D1EE94F5
:104DE800A45019909C1DE0A3E025E0FFEE33FE746B
:104DF800382FF58274523EF583E0FF22909C1DE027
:104E0800FEA3E0D394F3EE94A45019909C1DE0A364
:104E1800E025E0FFEE33FE74182FF58274523EF55C
:104E280083E0FF227F0522909C38122582909C3BCC
:104E3800EDF07B007A007900C003C002C001909CAD
:104E480038122562D082D083D0E06B7008E9658281
:104E58007003EA65836029909C3BE06023909C3B4B
:104E6800E0FF14F0EF6019909C381225621222D3EB
:104E7800FF1251F2909C39E475F00112233D80DD58
:104E880022909C68EEF0A3EFF0E4F5F1909C68E0C6
:104E9800FEA3E0EEF5F2909C68E0A3E0F5F3E4F5FC
:104EA800F4E4909C68F0A3F0909C68E0FEA3E0C353
:104EB80094E8EE9403500F85FCFB909C68E475F031
:104EC8000112233D80E275F8AF30FCFDD2FE20FED2
:104ED800FDE4F5F8AFFAEF70C8227E007F087D0088
:104EE8007B017A9A79F71227887B017A9A79F79069
:104EF8009C78E4F0A37408F07F007E30122FFF90B6
:104F08009AF9E0FEA3E07803C333CE33CED8F92470
:104F180000FFEE3420FEE4FCFD909C6212251990FF
:104F28009C66E4F0A37404F07D007C307FA51249F0
:104F3800CA22909C1DEFF0A3122582909C1DE07060
:104F4800037F0122909C1DE075F004A424FFF974EE
:104F58009B35F0FA7B01C003C002C001A312256291
:104F6800A801AC02AD03D001D002D0037E007F04BB
:104F7800122764EF3395E04F70037F01227F0022F0
:104F880012006E12522B12326B124689E50A30E07B
:104F98001C430F01E50A30E103430F02E50A30E242
:104FA80003430F04530AFE530AFD530AFB43C90186
:104FB800123CE012370E121BD712394AE50F30E0C7
:104FC800CB530FFE530FFD530FFB80C022909C194B
:104FD800EEF0A3EFF0A3E4F0A3745AF0909C19E06C
:104FE800FEA3E0FF7B017A9C791B909C78E4F0A3F8
:104FF8007402F0122FFF909C19E0FEA3E02430FF0A
:10500800E43EFE7B017A9C791B909C78E4F0A374C3
:1050180002F0122FFF22909C19EEF0A3EFF0909C63
:1050280019E0FEA3E02410FFEE345B909B72F0A31E
:10503800EFF0909C19E0A3E0FF124DD4909B74EF21
:10504800F0909C9DE0FEA3E0FF909B75EEF0A3EF2F
:10505800F0909BDC7401F07F047E001250AF229028
:105068009C1BEEF0A3EFF0909C1BE0FEA3E02460F5
:10507800FFEE345B909BDDF0A3EFF0909C9DE0FE8B
:10508800A3E0FF909B75EEF0A3EFF0909C1BE0FE71
:10509800A3E0FF124DD4909B74EFF0E4909BDCF0FA
:1050A8007F04FE1250AF22909C2EEEF0A3EFF07B0F
:1050B800FF7A5279F678307C9C7D017E007F04125D
:1050C80022AD909C2EE0FEA3E0EE909C32F0909CE6
:1050D8002EA3E0909C33F07B017A9C7930909C78E9
:1050E800E4F0A37404F07F847E00122FFF22909BCB
:1050F800DCE012258B510700511E0100005134904D
:105108009BDDE0FEA3E0FF1250AF909BDDE0FEA325
:10511800E0FF1248AD22909B72E0FEA3E0FF124A26
:10512800CA909B75E0FEA3E0FF1250AF227B017A84
:105138009B79FF909C78E4F0A37414F07F007E3094
:10514800122FFF909C6212252500003000909C666B
:10515800E4F0A3740AF07D007C307FA51249CA22CE
:10516800E4909C19F0A3F0909C93F0A3740BF0903A
:105178009C19E4F0A304F0FB7A9C7919909C78E4DC
:10518800F0A37402F07F2C7EA0122FFF22E49096E9
:10519800A3F0909020F0FE7F80FD7B017A9679A4A1
:1051A800122788E490901BF0909724122525000080
:1051B80000002243B71043C940E49099A8F075D87D
:1051C8008075985053877F75BA0375AA58D29CD2B8
:1051D800AC2275F90175B70375BC03E4F5BD75BE5E
:1051E8000CF580F590F5A0F5B022909C3CEFF0907E
:1051F80099A8E0640160F87401F0909C3CE0F5998E
:105208002275C870E4F5CDF5CC75CBFF75CAEF43B0
:10521800A820D2C822438901758CBC758ACDD2A931
:10522800D28C2212519590901C1225250000000066
:105238002212521D12520922000000000000000034
:105248000000000000000000000000000000000056
:105258000000000000000000000000000000000046
:105268000000000000000000000000000000000036
:105278000000000000000000000000000000000026
:105288000000000000000000000000000000000016
:105298000000000000000000000000000000000006
:1052A80000000000000000000000000000000000F6
:1052B80000000000000000000000000000000000E6
:1052C80000000000000000000000000000000000D6
:1052D80000000000000000000000000000000000C6
:1052E80000000000000000000000000000005A015B
:1052F80000000000000000000000000000000000A6
:0A530800000000000000000000009B
:00000001FF
