:100000000230C2020006C2AFD2AF32022BDEC2AF54
:10001000D2AF3202000E909365E0FEA3E0FF1238EB
:1000200054223202356312002E223202005675F934
:1000300001E4F5A8F5B8F59AF5A9F5B9F580F590BC
:10004000F5A0F5B075B750F5BCF5BDF5BE22123977
:02005000692223
:06005300020022C2C632C9
:07005B000234035A0100000A
:0700630002002A000000006A
:10006B00023479C2AF12002612398812004E1200E8
:07007B00F043C902D2AF22DD
:1000830002320090940DEEF0A3EFF0A3E4F0A3741A
:100093005AF090940DE0FEA3E0641B4E70219094FF
:1000A3000DE0A3E0FEE42400FFEE34A0FE7B017A22
:1000B30094790F909454E4F0A37402F012216090A9
:1000C300940DE0FEA3E0642F4E702190940DE0A305
:1000D300E0FEE42400FFEE34A0FE7B017A94790F66
:1000E300909454E4F0A37402F0122160221239CBED
:0400F3001239B722E5
:1000F800FFFF4457494E54354294720000429470B1
:1001080000005A91F13FC900690064000086000AA6
:100118002D2D203A3A000000000000000000005A8F
:10012800920B3FCC01270064000086000A2D2D2F7A
:100138003A3A000000000000000000005A92973F81
:10014800D001E50064000001E5006402AD007D0017
:10015800100017181802000000603C925B40004035
:10016800A04140401040B04150402040C041604054
:100178003040D04170404040E04180405040F04124
:10018800904060410041A04070411041B040804122
:100198002041C04090413041D054924741E041F85D
:1001A80042104228424042584270428842A042B817
:1001B8004892380000000000000000429240000011
:1001C800429245000042924200004192440041920E
:1001D80037004292250005498000B2E2CAD4BABA73
:1001E800D7D6006E60800949443030BBD8B7E7B82D
:1001F800DFCEC20000000000000000000000000088
:100208000000000000000049443031BBD8B7E7B512
:10021800CDCEC20000000000000000000000000079
:100228000000000000000049443032BBD8B7E7B8EE
:10023800DFCAAA0000000000000000000000000063
:100248000000000000000049443033BBD8B7E7B8CD
:10025800DFCAAA0000000000000000000000000043
:100268000000000000000049443034CBCDB7E7B8A7
:10027800DFCEC20000000000000000000000000007
:100288000000000000000049443035CBCDB7E7B589
:10029800CDCEC200000000000000000000000000F9
:1002A8000000000000000049443036CBCDB7E7B865
:1002B800DFCAAA00000000000000000000000000E3
:1002C8000000000000000049443037CBCDB7E7B547
:1002D800CDCAAA00000000000000000000000000D5
:1002E8000000000000000049443038B1A3C1F40008
:1002F80000000000000000000000000000000000F6
:100308000000000000000049443039C4DAB2BFCD13
:10031800A8D0C50000000000000000000000000098
:1003280000000000000000494431304E5443D2EC34
:10033800B3A300000000000000000000000000005F
:100348000000000000000049443131B7E7BBFA3132
:10035800B9CAD5CF0000000000000000000000006E
:100368000000000000000049443132B7E7BBFA3210
:10037800B9CAD5CF0000000000000000000000004E
:100388000000000000000049443133B7E7BBFA33EE
:10039800B9CAD5CF0000000000000000000000002E
:1003A8000000000000000049443134B7E7BBFA34CC
:1003B800B9CAD5CF0000000000000000000000000E
:1003C8000000000000000049443135B7E7BBFA35AA
:1003D800B9CAD5CF000000000000000000000000EE
:1003E8000000000000000049443136CDE2B7E7BB09
:1003F800FAB9CAD5CF0000000000000000000000D4
:100408000000000000000049443137B7E7BBFA316B
:10041800D4CBD0D0B3ACCAB10000000000000000BB
:100428000000000000000049443138B7E7BBFA3249
:10043800D4CBD0D0B3ACCAB100000000000000009B
:100448000000000000000049443139B7E7BBFA3327
:10045800D4CBD0D0B3ACCAB100000000000000007B
:100468000000000000000049443230B7E7BBFA340E
:10047800D4CBD0D0B3ACCAB100000000000000005B
:100488000000000000000049443231B7E7BBFA35EC
:10049800D4CBD0D0B3ACCAB100000000000000003B
:1004A8000000000000000049443232CDE2B7E7BB4B
:1004B800FAD4CBD0D0B3ACCAB10000000000000021
:1004C8000000000000000049443233B8DFD1B931E0
:1004D800B8E6BEAF00000000000000000000000009
:1004E8000000000000000049443234B8DFD1B931BF
:1004F800CBF8CBC0000000000000000000000000A6
:100508000000000000000049443235B5CDD1B931B2
:10051800B8E6BEAF000000000000000000000000C8
:100528000000000000000049443236B5CDD1B93191
:10053800CBF8CBC000000000000000000000000065
:100548000000000000000049443237C5C5C6F8CE97
:10055800C2B6C831B8E6BEAF000000000000000017
:100568000000000000000049443238C5C5C6F8CE76
:10057800C2B6C831CBF8CBC00000000000000000B4
:100588000000000000000049443239B6CCD6DCC671
:10059800DA31B8E6BEAF000000000000000000003D
:1005A8000000000000000049443330D1B9BBFA31E3
:1005B800D4CBD0D0B3ACCAB100000000000000001A
:1005C8000000000000000049443331B8DFD1B932DF
:1005D800B8E6BEAF00000000000000000000000008
:1005E8000000000000000049443332B8DFD1B932BE
:1005F800CBF8CBC0000000000000000000000000A5
:100608000000000000000049443333B5CDD1B9D112
:10061800B9C1A6B8E6BEAF000000000000000000A7
:100628000000000000000049443334B5CDD1B93290
:10063800CBF8CBC000000000000000000000000064
:100648000000000000000049443335C5C5C6F8CE97
:10065800C2B6C832B8E6BEAF000000000000000015
:100668000000000000000049443336C5C5C6F8CE76
:10067800C2B6C832CBF8CBC00000000000000000B2
:100688000000000000000049443337B6CCD6DCC671
:10069800DA32B8E6BEAF000000000000000000003B
:1006A8000000000000000049443338D1B9BBFA32D9
:1006B800D4CBD0D0B3ACCAB1000000000000000019
:1006C8000000000000000049443339BCD3CAAAC660
:1006D800F7B5E7C1F7B9FDB4F3000000000000006A
:1006E8000000000000000049443430BCD3CAAAC648
:1006F800F7B8DFCBAECEBB00000000000000000062
:100708000000000000000049443431BCD3CAAAC626
:10071800F7C8B1CBAE0000000000000000000000E8
:100728000000000000000049443432BCD3CAAAC605
:10073800F7D4CBD0D0B3ACCAB100000000000000A1
:100748000000000000000049443433BCD3C8C8C6C8
:10075800F7B8E6BEAF00000000000000000000008F
:100768000000000000000049443434BCD3C8C8C6A7
:10077800F731B3ACCAB1000000000000000000006F
:100788000000000000000049443435BCD3C8C8C686
:10079800F732B3ACCAB1000000000000000000004E
:1007A8000000000000000049443436B6CFB5E7D653
:1007B800D8C6F4000000000000000000000000009F
:1007C8000000000000000049443437B5E7D4B4CF36
:1007D800E0D0F2B4EDCEF30000000000000000000D
:1007E8000000000000000049443438B5E7D4B4C61E
:1007F800B5C2CAC6ABB8DF000000000000000000A8
:100808000000000000000049443439B5E7D4B4C6FC
:10081800B5C2CAC6ABB5CD0000000000000000009C
:10082800000000000000004944353041CFE0B9FD28
:10083800D1B9000000000000000000000000000026
:10084800000000000000004944353142CFE0B9FD06
:10085800D1B9000000000000000000000000000006
:10086800000000000000004944353243CFE0B9FDE4
:10087800D1B92000000000000000000000000000C6
:10088800000000000000004944353341CFE0C7B7FD
:10089800D1B90000000000000000000000000000C6
:1008A800000000000000004944353442CFE0C7B7DB
:1008B800D1B90000000000000000000000000000A6
:1008C800000000000000004944353543CFE0C7B7B9
:1008D800D1B9000000000000000000000000000086
:1008E800000000000000004944353641CFE0C8B19F
:1008F800CFE0000000000000000000000000000041
:10090800000000000000004944353742CFE0C8B17C
:10091800CFE0000000000000000000000000000020
:10092800000000000000004944353843CFE0C8B15A
:10093800CFE0000000000000000000000000000000
:100948000000000000000049443539C6F8C1F7B678
:10095800AACAA7B8E6BEAF00000000000000000069
:100968000000000000000049443630B9FDC2CBCD7C
:10097800F8D4CBD0D0B3ACCAB1000000000000005E
:100988000000000000000049443631B9FDC2CBCD5B
:10099800F8B6C2B8E6BEAF000000000000000000D4
:1009A8000000000000000049443632D4B6B3CCB988
:1009B800D8BBFAB8E6BEAF00000000000000000097
:1009C8000000000000000049443633D2E7CBAEB83F
:1009D800E6BEAF00000000000000000000000000BC
:1009E8000000000000000049443634C8BABFD8CD22
:1009F800A8D0C5D2ECB3A30000000000000000009E
:100A08000000000000000049443635B1E4C6B5C610
:100A1800F7B9CAD5CF0000000000000000000000B0
:100A28000000000000000049443636D7A2CBAEB51E
:100A3800E7B5BCC2CAB8DF00000000000000000033
:100A48000000000000000049443637D7A2CBAEB5FD
:100A5800E7B5BCC2CAB5CD00000000000000000028
:100A68000000000000000049443638D1CCCEEDB873
:100A7800E6BEAF000000000000000000000000001B
:100A88000000000000000049443639D3C3BBA7D793
:100A9800D4B6A8D2E5B8E6BEAF000000000000005A
:100AA8000000000000000049443730B5E7D4B4D254
:100AB800ECB3A300000000000000000000000000EC
:100AC8000000000000000049443731C8EBCBAEB845
:100AD800DFCEC2000000000000000000000000009F
:100AE8000000000000000049443732CBAEB7A7B978
:100AF800CAD5CF0000000000000000000000000080
:100B08000000000000000049443733C5CCB9DCB60A
:100B1800CFC1F7B8E6BEAF0000000000000000003B
:100B28000000000000000049443734B7E7BBFA363C
:100B3800B9CAD5CF00000000000000000000000086
:100B48000000000000000049443735B7E7BBFA371A
:100B5800B9CAD5CF00000000000000000000000066
:100B68000000000000000049443736B7E7BBFA38F8
:100B7800B9CAD5CF00000000000000000000000046
:100B88000000000000000049443737B7E7BBFA36D9
:100B9800B3ACCAB100000000000000000000000073
:100BA8000000000000000049443738B7E7BBFA37B7
:100BB800B3ACCAB100000000000000000000000053
:100BC8000000000000000049443739B7E7BBFA3895
:100BD800B3ACCAB100000000000000000000000033
:100BE8000000000000000049443830C5C5CBAEB84D
:100BF800DFCBAECEBB00000000000000000000000C
:100C08000000000000000049443831BCD3CAAAC61D
:100C1800F7D2ECB3A30000000000000000000000C1
:100C28000000000000000049443832B7E7D1B9B9E4
:100C3800FDB5CD000000000000000000000000002D
:100C48000000000000000049443833BAECCDE2BC93
:100C5800D3CAAAB9FDC8C8000000000000000000FF
:100C68000000000000000049443834D1B9BBFA3113
:100C7800B8DFD1B90000000000000000000000004B
:100C88000000000000000049443835B7E7BBFAB55A
:100C9800E7C1F7B9FDB4F300000000000000000050
:100CA8000000000000000049443836B8A8C2B7C8A0
:100CB800EBCBAEB8DFCEC2000000000000000000A1
:100CC8000000000000000049443837454556B8E6A2
:100CD800BEAF00000000000000000000000000009F
:100CE8000000000000000049443838BDD3CBAEC531
:100CF800CCD2E7CBAE0000000000000000000000EE
:100D08000000000000000049443839C5C5C6F8B8DD
:100D1800DFCEC2000000000000000000000000005C
:100D28000000000000000049443930C9E8B1B8CAE1
:100D3800B9D3C3B3ACCAB100000000000000000082
:100D48000000000000000049443931B1A3C1F4009B
:100D5800000000000000000000000000000000008B
:100D68000000000000000049443932B1A3C1F4007A
:100D7800000000000000000000000000000000006B
:100D88000000000000000049443933B1A3C1F40059
:100D9800000000000000000000000000000000004B
:100DA8000000000000000049443934B1A3C1F40038
:100DB800000000000000000000000000000000002B
:100DC8000000000000000049443935B1A3C1F40017
:100DD800000000000000000000000000000000000B
:100DE8000000000000000049443936B1A3C1F400F6
:100DF80000000000000000000000000000000000EB
:100E08000000000000000049443937BBD8B7E7CEDE
:100E1800C2CAAAB6C8B4ABB8D0C6F7000000000072
:100E28000000000000000049443938CBCDB7E7CEB8
:100E3800C2CAAAB6C8B4ABB8D0C6F7000000000052
:100E48000000000000000049443939BCD3CAAAB0E8
:100E5800E5D2ECB3A3000000000000000000000091
:100E6800000000000000004944313030C6C1C4BB56
:100E7800D2D1CBF8B6A800000000000000000000A6
:100E8800000000000000004944313031D2BBCCECF6
:100E9800BDABCBF8B6A800000000000000000000C1
:100EA800000000000000004944313032C8FDCCEC9D
:100EB800BDABCBF8B6A800000000000000000000A1
:100EC800000000000000004944313033C6DFCCEC9C
:100ED800BDABCBF8B6A80000000000000000000081
:100EE800000000000000004944313034CAAECEE5AD
:100EF800CCECBDABCBF8B6A80000000000000000A9
:100F0800000000000000004944313035C8FDCAAE79
:100F1800CCECBDABCBF8B6A8000000000000000088
:100F2800000000000000004944313036B5E7D4B471
:100F380032CFE0D0F2B4ED00000000000000000065
:100F4800000000000000004944313037B5E7D4B450
:100F580032C6B5C2CAB8DF000000000000000000B9
:100F6800000000000000004944313038B5E7D4B42F
:100F780032C6B5C2CAB5CD000000000000000000AE
:100F8800000000000000004944313039B5E7D4B40E
:100F98003241CFE0B9FDD1B90000000000000000E7
:100FA800000000000000004944313130B5E7D4B4F6
:100FB8003242CFE0B9FDD1B90000000000000000C6
:100FC800000000000000004944313131B5E7D4B4D5
:100FD8003243CFE0B9FDD1B90000000000000000A5
:100FE800000000000000004944313132B5E7D4B4B4
:100FF8003241CFE0C7B7D1B90000000000000000BF
:10100800000000000000004944313133B5E7D4B492
:101018003242CFE0C7B7D1B900000000000000009D
:10102800000000000000004944313134B5E7D4B471
:101038003243CFE0C7B7D1B900000000000000007C
:10104800000000000000004190E9004190EA0042E1
:1010580090EB00004290ED00004290EF00004294B7
:10106800600000429462000042945E000044946C68
:1010780000000000429464000044946600000000F0
:1010880002080000040B0000000042946A000001FE
:101098000A0061008E6900C1814001C0804101C021
:1010A800804100C1814001C0804100C1814000C130
:1010B800814001C0804101C0804100C1814000C120
:1010C800814001C0804100C1814001C0804101C010
:1010D800804100C1814001C0804100C1814000C100
:1010E800814001C0804100C1814001C0804101C0F0
:1010F800804100C1814000C1814001C0804101C0E0
:10110800804100C1814001C0804100C1814000C1CF
:10111800814001C0804101C0804100C1814000C1BF
:10112800814001C0804100C1814001C0804101C0AF
:10113800804100C1814000C1814001C0804101C09F
:10114800804100C1814001C0804100C1814000C18F
:10115800814001C0804100C1814001C0804101C07F
:10116800804100C1814001C0804100C1814000C16F
:10117800814001C0804101C0804100C1814000C15F
:10118800814001C0804100C1814001C0804101C04F
:10119800804100C1814061008F6900C0C101C30363
:1011A80002C2C60607C705C5C404CC0C0DCD0FCFB7
:1011B800CE0E0ACACB0BC90908C8D81819D91BDB27
:1011C800DA1A1EDEDF1FDD1D1CDC14D4D515D71777
:1011D80016D6D21213D311D1D010F03031F133F327
:1011E800F23236F6F737F53534F43CFCFD3DFF3F77
:1011F8003EFEFA3A3BFB39F9F83828E8E929EB2BA7
:101208002AEAEE2E2FEF2DEDEC2CE42425E527E736
:10121800E62622E2E323E12120E0A06061A163A3A6
:10122800A26266A6A767A56564A46CACAD6DAF6F36
:101238006EAEAA6A6BAB69A9A86878B8B979BB7BA6
:101248007ABABE7E7FBF7DBDBC7CB47475B577B7F6
:10125800B67672B2B373B17170B050909151935326
:10126800529296565797559594549C5C5D9D5F9FF6
:101278009E5E5A9A9B5B99595898884849894B8B26
:101288008A4A4E8E8F4F8D4D4C8C448485458747B6
:10129800468682424383418180404192DD004192EB
:1012A800C00044935E000000004192BB004492BC21
:1012B800000000004E92CF5A020303C8000000A0AD
:1012C80020031C00FF4E92C1000000000000000037
:1012D8000000000000004192B2004892B35A13B3D4
:1012E80020B350B3804192B1005893EF0000000042
:1012F80000000000000000000000000000000000E6
:10130800000000005893CF000000000001B2070061
:1013180000000200027360000A2D080007ED654115
:1013280093CBFF6064936700000100020003000490
:1013380000050006000700080009000A010B000C60
:10134800000D000E000F011000110012021300140E
:1013580000150016001700180019001A001B021CBF
:10136800001D001E001F0020002100220023002471
:1013780000250026022700280029002A002B002C1F
:10138800002D002E002F03300031004893E70001A4
:101398000103020303054293CD0000429365000058
:1013A80042936200004193640000E709F608DFFAFF
:1013B8008046E709F208DFFA803E88828C83E709D5
:1013C800F0A3DFFA8032E309F608DFFA8078E30950
:1013D800F208DFFA807088828C83E309F0A3DFFAD1
:1013E800806489828A83E0A3F608DFFA80588982BC
:1013F8008A83E0A3F208DFFA804C80D280FA80C6A4
:1014080080D4806980F28033801080A680EA809A38
:1014180080A880DA80E280CA803389828A83ECFAE5
:10142800E493A3C8C582C8CCC583CCF0A3C8C58241
:10143800C8CCC583CCDFE9DEE7800D89828A83E4E6
:1014480093A3F608DFF9ECFAA9F0EDFB2289828A6A
:1014580083ECFAE0A3C8C582C8CCC583CCF0A3C886
:10146800C582C8CCC583CCDFEADEE880DB89828A06
:1014780083E493A3F208DFF980CC88F0EF60010ED3
:101488004E60C388F0ED2402B4040050B9F582EB35
:101498002402B4040050AF2323458223901402731E
:1014A800BB010689828A83E0225002E722BBFE0242
:1014B800E32289828A83E49322BB010CE58229F521
:1014C80082E5833AF583E0225006E92582F8E62290
:1014D800BBFE06E92582F8E222E58229F582E5834A
:1014E8003AF583E49322BB010689828A83F022506D
:1014F80002F722BBFE01F322EF8DF0A4A8F0CF8CF7
:10150800F0A428CE8DF0A42EFE22C5F0F8A3E02882
:10151800F0C5F0F8E582158270021583E038F022F4
:10152800A3F8E0C5F025F0F0E58215827002158376
:10153800E0C838F0E822BB010A89828A83E0F5F026
:10154800A3E022500687F009E71922BBFE07E3F55E
:10155800F009E3192289828A83E493F5F0740193F0
:1015680022BB0110E58229F582E5833AF583E0F58F
:10157800F0A3E0225009E92582F886F008E622BBAC
:10158800FE0AE92582F8E2F5F008E222E5832AF569
:1015980083E993F5F0A3E99322BB010A89828A8340
:1015A800F0E5F0A3F0225006F709A7F01922BBFED8
:1015B80006F3E5F009F31922EF2BFFEE3AFEED39B9
:1015C800FDEC38FC2275F008758200EF2FFFEE3332
:1015D800FECD33CDCC33CCC58233C5829BED9AEC9E
:1015E80099E58298400CF582EE9BFEED9AFDEC9908
:1015F800FC0FD5F0D6E4CEFBE4CDFAE4CCF9A88212
:1016080022B800C1B90059BA002DEC8BF084CFCEB6
:10161800CDFCE5F0CBF97818EF2FFFEE33FEED3374
:10162800FDEC33FCEB33FB10D703994004EB99FB3B
:101638000FD8E5E4F9FA227818EF2FFFEE33FEED24
:1016480033FDEC33FCC933C910D7059BE99A400731
:10165800EC9BFCE99AF90FD8E0E4C9FAE4CCFB2248
:1016680075F010EF2FFFEE33FEED33FDCC33CCC811
:1016780033C810D7079BEC9AE899400AED9BFDEC1C
:101688009AFCE899F80FD5F0DAE4CDFBE4CCFAE45B
:10169800C8F922EB9FF5F0EA9E42F0E99D42F0EC92
:1016A8006480C864809845F022EB9FF5F0EA9E427A
:1016B800F0E99D42F0E89C45F022E86010ECA2E7D2
:1016C80013FCED13FDEE13FEEF13FFD8F022E0FC40
:1016D800A3E0FDA3E0FEA3E0FF22E0F8A3E0F9A366
:1016E800E0FAA3E0FB22ECF0A3EDF0A3EEF0A3EF09
:1016F800F022A8828583F0D083D0821217111217A6
:1017080011121711121711E473E493A3C583C5F0DE
:10171800C583C8C582C8F0A3C583C5F0C583C8C53D
:1017280082C822A42582F582E5F03583F58322E07C
:10173800FBA3E0FAA3E0F922F8E0FBA3A3E0F92574
:10174800F0F0E582158270021583E0FA38F022EB9A
:10175800F0A3EAF0A3E9F022D083D082F8E49370F2
:1017680012740193700DA3A393F8740193F5828802
:1017780083E4737402936860EFA3A3A380DFD0832C
:10178800D082F8E4937012740193700DA3A393F8B8
:10179800740193F5828883E473740293B5F0067438
:1017A80003936860E9A3A3A3A380D8E3F5F009E253
:1017B80008B5F06BDFF58067E3F5F009E608B5F0EA
:1017C8005EDFF5805A87F009E608B5F052DFF6804B
:1017D8004E87F009E208B5F046DFF6804288828C31
:1017E8008387F009E0A3B5F036DFF6803288828C73
:1017F8008387F009E493A3B5F025DFF5802188827B
:101808008C83E3F5F009E0A3B5F014DFF5801088C8
:10181800828C83E3F5F009E493A3B5F002DFF402C8
:1018280018E2808780E9809080D4803E8015806EA1
:10183800807E809D80B7808D80A380518074803C9D
:101848000218EE89828A83ECFAE493F5F0A3C8C5FE
:1018580082C8CCC583CCE493A3C8C582C8CCC58351
:10186800CCB5F076DFE3DEE1807089828A83E49389
:10187800F5F0A3E208B5F062DFF4805E89828A831E
:10188800E0F5F0A3E608B5F051DFF5804D89828ACE
:1018980083E0F5F0A3E208B5F040DFF5803C8982EB
:1018A8008A83E493F5F0A3E608B5F02EDFF4802AE6
:1018B8008002805789828A83ECFAE493F5F0A3C802
:1018C800C582C8CCC583CCE0A3C8C582C8CCC583B3
:1018D800CCB5F006DFE4DEE280007FFFB5F0020F52
:1018E8002240027F012289828A83ECFAE0F5F0A384
:1018F800C8C582C8CCC583CCE0A3C8C582C8CCC53E
:1019080083CCB5F0D5DFE5DEE380CF89828A83EC2E
:10191800FAE0F5F0A3C8C582C8CCC583CCE493A38C
:10192800C8C582C8CCC583CCB5F0AFDFE4DEE280A1
:10193800A988F0EF60010E4E60ABED2402B40400FC
:101948005098F582EB2402B40400508E232345827C
:101958002390182A73EF4E6012EF60010EEDBB0161
:101968000B89828A83F0A3DFFCDEFA2289F0500714
:10197800F709DFFCA9F022BBFEFCF309DFFCA9F0A4
:1019880022F8BB010DE58229F582E5833AF583E863
:10199800F0225006E92582C8F622BBFE05E9258219
:1019A800C8F22290940C12175790940FECF0A3ED04
:1019B800F0E4A3F0A3F090940FE0FEA3E0FFA3E00F
:1019C800FCA3E0C39FEC9E500C909411E475F001C9
:1019D80012151280E190940FE0FEA3E0C39405EE87
:1019E80094005003021C64E4A3F0A3F090940C123A
:1019F8001737909411E0FEA3E0F5828E831214C18C
:101A080064026003021C3E90940C121737909411E4
:101A1800E0A3E029F9EA3EFA9000011214C1121776
:101A2800601A33031B870600001C3E90940C1217A3
:101A380037909411E0FEA3E029F9EA3EFA900002FB
:101A48001214C1FF909415E4F0A3EFF0909411E004
:101A5800A3E0FF909415E0FCA3E02FFFEC3EFEEF1F
:101A68002405FFE43EFE90940FE0FCA3E0FDD3EFD5
:101A78009DEE9C401190940FE0FEA3E0FFA3EEF0D2
:101A8800A3EFF0021C3E90940C121737909411E0CB
:101A9800FEA3E029F9EA3EFA909415E0FEA3E024BB
:101AA80003FDE43EFC123388909413EEF0A3EFF0AC
:101AB80090940C121737909411E0FEA3E029F9EAEC
:101AC8003EFA909415E0FEA3E029F9EA3EFA900068
:101AD800031214C1FD909413E0FEA3E0EE6D7001B3
:101AE800E46003021C3E90940C121737909411E0A6
:101AF800FEA3E029F9EA3EFA909415E0FEA3E02956
:101B0800F9EA3EFA9000041214C1FF909413E0A37E
:101B1800E06F7001E46003021C3E9092C9E0FEA3EE
:101B2800E0FF90940C121737E92403F9E43AFAC05D
:101B380003C002C00190940C1217379000021214CF
:101B4800C1FD909454E4F0A3EDF0D001D002D0038D
:101B58001221607E007F0E7D007B017A9279C1128E
:101B6800195D909415E0FEA3E02405FFE43E9094EF
:101B780011F0A3EFF09092B1E04402F0021C3E9005
:101B88009411E0FEA3E02408FFE43EFE90940FE0E9
:101B9800FCA3E0FDD3EF9DEE9C401190940FE0FE76
:101BA800A3E0FFA3EEF0A3EFF0021C3E90940C120A
:101BB8001737909411E0FEA3E029F9EA3EFA7D0672
:101BC8007C00123388909413EEF0A3EFF090940CFD
:101BD800121737909411E0FEA3E029F9EA3EFA9033
:101BE80000061214C1FD909413E0FEA3E0EE6D70A0
:101BF80001E4704290940C121737909411E0FEA300
:101C0800E029F9EA3EFA9000071214C1FF909413F4
:101C1800E0A3E0B50720E490941175F008121512BE
:101C28007E007F0E7D007B017A9279C112195D904A
:101C380092B1E04402F0909411E475F0011215128B
:101C480090940FE0FEA3E024FBFFEE34FFFEA3E038
:101C5800FCA3E0C39FEC9E50030219F42290940C5D
:101C680012175790940C1217371214A890940FF06B
:101C780090940FE0C39401748094804003021EE3A3
:101C8800E075F00EA424CFF582E43492F583E06485
:101C98005A6003021EDA90940FE075F00EA424D265
:101CA800F582E43492F583E07003021EDA90940F13
:101CB800E075F00EA424D4F582E43492F583E07044
:101CC80003021EE390940FE075F00EA424D4F5826D
:101CD800E43492F583E06401702D90940FE075F080
:101CE8000EA424D5F582E43492F583E0FEA3E0FF48
:101CF800909472E0FCA3E06F7002EC6E6003021E29
:101D0800DA021EE3021EDA90940FE075F00EA424A6
:101D1800D4F582E43492F583E064026003021DE2A4
:101D280090940FE075F00EA424D5F582E43492F572
:101D380083E0FEA3E0FF7B017A947910909454E449
:101D4800F0A37402F0121EF3909410E0A3E0645A1A
:101D58006003021EDA90940FE0C3748094805048A8
:101D6800E075F00EA424E2F582E43492F583E06491
:101D780002703590940FE075F00EA424E3F582E428
:101D88003492F583E0FEA3E0FF90940FE075F00E27
:101D9800A424D5F582E43492F583E0FCA3E06F70C7
:101DA80002EC6E7003021EE3E4909410F0A3F0902E
:101DB800940FE075F00EA424D5F582E43492F583EF
:101DC800E0FEA3E0FF7B017A947910909454E4F04C
:101DD800A37402F0122160021EE390940FE075F0E4
:101DE8000EA424D4F582E43492F583E064036003FE
:101DF800021EDA90940FE075F00EA424DBF582E45D
:101E08003492F583E0FEA3E0FF909472E0FCA3E037
:101E1800FDEF6D7002EE6C6003021EDA90940FE025
:101E280075F00EA424D5F582E43492F583E0FEA380
:101E3800E0FF7B017A947910909454E4F0A3740243
:101E4800F0121EF3909410E0A3E0645A6003021E9F
:101E5800DA90940FE0C3748094805045E075F00EDA
:101E6800A424E2F582E43492F583E06403703290AE
:101E7800940FE075F00EA424E3F582E43492F58320
:101E8800E0FEA3E0FF90940FE075F00EA424D5F5D2
:101E980082E43492F583E0FCA3E06F7002EC6E609C
:101EA8003AE4909410F0A3F090940FE075F00EA42B
:101EB80024D5F582E43492F583E0FEA3E0FF7B01AC
:101EC8007A947910909454E4F0A37402F01221608B
:101ED800800990940FE004F0021C7890940FE0FFC2
:101EE80090940C121737EF1214EE2290944FEEF0E4
:101EF800A3EFF0A31217577B007A007900C003C044
:101F080002C001909451121737D082D083D0E06B71
:101F18007008E965827003EA6583700302215F90A7
:101F28009454E0FEA3E04E700302215F909454E0C5
:101F3800A3E0FFEEC313FEEF13FF90944FE0FCA362
:101F4800E02FFFEE3CFED3EF94FEEE94FF40030239
:101F5800215FC2AF90944FE0A3E05401909456F0F3
:101F680090944FE0FEA3E0FFEEC313FEEF13FF9043
:101F7800944FEEF0A3EFF090944FE0FEA3E07810BA
:101F8800CEC313CE13D8F9F5F190944FE0FEA3E039
:101F9800EEF5F290944FE0A3E0F5F3E4F5F875F46C
:101FA80001D2FF30FCFDD2FD909456E064017072BE
:101FB800909454E0FEA3E064014E700AC2FBC2FA9A
:101FC800D2F9C2F88008C2FBC2FAD2F9D2F8D2FE1E
:101FD80020FEFD909454E0FEA3E064014E701A9038
:101FE800945175F001121740E5FC1214EE909454C8
:101FF80074FFF5F01215128029909451E475F001E0
:10200800121740E5FC1214EE909451E475F0011299
:102018001740E5FD1214EE90945474FF75F0FE120B
:102028001512909454E0FEA3E04E700302215A90DA
:102038009454E0A3E0C39404EE9400400302210307
:10204800909454E0A3E08EF01217862077000120C8
:102058006D0002206300030000207FD2FBD2FAD279
:10206800F9C2F88012D2FBD2FAC2F9C2F88008D2BB
:10207800FBC2FAC2F9C2F8D2FE20FEFD909454E0E9
:10208800FEA3E08EF012178620F0000120D0000297
:1020980020A000030000215A909451E475F0011229
:1020A8001740E5FA1214EE909451E475F0011217F6
:1020B80040E5FB1214EE909451E475F001121740BC
:1020C800E5FC1214EE02215A909451E475F00112C5
:1020D8001740E5FA1214EE909451E475F0011217C6
:1020E80040E5FB1214EE806A909451E475F00112F9
:1020F8001740E5FA1214EE80598057D2FBD2FAD273
:10210800F9D2F8D2FE20FEFD909451E475F0011248
:102118001740E5FA1214EE909451E475F001121785
:1021280040E5FB1214EE909451E475F0011217404B
:10213800E5FC1214EE909451E475F001121740E595
:10214800FD1214EE90945474FF75F0FC12151202EF
:10215800202AE4F5F8D2AF2290944FEEF0A3EFF0E6
:10216800A31217577B007A007900C003C002C00190
:10217800909451121737D082D083D0E06B7008E961
:1021880065827003EA658370030223CB909454E060
:10219800FEA3E04E70030223CB909454E0A3E0FF2B
:1021A800EEC313FEEF13FF90944FE0FCA3E02FFF64
:1021B800EE3CFED3EF94FEEE94FF40030223CBC225
:1021C800AF90944FE0A3E05401909456F090944F50
:1021D800E0FEA3E0FFEEC313FEEF13FF90944FEE73
:1021E800F0A3EFF090944FE0FEA3E07810CEC31375
:1021F800CE13D8F9F5F190944FE0FEA3E0EEF5F296
:1022080090944FE0A3E0F5F3E4F5F875F401D2FFFC
:1022180030FCFDC2FD909456E064017072909454B5
:10222800E0FEA3E064014E700AC2FBC2FAD2F9C212
:10223800F88008C2FBC2FAD2F9D2F8909454E0FEB2
:10224800A3E064014E701A90945175F00112174082
:102258001214A8F5FC90945474FFF5F0121512802E
:1022680029909451E475F0011217401214A8F5FC56
:10227800909451E475F0011217401214A8F5FD90DE
:10228800945474FF75F0FE121512D2FE20FEFD90D4
:102298009454E0FEA3E04E70030223C6909454E0E9
:1022A800A3E0C39404EE9400400302236F90945477
:1022B800E0A3E08EF012178622E4000122DA000281
:1022C80022D00003000022ECD2FBD2FAD2F9C2F8E5
:1022D8008012D2FBD2FAC2F9C2F88008D2FBC2FA45
:1022E800C2F9C2F8909454E0FEA3E08EF01217866B
:1022F8002357000123370002230800030000236648
:10230800909451E475F0011217401214A8F5FA9050
:102318009451E475F0011217401214A8F5FB90943B
:1023280051E475F0011217401214A8F5FC802F90A3
:102338009451E475F0011217401214A8F5FA90941C
:1023480051E475F0011217401214A8F5FB800F90A4
:102358009451E475F0011217401214A8F5FAD2FE50
:1023680030FE5B80FB8057D2FBD2FAD2F9D2F890CC
:102378009451E475F0011217401214A8F5FA9094DC
:1023880051E475F0011217401214A8F5FB9094510E
:10239800E475F0011217401214A8F5FC909451E46A
:1023A80075F0011217401214A8F5FDD2FE20FEFDAB
:1023B80090945474FF75F0FC121512022297E4F5FC
:1023C800F8D2AF227BFF7A3979E778077C947D01D0
:1023D8007E007F201214827B017A947907909429D9
:1023E80012175790942C121757E4909427F0A3F0E3
:1023F800909427E0FEA3E0C3EE94024003022495E4
:10240800909427E0A3E07803C333CE33CED8F924E1
:1024180000FFEE3420FEE4FCFD9094521216EE907C
:102428009456E4F0A37408F07D007C307F5A123291
:10243800867B017A947907909454E4F0A37410F0A1
:102448007F007E30121EF390942912173712153E22
:10245800645A7004E5F064A5602690942C1217372E
:1024680012153EB4A527E5F0B45A2290942C121701
:102478003778387C927D017E007F08121482800DA7
:10248800909427E475F0011215120223F8E4909451
:1024980027F0A3F0909427E0FEA3E0C3940AEE94FB
:1024A8000040030226277BFF7A3A7907782F7C942D
:1024B8007D017E007F201214827B017A9179F17868
:1024C8002F7C947D017E007F1A121482909427E05D
:1024D800FEA3E0FF7C007D1B121500EF2464FFE4DF
:1024E8003E909433F0A3EFF09094387401F09094F8
:1024F80027E0FEA3E090925B75F00612172BEE75AD
:10250800F006A42583F583E0FEA3E0FF7B017A941F
:10251800792F909454E4F0A37420F01221607B0189
:102528007A92790B782F7C947D017E007F1A1214A1
:1025380082909427E0FEA3E0FF7C007D1B1215002B
:10254800EF2464FFE43E909433F0A3EFF0909438C6
:102558007401F0909427E0FEA3E090925D75F00678
:1025680012172BEE75F006A42583F583E0FEA3E091
:10257800FF7B017A94792F909454E4F0A37420F0AF
:102588001221607B017A927997782F7C947D017E65
:10259800007F1A121482909427E0FEA3E0FF7C00CB
:1025A8007D1B121500EF2464FFE43E909433F0A3E2
:1025B800EFF0909427E0FEA3E0FF121500EF2464EB
:1025C800FFE43E909439F0A3EFF0909427E0FEA347
:1025D800E0FF121500EF247DFFE43E90943DF0A348
:1025E800EFF0909427E0FEA3E090925F75F006125A
:1025F800172BEE75F006A42583F583E0FEA3E0FF14
:102608007B017A94792F909454E4F0A37420F0120B
:102618002160909427E475F00112151202249C227F
:102628007B007A0079009094071217579092C0E0C7
:10263800640160030226BF9092BBE0FF9092DDE048
:10264800D39F4011E09092BBF090935E1216FA006F
:1026580000000080629092BBE0FF9092DDE06F7016
:1026680056FFFEFDFC90935E1216E2D31216B1409F
:102678003890935E1216E2C3E50E9BFFE50D9AFEB5
:10268800E50C99FDE50B98FCE47B0AFAF9F8C3120E
:1026980016B150237B017A9279DE9092DDE0FD7CC1
:1026A800001219AB123943800EAF0EAE0DAD0CAC53
:1026B8000B90935E1216EE9092B1E030E03AE02073
:1026C800E1299092BC1216E2C3E50E9BFBE50D9A38
:1026D800FAE50C99F9E50B98F89092C5E0FFE4FC4F
:1026E800FDFEC31216B150030227D49092B1E03018
:1026F800E12DA3E004F080279092BC1216E2C3E516
:102708000E9BFFE50D9AFEE50C99FDE50B98FCE4A0
:102718007BF47A01F9F8D31216B140030227D4905A
:1027280092B2E0700312295BAF0EAE0DAD0CAC0B8C
:102738009092BC1216EE9092B1E054FDF0E054FE77
:10274800F07B017A9279B2121C659092B2E0C39440
:1027580001748094805070E075F00EA424CFF97451
:102768009235F0FA7B0178C17C927D017E007F0E64
:102778001214829092C3E0640370117B017A9279FB
:10278800C1122D0C9092B1E04401F0229092C3E066
:10279800640670389092C9E0FEA3E0FF7B017A944A
:1027A800790A909454E4F0A37402F0121EF37B01AA
:1027B8007A9279C190940AE0FCA3E0FD122E27904A
:1027C80092B1E04401F022E49092B2F022E49094B5
:1027D80007F0A3F0E50F20E00302295A7B017A9461
:1027E8007907909454E4F0A37402F07F147E501299
:1027F8001EF3909407E0FEA3E04E700302295A905E
:102808009407E0A3E08EF01217862933A00029333D
:10281800A0012933A002290AA400290FA401291420
:10282800A4A02914A4A12914A4A22914A4A3291496
:10283800A4A42914A4A52914A4A62914A4A7291476
:10284800A4A82914A4A92914A4AA2914A4AB291456
:10285800A4AC2914A4AD2914A4AE2914A4AF291436
:10286800A4B02914A4B12914A4B22914A4B3291416
:10287800A4B42914A4B52914A4B62914A4B72914F6
:10288800A4B82914A4B92914A4BA2914A4BB2914D6
:10289800A4BC2914A4BD2914A4BE2914A4BF2914B6
:1028A800A4C02914A4C12914A4C22914A4C3291496
:1028B800A4C42914A4C52914A4C62914A4C7291476
:1028C800A4C82914A4C92914A4CA2914A4CB291456
:1028D800A4CC2914A4CD2914A4CE2914A4CF291436
:1028E800A4D02914A4D12921A4F02921A4F12921B3
:1028F800A4F22921A4F3292EA600293EA60100004E
:10290800293E1234EF802F120016802A909407E097
:10291800FEA3E0FF12380C801D909407E0FEA3E0B0
:10292800FF1237C38010123008800B909407E0FE26
:10293800A3E0FF123163E4909407F0A3F07B017ADF
:10294800947907909454F0A37402F07F147E501287
:102958002160227BFF7A3A7967780C7C947D017E2E
:10296800007F28121482E4909434F0A3F0909434F9
:10297800E0FEA3E0C39401EE94004003022A9F9076
:102988009434E0A3E07803C333CE33CED8F924B42B
:10299800F58274923EF583E0FF909472E0FCA3E028
:1029A800FDEF6D7001EC6003022A92909434E0FE12
:1029B800A3E07803C333CE33CED8F924B5F58274B7
:1029C800923EF583E0FEA3E0FF7B017A94790C90B8
:1029D8009454E4F0A37402F0121EF3909434E0FED1
:1029E800A3E07803C333CE33CED8F924B7F5827485
:1029F800923EF583E0FEA3E0FF7B017A94790E9086
:102A08009454E4F0A37402F0121EF390940EE0FEC6
:102A1800A3E0FF90940CE0FCA3E06F7002EC6E6002
:102A280069909434E0FEA3E07803C333CE33CED864
:102A3800F924B7F58274923EF583E0FEA3E0FF7BAC
:102A4800017A94790C909454E4F0A37402F0122162
:102A580060909410E4F0A3745AF0909434E0FEA3CC
:102A6800E07803C333CE33CED8F924B9F582749213
:102A78003EF583E0FEA3E0FF7B017A947910909401
:102A880054E4F0A37402F0122160909434E475F0D9
:102A98000112151202297522E50F30E0167B017A22
:102AA800947972909454E4F0A37402F07F147E0039
:102AB800121EF3E50F20E203022BDD909472E0FE74
:102AC800A3E0642C4E6003022B577B017A94790DA6
:102AD800909454F0A37402F07FA07ECC121EF39061
:102AE800940DE0FEA3E0FFEEC4F854F0C868FEEFD2
:102AF800C4540F48EE540F909407F0A3E4F0909458
:102B080007E0FCA3E0FD90940DE0FEA3E07807CE7B
:102B1800C313CE13D8F9541FFFECFEED4FFF90946A
:102B280007EEF0A3EFF090940DE0A3E0547F9094AB
:102B380009F0A3E4F004A3F0A3F0FB7A94790790DA
:102B48009454E4F0A37406F07F207ECC1221607BBD
:102B5800017A947907909454E4F0A37402F07F16F4
:102B68007E00121EF3909407E0FEA3E04E6024E47A
:102B7800909407F0A3F07B017A947907909454F02D
:102B8800A37402F07F167E00122160E4909470F026
:102B9800A3F022909470E0FEA3E0C39458EE940250
:102BA800500B909470E475F00112151222909470F5
:102BB800E0FEA3E0B4581EEEB4021A909470E475D7
:102BC800F001121512909472E0FEA3E04E6006E444
:102BD800FFFE12385422C0E0C0F0C083C082C0D0CB
:102BE80075D000C000C001C002C003C004C005C049
:102BF80006C007C2AF758CBC758ACD909460E47529
:102C0800F001121512909460E0FEA3E0D394E8EE70
:102C180094034018909460E4F0A3F0A375F00112B7
:102C2800151290945EE475F00112151243C90190D3
:102C3800946C1216D6E47B01FAF9F81215C0909438
:102C48006C1216EE909464E475F0011215129094CB
:102C5800661216D6E4F81215C09094661216EE9015
:102C6800946AE0FEA3E0FFE4FCFD7BDC7AFFF8D386
:102C780012169B400A90946AE475F0011215120529
:102C880009E50970020508AF0EAE0DAD0CAC0BE4FA
:102C98007B01FAF9F81215C08F0E8E0D8D0C8C0B76
:102CA800E47B64121609AC00AD01AE02AF03E4FB8D
:102CB800FAF9F8C31216B17003430A02E47BF47AF6
:102CC80001F9F8AF0EAE0DAD0CAC0B121609AC0045
:102CD800AD01AE02AF03E4FBFAF9F8C31216B17006
:102CE80003430A04430A01D2AFD007D006D005D067
:102CF80004D003D002D001D000D0D0D082D083D06D
:102D0800F0D0E03290940C121757E4909411F090A0
:102D1800940C1217379000011214C1FF909411E01F
:102D2800FE04F074122EF582E43494F583EFF090EB
:102D38009411E0FF04F074122FF582E43494F583C3
:102D48007403F090940C12173790000A121569E575
:102D5800F0FF909411E0FE04F074122EF582E43432
:102D680094F583EFF090940C12173790000A12151F
:102D780069FF909411E0FE04F074122EF582E43499
:102D880094F583EFF090940C121737900003121407
:102D9800C1FFE4909411E0FE04F074122EF582E471
:102DA8003494F583E4F090940C12173790000312D2
:102DB80014C1FF909411E0FE04F074122EF582E421
:102DC8003494F583EFF07B017A947912909411E0B2
:102DD800FD7C0012338890940FEEF0A3EFF09094EE
:102DE8000FE0FEA3E0EEFFA3E0FE04F074122EF560
:102DF80082E43494F583EFF090940FE0A3E0FFA30E
:102E0800E0FE04F074122EF582E43494F583EFF0BA
:102E18007B017A947912909411E0FD123620229069
:102E2800940C12175790940FECF0A3EDF0E49094E3
:102E380013F090940C1217379000011214C1FF90F0
:102E48009413E0FE04F074142EF582E43494F583B0
:102E5800EFF0909413E0FF04F074142FF582E4343B
:102E680094F5837406F090940C12173790000A12A8
:102E78001569E5F0FF909413E0FE04F074142EF544
:102E880082E43494F583EFF090940C121737900095
:102E98000A121569FF909413E0FE04F074142EF5DD
:102EA80082E43494F583EFF090940FE0FEA3E0EE13
:102EB800FF909413E0FE04F074142EF582E4349429
:102EC800F583EFF090940FE0A3E0FF909413E0FEF9
:102ED80004F074142EF582E43494F583EFF07B014A
:102EE8007A947914909413E0FD7C001233889094BE
:102EF80011EEF0A3EFF0909411E0FEA3E0EEFFA333
:102F0800E0FE04F074142EF582E43494F583EFF0B7
:102F1800909411E0A3E0FFA3E0FE04F074142EF5F2
:102F280082E43494F583EFF07B017A9479149094D9
:102F380013E0FD123620229094521216FA00003047
:102F480000909456E4F0A3740AF07D007C307F5A18
:102F58001232867B017A9379EF909454E4F0A3744B
:102F680014F07F007E30121EF3E4909407F09094E2
:102F780007E0C3940674809480506EE025E025E055
:102F880024EFF582E43493F5831216D6E4FBFAF9BC
:102F9800F8C31216B16022909407E025E025E024DA
:102FA800EFF582E43493F5831216D67B3F7A4279A3
:102FB8000F7800C31216B15028909407E025E02539
:102FC800E024CFF582E43493F5831216D690940763
:102FD800E025E025E024EFF582E43493F58312162A
:102FE800EE909407E004F080857B017A9379EF9066
:102FF8009454E4F0A37414F07FA07EA612216022FA
:103008007B017A947909909454E4F0A37410F07FCA
:10301800207EA6121EF3909409E0A3E025E025E0A7
:1030280024F3F582E43493F5831216D690940D12A6
:1030380016E2C31216B160087F077E0012385422C8
:103048009094151216D69094111216E2C31216B166
:1030580060087F087E00123854229094111216D608
:10306800909409E0A3E025E025E024F3F582E43418
:1030780093F5831216EE123910E490941DF0909493
:103088001DE0C3940A748094805018E025E0240958
:10309800F582E43494F583E4F0A3F090941DE00401
:1030A800F080DB7B017A947909909454E4F0A3745E
:1030B8000CF07F227EA6122160227594017595027C
:1030C800758E0075930075C87075C96075F80078BD
:1030D8007FE4F6D8FD75811002311E023779E4933A
:1030E800A3F8E493A34003F68001F208DFF48029F3
:1030F800E493A3F85407240CC8C333C4540F4420E2
:10310800C8834004F456800146F6DFE4800B0102D0
:10311800040810204080900100E47E019360BCA365
:10312800FF543F30E509541FFEE493A360010ECF1E
:1031380054C025E060A840B8E493A3FAE493A3F848
:10314800E493A3C8C582C8CAC583CAF0A3C8C58208
:10315800C8CAC583CADFE9DEE780BE909409EEF0ED
:10316800A3EFF07B017A94790B909454E4F0A37464
:1031780002F074A0FFFE121EF3909409E0FEA3E093
:103188008EF0121786319DA00031A7A00131C6A08C
:1031980002000031E290940BE4F0A304F080429026
:1031A800940BE0FEA3E064014E700A90940BF0A328
:1031B8007403F0802CE490940BF0A3F08023909497
:1031C8000BE0FEA3E064034E70077FAA7EA41238CA
:1031D8000CE490940BF0A3F08007E490940BF0A318
:1031E800F07B017A94790B909454E4F0A37402F084
:1031F80074A0FFFE12216022C0E0C0F0C083C0822C
:10320800C0D075D000C000C004C006C00790945B51
:10321800E4F0C2AFE59B30E03DE59CF0E0FF909024
:10322800EBE0FCA3E024F1F58274903CF583EFF029
:103238009090EBE475F001121512539BFE539BFE20
:103248009090EBE0FEA3E0C39480EE9400400790DA
:1032580090EBE4F0A3F0E59B30E10B539BFD539B0F
:10326800FD9090EAE4F043C901D2AFD007D006D070
:1032780004D000D0D0D082D083D0F0D0E032909467
:103288004FEFF0A3ECF0A3EDF0E4F5F1F5F275F3F0
:103298000475F40175F88F30FCFD90944FE0F5FA51
:1032A8009094521216D678101216C28FFB90945230
:1032B8001216D678081216C28FFC9094521216D69F
:1032C800EF54FEFFE48FFDD2FE20FEFD909450E007
:1032D800FEA3E0EEF5FA909450E0A3E054FEF5FB6F
:1032E800909456E0FEA3E0EEF5FC909456E0A3E03F
:1032F80054FEF5FDD2FE20FEFDE4F5F87F04FE1233
:10330800367A2290940DEEF0A3EFF090940DE0FE43
:10331800A3E04E70041238DA2290940DE0FEA3E088
:1033280064014E70041236D32290940DE0FEA3E09F
:1033380064024E604A90940DE0A3E064034E703F2F
:10334800A3F090940FE0C3940674809480502DE00D
:1033580025E025E024CFF582E43493F5831216D6D0
:1033680090940FE025E025E024EFF582E43493F50E
:10337800831216EE90940FE004F080C612391022E2
:1033880090942812175790942BECF0A3EDF0A374A7
:10339800FFF0A3F090942B74FFF5F012152845F078
:1033A800604D909428E475F0011217401214A8FF9C
:1033B80090942DE06FFF90942FE4F0A3EFF0909499
:1033C8002FE0FEA3E02469F582748E3EF583E0FFCA
:1033D80090942EE06F90942DF090942FE0A3E02429
:1033E80069F582748F3EF583E090942EF080A59065
:1033F800942DE0FEA3E0FDEEEDFF22C0E0C0F0C09A
:1034080083C082C0D075D000C000C004C006C00709
:1034180090945CE4F0C2AFE59754016401703AE51A
:103428009FF0E0FF9090EDE0FCA3E02471F582743A
:10343800913CF583EFF09090EDE475F001121512D0
:103448005397FE9090EDE0FEA3E0C39480EE9400C5
:1034580040079090EDE4F0A3F043C901D2AFD00744
:10346800D006D004D000D0D0D082D083D0F0D0E025
:1034780032C0E0C0F0C083C082C0D075D000C000A8
:10348800C004C006C00790945DE4F0C2AFE5AB5439
:10349800016401703AE5ADF0E0FF9090EFE0FCA325
:1034A800E02469F58274903CF583EFF09090EFE4A6
:1034B80075F00112151253ABFE9090EFE0FEA3E0F9
:1034C800C39480EE940040079090EFE4F0A3F0439B
:1034D800C901D2AFD007D006D004D000D0D0D08256
:1034E800D083D0F0D0E0327BFF7A00796678097C0F
:1034F800947D017E007F041214827B017A947909FD
:10350800909454E4F0A37404F07F207EA4121EF378
:10351800909364E0FF7B017A94790912372BEF606E
:103528000D12389B909364E09093CBF080077F0551
:103538007E001238547E007F047D007B017A9479E6
:103548000912195D7B017A947909909454E4F0A3E7
:103558007404F07F207EA412216022C0E0C083C0E2
:1035680082C0D075D000C006C00790945AE4F0C25B
:10357800AF309830E599F09092DDE0C39480748084
:103588009480501E90945AE0FF9092DDE0FE04F083
:1035980074DE2EF582E43492F583EFF09092C074D5
:1035A80001F0C298309907C2999090E9E4F0D2AF3F
:1035B800D007D006D0D0D082D083D0E03290940FFC
:1035C800EEF0A3EFF090940FE0FEA3E0D394D1EED9
:1035D80094A4501990940FE0A3E025E0FFEE33FE89
:1035E80074282FF582744A3EF583E0FF2290940FE9
:1035F800E0FEA3E0D394F3EE94A4501990940FE066
:10360800A3E025E0FFEE33FE74082FF582744A3EEE
:10361800F583E0FF227F0522909428121757909493
:103628002BEDF07B007A007900C003C002C0019046
:103638009428121737D082D083D0E06B7008E965E0
:10364800827003EA6583602990942BE0602390944C
:103658002BE0FF14F0EF601990942812173712141A
:10366800A8FF1239A0909429E475F0011215128070
:10367800DD22909458EEF0A3EFF0E4F5F190945821
:10368800E0FEA3E0EEF5F2909458E0A3E0F5F3E451
:10369800F5F4E4909458F0A3F0909458E0FEA3E079
:1036A800C394E8EE9403500F85FCFB909458E4759E
:1036B800F00112151280E275F8AF30FCFDD2FE2041
:1036C800FEFDE4F5F8AFFAEF70C8227E007F087DB2
:1036D800007B017A92793812195D7B017A927938E8
:1036E800909454E4F0A37408F07F007E30122160B7
:1036F80090923AE0FEA3E07803C333CE33CED8F9F4
:103708002400FFEE3420FEE4FCFD9094521216EEE5
:10371800909456E4F0A37404F07D007C307FA512E9
:1037280032862290940DEFF0A312175790940DE073
:1037380070037F012290940DE075F004A424EFF942
:10374800749335F0FA7B01C003C002C001A31217BD
:1037580037A801AC02AD03D001D002D0037E007FB0
:1037680004121939EF3395E04F70037F01227F006F
:103778002212006E1239D91223CC122F3FE50A30DB
:10378800E01C430F01E50A30E103430F02E50A306C
:10379800E203430F04530AFE530AFD530AFB43C9CD
:1037A80001122628122AA01227D5E50F30E0CE53A1
:1037B8000FFE530FFD530FFB80C322909409EEF0C8
:1037C800A3EFF0909409E0FEA3E02410FFEE345B31
:1037D800909362F0A3EFF0909409E0A3E0FF123514
:1037E800C5909364EFF0909472E0FEA3E0FF90938D
:1037F80065EEF0A3EFF09093CC7401F07F047E00A7
:103808001238542290940DEEF0A3EFF090940DE04E
:10381800FEA3E02460FFEE345B9093CDF0A3EFF0BD
:10382800909472E0FEA3E0FF909365EEF0A3EFF0B2
:1038380090940DE0FEA3E0FF1235C5909364EFF07D
:10384800E49093CCF07F04FE1238542290941EEE3C
:10385800F0A3EFF07BFF7A00795E78207C947D01FD
:103868007E007F0412148290941EE0FEA3E0EE9086
:103878009422F090941EA3E0909423F07B017A9414
:103888007920909454E4F0A37404F07F847E0012AD
:103898002160229093CCE012176038AC0038C30145
:1038A800000038D99093CDE0FEA3E0FF1238549081
:1038B80093CDE0FEA3E0FF12008622909362E0FE23
:1038C800A3E0FF12330B909365E0FEA3E0FF1238EC
:1038D8005422909410E4F0A3745AF07B017A9479FE
:1038E80010909454E4F0A37402F07F207EAC12216F
:1038F800607B017A947910909454E4F0A37402F0F8
:103908007F807EAC122160227B017A9379EF9094BC
:1039180054E4F0A37414F07F007E30122160909478
:10392800521216FA00003000909456E4F0A3740A7C
:10393800F07D007C307FA512328622E49092DDF083
:103948009092C0F0FE7F80FD7B017A9279DE121999
:103958005DE49092BBF090935E1216FA00000000AE
:103968002243B71043C940E49090E9F075D88075B8
:10397800985053877F75BA0375AA58D29CD2AC2247
:1039880075F90175B70375BC03E4F5BD75BE0CF593
:1039980080F590F5A0F5B02290942CEFF09090E986
:1039A800E0640160F87401F090942CE0F5992275B8
:1039B800C870E4F5CDF5CC75CBFF75CAEF43A820E8
:1039C800D2C822438901758CBC758ACDD2A9D28C04
:1039D800221239439092BC1216FA0000000022000D
:1039E80000000000000000000000000000000000CF
:1039F80000000000000000000000000000000000BF
:103A080000000000000000000000000000000000AE
:103A1800000000000000000000000000000000009E
:103A2800000000000000000000000000000000008E
:103A3800000000000000000000000000000000007E
:103A4800000000000000000000000000000000006E
:103A5800000000000000000000000000000000005E
:103A6800000000000000000000000000000000004E
:103A7800000000000000000000000000000000003E
:103A8800000000000000000000000000000000002E
:053A9800000000000029
:00000001FF
